:1000000000800020BD010000D5280000D528000098
:10001000D5280000D5280000D5280000A128000020
:10002000A1280000A1280000A1280000D528000078
:10003000D5280000A1280000D52800009128000044
:1000400085130000851E0000D528000065170000FC
:10005000D5280000D5280000D5280000D5280000AC
:10006000D5280000D5280000D5280000D52800009C
:10007000D5280000D5280000D5280000D52800008C
:10008000D5280000D5280000D5280000D52800007C
:10009000D5280000D5280000D5280000D52800006C
:1000A000D5280000D5280000D5280000D52800005C
:1000B000D5280000D5280000D5280000D52800004C
:1000C000D5280000D5280000D5280000D52800003C
:1000D000D5280000D5280000D5280000D52800002C
:1000E000D5280000D5280000D5280000D52800001C
:1000F000D5280000ED330000D5280000653700004A
:10010000D5280000293A0000D5280000D528000095
:10011000D5280000D5280000D5280000D5280000EB
:10012000D5280000D5280000D5280000D5280000DB
:10013000D5280000D5280000D5280000D5280000CB
:10014000D5280000D5280000D5280000D5280000BB
:1001500065060000D5280000D51D0000A91F00007D
:10016000D5280000E93C0000D5280000D528000073
:10017000D5280000D5280000D5280000D52800008B
:10018000D5280000D5280000D5280000D52800007B
:10019000D5280000F9100000D5280000D52800005F
:1001A000ED0F0000A9100000D52800005910000034
:1001B000D5280000D5280000994800004E4B4CF28D
:1001C000205210B51A804DF628121A8000BF00BFC9
:1001D00002F083FB494B4FF010621A60484A9A6064
:1001E000484ADA60484B1A6812F4807204D14749D1
:1001F0000A604FF4A8521A60454B1A7802F00802C0
:10020000D2B21AB11A7842F008021A700023414A99
:100210004148424C02E019599950043399188142DF
:10022000F9D33F4B3F4A002101E043F8041B9342BE
:10023000FBD33D4B00221A603C4B3D4A802103F822
:10024000011B9342FBD13B4B0A221A703A4B2422EA
:100250001A70A02203F8012C384A137803F0020325
:10026000DBB2002BF9D0354A137803F01003DBB270
:10027000002BF9D1314A137803F00C03082BFAD183
:100280002F4B03221A7040225A702C4A137803F025
:100290002003DBB2002BF9D0284A137803F0400387
:1002A000DBB2002BF9D0274A274B1A60274B2022BC
:1002B0001A70224A137803F00C030C2BFAD1244B4A
:1002C00002221A60234A43F8442C234B234A1A6023
:1002D000072243F8042C62B602F04FFE0B4B1B685A
:1002E000DC0702D51E4802F0EDFB05F0A9FF02F085
:1002F000FBFA01F097F8FEE70E200540308004403D
:10030000823F04000100002B10D0034014D00340B2
:1003100002D007400084FF1F10B9FF1F7CB6000009
:1003200010B9FF1FB8CFFF1F08ED00E000E400E0A8
:100330005FE400E0005006400140064006400640F1
:100340000440064000000301448004400040064091
:1003500048800440C010050014E000E0FF76010072
:1003600000DD6850FFFFFFFFFFFFFFFFFFFFFFFF04
:10037000FFFFFFFFFFFFFFFFFFFFFFFFFFFFFFFF8D
:10038000FFFFFFFFFFFFFFFFFFFFFFFFFFFFFFFF7D
:10039000FFFFFFFFFFFFFFFFFFFFFFFFFFFFFFFF6D
:1003A000FFFFFFFFFFFFFFFFFFFFFFFFFFFFFFFF5D
:1003B000FFFFFFFFFFFFFFFFFFFFFFFFFFFFFFFF4D
:1003C000FFFFFFFFFFFFFFFFFFFFFFFFFFFFFFFF3D
:1003D000FFFFFFFFFFFFFFFFFFFFFFFFFFFFFFFF2D
:1003E000FFFFFFFFFFFFFFFFFFFFFFFFFFFFFFFF1D
:1003F000FFFFFFFFFFFFFFFFFFFFFFFFFFFFFFFF0D
:10040000FFFFFFFFFFFFFFFFFFFFFFFFFEFFFFFFFD
:1004100008B54BF61010074BC1F6FF701B1A062BE0
:1004200000D808BD40F20003C0F20003002BF8D052
:100430009847F6E713B9FF1F08B54BF610104BF6B7
:100440001013C1F6FF70C1F6FF731B1A9B1003EB6C
:10045000D373591000D108BD40F20002C0F200026F
:10046000002AF8D09047F6E710B54BF61014C1F605
:10047000FF74237873B9FFF7CBFF40F20003C0F29B
:1004800000032BB14BF27C60C0F20000AFF30080A0
:100490000123237010BD00BF08B540F20003C0F275
:1004A00000034BB14BF27C604BF61411C0F200001C
:1004B000C1F6FF71AFF300804BF61010C1F6FF706C
:1004C00003682BB140F20003C0F2000303B1984768
:1004D000BDE80840FFF7B0BF094B102210F0010F34
:1004E0001A6000F0020014BF064A074A0123C0B296
:1004F0001360132308B1054A00E0054A13607047F2
:1005000008F00F4004F10F4008F10F4044F00F4095
:1005100048F00F40194B1A491A6842F0020210B510
:100520001A6053F8042C42F0020243F8042C154AD6
:100530000023136002F580526FF003041160938072
:10054000D360114A12685069104A106010480222A4
:100550000280446040F2011420F80E4C40F80C2C4C
:100560004280428102810B4AA921137011700A4A0C
:1005700013700A4B01221A6010BD00BF4080044076
:1005800010B00B400080004008CDFF1F10900040CD
:1005900014900040001002401B80004000E100E089
:1005A0001D4B1A6842F04D0270B51C3343F81C2CE9
:1005B0001A6842F087021A601A681206FCD4174BB8
:1005C000186810F0400024D15A699E69DD691C6AE0
:1005D000596AB218283352191B6812195218D218C6
:1005E000C2F34E020E4B42F400421A60DA6A1E6BEE
:1005F0005D6B9C6BD96BB218403352191B68121992
:100600005218D218C2F34E02064B42F400421A604E
:1006100070BD012070BD00BF08B00B4024B00B407E
:100620002CB00B4030B00B40084B1B6810B59974D0
:1006300004460020FFF750FF054B1A6814B142F042
:10064000010201E022F001021A6010BD08CDFF1F77
:1006500008710340024B1B6818805980704700BF27
:1006600008CDFF1F08B5204B01221A601F4B1B68E5
:100670001989188A89B288420BD81D4918880860E0
:1006800058884860886840F02000886000211981FF
:100690009A741A8992B2012A06D100229A74154AD4
:1006A000116821F0200111601A89598992B2914292
:1006B00012D99A7C32B1D87C421CDA7400F0030063
:1006C000FFF70AFF094B1B689A890B4B02F01F02C8
:1006D00042F040021A6008BD1A8992B212B11A891A
:1006E00001321A8108BD00BF0C71034008CDFF1F05
:1006F00018B00B4020B00B4000B00B40012802D1D5
:100700000846FFF7E9BE024B10221A60704700BF8F
:1007100004F00F40114B1A6842F480721A60104BBB
:100720001A6842F010021A60102243F8102C103B95
:10073000A3F532231A6842F480721A60094B1A68D2
:1007400042F002021A60084B1A6842F480721A6082
:10075000064B1A6842F400221A6070471090044059
:1007600014F00F4014F10F404CA0044054F00F401F
:10077000204B1A6810B5204C42F0006220601A60CD
:10078000FFF7C8FFFFF70CFF2368D8895989411884
:1007900019821A49002228201A81DA740860184840
:1007A00010210160446944F03C0444611C8882616A
:1007B000C4605C88046113484FF080640460124890
:1007C000046844F01F0404601048046844F4000402
:1007D00004600F4802600F4A11605B680E4AB2FB6A
:1007E000F3F20E4B013A1A6002229A60BDE8104003
:1007F000FFF790BE3080044008CDFF1F08B00B40CB
:100800000CB00B4004E100E000B00B403C80044021
:100810000070034008E100E0006CDC02007103405E
:10082000044B1A68044B1A60044B1B681A89013286
:100830001A817047247103400CCDFF1F08CDFF1FA4
:10084000104B1A68D20703D41A6842F001021A60EA
:100850004FF4FA7358430C4B18600C4B4FF40012D2
:100860001A600B4B01221A601A6842F004021A60E7
:10087000402243F8042C53F8042C42F0010243F8C0
:10088000042C7047388004400800044008E100E070
:1008900004000440064B0A21002201391A609A62C2
:1008A0001A659A67043311F0FF01F6D1704700BF53
:1008B00028CDFF1F1FB5134B0722002001211A70FE
:1008C000FFF7B2FE0120342101F03AFB0E4801F09F
:1008D00092F96D238DF800300C4B0D4A93F8A4303B
:1008E0008DF8013013786846013313708DF80230AB
:1008F00001F0A0F801F027F80028FBD101F0C0F8C2
:1009000005B000BD23CDFF1FBCCFFF1F28CDFF1FAB
:1009100025CDFF1F30B5154B154C1A7801321A70D2
:1009200094F8D230834285B005461CD90120014697
:10093000FFF77AFE052303FB0540A03001F05BF9C9
:1009400074238DF8003094F8A43068468DF8013097
:1009500001F070F800F0F7FF0028FBD101F090F8EB
:100960000120FFF76DFF05B030BD00BF14CDFF1FA4
:1009700028CDFF1F70B50F4E83780F4D337043782D
:100980000E4C2B70012323700D4B062234210020C6
:100990001A7001F0D5FA01F0EBFA40F6C41002F03B
:1009A000D7FA3378022B94BF28782078BDE87040BE
:1009B000FFF7B0BF25CDFF1F24CDFF1F14CDFF1FB4
:1009C00023CDFF1F1FB51E4801F015F970238DF8C8
:1009D00000301C4B93F8A4208DF801201A68110EEA
:1009E0008DF80210110C8DF803108DF80520110AF6
:1009F0009A6A8DF804101B6D8DF80920110E8DF880
:100A00000610110C8DF80710110A1A0E8DF80A2025
:100A10001A0C8DF80B2068461A0A8DF808108DF80C
:100A20000C208DF80D3001F005F800F08CFF002847
:100A3000FBD101F025F8044B01221A7005B000BD6E
:100A40001DCDFF1F28CDFF1F22CDFF1F30B51C4A33
:100A5000012392F8D21030E00532457892F8A44094
:100A6000A54228D1C1788478154A090401EB0461B4
:100A7000047901EB04214479091942F82310C4795F
:100A80008579240404EB0564057A04EB0524457A92
:100A900003F10A01641942F82140C17A847A0904F9
:100AA00001EB0461047B407B143301EB0421091842
:100AB00042F8231030BD0133DBB28B42CCD3D1E7F7
:100AC00028CDFF1F1FB5134B1A78062A1FD0062208
:100AD0001A70114B114801221A70114B00221A7022
:100AE00001F089F863238DF800300E4B93F8A430A1
:100AF00068468DF8013000F09DFF00F024FF0028CB
:100B0000FBD100F0BDFFFFF7C5FEFFF75BFF05B0AF
:100B100000BD00BF23CDFF1F14CDFF1F1DCDFF1F44
:100B200025CDFF1F28CDFF1F2DE9F8432D4B1B7846
:100B3000022B55D1DFF8B8802B4F2C4C98F80010C1
:100B40003A7854F8210054F822300A310A32C31A94
:100B500054F8222054F821005B43801A00FB003037
:100B600000F0C9F90546E06FD4F88060404306FB09
:100B700016066B0005FB0566B6FBF3F606FB1600D2
:100B800000F0B9F93B7898F8002054F823C003F13D
:100B90000A0154F8217002F10A0154F82110C7EB40
:100BA000010909FB00F854F82210B8FBF5F8E044FD
:100BB000CCEB010C0CFB06FCBCFBF5FCC444C4F8FC
:100BC00000C054F8222054F82330D31A5843B0FB05
:100BD000F5F009FB06F63F1AB6FBF5F57D19A5629F
:100BE000BDE8F88325CDFF1F24CDFF1F28CDFF1FB3
:100BF0001CCDFF1F10B5ADF55A5D8CB0284C2948AF
:100C00000DF5BB52214610324FF47A7304F01EF8F2
:100C10000DF51C524FF47A7321462348103204F02C
:100C200015F80DF5BB50103069464FF4FA6200F02C
:100C3000DBF80DF51C5010300DF5FA614FF4FA6237
:100C400000F0D2F80DF5FA6069460DF57A624FF4BE
:100C50007A7304F0CFF8154B1A681A601868144BB1
:100C60001C78144B1B68C01A04F0BEFA0AA3D3E91F
:100C7000002304F02FFB104B002204F079F904F05C
:100C8000EBFD1E340D4B43F824000DF5D66D0DF52C
:100C9000405D10BDAFF3008048F949B54FC7D53F5F
:100CA0002CB9FF1FA493FF1F0484FF1F0CCDFF1F4F
:100CB00025CDFF1F18CDFF1F0000544028CDFF1F7A
:100CC00008B500F0DDFF012001F066F8BDE808403E
:100CD00000F0C6BF48B92A4B01291A6802D142F078
:100CE00080020AE022EAC11148E001280AD1244B1F
:100CF00001291A6803D142F010021A60704722EAF3
:100D000001113BE0022809D11D4B01291A6802D1CB
:100D100042F00102F1E722EA01012FE0032806D1A7
:100D2000184B01291A6827D142F40032E5E704285C
:100D300025D1134B01291A6811D142F080021A60A3
:100D40001A6842F010021A601A6842F001021A6032
:100D500053F8802C42F4003243F8802C704722EA8A
:100D6000C1121A601A6822EA01121A601A6822EA8D
:100D700001021A60034B1A6822EA41411960704768
:100D8000C0F00F4040F00F40144B1A68D20403D457
:100D90001A6842F480521A601B68104A5B0503D43B
:100DA000136843F4806313600D4B1A6842F4807239
:100DB0001A6053F80C2C42F4807243F80C2C53F850
:100DC0001C2C42F4807243F81C2C064B1A68042039
:100DD00042F4807200211A60FFF77CBF3880044023
:100DE0001CC0044044A004402DE9F04F9208043197
:100DF0006FF03E074FF00D0C79E00688B0F802A0C6
:100E00008588B0F8068034B20830002C03DA00235D
:100E1000D3FA14F400E034460FFA85F9B9F1000F63
:100E200003DA0023D3FA19F900E0A9460FFA8AF38E
:100E3000002B24B205DBC4EB030B4FEACB3B1B19A1
:100E400004E003EB040B4FEACB3BE31A9BFBF3FB01
:100E50000BFB0BF4E4130BFB04F4E4130CFB04F4A2
:100E60001AF4004F07FB0B4B4FEAAB2404F30F04BB
:100E70000EBF04F5C96404F5965418343304A4B2C3
:100E800001D56442A4B20FFA88F3002B0FFA89F659
:100E900005DBC6EB03094FEAC9399B1904E003EBF4
:100EA00006094FEAC939F31A99FBF3F909FB09F36B
:100EB000DB1309FB03F3DB130CFB03F307FB093321
:100EC0009B1218F4004F03F30F030EBF03F5C96321
:100ED00003F59653183315F4004F9BB201D05B42D3
:100EE0009BB221F8044C21F8023C013A0431002A5B
:100EF00083D1BDE8F08F4FF0804300E09B08834230
:100F0000FCD80246002008E019188A4203D39A1838
:100F1000121A00EB430040089B08002BF4D17047E5
:100F2000274B1A68100503D41A6842F400621A604D
:100F30001B68234A590503D4136843F48063136084
:100F40001F4B1A68920403D41A6842F400521A60C4
:100F50001C4B1A6842F4302242F480721A601A4B19
:100F60001A6842F4302242F480721A60A3F5FF53EB
:100F70001A6842F4302242F480721A60134B1A68E5
:100F800042F4102242F480721A60114B4FF08072CA
:100F90001A604FF000721A604FF000621A600D4B39
:100FA0000D4A1B68002313700C4A11680C4A01F0AB
:100FB000010111700B4A12680B4A1370704700BF91
:100FC0003880044048A0044000D0044004A00440FD
:100FD00008E100E090F00F400ACEFF1F10F10F4033
:100FE00009CEFF1F50F00F4008CEFF1F144B1A68A8
:100FF00012F0020F10B51C4606D0124A136843F0D7
:1010000080731360FFF75EFD0F4B21681A7801F4BF
:10101000802191420FD00D4A116841F0807111601A
:10102000074A126800221A701B780BB1084800E0CA
:10103000084801F0DBF96420BDE8104001F088BFEA
:1010400050F00F4004A0044008CEFF1F48A0044009
:10105000DCB00000F4B0000008B50E4A0E4B10687A
:10106000197800F0010088420FD00C49086840F060
:1010700080700860126802F001021A701B780BB1D0
:10108000074800E0074801F0B1F96420BDE80840D6
:1010900001F05EBF10F10F4009CEFF1F00D00440E9
:1010A0000BB1000023B1000008B50E4A0E4B1068CA
:1010B000197800F4807088420ED00C49086840F01E
:1010C00080700860126800221A701B780BB1084803
:1010D00000E0084801F08AF96420BDE8084001F00A
:1010E00037BF00BF90F00F400ACEFF1F20B0044072
:1010F0003AB1000052B100001FB51F4B80221A60A8
:101100001A6822F001021A601C4B1B78062B04D1CE
:101110001B4B1878FFF7FEFB2CE01A4B1A78012ABC
:1011200011D1194800221A70FF2380F8A03080F8EE
:10113000A13080F8A23080F8A33090F8D230A030EF
:10114000037100F075FD114800F055FD77238DF80F
:1011500000300D4B93F8A43068468DF801307423AD
:101160008DF8023000F066FC00F0EDFB0028FBD1AA
:1011700000F086FC05B000BD0000044023CDFF1F39
:1011800014CDFF1F0CCEFF1F28CDFF1F1DCDFF1F4D
:10119000024B002283F8D220704700BF28CDFF1FEA
:1011A00030B50C4A92F8D2500135EDB2052303FB5D
:1011B000052382F8D2505219FF2483F8A04083F807
:1011C000A14083F8A24083F8A34083F8A40082F8EA
:1011D000D31030BD28CDFF1F30B51B4B85B093F821
:1011E000D220012425E0053393F8A41081421ED1BA
:1011F000164B186800F57A7000F0E6FF144B0546B0
:10120000052000FB043000F0F6FC65238DF800306B
:101210002B0E8DF801302B0C8DF8023068462B0A0E
:101220008DF803308DF8045000F004FC04E0013424
:10123000E4B29442D7D3DBE700F085FB0028FBD172
:1012400000F01EFC05B030BD28CDFF1F2471034007
:10125000C8CDFF1F7FB5464B00221A7000F0A5FCD9
:10126000002800F08380684600F01AFC9DF80030EA
:10127000633B142B7AD8DFE803F01D0B651A7979EC
:1012800079797979767979617917133C79792B00B5
:10129000384A9DF8014092F8D2100123052549E013
:1012A000684600F0E3FE61E000F0CEFE5EE000F094
:1012B0005FFE5BE0304B07221A709DF801202F4B38
:1012C0001A70FFF7E7FA0120342100F039FE4DE0F3
:1012D0009DF801403CB9274D95F8A400FFF7B0FAFE
:1012E00085F8D24042E020469DF80210FFF758FFF3
:1012F0003CE09DF80100FFF76FFF37E0184601332F
:1013000005FB032696F89F60A64213D19DF80310B3
:101310009DF80230090401EB03619DF8043001EBF4
:1013200003219DF8053000F11E02C918114B43F846
:1013300022101BE0D8B28842E0D317E06846FFF7DE
:1013400085FB13E09DF802209DF80130120402EBAA
:1013500003629DF8033002EB03229DF80430D2189B
:10136000074B1A6002E06846FFF704FB7FBD00BF31
:1013700010CDFF1F28CDFF1F23CDFF1F1CCDFF1F4A
:1013800018CDFF1F034B00221A70034B01221A7065
:10139000704700BF1F800040FCC0FF1F30B5154ADA
:1013A00085B0002382F8D2308DF801307722742383
:1013B00068468DF800208DF8023000F03BFB00F00D
:1013C000C2FA0028FBD10C4C0C4D00F059FB012354
:1013D00023700B4B05220A201A70FFF731FA04E044
:1013E0002B78012B01D1FFF735FF2378012BF7D0A4
:1013F00005B030BD28CDFF1F0CCEFF1F10CDFF1F45
:101400000DCEFF1F08B5064B1B78052B03D100201E
:10141000202100F025FABDE8084000F0C5B900BF62
:101420000DCEFF1F3F4B1A68F0B542F080721A6074
:101430003D4B3E4F3E4C00261E703E4B012589B071
:101440001D7007233B70FFF79FFC3B4A3B4B8DF819
:101450001A501A604FF47A73ADF81230384B039378
:101460000523ADF814304FF48063ADF816304FF417
:101470005973ADF8083040F2AA23ADF80A30314B69
:1014800002A80793FFF774F900F02EFAFF230E214C
:10149000284623706370A370E370237100F01AFB79
:1014A000204600F0B6FBFFF779FF274B274C1A6860
:1014B00042F480521A60264B1A6842F4003242F419
:1014C00080721A603046342100F03AFD214B1E70C4
:1014D000214B1D70FFF724FD204D2B78012B01D1EE
:1014E000FFF7B8FE3B78062B02D0072B04D101E0B2
:1014F0001B4802E01B4800E01B4800F077FF94F80F
:10150000A30094F8A01094F8A12094F8A2300090C1
:1015100094F8A4000190154800F068FF642001F0E1
:1015200017FDDAE74480044022CDFF1F23CDFF1FC3
:101530001DCDFF1F0DCEFF1F61460000A0CFFF1F76
:10154000C0270900FEC0FF1F3880044028CDFF1FC0
:1015500000C0044025CDFF1F14CDFF1F10CDFF1F7D
:1015600079B1000069B1000075B1000087B10000D9
:1015700072B60B4B0B491A680B4B1B68096862B6B5
:10158000490102D5322A88BF0133C2F5BB32FF328E
:101590006021B2FBF1F24FF47A7000FB0320704738
:1015A00018E000E004ED00E06CC9FF1FF8B5524DF3
:1015B000524B2A60174684B21822514E1880544369
:1015C000316008462246002105F062FA384627B10C
:1015D0000021224605F05CFA01E033682B60494D9A
:1015E000494F2B6843F020032B60484B1A6842F4A4
:1015F00080721A60464B1A6842F020021A60082076
:1016000001F09EFA0320434901F0A6FA0420414963
:1016100001F0A2FA03203C2101F02CFB0420B021B0
:1016200001F028FB3C4A3D4B3D481A603D4B1A688F
:101630001A603D4A3D4B1A603D4B02F500721A603C
:101640003C4B1A6842F002021A6053F8042C42F034
:10165000020243F8042C384B384A1F600121002352
:101660001380538051609360D060354813820480AA
:101670002246344CC0F80230082020806280204C82
:10168000D4F800C0304CC4F800C0C2F1000CA180F6
:10169000E380A160C4F80CC0DFF8C4C0C4F810C077
:1016A000A382E282A361A083E2832762A384E3840E
:1016B000A16226491E460B604D600B814A81CB60BA
:1016C000234B0A2119805A80224B4FF080521A6016
:1016D0004FF0402341F232021A601F4BB2221E70BB
:1016E0001A70B3225E705A70B1229E709A701B4BB2
:1016F00028341860F8BD00BF98CFFF1F90CFFF1FA0
:1017000094CFFF1FC8F00F40B5B1000014C00440D3
:10171000D4F00F4000350C000003010000A004408D
:10172000C4F00F4094F00F400001020000B00440EC
:1017300034900440408004402090004024900040B9
:10174000369000403C900040409000406C9000403B
:101750007C9000400C0008E00110024000E100E035
:10176000C0F00F4008B5054B03221A70FFF700FFC9
:10177000034B002218601A7108BD00BF1F80004093
:10178000D0C8FF1F10B5074C237943B9FFF7F0FE0F
:101790002368C01A31288CBF0020012010BD012011
:1017A00010BD00BFD0C8FF1F10B5234A1379002B0E
:1017B000FCD1224B1968224B1868814205D0214B7D
:1017C0001B8818225A4305F043F81B4CFFF7D0FE44
:1017D0002368C01A3128F9D91B4B1C4A18681833E2
:1017E00008211B681160144A0121117118490A6807
:1017F0009A42174AFBD911689942FCD8116899425C
:10180000FCD3114900F0E7030B60124B01221A6070
:1018100003F580534FF400541A60A3F500531C6085
:101820000D4B1A7002221A7003221A700B4B0860BB
:1018300008221A6010BD00BFD0C8FF1F98CFFF1F3D
:1018400094CFFF1F90CFFF1F0090034080E100E086
:1018500004900340A0A004401B80004000E100E091
:101860000A020B1202F47F0203F47F4313430D4A72
:1018700010B51268C9B21943182303FB00200130C8
:101880004FF4000210F8014C0A4214BF44F0200447
:1018900024F0200400F8014C52080130013BF1D142
:1018A00010BD00BF98CFFF1F0E4B10B51B6818224C
:1018B00002FB0030002213464FF40001845C04F068
:1018C0002004E4B204B10B4301324908182AF5D1CF
:1018D00018021A1202F47F4200F47F001043DBB2B8
:1018E000184310BD98CFFF1F08B500F0C9F90020BC
:1018F00000F03AFA012000F043FABDE8084000F099
:10190000AFB9014B187870479CCFFF1F10B500206E
:1019100000F036FA602000F015FA002000F012FA0C
:101920000446012000F02CFA204610BD10B500201E
:1019300000F026FAFF2000F005FA0446012000F02E
:101940001FFA204610BD08B5FFF7F0FF10F0300F6A
:1019500014BF0020012008BD08B5FFF7E7FF00F025
:101960001003DBB23BB900F02000C0B200280CBF6E
:10197000FF20002008BD012008BD08B5002000F0B0
:10198000F3F9002000F0FCF9E22000F0DBF901207F
:1019900000F0F6F9002000F0F3F9E12000F0D2F9B0
:1019A0000120BDE8084000F0EBB9F8B505460E4649
:1019B0001746002404E0285D00F0C4F930550134D6
:1019C000E3B2BB42F7D3F8BD70B505460E4600241E
:1019D00003E0285D00F0B6F90134E3B2B342F8D376
:1019E00070BD38B5044600200D4600F0C9F904F07A
:1019F0001F0040F0200000F0A5F9284600F0A2F9F1
:101A00000120BDE8384000F0BBB908B5002000F067
:101A1000ABF900200821BDE80840FFF7E2BF08B598
:101A200007207021FFF7DDFF00200A21BDE80840F4
:101A3000FFF7D7BF10B50446002000F095F9FFF777
:101A4000EEFF002000F09CF9E12000F07BF901207E
:101A500000F096F9002000F093F9A02000F072F950
:101A6000064B20461978FFF7AFFF012000F088F9F8
:101A70000120BDE8104000F077B900BF9CCFFF1FE8
:101A800008B5FFF77AFF07207021FFF7AAFF0020B3
:101A90000B21FFF7A6FF0120BDE8084000F064B964
:101AA00010B50446002000F06BF9612000F04AF9FF
:101AB000074B214620461A78FFF777FF012000F0F8
:101AC0005FF907204021BDE81040FFF78ABF00BF43
:101AD0009CCFFF1F10B51D4C0346217005201946F1
:101AE000FFF77FFF11200021FFF77BFF12202178F5
:101AF000FFF777FF13202178FFF773FF14200021F1
:101B0000FFF76FFF15200021FFF76BFF1620002164
:101B1000FFF767FF06200146FFF763FF002008215B
:101B2000FFF75FFF01200721FFF75BFF022007217E
:101B3000FFF757FF04200521FFF753FF1C2000216A
:101B4000FFF74FFFBDE81040FFF79ABF9CCFFF1F84
:101B500070B5044600200E46154600F011F904F059
:101B60001F0000F0EFF8304631462A46FFF71DFF10
:101B70000120BDE8704000F003B907B508200DF161
:101B800007010122FFF7E4FF9DF8070000F00F00B6
:101B90000EBD07B517200DF107010122FFF7D8FF91
:101BA0009DF8070000F001000EBD08B5FFF7BEFE6E
:101BB00000F04000C0B230B9FFF7EBFFD0F10100F8
:101BC00038BF002008BD012008BD70B504460020C4
:101BD0000D46164600F0D4F804F01F0040F0200037
:101BE00000F0B0F828463146FFF7EEFE0120BDE8D0
:101BF000704000F0C5B810B5044621460A20052201
:101C0000FFF7E3FF102021460522BDE81040FFF753
:101C1000DCBF10B50446002000F0A6F80C202146D9
:101C20000522FFF7D2FF0120BDE8104000F09CB86C
:101C300010B50446002000F097F80B20214605223D
:101C4000FFF7C3FF0120BDE8104000F08DB800BFD2
:101C5000024B1A6842F001021A60704700C002404D
:101C6000024B1A6822F001021A60704700C002405D
:101C7000024B186800F08040704700BF2CC0024043
:101C8000224B1A68D20403D41A6842F480521A60B4
:101C90001F4B4FF4A2721A601E4B196841F01001DD
:101CA00019601D490A601D4A116841F04001116028
:101CB0001B4A116841F4807111601A6842F00802F1
:101CC0001A60184A4FF411731360C2F8F03F164AB5
:101CD0001360C2F8F03F154B40F202221A60144B19
:101CE0004FF480421A60134A1A60134A136813F0C3
:101CF0008043FBD1114A1249116053620C4B1A68A0
:101D000022F4804222F001021A6070473C800440B5
:101D100010B0044094F00F4018C00440D4F00F40BD
:101D20000CB0044014B0044018B004401CB004408F
:101D300000C00240017000802CC002400CC0024074
:101D400004000038054B064A1860136813F0700F42
:101D5000FBD0044B1868C0B2704700BF34C00240CB
:101D60002CC0024038C00240044B1A6810B142F047
:101D7000080201E022F008021A60704780F00F406C
:101D8000044B1A6810B142F0100201E022F0100278
:101D90001A60704780F00F40044B1A6810B142F08F
:101DA000400201E022F040021A607047C0F00F408C
:101DB00008B5FF20FFF7C6FF044A136813F0700F41
:101DC000FBD0034B1868C0B208BD00BF2CC0024056
:101DD00038C00240014B01221A6070471C71034059
:101DE0001E4B1F491A6842F0020210B51A6053F8E0
:101DF000042C42F0020243F8042C1A4A0023136018
:101E000002F58152103242F8101C22F80C3C42F8C4
:101E1000043C154B93F86C1009B9543300E020339F
:101E20001360124A002313801C465360104B40F28B
:101E300002221A800422C3F802200E4A01231380D2
:101E4000194613810223D3800B4A40F0800014709E
:101E500010700A4A11700A4A136010BD4080044095
:101E6000247103400080004098CCFF1F3490004054
:101E70002690004036900040011002401B80004038
:101E800000E100E0094B01221A70094B93F8581049
:101E9000914207D1002283F85820596D054A521A01
:101EA0001A657047044B1A70704700BF1F800040CE
:101EB00098CCFF1F00286BEE10CDFF1F184B19495F
:101EC0001A6842F400021A60174B00221A60174A7F
:101ED000C3F8202140230B60154B02221A601868BA
:101EE00040F004001860186840F0010018602F20CE
:101EF00043F8180C53F8100C40F0010043F8100C94
:101F00000C4B93F86C0050B9D86D0B4B18608023C4
:101F10000B600A4B1A601A6842F001021A6070479F
:101F20003C80044008E100E00070034000286BEEB4
:101F30002871034098CCFF1F307103403871034073
:101F400008B5084B01225A66074A83F86C00DA6527
:101F5000064A08461A66FFF743FFBDE80840FFF748
:101F6000ADBF00BF98CCFF1FFFD7B805FF356E018E
:101F7000054B012283F86E20002283F86D201A6E33
:101F8000024B1A60704700BF98CCFF1F30710340AE
:101F9000034B0449DA6D0A60002283F86E20704713
:101FA00098CCFF1F307103401FB51D4B01221A60F2
:101FB0001C4B93F86E20012A08D193F86D20511C18
:101FC000052A83F86D1001D9FFF7E2FF154C0123B4
:101FD00084F8583073238DF80030636E1B0A8DF837
:101FE0000130636E8DF80230236D1B0E8DF80330C7
:101FF000236D1B0C8DF80430236D1B0A8DF8053002
:10200000236D68468DF80630FFF714FDFFF79BFC43
:102010000028FBD1FFF734FD636E013363661FBDFB
:102020003C71034098CCFF1F1FB504A8662300F83D
:10203000103D6846FFF7FEFCFFF785FC0028FBD14A
:10204000FFF71EFD05B000BD002307491A465818CA
:10205000026182625A500433102BF8D1024B0022E5
:1020600083F84C20704700BF98CCFF1F2DE9F04F3C
:102070008378427803EB0222514B5A665E6E196AEE
:10208000013E06F003069E660779C2783F0407EB1F
:102090000267427907EB02278279586EBF1800F079
:1020A0000300484A43F826700430521A43F82020AF
:1020B0005A6E042A9CBF5A6E83F84C20311D85B09D
:1020C00053F8211093F84C800291029C3C4A06F18F
:1020D0000A01381BB8F1030F43F8210068D902F157
:1020E0000C0900200021CE4604460D4600230BE0DB
:1020F0005EF8042F8018DEF8182041F10001A418C2
:1021000045F1000501339BB24345F1D35FFA88FBEB
:102110004FF0000A5A46534603F0BEFBDFF8A0C05A
:102120000390CCF82400534620465A462946CDF861
:1021300004C003F0B1FBDDF804C004460021002018
:10214000DCF848E082468B46002359F8045F039A86
:10215000AD1A05FB05F21AEB020AD9F81820CEEBEE
:1021600002024BF1000B6A43801841F10001013378
:102170009BB24345E9D352465B4603F08DFB029D7B
:1021800002460398691E2B1A091903FB0211BB1C96
:1021900099420B4B1E440CD8023FB94200D208E0D2
:1021A000012186F8381000211A6459649C6403E008
:1021B0009619002386F8383005B0BDE8F08F00BFCF
:1021C00098CCFF1F00286BEE044B9A6C013A111853
:1021D0005A6A1B6C801A03FB0010704798CCFF1FD3
:1021E000064A08B513681BB103F8010B136008BD5C
:1021F000034B1B6803B1984708BD00BFD8C8FF1F39
:10220000A0CFFF1F10B5441E01E0FFF7E9FF14F84F
:10221000010F0028F9D110BD2DE9F04F044685B01B
:102220000D464FF00A0800E035462078002800F0FF
:10223000C880252801D0013468E06078302803D1B7
:10224000A0780123033407E02D2802D002340023B4
:1022500002E0A07802230334002704E008FB07070C
:1022600014F8010B303FA0F13002092AF6D96C288E
:1022700001D04C2803D114F8010B43F004030028CB
:1022800000F09F80602886BFA0F12002D2B20246F3
:102290004F2A42D006D8432A30D0442A09D0422AB5
:1022A00034D137E0552A04D0582A2CD0532A2DD1C6
:1022B00002E04FF00A0E32E02E1DD5F80090002506
:1022C00000E0013519F80520002AFAD104E02020A9
:1022D000FFF786FF554601E0980704D4BD4205F19B
:1022E000010AF4D355464846FFF78CFF03E020204F
:1022F000FFF776FF0135BD42F9D395E728782E1D0B
:10230000FFF76EFF90E74FF0100E08E0FFF768FF51
:102310002E4689E74FF0020E01E04FF0080E2E1D09
:10232000442A296804D1002902DA494243F008030B
:10233000002200E02A46B1FBFEFC0EFB1C11CDB2D0
:10234000092D614607D9782814BF4FF007094FF0CF
:1023500027094D44EDB230350DF80250551CBCF143
:10236000000F02D0102DE5D10F22190705D504A9C1
:102370004D192D2105F8101C951C13F0010F0CBFF1
:102380004FF0200B4FF0300B9B07A94604D508E017
:102390005846FFF725FFD146B94509F1010AF7D3A1
:1023A000D146013D1DF80500FFF71AFF002DF8D1B9
:1023B00004E02020FFF714FF09F10109B945F8D323
:1023C00032E705B0BDE8F08F074B70B51D681860A7
:1023D0004C1E1E4601E0FFF703FF14F8010F002812
:1023E000F9D1356070BD00BFA0CFFF1F0FB407B596
:1023F00004A951F8040B0191FFF70EFFBDE80E4050
:1024000004B070470EB417B505A9084C51F8043B49
:10241000206018460191FFF7FFFE22680023137029
:102420002360BDE81E4003B0704700BFD8C8FF1F3F
:102430000EB433B505A9074C51F8043B256820605C
:1024400018460191FFF7E8FE2560BDE83C4003B067
:10245000704700BFA0CFFF1F70B51E4605461D4840
:102460001446FFF7C3FF022E1FD0042E25D0012EE5
:102470002AD105E0A95D1848FFF7B8FF013600E052
:102480000026A642F6DB2020FFF7AAFE002609E080
:10249000AB5DA3F120005E2894BF18462E20FFF705
:1024A0009FFE0136A642F3DB0EE00C4835F8021B16
:1024B000FFF79CFF013CF8D106E0094855F8041BE2
:1024C000FFF794FF013CF8D10A20BDE87040FFF708
:1024D00087BE00BFB6B10000BDB10000C3B10000AF
:1024E000C9B10000F0B53048304903681B06FCD480
:1024F0000B6813F08002F8D172B62D4B19780029C1
:1025000050D02C4908684F688E68CD680C6938181F
:10251000143180190968401900194018C0F34E00A1
:10252000254940F400400860C86A0F6B4E6B8D6B04
:10253000CC6B3818403180190968401900194018CF
:10254000C0F34E001D4940F40040086001F108113D
:10255000143151F8140C51F8107C51F80C6C51F8EE
:10256000085C51F8044C09683818801940190019A2
:102570004018C0F34E00124940F400400860C86A99
:102580000F6B4E6B8D6BCC6B38184031801909681E
:10259000401900194018C0F34E000A4940F40040A9
:1025A00008601A7062B6F0BD24B0034024B00B403E
:1025B000DCC8FF1F38B003402CB0034030B00340EC
:1025C0002CB00B4030B00B40224B60221A70E1223D
:1025D0005A70214B214A1978214B082901D1012138
:1025E00002E00A2907D13921116013221A601D4B1C
:1025F00019605A600BE00C291A4901D1352000E01E
:102600003D20106012221A60174B08601A60174BA9
:1026100017495B78174A03B101230B6013600E4B17
:10262000154A5978154B012901D880210CE004295D
:1026300001D8842108E0082901D8852104E0102967
:1026400001D8862100E0872111601960074B012223
:102650001A70704700400740E4B2FF1F08B0034003
:102660000CB0034008B00B400CB00B40DCC8FF1F9F
:1026700020B0034020B00B4024B0034024B00B40F6
:102680000D4B5A7858B1AAB9012159701B7823B162
:102690000A4B1A6003F500231A60FFF795BF4AB191
:1026A00058701B78002BF8D0044B186003F50023FA
:1026B0001860F2E7704700BFDCC8FF1F24B003407A
:1026C0000C2810B503D91023102807D809E00A28D0
:1026D00006D8082894BF08230A2302E0184600E021
:1026E0000C23DCB2084A0949201A9070087883420A
:1026F00009D013780C7013B1054B00221A60BDE8A5
:102700001040FFF761BF10BDDCC8FF1FE4B2FF1F20
:1027100024B0034010B5114B1B7804460BB1FFF7F2
:10272000E1FE012C0E4A01D8002302E0042C02D85D
:10273000042313600EE0082C03D80523136008233C
:1027400008E0102C03D806231360102302E00723AF
:1027500013602023034A537010BD00BFDCC8FF1F65
:1027600024B00340E4B2FF1F0D282DE9F0410FD93A
:10277000172801D80E380AE0A0F11A03052B01D85A
:10278000093804E0A0F12203062B50D81838C0B253
:10279000284B1C5C284B1B780BB1FFF7A3FE72B6CD
:1027A000220617D4254D244E01272C60F77062B6FF
:1027B00072B62B6813F0800F1F4B04D0204A1068AC
:1027C0000022DA7026E0F378002BEED062B601F03A
:1027D00091FFEDE704F040071A4D174EFFB204F0E9
:1027E0003F044FF00108184B1A6817B122F010028D
:1027F00001E042F010021A602C6086F8048062B694
:1028000072B62B6813F0800F0B4B09D00F4A10687B
:1028100000221A7162B69B7840FA03F0BDE8F0819D
:102820003379002BDFD062B601F064FFE8E70020C7
:10283000BDE8F081D0B10000DCC8FF1F00B003404C
:1028400010B0034000B00B400CB00B4010B00B4078
:102850000B4B1A6842F480521A600A4B5A780A4BA2
:102860000AB1802200E0C0221A7040F6FF7398423D
:10287000A8BF1846054B20EAE0701880704700BFDB
:102880002C800440DCC8FF1F21C00C4000C00C405D
:10289000024B1A6801321A60704700BF6CC9FF1FF3
:1028A00038B50B4C25462368580301D501F01CFAB6
:1028B0002B68590501D500F099FD2B681A0501D543
:1028C00000F050FF2368DB04EDD501F0ADF8EAE736
:1028D0003480044008B5FFF7E3FF024B10221A8052
:1028E000704700BF002005407047034A136818185E
:1028F00010601846704700BFE8B2FF1F0020704705
:102900004FF0FF3070474FF400534B60002070478A
:10291000012070474FF0FF307047FEE7FEE7007878
:10292000D0F1010038BF00207047012303707047C9
:10293000EFF313839BB9EFF3108098B9EFF305839E
:1029400023B10F2B04D9084A985C01E04FF4807042
:10295000EFF311833BB1984228BF184670474FF000
:10296000FF30704718467047F0E300E0002300E0B6
:102970000133C25C002AFBD11846704710B5002312
:10298000B0FBF2F402FB1400092801D8303000E05B
:102990003730C85420460CB10133F1E7CA185470DF
:1029A000224605E0885CCC5C8C54C8540132013B63
:1029B0009A42F7DB084610BD031E10B50C4603DB38
:1029C000BDE81040FFF7DABF2D2001F8010B584297
:1029D000FFF7D4FF204610BDF0B50F4687B016466E
:1029E0001C463A4633460546074901A804F0D6FA84
:1029F000284602F01BFC02460B46204601A904F0C3
:102A0000CDFA204607B0F0BDE7B10000084B4FF407
:102A100000021A604FF080721A604FF000721A6064
:102A20004FF080621A604FF000621A60704700BF7A
:102A300008E100E0212830B521D8042A1FD8DFE8BA
:102A400002F00709050B03000B2306E00A2304E04C
:102A5000082302E00C2300E00923094A02EBC0022C
:102A6000526872B61468074D24F47024146044F060
:102A7000807444EA034345F82010136062B630BD09
:102A8000F0B10000E4C8FF1F094B03EBC0035B6813
:102A900072B61A6822F0877222F4803242F0807295
:102AA0001A60044B002243F8202062B6704700BF32
:102AB000F0B10000E4C8FF1F014B1868704700BF69
:102AC00000D00340044B054900221A600A60044A02
:102AD000106010221A60704714D0034004D00340E5
:102AE00000D00340002810B50FDB02024FF48073C2
:102AF00047F6FF7400E00A46A24204D9013B012BCD
:102B0000C0EB0201F7D1120A11E0404202024FF479
:102B1000807348F2FF0400E00A46A24204D9013B58
:102B2000012BC0EB0201F7D1120AC2F58072013B02
:102B3000024942EA03220A6010BD00BF0CD00340E4
:102B400018B1102828BF102000E00120014B187098
:102B5000704700BFECB2FF1F10B500234FF437726F
:102B600042FA03F4A14202D80133072BF8D1164AE6
:102B700042FA03F202EB5102B2FBF1F101394FF6D6
:102B8000FF72914228BF1146C21E012A06D80F4A81
:102B90000F4C0020106020600E480FE0421F012AF9
:102BA00006D9092804D00A2802D01438032809D8E5
:102BB000094A0A4C002010602060094843F00803CD
:102BC0000160136010BD00BF006CDC020090034088
:102BD00004900340089003400080034004800340B9
:102BE00008800340212810B518D80D4A52F830301B
:102BF00093F880423CB1012211B183F8802010BDCE
:102C000083F8002110BD02EBC00043681A6811B1BF
:102C100042F0030201E022F002021A6010BD00BF80
:102C2000F0B10000212805D8034B53F8303093F859
:102C30000002704700207047F0B10000212816D82C
:102C40000B4A02EBC00301295B6852F8302004D123
:102C500082F880124FF4A27208E0002082F880020D
:102C600011B94FF4807201E040F203121A6070470C
:102C7000F0B10000282838B50A4604464E4B0FD163
:102C80001B780B2B03D8C3F10C039A4003E00C2BE9
:102C900001D00C3B1A411046BDE83840FFF7D8BDC3
:102CA00019780125002A05FA01F301DC002102E070
:102CB0009A4205D32946FFF795FF2046294676E03C
:102CC000C31E012B01D83D4B06E0192801D0202856
:102CD00001D13B4B00E03B4B1B680133534323FACC
:102CE00001F3E11E1D2959D8DFE801F00F151B2162
:102CF0005858272D58585858585858585833393F0D
:102D00004558515858585858584B2F4A13604FF44B
:102D100051722E4B40E02E4A13604FF451722D4BEE
:102D20003AE02D4A136040F244422C4B34E02C4AE6
:102D3000136040F244422B4B2EE02B4A136040F2CA
:102D400044422A4B28E02A4A136040F24442294B6D
:102D500022E0294A136040F24442284B1CE0284AF2
:102D6000136040F24442274B16E0274A136040F2BA
:102D70004442264B10E0264A136040F24442254B61
:102D80000AE0254A13604FF45172244B04E0244AB0
:102D90001360244B4FF451721A6038BD7F2A2046CD
:102DA000D4BF00210121FFF71DFF20460121BDE80E
:102DB0003840FFF743BF00BFECB2FF1F089003404D
:102DC00008800B400880034010900340309004407E
:102DD0001890034034900440488003401CC00440D5
:102DE0003080034010C00440208003400CB00440F9
:102DF0002880034010B004403880034014C00440D1
:102E00004080034018C004401080034004B00440D8
:102E10001880034008B0044010800B4048A00440D4
:102E200018800B404CA004402DE9F04107460E46A7
:102E300090460824012505EA08013846FFF7D2FE2E
:102E400001213046FFF7CEFE002130466D00FFF72E
:102E5000C9FE013CEDB2EED1BDE8F0812DE9F041B3
:102E600007460E4690460824802505EA08013846A4
:102E7000FFF7B8FE01213046FFF7B4FE00213046CF
:102E8000FFF7B0FE6D08013CEFD1BDE8F08112B94B
:102E90001A46FFF7C9BF1A46FFF7E0BF2DE9F04118
:102EA00080460F4608240025012638460121FFF7F9
:102EB00099FE4046FFF7B6FE00B135430021384683
:102EC0007600FFF78FFE013CF6B2EED12846BDE852
:102ED000F0812DE9F04180460F4608240025802628
:102EE00038460121FFF77EFE4046FFF79BFE00B10A
:102EF000354300213846FFF775FE7608013CEFD1D7
:102F00002846BDE8F0810AB9FFF7C8BFFFF7E1BF67
:102F100072B60C4B0C491A680C4BD3F88830096810
:102F200062B6490102D5322A88BF0133C2F5BB32ED
:102F3000FF326021B2FBF1F24FF47A7000FB032004
:102F4000704700BF18E000E004ED00E0E4C8FF1F98
:102F500070B50446FFF7DCFF05466CB140F2E7367A
:102F6000FFF7D6FF401BB04203D9013C04D005F562
:102F70007A7501F0BFFBF3E770BD10B5FFF746FDB2
:102F8000154B164A164C00204BF6FF71186059601D
:102F90002823136093601361936113629362136338
:102FA0009363092222600F4C20606160A36023615B
:102FB00044F8042C0C4C20600C4801600C490B6058
:102FC0008B600C4B1A60FFF7FFFA0420FFF7C0FF7D
:102FD000BDE8104001F0AEB9048003400C8003400E
:102FE000008003400490034004800B4008800B40A5
:102FF0000C800B4000800B4070B50E2405464C43FE
:1030000003E0013C01D1002070BD2B78002BF8D1EA
:1030100001E0013CF7D02B78002BFAD0FFF778FFC6
:10302000064601E0013CEED02B78002BFAD1FFF7E9
:103030006FFF801B70BD70B50E2405464C4303E046
:10304000013C01D1002070BD2B78002BF8D001E0AD
:10305000013CF7D02B78002BFAD1FFF759FF064639
:1030600001E0013CEED02B78002BFAD0FFF750FFA7
:10307000801B70BD21280BD8064B53F8300000F59B
:10308000007011B11146FFF7B7BF1146FFF7D3BF6C
:1030900000207047F0B10000194B1A6842F48062BA
:1030A0001A60184B00221A705A709A70DA701A71EE
:1030B000154B40F213321A604FF451725A60134BA1
:1030C000C0F344321A70C0F347125A7000F01F0068
:1030D0000F4A98720221042313705174D3740D4B5C
:1030E00088221A703C2203F80D2C0B4B40226FF4FF
:1030F0004A711A705B184FF400521A60704700BF93
:103100003480044070C9FF1F40A0044000A0064066
:1031100002A0064010A006402DE400E0134A1378F8
:1031200000F0030103F0EC030B43410748BF43F0F9
:103130001003137000F00F03042B04D10C4B1A780A
:1031400042F040021A700B4A1378C10603F0EF03F5
:1031500048BF43F010031370054A1378800603F04C
:10316000EF0348BF43F010031370704702A00640FE
:1031700006A0064005A006400D4B1B68580510B57B
:1031800003D410BD01F0B6FA00E00A4C2379094AD5
:10319000002BF7D108494FF4005008600749084850
:1031A0000B7040F20311016041601370537010BD49
:1031B0003480044070C9FF1F84E100E003A0064092
:1031C00040A0044038B5094B04461D79002DFCD1C0
:1031D00020460121FFF732FD20462946FFF702FD78
:1031E000034B53F83420014B9A6038BD70C9FF1F60
:1031F000F0B100001C4B1B685A052DE9F041064652
:1032000030D51A4A93680BB1012119709478174D83
:10321000174FDFF8648001343F2C88BF002415E08D
:10322000FFF786FB40280DDC3B781B060ED5EB78BC
:1032300001333F2B88BF0023EA18127B88F8002057
:10324000EB7003E0FF2801DD01F054FAEA78074B48
:10325000A242E5D01A19167301221A719C70054B0F
:10326000BC221A70BDE8F0813480044070C9FF1F91
:1032700004A0064003A0064007A0064000F00F008F
:10328000092801D8303000E03730FFF7B3BF2DE90F
:10329000F84F254B1B6807465805894642D5234BF6
:1032A0009B680BB101221A70204C3E46A34632E0C7
:1032B000A5789BF8038001353F2D88BF0025A845E0
:1032C00007D0631916F8012B1A7301232371A57017
:1032D00021E0174BDFF860A0BC221A70FFF728FB33
:1032E000402810DC9AF80030190610D5E378013335
:1032F0003F2B88BF00230BEB0302117B0D4A11709B
:103300008BF8033003E0FF2801DD01F0F3F9E378E7
:103310004345E3D0D5E707EB09039E42C8D3044BEE
:10332000BC221A70BDE8F88F3480044070C9FF1FBA
:1033300003A0064007A0064004A0064010B5044CB8
:1033400001E001F0D7F92379002BFAD110BD00BFBD
:1033500070C9FF1F034A10785378984238BF403035
:10336000C01A704770C9FF1F084A117853789942F4
:1033700008D001333F2B88BF0023D11891F84C00AF
:10338000537070474FF0FF30704700BF70C9FF1F88
:10339000074A11785378994207D001333F2B88BFF1
:1033A0000023D31893F84C0070474FF0FF3070475C
:1033B00070C9FF1F094B1B685B050ED5084B1A78B7
:1033C00002F0CB021A70074A402111701A7842F0BD
:1033D00034021A70044B5A781A70704734800440D3
:1033E00003A0064011A0064070C9FF1FF0B5304B86
:1033F0001B7813F0300F21D072B62E4B197831B9EB
:103400000F3B40221B782C4B1A7062B616E062B656
:103410002A4B2B4C1A7858781D46531C3F2B88BFDB
:1034200000238342267803D0EA1882F84C601A46BB
:10343000013911F0FF01F0D1204B1A70214B1B789C
:1034400018465BB2002B1EDA19490B781B061AD5F9
:103450001A4A1B4E97781C4DD378BB420AD00133D1
:103460003F2B88BF00230C78D418247B34702C7831
:10347000072CF2D9114AD3700D4B1B781A0602D5CE
:10348000104B7C221A7000F04003DBB273B1084B82
:103490001B7803F04003DBB243B1084B00221A71E2
:1034A0009B6803B11A70074B3C221A70F0BD00BF35
:1034B00004A0064016A0064011A0064070C9FF1FD8
:1034C00007A0064003A0064014A0064038B5451EDC
:1034D00007E00A2C02D10D20FFF78CFE2046FFF7F3
:1034E00089FE15F8014F002CF3D138BD10B5044604
:1034F0000009FFF7C3FE2046BDE81040FFF7BEBE3F
:1035000010B50446000AFFF7F1FF2046BDE8104061
:10351000FFF7ECBF10B50446000EFFF7E7FF200CE5
:10352000FFF7E4FF200AFFF7E1FF2046BDE8104067
:10353000FFF7DCBF144B1A6842F400621A60134AAA
:103540000023137053709370D3701371104A40F2BC
:10355000133111604FF4517151600E4AC0F3443180
:103560001170C0F3471100F01F00517090729370FA
:103570001374094B2C221A70084B40221A70084B06
:103580004FF400421A60704734800440FCC9FF1FAA
:103590000CB0044000B0064003B006402FE400E049
:1035A00004E100E0134A137800F0030103F0EC0398
:1035B0000B43410748BF43F01003137000F00F03A3
:1035C000042B04D10C4B1A7842F040021A700B4ABB
:1035D0001378C10603F0EF0348BF43F010031370E4
:1035E000054A1378810603F0EF0348BF43F0100348
:1035F0001370704702B0064006B0064005B00640A2
:103600000D4B1B68180510B503D410BD01F072F8FE
:1036100000E00A4C2379094A002BF7D108494FF4FE
:1036200000400860074908480B7040F20311016030
:1036300041601370537010BD34800440FCC9FF1FFB
:1036400084E100E003B006400CB004401A4B1B6854
:103650001A052DE9F04106462BD5184D184FAC78C8
:10366000DFF864800134272C88BF002415E0FFF7C1
:103670005FF940280DDC3B781B060ED5EB78013353
:10368000272B88BF0023EA18527988F80020EB70B6
:1036900003E0FF2801DD01F02DF8EA78074BA24294
:1036A000E5D01A19567101221A719C70054BAC2293
:1036B0001A70BDE8F08100BF34800440FCC9FF1FD0
:1036C00004B0064003B0064007B0064038B54518C0
:1036D000044603E014F8010BFFF7B8FFAC42F9D140
:1036E00038BD10B5034C01E001F004F82379002B3C
:1036F000FAD110BDFCC9FF1F034A107853789842D5
:1037000038BF4030C01A7047FCC9FF1F084A117803
:103710005378994208D001333F2B88BF0023D1183A
:1037200091F82D00537070474FF0FF30704700BF85
:10373000FCC9FF1F074A11785378994207D001331B
:103740003F2B88BF0023D31893F82D0070474FF00C
:10375000FF307047FCC9FF1F014B5A781A70704741
:10376000FCC9FF1F10B5204B1B7803F02003DBB210
:1037700073B11E4B1E4A18781378517801333F2BD2
:1037800088BF00238B4203D0D11881F82D0013701D
:1037900018490B7818465BB2002B14DA124B1B78D1
:1037A0001B0610D5124A9478D3789C4202D16C2320
:1037B0000B7008E00133272B88BF0023D1184C7908
:1037C0000A490C70D37000F04003DBB25BB1064BCA
:1037D0001B7803F04003DBB22BB1054B00221A71BA
:1037E000044B2C221A7010BD04B0064007B00640EE
:1037F000FCC9FF1F03B00640154B1A6842F4805203
:103800001A60144A0023137053709370D3701371AD
:10381000114A40F2133111604FF4517151600F4A57
:10382000C0F344311170C0F3471100F01F00517014
:103830009072937013740A4B2C221A70094B402219
:103840006FF44B711A705B184FF400321A607047B6
:103850003480044069CAFF1F08C0044000C006400D
:1038600003C0064031E400E0134A137800F003017E
:1038700003F0EC030B43410748BF43F01003137000
:1038800000F00F03042B04D10C4B1A7842F04002D5
:103890001A700B4A1378C10603F0EF0348BF43F0D8
:1038A00010031370054A1378800603F0EF0348BF36
:1038B00043F010031370704702C0064006C0064074
:1038C00005C006400D4B1B68D80410B503D410BDCD
:1038D00000F010FF00E00A4C2379094A002BF7D1D1
:1038E00008494FF400300860074908480B7040F25F
:1038F0000311016041601370537010BD34800440A7
:1039000069CAFF1F84E100E003C0064008C004400C
:103910001A4B1B68DA042DE9F04106462BD5184DE9
:10392000184FAC78DFF864800134272C88BF00245E
:1039300015E0FEF7FDFF40280DDC3B781B060ED599
:10394000EB780133272B88BF0023EA18527988F8D7
:103950000020EB7003E0FF2801DD00F0CBFEEA78E9
:10396000074BA242E5D01A19567101221A719C70B8
:10397000054BAC221A70BDE8F08100BF34800440D2
:1039800069CAFF1F04C0064003C0064007C00640C6
:1039900038B54518044603E014F8010BFFF7B8FFEB
:1039A000AC42F9D138BD10B5034C01E000F0A2FEE5
:1039B0002379002BFAD110BD69CAFF1F034A107882
:1039C0005378984238BF4030C01A704769CAFF1F09
:1039D000084A11785378994208D001333F2B88BFA9
:1039E0000023D11891F82D00537070474FF0FF302D
:1039F000704700BF69CAFF1F074A11785378994280
:103A000007D001333F2B88BF0023D31893F82D0034
:103A100070474FF0FF30704769CAFF1F014B5A785B
:103A20001A70704769CAFF1F10B5204B1B7803F04E
:103A30002003DBB273B11E4B1E4A187813785178FD
:103A400001333F2B88BF00238B4203D0D11881F86C
:103A50002D00137018490B7818465BB2002B14DA4E
:103A6000124B1B781B0610D5124A9478D3789C42CF
:103A700002D16C230B7008E00133272B88BF002391
:103A8000D1184C790A490C70D37000F04003DBB2B6
:103A90005BB1064B1B7803F04003DBB22BB1054B47
:103AA00000221A71044B2C221A7010BD04C006406B
:103AB00007C0064069CAFF1F03C006401FB572B6A3
:103AC000124B70221A70124A412111700F2102F814
:103AD000011C80221A701A781206FCD562B60D4BB2
:103AE00001A918680A22FEF749FF0B48002301AA22
:103AF0009A5C2AB100EB430101330A2B4A80F6D1CC
:103B00000133054A5B00137005B000BD00000240A0
:103B10000700024008000240EEB2FF1F70B50C4BD8
:103B20000C4C1A7842F0020504EBC50682F0010243
:103B3000706058781A7000280CBF8826C82646EA9C
:103B4000014180F0010044F83510587070BD00BF8D
:103B5000D8CAFF1F0080FF1F431E032B10B510D8CB
:103B600072B6094A02EB8302506840B14168516065
:103B7000064A018832F81340611A22F8131062B61F
:103B800010BD002010BD00BFD8CAFF1FA4CFFF1F6B
:103B9000013803280DD8084B03EB8000436972B647
:103BA000002002E01A885B688018002BFAD162B608
:103BB00070470020704700BFD8CAFF1F0138032894
:103BC0000CD872B6064B03EB80004369002001E07D
:103BD0005B680130002BFBD162B670470020704754
:103BE000D8CAFF1F70B572B61A4E1B4C01239A1922
:103BF00012F8012C02F00802D2B2F2B19900164A72
:103C000054F831502DB902EB431308305860134B70
:103C100009E041F0010154F8315075B902EBC103DC
:103C2000083058600E4B42F831300E4B93F8242088
:103C3000013A83F8242062B670BD0133052BD6D13A
:103C400062B6084B002283F82420BDE8704000F0E3
:103C5000DDBB00BF00B300000080FF1F88004000F4
:103C6000C8004000D8CAFF1F421E032A30B533D80F
:103C700040011A4B40F01000181872B6184CA318E7
:103C800093F82530032B09D8DFE803F0130215055C
:103C90000830022310E0083004230DE09200A3183E
:103CA000586908B9596101E0DB6A5960A218D1620C
:103CB00011E0032300E00523A21810F0080F82F89A
:103CC000253001F108030A8843600CBF8823C8230C
:103CD00043EA0243036062B630BD00BF0080FF1FAD
:103CE000D8CAFF1F00BE70472DE9F74FAB4EAC4C52
:103CF000357805F00403DBB2BBB1AA4B93F844203E
:103D00008AB193F845202AB1013AD2B283F845200E
:103D100002B900BEA44A13782BB1013BDBB2137089
:103D20000BB900F0CBFC0423337005F00802D2B2CB
:103D3000002A00F0AF829D4B1B781D094FEA9309C2
:103D400040F0058204EBC903596854F83930C3F3D5
:103D50008303013B0C2B00F2F681DFE813F0AB018B
:103D6000AB01F401F401F401F401F401F401C9011F
:103D7000F401F401F4010D004B688A480A68C36439
:103D80008B4B826440F2816592B244F83930012154
:103D90000023AA4203652361A361417017D8B2F5DD
:103DA000D06F80F02C81B2F5817F00F0E58006D8DD
:103DB000802A00F0C580822A40F04081C5E040F2B0
:103DC00002339A4200F00A81B2F5A06F16E042F287
:103DD0002105AA4200F06B8108D8B2F5086F00F007
:103DE000A880B2F5106F40F029810AE042F221214B
:103DF0008A4200F01E8142F221339A4240F01E8135
:103E000020E190F84A30664D80F844302B6A18065D
:103E100003D5686A083800F0F9FA664908358D421A
:103E2000F4D1DFF8B0B10025A846D9460BF1500A0D
:103E300055F80B0005E04368009300F0E7FA009B9B
:103E400018460028F7D15C4B49F8050045F80A00F0
:103E5000E85807E042680093019200F0D7FA019A0F
:103E6000009B10460028F5D15851544BE850544B54
:103E700023F81800534B18F80320023A032A08D8F5
:103E8000DFE802F002040204002200E0012203F84D
:103E9000082008F101080435B8F1040FC8D1414BDE
:103EA000DFF83491002283F8242001259846464B00
:103EB00005EB0902EB1812F8012C9B001A7002F0B6
:103EC0000802D2B23AB300F083FAAB0038B104EB87
:103ED0004512083050603D4A44F8332006E044F86B
:103EE000330098F82430013388F8243000F070FA59
:103EF000AB0043F0010338B104EBC302083050605B
:103F00002B4A44F8332006E044F8330098F8243074
:103F1000013388F82430AA0042F00201013542F052
:103F200003020023052D44F8313044F83230BED16D
:103F300089E090F84430054605F83C3F0B4687E0A1
:103F400080F83C3080F83D307FE0B0F84C20042A07
:103F500000D973E080F83C3080F83D301C4B920073
:103F6000D3181B7803F00203DBB2002B6DD005469B
:103F7000022305F83C1F6BE0B0F84C2002F07F03F1
:103F8000042B5BDCB0F84A3003B157E09100104AD3
:103F90008A18117821F002014EE000BF802007400E
:103FA0000080FF1FD8CAFF1FCDCBFF1F9020074006
:103FB000C80040008080FF1FECCAFF1F04CBFF1F1A
:103FC000A4CFFF1FFDCAFF1F30C8011088004000AA
:103FD000C0200740DCCAFF1F00B30000B0F84C202F
:103FE00002F07F03042B29DCB0F84A3003B125E04E
:103FF00091009E4A8A18117841F002011CE0B0F845
:104000004A20B0F84C109A4B53F8085CA3F10C000E
:10401000A5B133F80CCC944509D133F80ACC8C45C2
:1040200005D1120A032A0CBF2B78038910E00C3348
:10403000EAE790F84A108F4A117004E08B4B0F2288
:104040001A7034E000231D4602E0022300F13C0513
:10405000894AB2F84E904B4538BF9946B9F1400FA6
:1040600034BFC8464FF0400828464146FFF756FD8A
:10407000B9EB0809454403D1B8F1400F07D016E069
:10408000B9F1400F34BFC8464FF0400800E0C846C1
:1040900028464146FFF742FDB9EB0809454402D1E5
:1040A000B8F1400F03D1744A1565A2F8649001225B
:1040B000724B47E0704BB3F8482042F221039A421A
:1040C00012D16F4A0023C85C98540133072BFAD1F0
:1040D0006B4B1B68862B03D1674B0F2283F845205F
:1040E00000200146FFF71AFD664B44F839302AE0FC
:1040F000DFF88491D9F85080B8F1000F16D0B9F8E4
:1041000064A0BAF1400F34BF5546402540462946C9
:10411000FFF704FDC5EB0A039BB2A9F864300BB9A5
:10412000402D01D108EB0503534A1365524BB3F8F8
:104130004820B2F5A06F06D1002283F8492093F8F9
:104140004A20514B1A704D4B01221A708AE004EB41
:10415000C90803F00803D8F80420013DD9B2A2F140
:104160000800EDB2002945D000F050F9424B03EBB6
:104170008500416921B34A68426101F10802C8F82B
:1041800004205A1992F82520032A10D8DFE802F0FB
:104190000205080B5D19032307E05D19022304E003
:1041A0005D19052301E05D19042385F8253018F019
:1041B000080F0A880CBF8823C82343EA02434FE054
:1041C0005A1992F82520032A0BD8DFE802F04B4B4E
:1041D00002055D19002301E05D19012385F82530F2
:1041E00040E018F0080F1D440CBF0222032285F89E
:1041F000252037E054F839301B0C22F8083C4BB32B
:1042000022F8061C42F8041C1B4A4FEA850E02EBFA
:104210000E0194464A680AB9486001E04A6D506050
:104220000CEB0E02DFF850A05065184A32F815105A
:104230005B1822F8153000F0CBF818B10830C8F838
:10424000040007E09AF8243044F8390001338AF872
:10425000243007E00B4B0E4A18F0080F08BF134636
:1042600044F839300823337042E500BFC0200740CE
:1042700010B30000CECBFF1FD8CAFF1F9420074009
:10428000ACCFFF1FC800400098200740A4CFFF1FFD
:1042900088004000E90720D51D4C1E481E4D2146D0
:1042A0000223037001F8682B1C4BA8341D60596071
:1042B0001A619A619D60DC60194B0D2119701949D2
:1042C000FF230B7001F8083C0A74174A1370174B50
:1042D0009F221A700123037018E02B0605D5104B9E
:1042E0000D221A70802203F8402C05F00203DBB285
:1042F0002BB10C4B1A781A70022203F8082C05F027
:104300001005EDB215B10A4B10221A70BDE8FE8FF0
:10431000D8CAFF1F94200740880040000080FF1F7C
:10432000C0200740882007408C2007408420074099
:104330008020074008B5FFF7C1FB00231E491A463D
:104340005A50C8180833882B4260F9D11B4B1A68A1
:1043500042F480221A601A4B80221A701978184A87
:104360000906FBD4144B1749C3F307200870C3F3A5
:1043700007401B0E08750B76FF2301F81C3C01F863
:10438000143C01F88C3C137843F040031370002177
:10439000012302F8783C02F80C1C02F8883C0A4B16
:1043A00070226FF4507C1A7063444FF400721A60EC
:1043B000064B10221A7008BD0080FF1F3480044095
:1043C0000C2107409C20074049E400E008210740F9
:1043D00072B60C4A1168B1FA81F30B2B02D962B69E
:1043E000002070474FF0004020FA03F021EA00015E
:1043F000116062B6044948225343C8180022CA50CB
:10440000426070478CB3FF1FA080FF1F0C4B4822F7
:10441000C31AB3FBF2F30B2B11D80A4A127822B15C
:10442000094A12780AB1FFF7DDBB72B6074A4FF0AE
:10443000004121FA03F311681943116062B6704715
:10444000A080FF1FFCCAFF1F1CCBFF1F8CB3FF1FE8
:1044500038B5114C23684BB10F4D2868428881183C
:1044600001320C7A01888A4212D30CE00B4B1B7884
:1044700013B94FF0FF340CE00320FFF76DFB206011
:104480000028E9D1F5E7FFF7C1FF00232B6000E02A
:104490004280204638BD00BFC0CBFF1F1CCBFF1F92
:1044A00010B50C4C23681BB10A4B1B686BB902E0BA
:1044B000094B1B7813B94FF0FF3010BD0320FFF7F5
:1044C0004BFB20600028EFD1F5E75A889B18187A3B
:1044D00010BD00BFC0CBFF1F1CCBFF1F044B988833
:1044E000044B1B681BB11A885B88D31AC01870472D
:1044F000A4CFFF1FC0CBFF1F2DE9F0470E4681461A
:104500004FF00008DFF868A0184F2AE09AF8003052
:104510004BB33B684BB90320FFF71EFB386010B369
:10452000038813B9FFF772FFF5E73C6861882588B7
:104530006D1AAE4238BF3546083148462A466118E2
:1045400002F086F96388A944A844761BED182388F5
:10455000ADB2AB42658004D82046FFF757FF002379
:104560003B60002ED2D14046BDE8F087C0CBFF1F94
:104570001CCBFF1F10B5094B1B786BB1084C206892
:1045800018B1FFF743FF002323600320FFF7E4FA8D
:1045900010B1FFF73BFFF8E710BD00BF1CCBFF1FBA
:1045A000C0CBFF1F2DE9F8432B4CDFF8B08001236F
:1045B0000D462371064647E0A3681BBB4AF2F92764
:1045C0004FF0010998F8003013B9234A137112E033
:1045D0000420FFF7F3FA072806D884F80490FFF7C1
:1045E000F7FEA06070B92071013F01D0237B33B189
:1045F000194B01221A734FF0FF30BDE8F88300F029
:1046000079F8DFE7A1684888C0F14002954238BFD9
:104610002A4600F10807002380182373CF19488029
:10462000AD1A02E0F05CF85401339342FAD1F61867
:104630004B883F2B06D940230B800420FFF714FB47
:104640000023A36005236373002DB5D1024B2846D8
:104650001D71BDE8F88300BFC0CBFF1F1CCBFF1F3F
:1046600007B502AB012103F8010D1846FFF79AFFC9
:104670000EBD70B50F4B1B78DBB10F4CA568012642
:1046800026714DB16B880026667304202B80294665
:10469000FFF7EAFAA66009E0FFF79AFE014620B1AB
:1046A00004206573FFF7E0FA00E06673024B002216
:1046B0001A7170BD1CCBFF1FC0CBFF1F38B50C4C4F
:1046C00025799DB9A16831B14B8804200B80FFF793
:1046D000CBFAA56038BDFFF77BFE014620B1042070
:1046E000BDE83840FFF7C0BA0123637338BD00BF8F
:1046F000C0CBFF1F7047FFFF0A4B4FF0FF321F294F
:1047000028BF1F2110B59A60186019714FF481728B
:10471000002303E002FB0304637001338B42F9D1F1
:1047200010BD00BFD0CBFF1F30B572B6104B9A68DA
:104730001879B2FA82F1814202D362B6002030BD0C
:104740004FF0004020FA01F022EA00029A601A7B42
:104750000132D2B21A7362B64FF4817041431C68C1
:10476000012565546018597B914238BF5A7330BD9A
:10477000D0CBFF1F427872B60378012B02D9013BE0
:1047800003700AE0064B4FF0004121FA02F19A68EB
:104790000A439A601A7B013A1A7362B6704700BFE7
:1047A000D0CBFF1F30B5C3680EE0187A90420AD113
:1047B00058685C7A006950F8245025B940F82410F4
:1047C000087801300870DB68002BEED130BD437AE9
:1047D00099424FF0000305D2026952F8210042F8D5
:1047E000213070471846704738B5437A994201D353
:1047F000002418E0036953F82140002243F82120E7
:10480000002CF5D02378012B0DD9FFF78DFF05463D
:1048100028B10230A11C4FF4807202F019F82378FD
:10482000013B23702C46204638BD10B54168427AC2
:104830004B7A9A420ED872B60268D36813B9D06028
:1048400004E02346DC68002CFBD1D86001231372FE
:104850000B7262B610BD074B9A7B4AB9064AFF211C
:104860001170064A4FF08041012011609873704723
:1048700000207047D0CBFF1F5EE400E008E100E0BD
:10488000034B4FF080421A60024B00229A7370472C
:1048900088E100E0D0CBFF1FF8B5164B164D1A6823
:1048A00042F080721A60154B1A6842F001021A60D9
:1048B000134B2E681C690FE0237A63B121682F68BF
:1048C0000B68204698472B68E288DB1B1B09934244
:1048D000A38088BFE3806469002CEDD1064B1A6881
:1048E000074B921BD98A12098A429A8288BFDA82C0
:1048F000F8BD00BFFCED00E0041000E0001000E097
:10490000D0CBFF1F10B5084614461146FEF7BFFC7A
:10491000204610BD084608B5FEF76CFC012008BD16
:10492000FEF748BDFEF70ABDFEF71EBDFEF730BD1F
:10493000FEF710BD0846FEF745BCFEF71DBC480853
:1049400000F1376000F5D830B0FBF1F0FEF7A4BB02
:10495000480800F1376010B500F5D830B0FBF1F031
:104960001446FEF799FB2046BDE81040FEF7D6BB83
:10497000044B00221A711A73034A4FF47A7199603A
:104980001A607047E8CBFF1F60B3000010B50846FF
:1049900014461146FEF79AFE204610BD084608B59B
:1049A000FEF754FE012008BDFEF7D6BEFEF799BE05
:1049B000FEF7ACBEFEF7BEBEFEF79EBEFEF720BE03
:1049C000480800F1376000F5D830B0FBF1F0FEF791
:1049D000B1BD480800F1376010B500F5D830B0FB24
:1049E000F1F01446FEF7A6FD2046BDE81040FEF7A4
:1049F000D9BDFFFF044B00221A711A73034A4FF40A
:104A00007A7199601A607047F8CBFF1F98B3000065
:104A100010B5084614461146FEF7BAFF204610BDF1
:104A2000084608B5FEF774FF012008BDFEF7F6BF83
:104A3000FEF7B9BFFEF7CCBFFEF7DEBFFEF7BEBF85
:104A4000FEF740BF480800F1B76000F55840B0FBE2
:104A5000F1F0FEF7D1BE480800F1B76010B500F5DF
:104A60005840B0FBF1F01446FEF7C6FE2046BDE804
:104A70001040FEF7F9BEFFFF044B00221A711A73B3
:104A8000034A4FF47A7199601A60704708CCFF1F8F
:104A9000D0B30000054B1A6842F400021A60044BC0
:104AA00000221A60034B01221A7070473C800440B8
:104AB0000070034018CCFF1F054B01221A60054B04
:104AC0001A6822F400021A60034B00221A70704721
:104AD000007003403C80044018CCFF1F70B5447840
:104AE000104D23015A1942600F4A9E18866004F146
:104AF000440606730D4E06EB8404066966600024C6
:104B00009C50595103219950037B5A11920002F194
:104B1000604202F5614203F01F03012101FA03F331
:104B2000136070BD007103400871034018CCFF1F73
:104B3000F8B50D4B1B7806460F460BB9FFF7AAFFD9
:104B40000024094D05F11402A25C42B9747030468C
:104B500039462C19FFF7C2FF01202075F8BD01343A
:104B6000042CEED10020F8BD18CCFF1F037B0122DE
:104B7000591103F01F0302FA03F3094A42F82130E6
:104B80008268002313604178064A511814320B756D
:104B9000995C21B90133042BFAD1FFF78DBF70471F
:104BA00080E100E018CCFF1F037810B504460BB17C
:104BB000FFF7DCFF0023237010BD037870B50446B7
:104BC0000D4616461BB1FFF7D1FF00232370256168
:104BD00020463146FFF7ACFF10B10123237000E0FF
:104BE0002070207870BD00BF10B50446FFF7DCFFD1
:104BF000204610BD03480449044A002300F8083F3A
:104C000001F00EBB30CCFF1FE94B00000084FF1FFA
:104C100008461146FFF7C6BC0846FFF721BDFFF75F
:104C200028BDFFF73DBCFFF713BCFFF757BCFFFFE4
:104C3000044B00221A711A73034A4FF47A71996077
:104C40001A60704750CCFF1F08B400002DE9F00F28
:104C500082B091469A080093019263D004460D46B3
:104C60004B46164688462F68D4F800C061683A0C57
:104C70001FFA87FA1CFB0AFB1CFB2AF711FB02FC3C
:104C800011FB22F24FEAEC3AD2134FEAEB3102F376
:104C90000F0CFF130AF30F0B07F30F070FFA8BFB31
:104CA0003AB201F30F0109B2C1EA02470FFA8CF1DF
:104CB0001F60CBEA01475F606A68A168E7681FFA76
:104CC00082FC120C11FB0CFA17FB02FB11FB2CF1FE
:104CD00017FB22F24FEAEB3CD2130CF30F0B02F35B
:104CE0000F024FEAEA3A4FEAE1310AF30F0A01F301
:104CF0000F010FFA8AFA09B20FFA8BFBCAEA0141D7
:104D00000FFA82FC9960CBEA0C420835DA60103465
:104D10001033013EA7D1019A1301C0189944009B9A
:104D200008EBC20113F003025FD0B0F800C031F805
:104D3000023B1CFB03F4E41304F30F04A9F8004046
:104D4000B0F802C0013A13FB0CF41346E41302F06E
:104D5000010204F30F040430A9F8024009F1040928
:104D6000002B42D0B2B1028831F802CB12FB0CF416
:104D7000E21302F30F04A9F8004044881CFB04F27C
:104D8000D2130430013B02F30F02A9F8022009F10B
:104D900004092AD00A46048832F802CB14FB0CF529
:104DA000EC1304F30F05A9F8005045881CFB05F42B
:104DB000E41304F30F0CA9F802C08488B1F802C010
:104DC00014FB0CF1CC1304F30F01A9F80410C488F0
:104DD0001CFB04F1CC130830911C023B04F30F02BE
:104DE000A9F8062009F10809D4D102B0BDE8F00FF6
:104DF000704700BF2DE9F0035FEA930854D008F133
:104E0000FF3644684D68D0F800C0D1F8009006F035
:104E10000107DCFA19FCC2F800C0D4FA15F454609A
:104E20000824002E3BD07FB1C468CF688568D1F8D4
:104E300008C0D5FA1CFC154645F808CFD4FA17F778
:104E40001024013E6F602AD005190F196D687F6824
:104E500050F804C051F80490DCFA19FC42F804C080
:104E6000D5FA17F904F10805141900EB050C4F19D0
:104E7000C4F80490DCF804407F6850F805C051F88D
:104E80000590013EDCFA19FC42F805C0D4FA17FC83
:104E90005719013E05F10804C7F804C0D4D14FEA00
:104EA000C80840444144424413F003032ED0013B60
:104EB00030F9024B31F9025B03F00106D4FA15F424
:104EC00022F8024B13B34EB130F902CB31F9025B39
:104ED000DCFA15F4013B22F8024B17D006460D46CA
:104EE00036F9024B35F902CBD4FA1CF71446013BD4
:104EF00024F8027BB0F90270B1F902C0B01CA91C01
:104F0000D7FA1CF55580A21C013BE7D1BDE8F003A0
:104F1000704700BF50EA010201D102207047D0F172
:104F2000010238BF0022B1F1004F08BF0028F4D0C1
:104F300021F000434FF6FF71A3F58010C7F6DF7133
:104F4000884201D804207047B3F5801F01D20320A6
:104F500070470020C7F6F070834214BF002002F0B3
:104F60000100704781F0004102E000BF83F0004380
:104F700030B54FEA41044FEA430594EA050F08BFF4
:104F800090EA020F1FBF54EA000C55EA020C7FEAB8
:104F9000645C7FEA655C00F0E2804FEA5454D4EB35
:104FA0005555B8BF6D420CDD2C4480EA020281EAFF
:104FB000030382EA000083EA010180EA020281EA37
:104FC0000303362D88BF30BD11F0004F4FEA013189
:104FD0004FF4801C4CEA113102D0404261EB410198
:104FE00013F0004F4FEA03334CEA133302D052421E
:104FF00063EB430394EA050F00F0A780A4F10104DA
:10500000D5F1200E0DDB02FA0EFC22FA05F2801813
:1050100041F1000103FA0EF2801843FA05F35941F9
:105020000EE0A5F120050EF1200E012A03FA0EFC78
:1050300028BF4CF0020C43FA05F3C01851EBE371A2
:1050400001F0004507D54FF0000EDCF1000C7EEBBF
:1050500000006EEB0101B1F5801F1BD3B1F5001FFD
:105060000CD349085FEA30004FEA3C0C04F101041C
:105070004FEA445212F5800F80F09A80BCF1004F45
:1050800008BF5FEA500C50F1000041EB045141EAC7
:10509000050130BD5FEA4C0C404141EB010111F4C8
:1050A000801FA4F10104E9D191F0000F04BF014673
:1050B0000020B1FA81F308BF2033A3F10B03B3F151
:1050C00020020CDA0C3208DD02F1140CC2F10C02E1
:1050D00001FA0CF021FA02F10CE002F11402D8BF3F
:1050E000C2F1200C01FA02F120FA0CFCDCBF41EA0B
:1050F0000C019040E41AA2BF01EB0451294330BDDA
:105100006FEA04041F3C1CDA0C340EDC04F11404B6
:10511000C4F1200220FA04F001FA02F340EA03008D
:1051200021FA04F345EA030130BDC4F10C04C4F1D3
:10513000200220FA02F001FA04F340EA03002946B3
:1051400030BD21FA04F0294630BD94F0000F83F4FD
:10515000801306BF81F480110134013D4EE77FEAE0
:10516000645C18BF7FEA655C29D094EA050F08BF2C
:1051700090EA020F05D054EA000C04BF194610460D
:1051800030BD91EA030F1EBF0021002030BD5FEA51
:10519000545C05D14000494128BF41F0004130BD79
:1051A00014F580043CBF01F5801130BD01F00045CD
:1051B00045F0FE4141F470014FF0000030BD7FEA40
:1051C000645C1ABF194610467FEA655C1CBF0B463B
:1051D000024650EA013406BF52EA033591EA030F52
:1051E00041F4002130BD00BF90F0000F04BF00214A
:1051F000704730B54FF4806404F132044FF000057D
:105200004FF0000150E700BF90F0000F04BF0021F5
:10521000704730B54FF4806404F1320410F000455B
:1052200048BF40424FF000013EE700BF42004FEA56
:10523000E2014FEA31014FEA02701FBF12F07F43D3
:1052400093F07F4F81F06051704792F0000F14BFD0
:1052500093F07F4F704730B54FF4607401F0004514
:1052600021F0004120E700BF50EA010208BF70476B
:1052700030B54FF000050AE050EA010208BF704760
:1052800030B511F0004502D5404261EB41014FF4C9
:10529000806404F132045FEA915C3FF4DCAE4FF0CD
:1052A00003025FEADC0C18BF03325FEADC0C18BFB4
:1052B000033202EBDC02C2F1200300FA03FC20FA05
:1052C00002F001FA03FE40EA0E0021FA02F1144452
:1052D000C1E600BF70B54FF0FF0C4CF4E06C1CEA67
:1052E00011541DBF1CEA135594EA0C0F95EA0C0FDC
:1052F00000F0DEF82C4481EA030621EA4C5123EA4F
:105300004C5350EA013518BF52EA033541F480117D
:1053100043F4801338D0A0FB02CE4FF00005E1FB30
:1053200002E506F00042E0FB03E54FF00006E1FB7A
:1053300003569CF0000F18BF4EF0010EA4F1FF04BD
:10534000B6F5007F64F5407404D25FEA4E0E6D41FD
:1053500046EB060642EAC62141EA55514FEAC5200E
:1053600040EA5E504FEACE2EB4F1FD0C88BFBCF58A
:10537000E06F1ED8BEF1004F08BF5FEA500E50F13B
:10538000000041EB045170BD06F0004646EA010101
:1053900040EA020081EA0301B4EB5C04C2BFD4EB33
:1053A0000C0541EA045170BD41F480114FF0000E2C
:1053B000013C00F3AB8014F1360FDEBF002001F09A
:1053C000004170BDC4F10004203C35DA0C341BDC14
:1053D00004F11404C4F1200500FA05F320FA04F0E6
:1053E00001FA05F240EA020001F0004221F000411A
:1053F00010EBD37021FA04F642EB06015EEA430E8D
:1054000008BF20EAD37070BDC4F10C04C4F12005BC
:1054100000FA04F320FA05F001FA04F240EA02006F
:1054200001F0004110EBD37041F100015EEA430E40
:1054300008BF20EAD37070BDC4F1200500FA05F260
:105440004EEA020E20FA04F301FA05F243EA0203DF
:1054500021FA04F001F0004121FA04F220EA0200EE
:1054600000EBD3705EEA430E08BF20EAD37070BD34
:1054700094F0000F0FD101F00046400041EB010114
:1054800011F4801F08BF013CF7D041EA060195F0F6
:10549000000F18BF704703F00046520043EB0303B0
:1054A00013F4801F08BF013DF7D043EA060370479D
:1054B00094EA0C0F0CEA135518BF95EA0C0F0CD0A8
:1054C00050EA410618BF52EA4306D1D181EA0301EE
:1054D00001F000414FF0000070BD50EA410606BFE8
:1054E0001046194652EA430619D094EA0C0F02D12D
:1054F00050EA013613D195EA0C0F05D152EA033672
:105500001CBF104619460AD181EA030101F000418F
:1055100041F0FE4141F470014FF0000070BD41F0D8
:10552000FE4141F4780170BD70B54FF0FF0C4CF4B2
:10553000E06C1CEA11541DBF1CEA135594EA0C0FD1
:1055400095EA0C0F00F0A7F8A4EB050481EA030E1E
:1055500052EA03354FEA013100F088804FEA033305
:105560004FF0805545EA131343EA12634FEA0222D3
:1055700045EA111545EA10654FEA00260EF0004194
:105580009D4208BF964244F1FD0404F5407402D2E6
:105590005B084FEA3202B61A65EB03055B084FEA77
:1055A00032024FF480104FF4002CB6EB020E75EB74
:1055B000030E22BFB61A754640EA0C005B084FEA9C
:1055C0003202B6EB020E75EB030E22BFB61A754619
:1055D00040EA5C005B084FEA3202B6EB020E75EB64
:1055E000030E22BFB61A754640EA9C005B084FEADC
:1055F0003202B6EB020E75EB030E22BFB61A7546E9
:1056000040EADC0055EA060E18D04FEA051545EAD7
:1056100016754FEA06164FEAC30343EA52734FEA80
:10562000C2025FEA1C1CC0D111F4801F0BD141EAF9
:1056300000014FF000004FF0004CB6E711F4801F5E
:1056400004BF01430020B4F1FD0C88BFBCF5E06F3E
:105650003FF6AFAEB5EB030C04BFB6EB020C5FEA4E
:10566000500C50F1000041EB045170BD0EF0004EA3
:105670004EEA113114EB5C04C2BFD4EB0C0541EAD5
:10568000045170BD41F480114FF0000E013C90E6D2
:1056900045EA060E8DE60CEA135594EA0C0F08BF96
:1056A00095EA0C0F3FF43BAF94EA0C0F0AD150EA95
:1056B00001347FF434AF95EA0C0F7FF425AF104628
:1056C00019462CE795EA0C0F06D152EA03353FF450
:1056D000FDAE1046194622E750EA410618BF52EACD
:1056E00043067FF4C5AE50EA41047FF40DAF52EAA1
:1056F00043057FF4EBAE12E74FF0FF3C06E000BF3E
:105700004FF0010C02E000BF4FF0010C4DF804CD4A
:105710004FEA410C7FEA6C5C4FEA430C18BF7FEA0A
:105720006C5C1BD001B050EA410C0CBF52EA430C38
:1057300091EA030F02BF90EA020F0020704710F1B8
:10574000000F91EA030F58BF994208BF90422CBF47
:10575000D8176FEAE37040F0010070474FEA410C40
:105760007FEA6C5C02D150EA013C07D14FEA430C5E
:105770007FEA6C5CD6D152EA033CD3D05DF8040BCF
:10578000704700BF8446104662468C461946634601
:1057900000E000BF01B5FFF7B7FF002848BF10F1D8
:1057A000000F01BD4DF808EDFFF7F4FF0CBF01201D
:1057B00000205DF808FB00BF4DF808EDFFF7EAFF99
:1057C00034BF012000205DF808FB00BF4DF808ED54
:1057D000FFF7E0FF94BF012000205DF808FB00BF49
:1057E0004DF808EDFFF7CEFF94BF012000205DF8D3
:1057F00008FB00BF4DF808EDFFF7C4FF34BF0120E0
:1058000000205DF808FB00BF4FEA410212F50012CC
:1058100015D211D56FF47873B3EB625212D94FEAF7
:10582000C12343F0004343EA505311F0004F23FAE1
:1058300002F018BF404270474FF00000704750EA36
:10584000013005D111F0004008BF6FF000407047F3
:105850004FF00000704700BF4A0011D212F500124D
:1058600011D20DD56FF47873B3EB62520ED44FEAB8
:10587000C12343F0004343EA505323FA02F0704738
:105880004FF00000704750EA013002D14FF0FF3076
:1058900070474FF0000070474BB942B9002908BF6C
:1058A000002802D04FF0FF31084600F03BB882B02C
:1058B000EC462DE9005000F01DF8DDF804E002B0E0
:1058C0000CBC70472DE9F8439046994606460F46B2
:1058D00000F02AF8089BA8FB004508FB01F800FB34
:1058E00009825519341B67EB0505C3E90045BDE87E
:1058F000F88300BF2DE9F041904606460F461D464D
:1059000000F0C8F900FB05F3A0FB084508FB0138CF
:10591000069B4544341B67EB0505C3E90045BDE81C
:10592000F08100BF704700BF2DE9F04F002500292E
:1059300085B01C46C0F24981002CC0F241818C46E2
:105940000F4682469146144606461946002B4BD117
:10595000624559D9B2FA82F343B1C3F120020CFA7D
:1059600003F720FA02F29C4017439E404FEA144886
:10597000384641461FFA84F900F016FB414682463C
:10598000384600F03FFC330C09FB0AF043EA0141C2
:1059900088420AD909190AF1FF3205D2884284BF28
:1059A000AAF1020A091900D89246C0EB010B414640
:1059B0005846B6B200F0F8FA41460746584600F09D
:1059C00021FC09FB07F946EA0141894507D97B1EFD
:1059D0000C1980F05781023FA14540F2538147EAFC
:1059E0000A404FF0000804E0634558D94FF0000822
:1059F00040460246434615B1524263EB430310460C
:105A0000194605B0BDE8F08F22B90120114600F01B
:105A1000CBFA0446B4FA84F3002B40F0DC803F1B41
:105A20004FEA14491FFA84FA4FF0010849463846F4
:105A300000F0BAFA49468346384600F0E3FB330CDF
:105A40000AFB0BF043EA014188420BD909190BF11B
:105A5000FF3380F01581884284BFABF1020B091936
:105A600040F20E810B1A49461846019300F09CFA49
:105A7000019B4946B6B20746184600F0C3FB0AFB35
:105A800007FA46EA01418A4506D97B1E0C1902D263
:105A9000023FA24500D81F4647EA0B40A9E7B3FAE8
:105AA00083F4002C00F0E480C4F1200301FA04F137
:105AB00022FA03FA2CFA03FB4AEA010A20FA03F855
:105AC0000CFA04FC58464FEA1A4748EA0C083946D3
:105AD00002FA04F9CDF80C9000F066FA39468146D6
