:1000000000800020BD0100001D3100001D310000F6
:100010001D3100001D3100001D310000E9300000DD
:10002000E9300000E9300000E93000001D31000037
:100030001D310000E93000001D310000D930000002
:10004000AD2300001D3100001D310000A51C000083
:10005000AD160000892500001D3100001D31000093
:100060001D3100001D3100001D3100001D31000058
:100070001D3100001D3100001D3100001D31000048
:100080001D3100001D3100001D3100001D31000038
:100090001D3100001D3100001D3100001D31000028
:1000A0001D3100001D3100001D3100001D31000018
:1000B0001D3100001D3100001D3100001D31000008
:1000C0001D3100001D3100001D3100001D310000F8
:1000D0001D3100001D3100001D3100001D310000E8
:1000E0001D3100001D3100001D3100001D310000D8
:1000F0001D310000353C00001D310000AD3F000007
:100100001D310000714200001D3100001D31000052
:100110001D3100001D3100001D3100001D310000A7
:100120001D3100001D310000A10800001D3100003C
:100130001D3100001D3100001D3100001D31000087
:100140001D3100001D3100001D3100001D31000077
:10015000ED0600001D310000F927000035270000E2
:100160001D310000314500001D3100001D3100002F
:100170001D3100001D3100001D3100001D31000047
:100180001D3100001D3100001D3100001D31000037
:100190001D310000A91200001D3100001D310000BA
:1001A00041120000791200001D3100009112000080
:1001B0001D3100001D310000E15000004E4B4CF29B
:1001C000205210B51A804DF628121A8000BF00BFC9
:1001D00002F0A7FF494B4FF010621A60484A9A603C
:1001E000484ADA60484B1A6812F4807204D14749D1
:1001F0000A604FF4A8521A60454B1A7802F00802C0
:10020000D2B21AB11A7842F008021A700023414A99
:100210004148424C02E019599950043399188142DF
:10022000F9D33F4B3F4A002101E043F8041B9342BE
:10023000FBD33D4B00221A603C4B3D4A802103F822
:10024000011B9342FBD13B4B0A221A703A4B2422EA
:100250001A70A02203F8012C384A137803F0020325
:10026000DBB2002BF9D0354A137803F01003DBB270
:10027000002BF9D1314A137803F00C03082BFAD183
:100280002F4B03221A7040225A702C4A137803F025
:100290002003DBB2002BF9D0284A137803F0400387
:1002A000DBB2002BF9D0274A274B1A60274B2022BC
:1002B0001A70224A137803F00C030C2BFAD1244B4A
:1002C00002221A60234A43F8442C234B234A1A6023
:1002D000072243F8042C62B603F073FA0B4B1B6839
:1002E000DC0702D51E4803F011F807F083FB02F08B
:1002F0001FFF01F05FFAFEE70E200540308004404A
:10030000823F04000100002B10D0034014D00340B2
:1003100002D007408085FF1FB8130020BCD2000028
:10032000B81300200C33002008ED00E000E400E0EA
:100330005FE400E0005006400140064006400640F1
:100340000440064000000301448004400040064091
:1003500048800440C010050014E000E0FF76010072
:1003600000DD6850FFFFFFFFFFFFFFFFFFFFFFFF04
:10037000FFFFFFFFFFFFFFFFFFFFFFFFFFFFFFFF8D
:10038000FFFFFFFFFFFFFFFFFFFFFFFFFFFFFFFF7D
:10039000FFFFFFFFFFFFFFFFFFFFFFFFFFFFFFFF6D
:1003A000FFFFFFFFFFFFFFFFFFFFFFFFFFFFFFFF5D
:1003B000FFFFFFFFFFFFFFFFFFFFFFFFFFFFFFFF4D
:1003C000FFFFFFFFFFFFFFFFFFFFFFFFFFFFFFFF3D
:1003D000FFFFFFFFFFFFFFFFFFFFFFFFFFFFFFFF2D
:1003E000FFFFFFFFFFFFFFFFFFFFFFFFFFFFFFFF1D
:1003F000FFFFFFFFFFFFFFFFFFFFFFFFFFFFFFFF0D
:10040000FFFFFFFFFFFFFFFFFFFFFFFFFEFFFFFFFD
:1004100008B541F2B830074BC2F200001B1A062B98
:1004200000D808BD40F20003C0F20003002BF8D052
:100430009847F6E7BB13002008B541F2B83041F207
:10044000B833C2F20000C2F200031B1A9B1003EB88
:10045000D373591000D108BD40F20002C0F200026F
:10046000002AF8D09047F6E710B541F2B834C2F24E
:100470000004237873B9FFF7CBFF40F20003C0F20A
:1004800000032BB14DF2BC20C0F20000AFF300809E
:100490000123237010BD00BF08B540F20003C0F275
:1004A00000034BB14DF2BC2041F2BC31C0F2000060
:1004B000C2F20001AFF3008041F2B830C2F2000096
:1004C00003682BB140F20003C0F2000303B1984768
:1004D000BDE80840FFF7B0BF074B1A6842F01002B2
:1004E0001A601A6C42F400221A64D3F8002142F018
:1004F0000202C3F80021704700F00F401D4B1E4957
:100500001A681E4842F0020210B51A6053F8042C13
:1005100042F0020243F8042C194A0023136002F54A
:1005200084526FF00104116093801946D360154B1B
:100530001B681A690260022282805889444312486B
:10054000046040F2011420F8124C5C8940F8102C31
:1005500020F8024C58890D4B188023F8022C0C4BC4
:10056000A92219701A700B4B04221A700A4B102220
:100570001A6010BD4080044010B00B4090900040C5
:1005800000800040AC200020989000409E900040E9
:10059000041002401B80004000E100E01D4B1A687F
:1005A00042F04D0270B51C3343F81C2C1A6842F01F
:1005B00087021A601A681206FCD4174B186810F0EC
:1005C000400024D15A699E69DD691C6A596AB218D3
:1005D000283352191B6812195218D218C2F34E024E
:1005E0000E4B42F400421A60DA6A1E6B5D6B9C6B24
:1005F000D96BB218403352191B6812195218D2180D
:10060000C2F34E02064B42F400421A6070BD012054
:1006100070BD00BF08B00B4024B00B402CB00B40A5
:1006200030B00B400E4B1A6842F4000210B51A604D
:100630000C4B00221A60D3F8082122F00102C3F803
:100640000821094A10241460084A094CB2FBF0F052
:10065000421E22600222C3F80821064B197010BD09
:100660003C8004400070034008E100E0006CDC02C4
:10067000007103402A200020044B1A6801280CBF97
:1006800042F0010222F001021A6070470871034033
:10069000012870B504460E461AD10E4D2B68002174
:1006A0005868FFF7BFFF2B680B4A198811605988FB
:1006B0005160916841F02001916000221A819E737F
:1006C000DA73FFF709FF2046BDE87040FFF7D4BF9B
:1006D00070BD00BFAC20002018B00B40024B1B685F
:1006E00018805980704700BFAC20002008B51A4B15
:1006F00001221A60194B1B78934206D1184B1A88B5
:1007000092B242F001021A8008BD164B1B681A898A
:1007100092B2012A0FD172B6134A1168134A1160BE
:1007200062B600229A73124A116821F0200111600A
:100730001A8901321A819A7B22B1DA7B0132DA738B
:10074000FFF7CAFE074B1B689A890A4B02F01F028B
:1007500042F040021A6008BD0C7103402A200020BC
:100760001C900040AC20002024710340E4200020B5
:1007700020B00B4000B00B40012801D1FFF7ACBE08
:10078000024B1A6822F010021A60704700F00F4006
:1007900008B51A4B1A68920503D41A6842F400721D
:1007A0001A601B68154A580503D4136843F4806324
:1007B0001360124B1A68910403D41A6842F4005271
:1007C0001A602120012102F05DFE0D4B1A6842F4EF
:1007D00080721A600B4B1A6842F002021A600A4BD0
:1007E0001A6842F480721A60084B1A6842F40022B8
:1007F0001A60BDE80840FFF76FBE00BF38800440B4
:1008000004D0044014F10F404CA0044054F00F40B9
:1008100038B505461B481C4C02F00CFA1B4B2560F2
:100820001A6842F000621A60FFF7B2FFFFF7B6FEE7
:100830002368174A002128201981D97310601020DD
:100840005060906940F03C0090611888D16110615F
:10085000588850610F4A4FF0806010600E4A10684F
:1008600040F01F0010605868FFF7DCFEFFF746FEFF
:100870001820012102F006FE0848BDE8384002F0C9
:10088000D9B900BF94C80000AC20002030800440DB
:1008900008B00B4004E100E000B00B40B2C800001B
:1008A000024B1B681A8901321A817047AC20002064
:1008B000104B1A68D20703D41A6842F001021A607A
:1008C0004FF4FA7358430C4B18600C4B4FF4001262
:1008D0001A600B4B01221A601A6842F004021A6077
:1008E000402243F8042C53F8042C42F0010243F850
:1008F000042C7047388004400800044008E100E000
:1009000004000440064B0421002201391A601A61D8
:100910001A621A63043311F0FF01F6D1704700BF69
:10092000FC20002010B50D4B82781A7042780C4BD9
:100930000C481A700C4B01241C7002F07BF90B4B15
:100940000622002034211A7001F086FE01F0D6FE46
:10095000074B1C70074B00221A7010BDF9200020B5
:10096000F8200020B9C80000ED200020F72000206A
:1009700058210020EC20002030B5234C234D94F862
:10098000542085B06D238DF8003094F840308DF8F8
:1009900001302B7801330132DBB293FBF2F12B7083
:1009A0008DF8023002FB1133052101FB0341403178
:1009B000684601F037FC01F05FFA012803D11448C2
:1009C00002F038F906E028B901F031FB0146114880
:1009D00002F030F994F854302A780F48013392FB32
:1009E000F3F103FB1123052202FB034494F84010AA
:1009F00002F020F90120342101F02EFE074B0722DE
:100A00001A7005B030BD00BFFC200020F920002086
:100A1000CBC80000DFC800000CC90000F720002090
:100A20007FB5264B1A7801321A70254B002293F8B5
:100A3000541005241D4608E0013204FB025696F8C6
:100A40003B60864201D143B903E0D3B28B42F3D37A
:100A5000F9E71C4802F0EEF82EE01B4A12789A42A1
:100A600008D01A4900220A701949087814490C3034
:100A700041F82020144A124C137005255D43631978
:100A8000144893F8401002F0D5F801200021FFF738
:100A9000FFFD114B06221A7075238DF8003005F109
:100AA000400194F84030684661188DF8013001F03B
:100AB000B9FB0420FFF7FCFE7FBD00BFED20002046
:100AC000FC20002035C90000EC200020F52000208B
:100AD000F920002058C90000F72000201FB570231E
:100AE0008DF80030184B93F840208DF801201A68DB
:100AF000110E8DF80210110C8DF803108DF80520E1
:100B0000110A1A698DF804101B6A8DF80920110E5C
:100B10008DF80610110C8DF80710110A1A0E8DF8B9
:100B20000A201A0C8DF80B2068461A0A8DF80C2042
:100B30008DF80D308DF8081001F0BFFA034B01223B
:100B40001A7005B000BD00BFFC200020F620002078
:100B5000F0B5214B002293F8541005241D4609E0FE
:100B6000013204FB0256477896F83B60B74201D148
:100B70004BB903E0D3B28B42F2D3F9E71748BDE893
:100B8000F04002F057B8C1788478134A090401EBA9
:100B90000461047901EB04214479091942F8231016
:100BA000C4798579240404EB0564057A04EB0524F3
:100BB000457A191D641942F82140C17A847A0904E2
:100BC00001EB0461047B407B083301EB042109182D
:100BD00042F82310F0BD00BFFC20002087C90000B0
:100BE000054B1B78062B03D00020342101F034BDC7
:100BF000024802F01FB800BFF7200020D0C9000053
:100C00002DE9F04F724B1B78022B89B040F0DD804C
:100C1000DFF8C481DFF8C491D8F8342099F8004097
:100C20000A23B2FBF3F2C8F83420D8F83820B2FB1C
:100C3000F3F3C8F83830674B1D7858F8243058F86B
:100C40002500C01A05F054FC04350434CDE9000138
:100C500058F8243058F82500C01A05F049FCCDE9B1
:100C60000201DDE9000102460B4605F0A7FC04463F
:100C70000D46DDE9020102460B4605F09FFC0246E7
:100C80000B462046294605F0E7FA04F0EBFED8F8BB
:100C900034608246D8F83800764300FB10608B46FB
:100CA00005F026FC524604460D465B465046594622
:100CB00005F084FC02460B462046294605F0CCFA96
:100CC000524604460D465B465046594605F0C4FA66
:100CD00002460B462046294605F09AFD044630465A
:100CE0000D4605F005FC224606460F462B462046DB
:100CF000294605F063FC02460B463046394605F0AE
:100D0000A9FA04F0AFFE99F8009009F10403CDE9C7
:100D1000040158F8230005F0EBFBDDE90223064649
:100D20000F462046294605F049FC52465B4605F031
:100D30006FFD02460B463046394605F08DFACDE987
:100D4000060158F8290005F0D3FBDDE9002306462B
:100D50000F462046294605F031FC52465B4605F019
:100D600057FD02460B463046394605F075FADDE977
:100D7000022304460D46DDE9040105F01FFC52463E
:100D80005B4605F045FD02460B462046294605F028
:100D900063FA04F017FE05F0D3FEDDE90023C8F87E
:100DA0000000DDE9040105F009FC52465B4605F050
:100DB0002FFD02460B46DDE9060105F04BFA04F073
:100DC00001FE05F0BDFEC8F8100009B0BDE8F08FC7
:100DD000F9200020F4200020FC200020F820002032
:100DE000F0B5ADF5405D83B002AC054602464FF468
:100DF0008063052104F06AFC284621464FF4806296
:100E000004F048FB20464FF48061221F04F0C0FB31
:100E100054F8047C0DF5805600252859394605F014
:100E2000B3FE05F077FB0435B5F5805FE6E9020116
:100E3000F3D10DF5805108314FF480623048314EC6
:100E400000F03AF90D460DF58051044608314FF493
:100E500080622D4800F030F90B462C4909680246A3
:100E6000761A2046294605F0F5F91DA3D3E900239B
:100E700005F0CEFC1CA3D3E9002305F0EDF91CA37B
:100E8000D3E9002305F09AFB05F05AFE301801F073
:100E9000D1FC1F4B1C781F4B1B68C01A05F018FBB8
:100EA00015A3D3E9002305F089FB05F049FE04F101
:100EB0000C02194B014653F82200A538401843F89C
:100EC0002200164B16481A78A53901321A7001F023
:100ED000B1FE03B00DF5405DF0BD00BFAFF3008083
:100EE00009944A702F8BA8C0FCA9F1D24D62503FE3
:100EF0000000000080842E41FAEDEBC03923D63F7C
:100F000088C5FF1F00286BEE8885FF1FE4200020A6
:100F1000F9200020F0200020FC200020F5200020F7
:100F2000F3C90000AFF300804FF4FA200121FFF76E
:100F300079BB084A08480023195A41F4805189B204
:100F400041F4002142F813100233B3F5006FF3D1DE
:100F5000704700BF5C2100208805002008B50D48BF
:100F600001F068FEFFF7E5FF01F030FA4FF41040A2
:100F700001F09AFA01214FF4FA20FFF753FB002009
:100F8000FFF77AFB01F0C4F90348BDE8084001F01F
:100F900051BE00BF0BCA0000B2C800000120FFF71D
:100FA0006BBB48B92A4B01291A6802D142F0800272
:100FB0000AE022EAC11148E001280AD1244B0129A4
:100FC0001A6803D142F010021A60704722EA011138
:100FD0003BE0022809D11E4B01291A6802D142F0D8
:100FE0000102F1E722EA01012FE0032806D1194BA3
:100FF00001291A6827D142F40032E5E7042825D1F7
:10100000134B01291A6811D142F080021A601A6844
:1010100042F010021A601A6842F001021A6053F896
:10102000802C42F4003243F8802C704722EAC1122F
:101030001A601A6822EA01121A601A6822EA01028A
:101040001A60044B1A6822EA41411960704700BFD8
:10105000C0F00F4040F00F40144B1A68D20403D484
:101060001A6842F480521A601B68104A5B0503D468
:10107000136843F4806313600D4B1A6842F4807266
:101080001A6053F80C2C42F4807243F80C2C53F87D
:101090001C2C42F4807243F81C2C064B1A68042066
:1010A00042F4807200211A60FFF77BBF3880044051
:1010B0001CC0044044A004402DE9F04F002400254A
:1010C00085B081468C4692464FEA420B4FF00008AD
:1010D00026462F462DE04FEA58030CEBC303D3E915
:1010E000000109EBC803D3E90023CDE90201CDF8E3
:1010F00004C005F063FA02460B462046294605F077
:10110000ABF809EBC803D3E9022304460D46DDE939
:10111000020105F053FA02460B463046394605F007
:101120009BF808F10208DDF804C006460F461FFAD6
:1011300088F8D845CFDB504605F0DAF922468046DC
:1011400089462B462046294605F086F842464B46FE
:1011500005F05EFB002204460D46304639464FF04E
:10116000404305F02BFA42464B4605F051FB024640
:101170000B462046294605B0BDE8F04F04F070BC90
:1011800008B5244801F056FD234B1A68100503D416
:101190001A6842F400621A601B681F4A590503D49A
:1011A000136843F4806313601B4B1A68920403D4E2
:1011B0001A6842F400521A60184B19484FF08072B6
:1011C0001A604FF000721A604FF000621A60154BFF
:1011D0001A6822F480221A60134A116821F0010172
:1011E000116052F8801C21F4807142F8801C1A684A
:1011F00022F002021A600D4B0D4A13600D4A136073
:10120000A2F5FF5213600C4A0C4B1A60BDE808406F
:1012100001F010BD29CA00003880044008E100E058
:10122000B2C8000054F00F4014F10F4000010B0051
:1012300048A0044000D004400001090004A004407C
:1012400008B50A4B1B689B0706D5FFF7C9FCC820E9
:1012500002F0A2FA064B04E04FF4C87002F09CFAC8
:10126000044B1A6842F080721A6008BD50F00F40BB
:1012700004A0044048A0044008B5C82002F08CFA3D
:10128000024B1A6842F080721A6008BD20B0044018
:1012900008B5C82002F080FA024B1A6842F080724A
:1012A0001A6008BD00D004407FB5404B404C8022FE
:1012B0001A601A6822F001021A602378062B0DD1F9
:1012C0000020FFF7D9F93B4801F0B4FC3A4A00236B
:1012D00013703A4A13700723237065E0384A147874
:1012E000012C4FF000034FD1364D374895F854107C
:1012F0001370052601F09EFC0FE02B19214693F890
:101300005530742B06FB04530CBF3048304893F81B
:10131000402001F08FFC0134E4B295F85400A04263
:10132000EBDA01221346274C05252AE005FB014292
:1013300092F840209A4221D00131C9B2012200E046
:1013400001218842F2DACAB11E4C84F8403004F11F
:101350004000F02384F8413084F8423084F8433070
:1013600084F8443000F0BDFF1A4894F8401001F0B2
:1013700061FC194B01221A706E2305E00133DBB2C8
:1013800000229842DCDADFE78DF8033077238DF80E
:1013900000300C4B93F8403068468DF801307423D0
:1013A0008DF8023000F089FE7FBD00BF00000440D0
:1013B000F720002047CA0000E03200205C31002006
:1013C0005D310020FC20002065CA000085CA0000B5
:1013D000AACA0000CCCA00005E310020054B0022E2
:1013E00083F8542083F8452083F84A2083F84F205F
:1013F000704700BFFC20002010B50C4A92F8544002
:101400000134E4B2052303FB042382F8544012198B
:1014100083F84000F02083F8410083F8420083F80D
:10142000430083F8440082F8551010BDFC200020D2
:101430007FB5204A002392F854100524154608E091
:10144000013304FB035696F83B60864201D142B952
:1014500003E0DAB28A42F3D3F9E7174801F0EAFB76
:1014600021E0164B1B78012B21D0FFF75DFD72B6F2
:10147000134B14481B68C01A01F0DCF90446FFF74F
:101480008DFD62B665238DF80030230E8DF8013096
:10149000230C8DF802306846230A8DF803308DF84E
:1014A000044000F00AFE084B07221A7000E0FEE735
:1014B0007FBD00BFFC200020F6CA0000EB2000200A
:1014C0002471034000286BEEF72000207FB5694BA4
:1014D00000221A7000F0C3FD002800F0CA806846A0
:1014E00000F03FFD9DF80030633B142B00F2C180FB
:1014F000DFE803F02C0B8F23BFBFBFBFBFBFA3BF6D
:10150000A78BBF1D13BF66BF36005B4A9DF8014025
:1015100092F854100123052573E0584B93F874306A
:10152000012B40F0A680684601F09EF9A1E05448E6
:1015300001F080FB01F048F99BE0504B93F87430C8
:10154000002B40F0968001F0D9F892E04D4B00223C
:101550001A709DF801204C4B1A70FFF7D3F988E000
:101560009DF801109DF8023049B9672B07D1424B15
:1015700093F84000FFF79CF9FFF730FF79E0742BF8
:1015800001D0722B75D1414A127892B9742B9DF813
:10159000033003D16E2B01D13D4802E06E2B02D106
:1015A0003C4801F047FB354B93F874300BB901F020
:1015B000A5F89DF801009DF80210FFF71DFF58E007
:1015C0009DF80100FFF734FF53E01846013305FB97
:1015D000032696F83B60A64213D19DF803109DF8B0
:1015E0000230090401EB03619DF8043001EB032193
:1015F0009DF8053000F10C02C9181F4B43F822106A
:1016000037E0D8B28842E0D333E06846FFF7A0FA6B
:101610002FE09DF802209DF80130120402EB0362D6
:101620009DF8033002EB03229DF80430D2181A4BC8
:101630001A601A4B01221A701BE06846FFF772F914
:1016400017E0174B1B78062B13D1164B80221A601C
:101650001A6822F001021A600020FFF70DF8C82076
:1016600002F09AF8104801F0E5FA9DF80100FFF742
:10167000D7F97FBDE8200020FC200020302000208A
:101680001ECB00005E310020F42000205D310020E0
:101690003FCB000074CB0000F0200020E03200209F
:1016A000F720002000000440A6CB000008B5002071
:1016B000FEF7E2FF034B01221A70034B04221A705B
:1016C00008BD00BF5C3100201F80004010B51E4BDC
:1016D0001B78052B33D8DFE803F0030D3216202AE0
:1016E000002420464FF40051013400F051FB102C2F
:1016F000F7D124E0002420461449013400F048FBCF
:10170000102CF8D11BE0002420464FF4A001013436
:1017100000F03EFB102CF7D111E0002420464FF0E2
:101720002011013400F034FB102CF7D107E0002425
:1017300020462021013400F02BFB102CF8D1BDE80D
:10174000104000F0D1BA00BF5E310020001D330010
:1017500030B51448144C154D85B001F06BFAFFF705
:101760003DFE77238DF8003000238DF80130684668
:1017700067238DF8023000F0A0FC012323700C4B8E
:10178000052204201A70FFF793F806E02B78012B4E
:1017900001D1FFF79BFEFFF799FF2378012BF5D0CE
:1017A00005B030BDB4CB00005D310020E820002042
:1017B0005E310020904B1A6842F080722DE9F041B2
:1017C0001A608E4B8E4A8F4DDFF8B48200241C7055
:1017D0008D4B01261E708D4B88B04FF4FA601A6055
:1017E00001F0DAFF8A4801F025FA8A4801F022FA6E
:1017F000894801F01FFA894801F01CFA864801F077
:1018000019FA874801F016FA4FF48063ADF81630E4
:101810004FF4FA2304930523ADF818304FF40C73FA
:10182000ADF80C304FF4E673ADF80E307D4B8DF80B
:101830001A400793FFF792FB03A8FEF7E9FF7A4AE5
:101840007A49102000F03CF9FFF740FF00F0E4FA7D
:10185000F0230E2130462B706B70AB70EB702B7148
:1018600000F094FB284600F03CFD284600F02AFDDD
:10187000642001F091FF6E4B1A6842F480521A60A6
:101880006C4B1A6842F4003242F480721A6030469F
:10189000342100F0E1FEFFF75BFF674B1C70674BE4
:1018A0001E70674B1C70674B1C70674B1C70674B3E
:1018B0001C70FFF765FC664C98F80030012B01D1D5
:1018C000FFF704FE634B1B78062B02D0072B20D1B9
:1018D00012E0594B1B780BB9FFF74EF85B4B1A78A7
:1018E000012A16D15C4A92F8762092B91A705B4BA5
:1018F0001878FFF795F80CE0594B1B78012B424BF9
:1019000003D8554A92F874200AB9042200E0032251
:101910001A704C4B1A78012A66D14B4A117801296A
:1019200062D100251D704F4B157080221A601A6815
:101930004D4E3C4822F001021A60FFF751FA31780F
:10194000092904D8052001F027FF484B25E03A4F2C
:1019500047483B780C3354F82320B2FBF1F201F0F6
:1019600069F93B78012B0BD13278636B2561B3FBAE
:10197000F2F323602562FFF7B1F8FEF7FDFF30E0D8
:10198000022B2ED12D4A317813780131581C8B420D
:10199000107006D1A36B6363364B1878FFF740F8DD
:1019A0001FE0FFF72DF9FFF799F8334801F042F9EE
:1019B000052612E006FB05432F1D93F840102F4823
:1019C00005F1080354F82330009354F8252054F807
:1019D000273001F02FF90135EDB294F85430AB42C5
:1019E000E8DA1C4B07221A7000F0BEFBFFF76EFE10
:1019F000012001F0D1FE5FE744800440F620002082
:101A0000A94E0000981F00205E310020F432002013
:101A1000D6CB0000E1CB000010CC00003FCC000092
:101A20006ECC0000D413002060310020A080FF1F86
:101A3000388004400CC00440F9200020ED20002034
:101A4000FA2000205C310020E032002058210020E4
:101A5000FC200020F720002030200020F82000206B
:101A6000E920002000000440F5200020EC200020A8
:101A7000A1CC0000F4200020C6CC0000E8CC00007F
:101A8000E820002072B60B4B0B491A680B4B1B6801
:101A9000096862B6490102D5322A88BF0133C2F50E
:101AA000BB32FF326021B2FBF1F24FF47A7000FBDF
:101AB0000320704718E000E004ED00E0701C0020F7
:101AC0002DE9F04104465A485A4E5B4D8846174668
:101AD00001F0B0F8594BC6F800801C801822A4B25F
:101AE00054434046002122462F6006F0ABFB3846A7
:101AF00027B10021224606F0A5FB01E033682B60E8
:101B00004F4D504F2B6843F020032B604E4B1A680B
:101B100042F480721A604D4B1A6842F020021A603B
:101B2000082001F031FC0320494901F039FC042070
:101B3000474901F035FC03203C2101F0BFFC0420A3
:101B4000B02101F0BBFC434A434B44481A60444B6C
:101B50001A681A60434A444B1A60444B02F50072FB
:101B60001A60434B1A6842F002021A6053F8042CC0
:101B700042F0020243F8042C3E4B3F4A1F60012111
:101B800000231380538051609360D0603B481382E0
:101B9000048022463A4CC0F802300820208062803F
:101BA000244CD4F800C0374CC4F800C0C2F1000C7B
:101BB000A180E380A160C4F80CC0DFF8E4C0283441
:101BC00044F818CC24F8143C24F8122C44F8103CA7
:101BD00024F80C0C24F80A2C44F8087C24F8043C63
:101BE00024F8023C216028491E460B604D600B81A1
:101BF0004A81CB60254B0A2119805A80244B4FF033
:101C000080521A604FF0402341F232021A60214B99
:101C1000B2221E701A70B3225E705A70B1229E708A
:101C20009A701D4B18601D48BDE8F04101F002B8E4
:101C300002CD0000E8320020EC320020E432002027
:101C4000C8F00F4001CD000014C00440D4F00F4094
:101C500000350C000003010000A00440C4F00F4058
:101C600094F00F400001020000B0044034900440A2
:101C70004080044020900040249000403690004076
:101C80003C900040409000406C9000407C900040B0
:101C90000C0008E00110024000E100E0B2C80000C2
:101CA000C0F00F4008B5054B03221A70FFF7EAFE9B
:101CB000034B002218601A7108BD00BF1F8000404E
:101CC000D41B002010B5074C237943B9FFF7DAFE87
:101CD0002368C01A31288CBF0020012010BD0120CC
:101CE00010BD00BFD41B002010B5214A1379002B72
:101CF000FCD1204B1968204B1868814205D01F4B3E
:101D00001B8818225A4306F07DF9194CFFF7BAFEDA
:101D10002368C01A3128F9D9194B186818331B6881
:101D200072B6134A0121117116490A689A42154A7E
:101D3000FBD911689942FCD811689942FCD310492B
:101D400000F0E7030B60104B01221A6003F580538B
:101D50004FF400541A60A3F500531C600B4B1A702B
:101D600002221A7003221A70086062B610BD00BF0A
:101D7000D41B0020EC320020E8320020E4320020A6
:101D80000090034004900340A0A004401B8000404A
:101D90000A020B1202F47F0203F47F4313430D4A3D
:101DA00010B51268C9B21943182303FB0020013093
:101DB0004FF4000210F8014C0A4214BF44F0200412
:101DC00024F0200400F8014C52080130013BF1D10D
:101DD00010BD00BFEC3200200E4B10B51B6818225E
:101DE00002FB0030002213464FF40001845C04F033
:101DF0002004E4B204B10B4301324908182AF5D19A
:101E000018021A1202F47F4200F47F001043DBB282
:101E1000184310BDEC32002008B5064800F00AFF58
:101E200000F0D4FA002000F051FB0348BDE8084060
:101E300000F000BF24CD0000B2C80000014B1878AC
:101E4000704700BFF032002008B50021602000F08C
:101E500011FB00200121BDE8084000F00BBBFF2072
:101E6000012100F007BB08B5FFF7F9FF10F0300FB4
:101E700014BF0020012008BD08B5FFF7F0FF00F0F7
:101E80001003DBB23BB900F02000C0B200280CBF49
:101E9000FF20002008BD012008BD2DE9F0410646C5
:101EA0000F461546002402F1FF3809E04445305D35
:101EB00001DA002100E0012100F0DCFA385501349C
:101EC000E3B2AB42F2D3BDE8F081F8B506460D4669
:101ED00000244F1E08E0BC42305D01DA002100E022
:101EE000012100F0C7FA0134E3B2AB42F3D3F8BDED
:101EF00010B500F01F000C4640F02000002100F05B
:101F0000B9FA20460121BDE8104000F0B3BA08B587
:101F1000002000F0DBFA00200821BDE80840FFF7B0
:101F2000E7BF08B507207021FFF7E2FF00200A2174
:101F3000BDE80840FFF7DCBF08B5002000F0C6FA96
:101F40000121E22000F096FA07207021FFF7D0FF70
:101F500000200B21FFF7CCFF0120BDE8084000F076
:101F6000B5BA10B500210446612000F083FA064B93
:101F7000204621461A78FFF790FF07204021BDE850
:101F80001040FFF7B5BF00BFF032002010B51F4C66
:101F90000346217005201946FFF7AAFF11200021F2
:101FA000FFF7A6FF12202178FFF7A2FF1320217868
:101FB000FFF79EFF14200021FFF79AFF1520002154
:101FC000FFF796FF16200021FFF792FF1D20012149
:101FD000FFF78EFF06200E21FFF78AFF0020082161
:101FE000FFF786FF01200721FFF782FF072102206C
:101FF000FFF77EFF04200521FFF77AFF1C20002158
:10200000FFF776FFBDE81040FFF796BFF0320020E3
:1020100038B500F01F000C460021154600F02AFAE2
:10202000204621462A46BDE83840FFF736BF07B5AF
:1020300008200DF107010122FFF7EAFF9DF80700D4
:1020400000F00F000EBD07B517200DF107010122AA
:10205000FFF7DEFF9DF8070000F001000EBD08B598
:10206000FFF7FDFE00F04000C0B230B9FFF7EBFF14
:10207000D0F1010038BF002008BD012008BD38B5EF
:1020800000F01F000C4640F020000021154600F033
:10209000F1F920462946BDE83840FFF716BF10B5D4
:1020A000044621460A200522FFF7E9FF10202146B9
:1020B0000522BDE81040FFF7E2BF70B5234B1A7848
:1020C000012A05461BD1224B224C1A7813B2180163
:1020D0005900411A20480918204803EB83031818B7
:1020E0000023EE5CCE54DEB2042E9CBF1E5DC654AF
:1020F00001330E2BF5D1164B01321A7070BD01243D
:102100001C70174B13481C70FFF7C9FF002000F02C
:10211000DDF9FFF706FF2146E12000F0ABF90021D1
:10212000B02000F0A7F90F4B28461978FFF7CDFE35
:10213000204600F0CBF9FFF796FE04460028FAD1BE
:10214000FFF7FAFE014B1C7070BD00BFEB200020B2
:1021500029200020981F00209D1F0020B020002073
:10216000EA200020F03200202DE9F041254F3C7894
:10217000002C45D1244D2978002941D0012623483F
:1021800000F058FD3E702878214F224B4FF0050893
:1021900008FB00701E70FFF782FF204600F096F9E2
:1021A000FFF7BFFEE120314600F064F92B7808FB11
:1021B00003F8194B17F808201B789A4201D1B02078
:1021C00000E0A0202146104C00F054F92278134B77
:1021D0000E2000FB0230124B1978FFF776FE01202B
:1021E00000F074F9FFF73FFE0028FBD1FFF7A4FED3
:1021F000237813B1044A013B1370024B00221A707A
:10220000BDE8F081EB2000202920002041CD000016
:10221000B0200020EA200020981F00209D1F0020F1
:10222000F032002070B5224B1A78012A05461AD1E7
:10223000204B1A7813B21C015800201A1E4C0019AA
:102240001E4C03EB83031C190023EE5CC654DEB264
:10225000042E9CBFCE5CE65401330E2BF5D1154BFA
:1022600001321A7070BD084601241C70FFF717FF79
:10227000002000F02BF9FFF754FE2146E12000F08A
:10228000F9F80021A02000F0F5F80D4B2846197848
:10229000FFF71BFE204600F019F9FFF7E4FD0446A6
:1022A0000028FAD1FFF748FE014B1C7070BD00BF3B
:1022B000EB200020292000209D1F0020B0200020BE
:1022C000F032002010B50446002000F0FFF80C208A
:1022D00021460522FFF7D3FE0120BDE8104000F0A3
:1022E000F5B810B50446002000F0F0F80B202146A8
:1022F0000522FFF7C4FE0120BDE8104000F0E6B85B
:10230000024B186800F08040704700BF2CC00240AC
:102310001A4B1B491A6842F002021A6053F8042C47
:1023200042F0020243F8042C164B174A1A60174A6F
:102330001A6104229A8000230B70154940F2022092
:102340000880C1F80220134A134911601349138110
:102350004FF480620A800A81114A0821136091803B
:10236000918889B241F0020191800E4A01211160E9
:102370000D4A1370B6231370704700BF40800440AD
:102380001B800040009000405C21002034C00240CF
:10239000069000400C90004000F0FFFF16900040B7
:1023A0001890004000E100E00010024008B5054B25
:1023B0001B78012B02D10020FEF75EF9024B0022B0
:1023C0001A7008BD2A2000201F8000401E4B1A688A
:1023D000D20403D41A6842F480521A601B4A4FF4A4
:1023E000117313601A4A13601A4A116841F480711C
:1023F0001160194A116841F00801116017494FF442
:1024000001720A60C1F8F02F154A16491360C2F82C
:10241000F03F154B40F202221A60144B01221A6061
:102420001A6842F0004242F413221A60104A116006
:102430004FF0F44142F8041C002111621A6822F0A6
:1024400001021A60704700BF3C80044010B0044095
:1024500018C004400CB0044094F00F4014B0044085
:1024600018B00440020300381CB0044000C0024011
:1024700010C002400129094B094A0CBF40F08050AE
:1024800040F0104040F480301860136813F0700F73
:10249000FBD0044B1868C0B2704700BF34C0024084
:1024A0002CC0024038C00240054B064A40F40020D0
:1024B0001860136813F0700FFBD0034B1B68704754
:1024C00034C002402CC0024038C00240044B1A689D
:1024D00010B142F0080201E022F008021A607047D1
:1024E00080F00F401C4B1A6842F002021A6053F849
:1024F000042C42F0020243F8042C184A184B1A60CC
:10250000184A002313809360174B93F874100C3211
:1025100009B95C3300E020331449136000230B80B9
:102520001A464B60124B40F2022119800421C3F875
:102530000210104901230B800B810F4B02211980DF
:102540000E4B40F080001A7018700D4B05221A7067
:102550000C4B20221A6070474080044024710340D5
:10256000A0900040A490004030200020B490004093
:10257000A6900040B6900040BC900040051002407C
:102580001B80004000E100E00D4B05221A700D4B4E
:1025900093F86020012A0C4A08D10021117083F8B9
:1025A00060100A4AD96D521A9A6570471378012B48
:1025B00002D1002313707047054B01221A70704737
:1025C0001F80004030200020EA20002000286BEE11
:1025D000E8200020184B19491A6842F400021A60DA
:1025E000174B00221A60174AC3F8202140230B60C2
:1025F000154B02221A60186840F004001860186831
:1026000040F0010018602F2043F8180C53F8100C0C
:1026100040F0010043F8100C0C4B93F8740050B9D3
:10262000586E0B4B186080230B600A4B1A601A68B7
:1026300042F001021A6070473C80044008E100E06B
:102640000070034000286BEE28710340302000200A
:1026500030710340387103402DE9F0411F4E96F868
:1026600074308342074688464FF000044FF000055F
:1026700026D01B4800F0DEFA0123F366194B86F8DA
:1026800074707366184B00224046B366C6E9124563
:1026900000230024C6E90A23346586F85440FFF776
:1026A00021FFFFF797FF114800F0C4FA0FB9104857
:1026B00002E0104B10481C70BDE8F04100F0BABABF
:1026C000002300220021C6E90A230123C6E912459E
:1026D000316586F85410F366BDE8F08130200020A3
:1026E00063CD0000FFD7B8057F8D5B0081CD000072
:1026F000C2C80000E920002087CD0000054B012260
:1027000083F87620002283F875209A6E024B1A60B7
:10271000704700BF3020002030710340034B044954
:102720005A6E0A60002283F876207047302000201D
:10273000307103401FB51A4B01221A60194B93F8F0
:102740007620012A08D193F87520511C052A83F8B8
:10275000751001D9FFF7E2FF124C012384F86030B5
:1027600073238DF80030E36E1B0A8DF80130E36EA1
:102770008DF80230A36D1B0E8DF80330A36D1B0C7A
:102780008DF80430A36D1B0A8DF80530A36D6846E3
:102790008DF80630FFF791FCE36E0133E3661FBD51
:1027A0003C710340302000201FB5064800F042FA7B
:1027B00004A8662300F8103D6846FFF77EFC05B0CC
:1027C00000BD00BF8FCD000010B5002308481A4699
:1027D0001C180749226122631A500433102BF7D1C9
:1027E000002381F85430CA6E024B1A6010BD00BF3E
:1027F00030200020A82000201FB50C4B01221A60B9
:102800000B4B93F87430934204D1FFF7DDFFFFF7D1
:10281000CBFF08E004A8722300F8103D6846FFF7DC
:102820004CFCFFF76BFF05B000BD00BF2C710340EF
:102830003020002038B50B4C94F874308BB1236DE8
:102840000246C518C317D4E90A01101A63EB010147
:1028500003F07EFED4E9122303F0B0FE04F048F941
:10286000281838BD302000202DE9F74F42788378B2
:10287000674F03EB0223FB66FA6E664B97F85460D2
:102880001A60FB6E03F1FF3808F00308C7F8708088
:1028900090F804B0C3784FEA0B4B0BEB036B437912
:1028A0000BEB032B83799B4408F10403032E57F8A9
:1028B00023A047F828B008F10C03CAEB0B0247F835
:1028C00023204FF0000977D90C373C460020002127
:1028D0004B4608E054F8042F8018226A41F10001A9
:1028E000013391449BB2B342F4D3F2B2002304F01B
:1028F000A5FB474B04460D460020C3E90A4599FB5A
:10290000F6F900220023864657F8041F0EF1010E47
:10291000C4EB010C396A1FFA8EFEC9EB0101B64502
:10292000CCFB0C2301FB0C00EED30192009303F0CF
:10293000DFFD019A009B06460F461046194603F03C
:102940000FFE02460B463046394603F061FF06464D
:1029500050460F46C1170AEB090C001B61EB05013D
:10296000CDF804C003F0F4FD0B460246394630466C
:1029700003F024FE04F0BCF8DDF804C00BF1020300
:1029800060449842224B03D8ABF1020B584505D264
:102990004344002283F840201F4B0BE003EB080266
:1029A000C3E91267C3F850901B4B012182F8401015
:1029B0001A7852181A7005E04744174B87F8409070
:1029C00083F8009008F10403114C54F82300FFF73A
:1029D00031FF54F82810091A104800F02BF9E36E63
:1029E0005B0702D10E4800F025F9E16E226A0D4B1B
:1029F00001F0030104319B1A44F8213094F854305B
:102A0000032B03D8024A013382F85430BDE8FE8F0D
:102A100030200020A8200020E9200020A6CD0000C2
:102A20009ECC000000286BEE064A08B513681BB167
:102A300003F8010B136008BD034B1B6803B19847F3
:102A400008BD00BFDC1B0020F432002010B5441E7E
:102A500001E0FFF7E9FF14F8010F0028F9D110BDDC
:102A60002DE9F04F044685B00D464FF00A0800E00E
:102A700035462078002800F0C880252801D0013490
:102A800068E06078302803D1A0780123033407E0A0
:102A90002D2802D00234002302E0A0780223033460
:102AA000002704E008FB070714F8010B303FA0F1F2
:102AB0003002092AF6D96C2801D04C2803D114F829
:102AC000010B43F00403002800F09F80602886BFBC
:102AD000A0F12002D2B202464F2A42D006D8432AA1
:102AE00030D0442A09D0422A34D137E0552A04D0C4
:102AF000582A2CD0532A2DD102E04FF00A0E32E092
:102B00002E1DD5F80090002500E0013519F80520AC
:102B1000002AFAD104E02020FFF786FF554601E0A5
:102B2000980704D4BD4205F1010AF4D3554648463E
:102B3000FFF78CFF03E02020FFF776FF0135BD4251
:102B4000F9D395E728782E1DFFF76EFF90E74FF039
:102B5000100E08E0FFF768FF2E4689E74FF0020EDF
:102B600001E04FF0080E2E1D442A296804D10029E7
:102B700002DA494243F00803002200E02A46B1FB92
:102B8000FEFC0EFB1C11CDB2092D614607D9782839
:102B900014BF4FF007094FF027094D44EDB230350F
:102BA0000DF80250551CBCF1000F02D0102DE5D1DC
:102BB0000F22190705D504A94D192D2105F8101C60
:102BC000951C13F0010F0CBF4FF0200B4FF0300B92
:102BD0009B07A94604D508E05846FFF725FFD146D4
:102BE000B94509F1010AF7D3D146013D1DF80500A9
:102BF000FFF71AFF002DF8D104E02020FFF714FFA3
:102C000009F10109B945F8D332E705B0BDE8F08F05
:102C1000074B70B51D6818604C1E1E4601E0FFF79B
:102C200003FF14F8010F0028F9D1356070BD00BF13
:102C3000F43200200FB407B504A951F8040B019138
:102C4000FFF70EFFBDE80E4004B070470EB417B595
:102C500005A9084C51F8043B206018460191FFF784
:102C6000FFFE2268002313702360BDE81E4003B0FE
:102C7000704700BFDC1B00200EB433B505A9074C1C
:102C800051F8043B2568206018460191FFF7E8FEE3
:102C90002560BDE83C4003B0704700BFF43200201F
:102CA00070B51E4605461D481446FFF7C3FF022EA9
:102CB0001FD0042E25D0012E2AD105E0A95D184889
:102CC000FFF7B8FF013600E00026A642F6DB202021
:102CD000FFF7AAFE002609E0AB5DA3F120005E2805
:102CE00094BF18462E20FFF79FFE0136A642F3DB65
:102CF0000EE00C4835F8021BFFF79CFF013CF8D1B1
:102D000006E0094855F8041BFFF794FF013CF8D191
:102D10000A20BDE87040FFF787BE00BFABCD0000C2
:102D2000B2CD0000B8CD0000BECD0000F0B53048F7
:102D3000304903681B06FCD40B6813F08002F8D1FD
:102D400072B62D4B1978002950D02C4908684F686D
:102D50008E68CD680C6938181431801909684019DB
:102D600000194018C0F34E00254940F400400860A7
:102D7000C86A0F6B4E6B8D6BCC6B38184031801965
:102D80000968401900194018C0F34E001D4940F46D
:102D90000040086001F10811143151F8140C51F889
:102DA000107C51F80C6C51F8085C51F8044C09681F
:102DB00038188019401900194018C0F34E00124904
:102DC00040F400400860C86A0F6B4E6B8D6BCC6B93
:102DD0003818403180190968401900194018C0F3AB
:102DE0004E000A4940F4004008601A7062B6F0BD17
:102DF00024B0034024B00B40E01B002038B0034057
:102E00002CB0034030B003402CB00B4030B00B402E
:102E1000224B60221A70E1225A70214B214A197804
:102E2000214B082901D1012102E00A2907D13921CA
:102E3000116013221A601D4B19605A600BE00C29B7
:102E40001A4901D1352000E03D20106012221A609D
:102E5000174B08601A60174B17495B78174A03B184
:102E600001230B6013600E4B154A5978154B01294D
:102E700001D880210CE0042901D8842108E0082928
:102E800001D8852104E0102901D8862100E087219E
:102E900011601960074B01221A707047004007400B
:102EA000880D002008B003400CB0034008B00B4070
:102EB0000CB00B40E01B002020B0034020B00B40C2
:102EC00024B0034024B00B400D4B5A7858B1AAB936
:102ED000012159701B7823B10A4B1A6003F50023B6
:102EE0001A60FFF795BF4AB158701B78002BF8D0D5
:102EF000044B186003F500231860F2E7704700BF29
:102F0000E01B002024B003400C2810B503D9102387
:102F1000102807D809E00A2806D8082894BF0823F3
:102F20000A2302E0184600E00C23DCB2084A0949F3
:102F3000201A90700878834209D013780C7013B16E
:102F4000054B00221A60BDE81040FFF761BF10BDBD
:102F5000E01B0020880D002024B0034010B5114B69
:102F60001B7804460BB1FFF7E1FE012C0E4A01D895
:102F7000002302E0042C02D8042313600EE0082C86
:102F800003D805231360082308E0102C03D8062378
:102F90001360102302E0072313602023034A5370B9
:102FA00010BD00BFE01B002024B00340880D0020AE
:102FB0000D282DE9F0410FD9172801D80E380AE065
:102FC000A0F11A03052B01D8093804E0A0F122036F
:102FD000062B50D81838C0B2284B1C5C284B1B78E5
:102FE0000BB1FFF7A3FE72B6220617D4254D244E6F
:102FF00001272C60F77062B672B62B6813F0800F51
:103000001F4B04D0204A10680022DA7026E0F378C3
:10301000002BEED062B601F091FFEDE704F040071F
:103020001A4D174EFFB204F03F044FF00108184B41
:103030001A6817B122F0100201E042F010021A6083
:103040002C6086F8048062B672B62B6813F0800F8D
:103050000B4B09D00F4A106800221A7162B69B7898
:1030600040FA03F0BDE8F0813379002BDFD062B67F
:1030700001F064FFE8E70020BDE8F081C5CD000065
:10308000E01B002000B0034010B0034000B00B4034
:103090000CB00B4010B00B400B4B1A6842F480523E
:1030A0001A600A4B5A780A4B0AB1802200E0C0220B
:1030B0001A7040F6FF739842A8BF1846054B20EAE5
:1030C000E0701880704700BF2C800440E01B002097
:1030D00021C00C4000C00C40024B1A6801321A603B
:1030E000704700BF701C002038B50B4C2546236884
:1030F000580301D501F01CFA2B68590501D500F0E1
:1031000099FD2B681A0501D500F050FF2368DB04F8
:10311000EDD501F0ADF8EAE73480044008B5FFF7DB
:10312000E3FF024B10221A80704700BF00200540C9
:103130007047034A1368181810601846704700BF9C
:103140008C0D0020002070474FF0FF3070474FF487
:1031500000534B6000207047012070474FF0FF3054
:103160007047FEE7FEE70078D0F1010038BF00208D
:103170007047012303707047EFF313839BB9EFF39C
:10318000108098B9EFF3058323B10F2B04D9084AB7
:10319000985C01E04FF48070EFF311833BB19842EB
:1031A00028BF184670474FF0FF30704718467047E9
:1031B000F0E300E0002300E00133C25C002AFBD111
:1031C0001846704710B50023B0FBF2F402FB140060
:1031D000092801D8303000E03730C85420460CB1FF
:1031E0000133F1E7CA185470224605E0885CCC5CD4
:1031F0008C54C8540132013B9A42F7DB084610BD9B
:10320000031E10B50C4603DBBDE81040FFF7DABF24
:103210002D2001F8010B5842FFF7D4FF204610BDC6
:10322000F0B50F4687B016461C463A46334605466B
:10323000074901A805F08CFA284603F06BF902460D
:103240000B46204601A905F083FA204607B0F0BDE1
:10325000DCCD0000084B4FF400021A604FF0807282
:103260001A604FF000721A604FF080621A604FF0DF
:1032700000621A60704700BF08E100E0212830B505
:1032800021D8042A1FD8DFE802F00709050B030044
:103290000B2306E00A2304E0082302E00C2300E0ED
:1032A0000923094A02EBC002526872B61468074D3E
:1032B00024F47024146044F0807444EA034345F815
:1032C0002010136062B630BDE8CD0000E81B00207E
:1032D000094B03EBC0035B6872B61A6822F0877271
:1032E00022F4803242F080721A60044B002243F8CC
:1032F000202062B6704700BFE8CD0000E81B002028
:10330000014B1868704700BF00D00340044B0549CB
:1033100000221A600A60044A106010221A60704786
:1033200014D0034004D0034000D00340002810B55F
:103330000FDB02024FF4807347F6FF7400E00A4689
:10334000A24204D9013B012BC0EB0201F7D1120AC2
:1033500011E0404202024FF4807348F2FF0400E0A3
:103360000A46A24204D9013B012BC0EB0201F7D16E
:10337000120AC2F58072013B024942EA03220A6046
:1033800010BD00BF0CD0034018B1102828BF10207A
:1033900000E00120014B1870704700BF900D002025
:1033A00010B500234FF4377242FA03F4A14202D859
:1033B0000133072BF8D1164A42FA03F202EB51020D
:1033C000B2FBF1F101394FF6FF72914228BF11466D
:1033D000C21E012A06D80F4A0F4C00201060206040
:1033E0000E480FE0421F012A06D9092804D00A28F6
:1033F00002D01438032809D8094A0A4C002010606A
:103400002060094843F008030160136010BD00BF4D
:10341000006CDC02009003400490034008900340DD
:10342000008003400480034008800340212810B539
:1034300018D80D4A52F8303093F880423CB101223E
:1034400011B183F8802010BD83F8002110BD02EB7C
:10345000C00043681A6811B142F0030201E022F093
:1034600002021A6010BD00BFE8CD0000212805D877
:10347000034B53F8303093F8000270470020704738
:10348000E8CD0000212816D80B4A02EBC003012921
:103490005B6852F8302004D182F880124FF4A27297
:1034A00008E0002082F8800211B94FF4807201E038
:1034B00040F203121A607047E8CD0000282838B5A2
:1034C0000A4604464E4B0FD11B780B2B03D8C3F191
:1034D0000C039A4003E00C2B01D00C3B1A41104620
:1034E000BDE83840FFF7D8BD19780125002A05FA54
:1034F00001F301DC002102E09A4205D32946FFF7DF
:1035000095FF2046294676E0C31E012B01D83D4B8E
:1035100006E0192801D0202801D13B4B00E03B4BAD
:103520001B680133534323FA01F3E11E1D2959D8C7
:10353000DFE801F00F151B215858272D585858580F
:10354000585858585833393F455851585858585872
:10355000584B2F4A13604FF451722E4B40E02E4AC5
:1035600013604FF451722D4B3AE02D4A136040F234
:1035700044422C4B34E02C4A136040F244422B4B23
:103580002EE02B4A136040F244422A4B28E02A4A9C
:10359000136040F24442294B22E0294A136040F272
:1035A0004442284B1CE0284A136040F24442274B17
:1035B00016E0274A136040F24442264B10E0264AA8
:1035C000136040F24442254B0AE0254A13604FF451
:1035D0005172244B04E0244A1360244B4FF451727F
:1035E0001A6038BD7F2A2046D4BF00210121FFF791
:1035F0001DFF20460121BDE83840FFF743BF00BF53
:10360000900D00200890034008800B400880034084
:1036100010900340309004401890034034900440D0
:10362000488003401CC004403080034010C0044068
:10363000208003400CB004402880034010B00440B8
:103640003880034014C004404080034018C0044048
:103650001080034004B004401880034008B00440C8
:1036600010800B4048A0044018800B404CA0044040
:103670002DE9F04107460E4690460824012505EA4B
:1036800008013846FFF7D2FE01213046FFF7CEFE93
:10369000002130466D00FFF7C9FE013CEDB2EED1CE
:1036A000BDE8F0812DE9F04107460E46904608241A
:1036B000802505EA08013846FFF7B8FE01213046AB
:1036C000FFF7B4FE00213046FFF7B0FE6D08013C65
:1036D000EFD1BDE8F08112B91A46FFF7C9BF1A460B
:1036E000FFF7E0BF2DE9F04180460F460824002592
:1036F000012638460121FFF799FE4046FFF7B6FE46
:1037000000B13543002138467600FFF78FFE013CBB
:10371000F6B2EED12846BDE8F0812DE9F0418046B1
:103720000F4608240025802638460121FFF77EFE3B
:103730004046FFF79BFE00B1354300213846FFF7B6
:1037400075FE7608013CEFD12846BDE8F0810AB944
:10375000FFF7C8BFFFF7E1BF72B60C4B0C491A6800
:103760000C4BD3F88830096862B6490102D5322A79
:1037700088BF0133C2F5BB32FF326021B2FBF1F2E8
:103780004FF47A7000FB0320704700BF18E000E0A0
:1037900004ED00E0E81B002070B50446FFF7DCFFF5
:1037A00005466CB140F2E736FFF7D6FF401BB0424A
:1037B00003D9013C04D005F57A7501F0BFFBF3E7AE
:1037C00070BD10B5FFF746FD154B164A164C00208C
:1037D0004BF6FF71186059602823136093601361E2
:1037E00093611362936213639363092222600F4C07
:1037F00020606160A360236144F8042C0C4C2060BD
:103800000C4801600C490B608B600C4B1A60FFF791
:10381000FFFA0420FFF7C0FFBDE8104001F0AEB989
:10382000048003400C800340008003400490034068
:1038300004800B4008800B400C800B4000800B4044
:1038400070B50E2405464C4303E0013C01D1002035
:1038500070BD2B78002BF8D101E0013CF7D02B781C
:10386000002BFAD0FFF778FF064601E0013CEED0CE
:103870002B78002BFAD1FFF76FFF801B70BD70B55E
:103880000E2405464C4303E0013C01D1002070BDED
:103890002B78002BF8D001E0013CF7D02B78002BDF
:1038A000FAD1FFF759FF064601E0013CEED02B7834
:1038B000002BFAD0FFF750FF801B70BD21280BD8DA
:1038C000064B53F8300000F5007011B11146FFF7B8
:1038D000B7BF1146FFF7D3BF00207047E8CD000007
:1038E000194B1A6842F480621A60184B00221A7051
:1038F0005A709A70DA701A71154B40F213321A60CE
:103900004FF451725A60134BC0F344321A70C0F333
:1039100047125A7000F01F000F4A987202210423C8
:1039200013705174D3740D4B88221A703C2203F823
:103930000D2C0B4B40226FF44A711A705B184FF438
:1039400000521A60704700BF34800440741C00208D
:1039500040A0044000A0064002A0064010A006407F
:103960002DE400E0134A137800F0030103F0EC03A8
:103970000B43410748BF43F01003137000F00F03DF
:10398000042B04D10C4B1A7842F040021A700B4AF7
:103990001378C10603F0EF0348BF43F01003137020
:1039A000054A1378800603F0EF0348BF43F0100385
:1039B0001370704702A0064006A0064005A006400E
:1039C0000D4B1B68580510B503D410BD01F0B6FAB5
:1039D00000E00A4C2379094A002BF7D108494FF43B
:1039E00000500860074908480B7040F2031101605D
:1039F00041601370537010BD34800440741C00206B
:103A000084E100E003A0064040A0044038B5094B23
:103A100004461D79002DFCD120460121FFF732FD1F
:103A200020462946FFF702FD034B53F83420014B93
:103A30009A6038BD741C0020E8CD00001C4B1B6848
:103A40005A052DE9F041064630D51A4A93680BB164
:103A5000012119709478174D174FDFF864800134F5
:103A60003F2C88BF002415E0FFF786FB40280DDCC3
:103A70003B781B060ED5EB7801333F2B88BF002324
:103A8000EA18127B88F80020EB7003E0FF2801DDC4
:103A900001F054FAEA78074BA242E5D01A191673DE
:103AA00001221A719C70054BBC221A70BDE8F0818E
:103AB00034800440741C002004A0064003A006408B
:103AC00007A0064000F00F00092801D8303000E0C0
:103AD0003730FFF7B3BF2DE9F84F254B1B6807467A
:103AE0005805894642D5234B9B680BB101221A70B9
:103AF000204C3E46A34632E0A5789BF80380013572
:103B00003F2D88BF0025A84507D0631916F8012B63
:103B10001A7301232371A57021E0174BDFF860A011
:103B2000BC221A70FFF728FB402810DC9AF80030FE
:103B3000190610D5E37801333F2B88BF00230BEB28
:103B40000302117B0D4A11708BF8033003E0FF284C
:103B500001DD01F0F3F9E3784345E3D0D5E707EB66
:103B600009039E42C8D3044BBC221A70BDE8F88FEB
:103B700034800440741C002003A0064007A00640C7
:103B800004A0064010B5044C01E001F0D7F92379F8
:103B9000002BFAD110BD00BF741C0020034A10781E
:103BA0005378984238BF4030C01A7047741C0020C8
:103BB000084A11785378994208D001333F2B88BFC7
:103BC0000023D11891F84C00537070474FF0FF302C
:103BD000704700BF741C0020074A1178537899423F
:103BE00007D001333F2B88BF0023D31893F84C0034
:103BF00070474FF0FF307047741C0020094B1B6862
:103C00005B050ED5084B1A7802F0CB021A70074AF2
:103C1000402111701A7842F034021A70044B5A781D
:103C20001A7070473480044003A0064011A006407B
:103C3000741C0020F0B5304B1B7813F0300F21D0EE
:103C400072B62E4B197831B90F3B40221B782C4BA2
:103C50001A7062B616E062B62A4B2B4C1A78587866
:103C60001D46531C3F2B88BF00238342267803D078
:103C7000EA1882F84C601A46013911F0FF01F0D1C0
:103C8000204B1A70214B1B7818465BB2002B1EDAB2
:103C900019490B781B061AD51A4A1B4E97781C4DEA
:103CA000D378BB420AD001333F2B88BF00230C7866
:103CB000D418247B34702C78072CF2D9114AD37095
:103CC0000D4B1B781A0602D5104B7C221A7000F09F
:103CD0004003DBB273B1084B1B7803F04003DBB247
:103CE00043B1084B00221A719B6803B11A70074B4D
:103CF0003C221A70F0BD00BF04A0064016A006408A
:103D000011A00640741C002007A0064003A0064036
:103D100014A0064038B5451E07E00A2C02D10D203C
:103D2000FFF78CFE2046FFF789FE15F8014F002CA7
:103D3000F3D138BD10B504460009FFF7C3FE204695
:103D4000BDE81040FFF7BEBE10B50446000AFFF7FD
:103D5000F1FF2046BDE81040FFF7ECBF10B5044668
:103D6000000EFFF7E7FF200CFFF7E4FF200AFFF744
:103D7000E1FF2046BDE81040FFF7DCBF144B1A6896
:103D800042F400621A60134A002313705370937058
:103D9000D3701371104A40F2133111604FF4517116
:103DA00051600E4AC0F344311170C0F3471100F066
:103DB0001F005170907293701374094B2C221A706B
:103DC000084B40221A70084B4FF400421A607047AB
:103DD00034800440001D00200CB0044000B00640B8
:103DE00003B006402FE400E004E100E0134A13783A
:103DF00000F0030103F0EC030B43410748BF43F01D
:103E00001003137000F00F03042B04D10C4B1A782D
:103E100042F040021A700B4A1378C10603F0EF0318
:103E200048BF43F010031370054A1378810603F06E
:103E3000EF0348BF43F010031370704702B0064011
:103E400006B0064005B006400D4B1B68180510B5BE
:103E500003D410BD01F072F800E00A4C2379094A3E
:103E6000002BF7D108494FF4004008600749084883
:103E70000B7040F20311016041601370537010BD6C
:103E800034800440001D002084E100E003B00640BF
:103E90000CB004401A4B1B681A052DE9F041064688
:103EA0002BD5184D184FAC78DFF864800134272CDF
:103EB00088BF002415E0FFF75FF940280DDC3B7850
:103EC0001B060ED5EB780133272B88BF0023EA1899
:103ED000527988F80020EB7003E0FF2801DD01F043
:103EE0002DF8EA78074BA242E5D01A195671012243
:103EF0001A719C70054BAC221A70BDE8F08100BFAE
:103F000034800440001D002004B0064003B0064089
:103F100007B0064038B54518044603E014F8010B15
:103F2000FFF7B8FFAC42F9D138BD10B5034C01E042
:103F300001F004F82379002BFAD110BD001D0020F8
:103F4000034A10785378984238BF4030C01A7047FF
:103F5000001D0020084A11785378994208D0013397
:103F60003F2B88BF0023D11891F82D005370704764
:103F70004FF0FF30704700BF001D0020074A117846
:103F80005378994207D001333F2B88BF0023D318C1
:103F900093F82D0070474FF0FF307047001D002050
:103FA000014B5A781A707047001D002010B5204B45
:103FB0001B7803F02003DBB273B11E4B1E4A187846
:103FC0001378517801333F2B88BF00238B4203D0F5
:103FD000D11881F82D00137018490B7818465BB280
:103FE000002B14DA124B1B781B0610D5124A94785A
:103FF000D3789C4202D16C230B7008E00133272B4D
:1040000088BF0023D1184C790A490C70D37000F096
:104010004003DBB25BB1064B1B7803F04003DBB21D
:104020002BB1054B00221A71044B2C221A7010BDC3
:1040300004B0064007B00640001D002003B0064053
:10404000154B1A6842F480521A60144A0023137008
:1040500053709370D3701371114A40F21331116091
:104060004FF4517151600F4AC0F344311170C0F3E5
:10407000471100F01F0051709072937013740A4B37
:104080002C221A70094B40226FF44B711A705B1886
:104090004FF400321A607047348004406D1D0020D8
:1040A00008C0044000C0064003C0064031E400E000
:1040B000134A137800F0030103F0EC030B434107AC
:1040C00048BF43F01003137000F00F03042B04D11A
:1040D0000C4B1A7842F040021A700B4A1378C10652
:1040E00003F0EF0348BF43F010031370054A137841
:1040F000800603F0EF0348BF43F0100313707047CE
:1041000002C0064006C0064005C006400D4B1B68B5
:10411000D80410B503D410BD00F010FF00E00A4C25
:104120002379094A002BF7D108494FF40030086081
:10413000074908480B7040F2031101604160137099
:10414000537010BD348004406D1D002084E100E0F8
:1041500003C0064008C004401A4B1B68DA042DE96E
:10416000F04106462BD5184D184FAC78DFF8648027
:104170000134272C88BF002415E0FEF7FDFF4028FE
:104180000DDC3B781B060ED5EB780133272B88BF5F
:104190000023EA18527988F80020EB7003E0FF282A
:1041A00001DD00F0CBFEEA78074BA242E5D01A19F8
:1041B000567101221A719C70054BAC221A70BDE831
:1041C000F08100BF348004406D1D002004C0064013
:1041D00003C0064007C0064038B54518044603E052
:1041E00014F8010BFFF7B8FFAC42F9D138BD10B598
:1041F000034C01E000F0A2FE2379002BFAD110BDA0
:104200006D1D0020034A10785378984238BF403023
:10421000C01A70476D1D0020084A117853789942E2
:1042200008D001333F2B88BF0023D11891F82D000F
:10423000537070474FF0FF30704700BF6D1D002076
:10424000074A11785378994207D001333F2B88BF32
:104250000023D31893F82D0070474FF0FF307047BC
:104260006D1D0020014B5A781A7070476D1D00209B
:1042700010B5204B1B7803F02003DBB273B11E4B4B
:104280001E4A18781378517801333F2B88BF0023DA
:104290008B4203D0D11881F82D00137018490B7888
:1042A00018465BB2002B14DA124B1B781B0610D594
:1042B000124A9478D3789C4202D16C230B7008E0A8
:1042C0000133272B88BF0023D1184C790A490C7081
:1042D000D37000F04003DBB25BB1064B1B7803F0F8
:1042E0004003DBB22BB1054B00221A71044B2C2288
:1042F0001A7010BD04C0064007C006406D1D0020A6
:1043000003C006401FB572B6124B70221A70124AD3
:10431000412111700F2102F8011C80221A701A78B5
:104320001206FCD562B60D4B01A918680A22FEF7E9
:1043300049FF0B48002301AA9A5C2AB100EB430114
:1043400001330A2B4A80F6D10133054A5B00137012
:1043500005B000BD00000240070002400800024016
:10436000920D002070B50C4B0C4C1A7842F00205EF
:1043700004EBC50682F00102706058781A700028BC
:104380000CBF8826C82646EA014180F0010044F8A7
:104390003510587070BD00BFDC1D00200080FF1F6D
:1043A000431E032B10B510D872B6094A02EB8302E4
:1043B000506840B141685160064A018832F81340A4
:1043C000611A22F8131062B610BD002010BD00BFA4
:1043D000DC1D0020F8320020013803280DD8084BDE
:1043E00003EB8000436972B6002002E01A885B6824
:1043F0008018002BFAD162B670470020704700BFCA
:10440000DC1D0020013803280CD872B6064B03EBE4
:1044100080004369002001E05B680130002BFBD184
:1044200062B6704700207047DC1D002070B572B680
:104430001A4E1B4C01239A1912F8012C02F00802A3
:10444000D2B2F2B19900164A54F831502DB902EBAC
:10445000431308305860134B09E041F0010154F850
:10446000315075B902EBC103083058600E4B42F869
:1044700031300E4B93F82420013A83F8242062B6A1
:1044800070BD0133052BD6D162B6084B002283F8EC
:104490002420BDE8704000F0DDBB00BFF8CE000076
:1044A0000080FF1F88004000C8004000DC1D002085
:1044B000421E032A30B533D840011A4B40F0100099
:1044C000181872B6184CA31893F82530032B09D886
:1044D000DFE803F0130215050830022310E008306E
:1044E00004230DE09200A318586908B9596101E04E
:1044F000DB6A5960A218D16211E0032300E00523B2
:10450000A21810F0080F82F8253001F108030A887C
:1045100043600CBF8823C82343EA0243036062B6AA
:1045200030BD00BF0080FF1FDC1D002000BE7047B3
:104530002DE9F74FAB4EAC4C357805F00403DBB2F8
:10454000BBB1AA4B93F844208AB193F845202AB115
:10455000013AD2B283F8452002B900BEA44A1378CA
:104560002BB1013BDBB213700BB900F0CBFC042381
:10457000337005F00802D2B2002A00F0AF829D4BE2
:104580001B781D094FEA930940F0058204EBC9032B
:10459000596854F83930C3F38303013B0C2B00F204
:1045A000F681DFE813F0AB01AB01F401F401F40193
:1045B000F401F401F401C901F401F401F4010D0066
:1045C0004B688A480A68C3648B4B826440F28165F9
:1045D00092B244F8393001210023AA4203652361D5
:1045E000A361417017D8B2F5D06F80F02C81B2F57D
:1045F000817F00F0E58006D8802A00F0C580822AFD
:1046000040F04081C5E040F202339A4200F00A8156
:10461000B2F5A06F16E042F22105AA4200F06B81CC
:1046200008D8B2F5086F00F0A880B2F5106F40F01E
:1046300029810AE042F221218A4200F01E8142F2E1
:1046400021339A4240F01E8120E190F84A30664DB5
:1046500080F844302B6A180603D5686A083800F0E1
:10466000F9FA664908358D42F4D1DFF8B0B100257A
:10467000A846D9460BF1500A55F80B0005E04368EF
:10468000009300F0E7FA009B18460028F7D15C4B36
:1046900049F8050045F80A00E85807E04268009329
:1046A000019200F0D7FA019A009B10460028F5D13C
:1046B0005851544BE850544B23F81800534B18F8FA
:1046C0000320023A032A08D8DFE802F002040204B9
:1046D000002200E0012203F8082008F10108043557
:1046E000B8F1040FC8D1414BDFF83491002283F8B0
:1046F000242001259846464B05EB0902EB1812F8D9
:10470000012C9B001A7002F00802D2B23AB300F0FA
:1047100083FAAB0038B104EB4512083050603D4AD3
:1047200044F8332006E044F8330098F8243001338D
:1047300088F8243000F070FAAB0043F0010338B180
:1047400004EBC302083050602B4A44F8332006E0E3
:1047500044F8330098F82430013388F82430AA0054
:1047600042F00201013542F003020023052D44F816
:10477000313044F83230BED189E090F844300546FB
:1047800005F83C3F0B4687E080F83C3080F83D3030
:104790007FE0B0F84C20042A00D973E080F83C3068
:1047A00080F83D301C4B9200D3181B7803F00203B5
:1047B000DBB2002B6DD00546022305F83C1F6BE0F1
:1047C000B0F84C2002F07F03042B5BDCB0F84A30D9
:1047D00003B157E09100104A8A18117821F00201C4
:1047E0004EE000BF802007400080FF1FDC1D00203E
:1047F000D11E002090200740C80040008080FF1F8D
:10480000F01D0020081E0020F8320020011E0020AC
:1048100030C8011088004000C0200740E01D002083
:10482000F8CE0000B0F84C2002F07F03042B29DC06
:10483000B0F84A3003B125E091009E4A8A181178F9
:1048400041F002011CE0B0F84A20B0F84C109A4B3D
:1048500053F8085CA3F10C00A5B133F80CCC9445D7
:1048600009D133F80ACC8C4505D1120A032A0CBFB2
:104870002B78038910E00C33EAE790F84A108F4A4E
:10488000117004E08B4B0F221A7034E000231D4698
:1048900002E0022300F13C05894AB2F84E904B45F4
:1048A00038BF9946B9F1400F34BFC8464FF04008B1
:1048B00028464146FFF756FDB9EB0809454403D1A8
:1048C000B8F1400F07D016E0B9F1400F34BFC84629
:1048D0004FF0400800E0C84628464146FFF742FD39
:1048E000B9EB0809454402D1B8F1400F03D1744A2D
:1048F0001565A2F864900122724B47E0704BB3F843
:10490000482042F221039A4212D16F4A0023C85C28
:1049100098540133072BFAD16B4B1B68862B03D1BC
:10492000674B0F2283F8452000200146FFF71AFD50
:10493000664B44F839302AE0DFF88491D9F850808A
:10494000B8F1000F16D0B9F864A0BAF1400F34BF27
:104950005546402540462946FFF704FDC5EB0A03AE
:104960009BB2A9F864300BB9402D01D108EB0503C7
:10497000534A1365524BB3F84820B2F5A06F06D1E5
:10498000002283F8492093F84A20514B1A704D4B6E
:1049900001221A708AE004EBC90803F00803D8F872
:1049A0000420013DD9B2A2F10800EDB2002945D0A2
:1049B00000F050F9424B03EB8500416921B34A688E
:1049C000426101F10802C8F804205A1992F8252022
:1049D000032A10D8DFE802F00205080B5D19032353
:1049E00007E05D19022304E05D19052301E05D196C
:1049F000042385F8253018F0080F0A880CBF882397
:104A0000C82343EA02434FE05A1992F82520032AAB
:104A10000BD8DFE802F04B4B02055D19002301E0E3
:104A20005D19012385F8253040E018F0080F1D447A
:104A30000CBF0222032285F8252037E054F83930D4
:104A40001B0C22F8083C4BB322F8061C42F8041C4D
:104A50001B4A4FEA850E02EB0E0194464A680AB9DA
:104A6000486001E04A6D50600CEB0E02DFF850A088
:104A70005065184A32F815105B1822F8153000F00E
:104A8000CBF818B10830C8F8040007E09AF82430D1
:104A900044F8390001338AF8243007E00B4B0E4A02
:104AA00018F0080F08BF134644F839300823337054
:104AB00042E500BFC020074008CF0000D21E002002
:104AC000DC1D00209420074000330020C800400077
:104AD00098200740F832002088004000E90720D5E0
:104AE0001D4C1E481E4D21460223037001F8682B01
:104AF0001C4BA8341D6059601A619A619D60DC608E
:104B0000194B0D2119701949FF230B7001F8083C4E
:104B10000A74174A1370174B9F221A7001230370EF
:104B200018E02B0605D5104B0D221A70802203F8D1
:104B3000402C05F00203DBB22BB10C4B1A781A7033
:104B4000022203F8082C05F01005EDB215B10A4B4E
:104B500010221A70BDE8FE8FDC1D00209420074053
:104B6000880040000080FF1FC020074088200740C9
:104B70008C200740842007408020074008B5FFF7BD
:104B8000C1FB00231E491A465A50C8180833882B07
:104B90004260F9D11B4B1A6842F480221A601A4B0A
:104BA00080221A701978184A0906FBD4144B174949
:104BB000C3F307200870C3F307401B0E08750B767C
:104BC000FF2301F81C3C01F8143C01F88C3C1378DD
:104BD00043F0400313700021012302F8783C02F8EF
:104BE0000C1C02F8883C0A4B70226FF4507C1A703F
:104BF00063444FF400721A60064B10221A7008BD0D
:104C00000080FF1F348004400C2107409C20074097
:104C100049E400E00821074072B60C4A1168B1FA75
:104C200081F30B2B02D962B6002070474FF0004091
:104C300020FA03F021EA0001116062B6044948221B
:104C40005343C8180022CA5042607047300E0020FB
:104C50002082FF1F0C4B4822C31AB3FBF2F30B2B2D
:104C600011D80A4A127822B1094A12780AB1FFF71C
:104C7000DDBB72B6074A4FF0004121FA03F3116819
:104C80001943116062B670472082FF1F001E00208A
:104C9000201E0020300E002038B5114C23684BB187
:104CA0000F4D28684288811801320C7A01888A42A7
:104CB00012D30CE00B4B1B7813B94FF0FF340CE010
:104CC0000320FFF76DFB20600028E9D1F5E7FFF72F
:104CD000C1FF00232B6000E04280204638BD00BFAA
:104CE000C41E0020201E002010B50C4C23681BB1F0
:104CF0000A4B1B686BB902E0094B1B7813B94FF0E4
:104D0000FF3010BD0320FFF74BFB20600028EFD1E0
:104D1000F5E75A889B18187A10BD00BFC41E002002
:104D2000201E0020044B9888044B1B681BB11A8876
:104D30005B88D31AC0187047F8320020C41E0020C8
:104D40002DE9F0470E4681464FF00008DFF868A0D5
:104D5000184F2AE09AF800304BB33B684BB9032058
:104D6000FFF71EFB386010B3038813B9FFF772FF1B
:104D7000F5E73C68618825886D1AAE4238BF354634
:104D8000083148462A46611803F03CF96388A94473
:104D9000A844761BED182388ADB2AB42658004D8D9
:104DA0002046FFF757FF00233B60002ED2D140463C
:104DB000BDE8F087C41E0020201E002010B5094B5E
:104DC0001B786BB1084C206818B1FFF743FF002334
:104DD00023600320FFF7E4FA10B1FFF73BFFF8E789
:104DE00010BD00BF201E0020C41E00202DE9F84386
:104DF0002B4CDFF8B08001230D462371064647E0B7
:104E0000A3681BBB4AF2F9274FF0010998F800305C
:104E100013B9234A137112E00420FFF7F3FA0728AD
:104E200006D884F80490FFF7F7FEA06070B92071EF
:104E3000013F01D0237B33B1194B01221A734FF08C
:104E4000FF30BDE8F88300F079F8DFE7A168488813
:104E5000C0F14002954238BF2A4600F108070023FE
:104E600080182373CF194880AD1A02E0F05CF85423
:104E700001339342FAD1F6184B883F2B06D94023D1
:104E80000B800420FFF714FB0023A360052363734A
:104E9000002DB5D1024B28461D71BDE8F88300BF37
:104EA000C41E0020201E002007B502AB012103F81C
:104EB000010D1846FFF79AFF0EBD70B50F4B1B781A
:104EC000DBB10F4CA568012626714DB16B88002619
:104ED000667304202B802946FFF7EAFAA66009E0F2
:104EE000FFF79AFE014620B104206573FFF7E0FA50
:104EF00000E06673024B00221A7170BD201E002074
:104F0000C41E002038B50C4C25799DB9A16831B17B
:104F10004B8804200B80FFF7CBFAA56038BDFFF764
:104F20007BFE014620B10420BDE83840FFF7C0BA3F
:104F30000123637338BD00BFC41E00207047FFFF0C
:104F40000A4B4FF0FF321F2928BF1F2110B59A606E
:104F5000186019714FF48172002303E002FB03040F
:104F6000637001338B42F9D110BD00BFD41E002005
:104F700030B572B6104B9A681879B2FA82F1814254
:104F800002D362B6002030BD4FF0004020FA01F09D
:104F900022EA00029A601A7B0132D2B21A7362B618
:104FA0004FF4817041431C68012565546018597B9A
:104FB000914238BF5A7330BDD41E0020427872B679
:104FC0000378012B02D9013B03700AE0064B4FF036
:104FD000004121FA02F19A680A439A601A7B013A69
:104FE0001A7362B6704700BFD41E002030B5C36884
:104FF0000EE0187A90420AD158685C7A006950F83D
:10500000245025B940F82410087801300870DB6876
:10501000002BEED130BD437A99424FF0000305D208
:10502000026952F8210042F8213070471846704753
:1050300038B5437A994201D3002418E0036953F844
:105040002140002243F82120002CF5D02378012BA9
:105050000DD9FFF78DFF054628B10230A11C4FF492
:10506000807202F0CFFF2378013B23702C4620464C
:1050700038BD10B54168427A4B7A9A420ED872B662
:105080000268D36813B9D06004E02346DC68002CC2
:10509000FBD1D860012313720B7262B610BD074BAF
:1050A0009A7B4AB9064AFF211170064A4FF08041A7
:1050B000012011609873704700207047D41E0020B3
:1050C0005EE400E008E100E0034B4FF080421A602C
:1050D000024B00229A73704788E100E0D41E002042
:1050E000F8B5164B164D1A6842F080721A60154BCF
:1050F0001A6842F001021A60134B2E681C690FE017
:10510000237A63B121682F680B68204698472B6883
:10511000E288DB1B1B099342A38088BFE38064699C
:10512000002CEDD1064B1A68074B921BD98A120945
:105130008A429A8288BFDA82F8BD00BFFCED00E0A7
:10514000041000E0001000E0D41E002010B5084656
:1051500014461146FEF7BFFC204610BD084608B5B0
:10516000FEF76CFC012008BDFEF748BDFEF70ABD46
:10517000FEF71EBDFEF730BDFEF710BD0846FEF778
:1051800045BCFEF71DBC480800F1376000F5D8307B
:10519000B0FBF1F0FEF7A4BB480800F1376010B592
:1051A00000F5D830B0FBF1F01446FEF799FB20462D
:1051B000BDE81040FEF7D6BB044B00221A711A73EB
:1051C000034A4FF47A7199601A607047EC1E002010
:1051D00058CF000010B5084614461146FEF79AFE57
:1051E000204610BD084608B5FEF754FE012008BD54
:1051F000FEF7D6BEFEF799BEFEF7ACBEFEF7BEBE0A
:10520000FEF79EBEFEF720BE480800F1376000F5AD
:10521000D830B0FBF1F0FEF7B1BD480800F13760BF
:1052200010B500F5D830B0FBF1F01446FEF7A6FD3E
:105230002046BDE81040FEF7D9BDFFFF044B002219
:105240001A711A73034A4FF47A7199601A607047A1
:10525000FC1E002090CF000010B5084614461146F1
:10526000FEF7BAFF204610BD084608B5FEF774FFEA
:10527000012008BDFEF7F6BFFEF7B9BFFEF7CCBFB1
:10528000FEF7DEBFFEF7BEBFFEF740BF480800F1E5
:10529000B76000F55840B0FBF1F0FEF7D1BE48080A
:1052A00000F1B76010B500F55840B0FBF1F01446BE
:1052B000FEF7C6FE2046BDE81040FEF7F9BEFFFF30
:1052C000044B00221A711A73034A4FF47A719960E1
:1052D0001A6070470C1F0020C8CF0000054B1A68E9
:1052E00042F400021A60044B00221A60034B0122B0
:1052F0001A7070473C800440007003401C1F00205F
:10530000054B01221A60054B1A6822F400021A604C
:10531000034B00221A707047007003403C80044029
:105320001C1F002070B54478104D23015A194260AB
:105330000F4A9E18866004F1440606730D4E06EB74
:1053400084040669666000249C50595103219950D9
:10535000037B5A11920002F1604202F5614203F0B0
:105360001F03012101FA03F3136070BD00710340B4
:10537000087103401C1F0020F8B50D4B1B78064632
:105380000F460BB9FFF7AAFF0024094D05F11402DF
:10539000A25C42B97470304639462C19FFF7C2FF3F
:1053A00001202075F8BD0134042CEED10020F8BD99
:1053B0001C1F0020037B0122591103F01F0302FA76
:1053C00003F3094A42F821308268002313604178D0
:1053D000064A511814320B75995C21B90133042B1C
:1053E000FAD1FFF78DBF704780E100E01C1F00205D
:1053F000037810B504460BB1FFF7DCFF00232370E0
:1054000010BD037870B504460D4616461BB1FFF774
:10541000D1FF00232370256120463146FFF7ACFF02
:1054200010B10123237000E02070207870BD00BF10
:1054300010B50446FFF7DCFF204610BD03480449C1
:10544000044A002300F8083F02F0BEBA341F0020CF
:10545000315400008085FF1F08461146FFF7C6BC87
:105460000846FFF721BDFFF728BDFFF73DBCFFF75A
:1054700013BCFFF757BCFFFF044B00221A711A73CD
:10548000034A4FF47A7199601A607047541F0020E4
:1054900000D000002DE9F0475FEA920917468246E6
:1054A00088466FD04E4605460C46B5F9000001F01F
:1054B00021FC4FF0605101F071FC2060B5F9020051
:1054C00001F018FC4FF0605101F068FC6060B5F924
:1054D000040001F00FFC4FF0605101F05FFCA06090
:1054E000B5F9060001F006FC4FF0605101F056FCE2
:1054F0000835E0601034013ED7D108EB09180AEBFB
:10550000C90517F003073BD035F9020B01F0F2FB98
:105510004FF0605101F042FC013F4446B84644F868
:10552000040B07F00107B8F1000F2DD067B135F972
:10553000020B01F0DFFB4FF0605101F02FFCB8F1DE
:10554000010844F8040B21D02F46264637F9020BF8
:1055500001F0D0FB4FF0605101F020FC46F8040B45
:10556000688800B201F0C6FB4FF0605101F016FCF4
:1055700008F1FF316060BD1C341DB1F10108E3D1B9
:10558000BDE8F0870546BCE7BDE8F087BDE8F087D9
:105590002DE9F04F83B05FEA910B0D46044601926E
:1055A00000F0918046680168D4F80880E768002020
:1055B00001F0ECFA314601F0E9FA414601F0E6FA71
:1055C000394601F0E3FA0BF1FF36374606F00102E7
:1055D000034604F11006002F42D0AAB1D6F8049079
:1055E0003168D6F80880D6F80CA001F0CFFA494609
:1055F00001F0CCFA414601F0C9FA514601F0C6FA71
:105600001036013F03462BD0D6F804A03168D6F8F7
:105610000890D6F80C80184601F0B8FA514601F00F
:10562000B5FA494601F0B2FA414601F0AFFAD6F8B0
:1056300014A03169D6F8189001F0A8FA06F1100804
:105640005146F66901F0A2FA494601F09FFA314647
:1056500001F09CFA013F013F034608F11006D3D147
:1056600004EB0B1415F0030620D0184654F8041B65
:1056700001F08CFA013E3746034606F00106AFB151
:1056800036B154F8041B01F081FA013F03460DD0F6
:105690002646184656F8041B01F078FA616801F0B6
:1056A00075FA013F341D013F0346F1D128460093AE
:1056B00001F01CFB0146009801F024FC019B1860DE
:1056C00003B0BDE8F08F0023CCE700BF2DE9F00761
:1056D00021F07F0414F0FF0F4FEA930C00F0A78035
:1056E000BCF1000F78D0B0F90060B0F902504C4224
:1056F00056FA04F72541C7EA05461660B0F9065088
:10570000B0F904700CF1FF39C84655FA04F6274188
:1057100009F00109C7EA064600F10805566002F1E2
:105720000806B8F1000F53D0B9F1000F1AD0B5F93F
:105730000090B5F9027049FA04F92741C9EA074710
:105740003760B5F80490EF880FFA89F93FB2274126
:1057500049FA04F90835C9EA074777600836B8F10D
:10576000010835D0B5F900A0B5F902704AFA04F97C
:105770002741C9EA07473760B5F904A0B5F9069093
:105780004AFA04FA49FA04F9CAEA094AC6F804A02E
:1057900005F10807B5F90890B5F90A5049FA04FA75
:1057A0002541CAEA0545B56006F10809B7F9046064
:1057B000B7F906502641B8F1020845FA04FA07F194
:1057C0000805C6EA0A4709F10806C9F80470C9D1F4
:1057D0004FEACC0C6044624413F0030324D030F948
:1057E000024B013B494254FA01F51C4622F8025B88
:1057F00003F00103C4B133B130F9023B0B41013C6A
:1058000022F8023B10D00546134635F9026B0E41D3
:1058100023F8026BB0F802C00FFA8CF008415080F8
:10582000A81C9A1C023CEED1BDE8F0077047BCF101
:10583000000F00F09580B0F90050B0F9027015FA31
:1058400001F617FA01F406F30F0504F30F08C5EA91
:10585000084717600CF1FF34B0F90460B0F9065046
:1058600027468E408D4006F30F0605F30F0504F022
:105870000108C6EA054500F10804556002F1080573
:10588000002F69D0B8F1000F21D0B4F90080B4F92D
:10589000026008FA01F88E4008F30F0806F30F06BD
:1058A000C8EA06462E60B4F80480E6880FFA88F845
:1058B00036B28E4008FA01F806F30F0608F30F0817
:1058C0000834C8EA06466E600835013F44D0B4F992
:1058D0000080B4F9026008FA01F98E4009F30F085C
:1058E00006F30F09C8EA09462E60B4F90490B4F92A
:1058F000068009FA01F908FA01F809F30F0908F31B
:105900000F08C9EA0849C5F8049004F10806B4F97B
:105910000880B4F90A4008FA01F98C4009F30F082D
:1059200004F30F09C8EA0944AC6005F10808B6F9A8
:105930000450B6F906408D40023F04FA01F405F325
:105940000F0504F30F0906F10804C5EA094608F13A
:105950000805C8F80460BAD14FEACC0C6044624430
:1059600013F003033FF460AF013B30F9025B1C46C8
:105970008D4003F0010305F30F0522F8025B002CB4
:105980003FF452AF4BB130F9023B8B40013C03F383
:105990000F0322F8023B3FF447AF0546134635F9A3
:1059A000026B8E4006F30F0623F8026BB0F902601B
:1059B000A81C16FA01F505F30F0555809A1C023C48
:1059C000EBD131E7F8B5C1F30A57A7F2FF3502462C
:1059D000132D0B4604460E4618DC002D34DB4FF623
:1059E000FF71C0F20F0141FA05F101EA0300104313
:1059F00009D04FF40023002443FA05F5AE1926EA36
:105A000001063346224610461946F8BD332D07DD00
:105A1000B5F5806FF7D100F01FFC02460B46F2E7A8
:105A20004FF0FF30A7F2134120FA01F11142EAD002
:105A30000123C7F58667023703FA07F7BC1828BFAA
:105A4000F61824EA0104DCE700246B1C01F0004690
:105A5000D7D146F07F56002446F44016D1E700BF68
:105A600000F056B82DE9F0478AB004460D4600F024
:105A70005FF940F6346AC2F2000A9AF90030013345
:105A800006460F460FD02046294600F0B5FB50B120
:105A90004FF000084FF000092046294642464B4689
:105AA00000F0FEFF20B9304639460AB0BDE8F08765
:105AB0009AF800604DF21803C0F200030122CDE90C
:105AC00004458DE80C000023CDE90245089356B942
:105AD000CDE90689684600F0B7FB70B1089B8BB929
