:1000000000800020BD010000B92B0000B92B0000CA
:10001000B92B0000B92B0000B92B0000852B000084
:10002000852B0000852B0000852B0000B92B0000DC
:10003000B92B0000852B0000B92B0000752B0000A8
:10004000D51E0000B92B0000B92B00009D1900003F
:1000500085140000B1200000B92B0000B92B00006E
:10006000B92B0000B92B0000B92B0000B92B000000
:10007000B92B0000B92B0000B92B0000B92B0000F0
:10008000B92B0000B92B0000B92B0000B92B0000E0
:10009000B92B0000B92B0000B92B0000B92B0000D0
:1000A000B92B0000B92B0000B92B0000B92B0000C0
:1000B000B92B0000B92B0000B92B0000B92B0000B0
:1000C000B92B0000B92B0000B92B0000B92B0000A0
:1000D000B92B0000B92B0000B92B0000B92B000090
:1000E000B92B0000B92B0000B92B0000B92B000080
:1000F000B92B0000D1360000B92B0000493A0000AE
:10010000B92B00000D3D0000B92B0000B92B0000F9
:10011000B92B0000B92B0000B92B0000B92B00004F
:10012000B92B0000B92B0000A1080000B92B00007A
:10013000B92B0000B92B0000B92B0000B92B00002F
:10014000B92B0000B92B0000B92B0000B92B00001F
:10015000ED060000B92B0000E52200000D22000092
:10016000B92B0000CD3F0000B92B0000B92B0000D7
:10017000B92B0000B92B0000B92B0000B92B0000EF
:10018000B92B0000B92B0000B92B0000B92B0000DF
:10019000B92B0000B1100000B92B0000B92B0000F2
:1001A0004910000081100000B92B000099100000D8
:1001B000B92B0000B92B00007D4B00004E4B4CF2D8
:1001C000205210B51A804DF628121A8000BF00BFC9
:1001D00002F0F5FC494B4FF010621A60484A9A60F1
:1001E000484ADA60484B1A6812F4807204D14749D1
:1001F0000A604FF4A8521A60454B1A7802F00802C0
:10020000D2B21AB11A7842F008021A700023414A99
:100210004148424C02E019599950043399188142DF
:10022000F9D33F4B3F4A002101E043F8041B9342BE
:10023000FBD33D4B00221A603C4B3D4A802103F822
:10024000011B9342FBD13B4B0A221A703A4B2422EA
:100250001A70A02203F8012C384A137803F0020325
:10026000DBB2002BF9D0354A137803F01003DBB270
:10027000002BF9D1314A137803F00C03082BFAD183
:100280002F4B03221A7040225A702C4A137803F025
:100290002003DBB2002BF9D0284A137803F0400387
:1002A000DBB2002BF9D0274A274B1A60274B2022BC
:1002B0001A70224A137803F00C030C2BFAD1244B4A
:1002C00002221A60234A43F8442C234B234A1A6023
:1002D000072243F8042C62B602F0C1FF0B4B1B68E7
:1002E000DC0702D51E4802F05FFD06F049FD02F072
:1002F0006DFC01F055F9FEE70E200540308004400A
:10030000823F04000100002B10D0034014D00340B2
:1003100002D007408085FF1FB41300200CC50000E9
:10032000B81300203832002008ED00E000E400E0BF
:100330005FE400E0005006400140064006400640F1
:100340000440064000000301448004400040064091
:1003500048800440C010050014E000E0FF76010072
:1003600000DD6850FFFFFFFFFFFFFFFFFFFFFFFF04
:10037000FFFFFFFFFFFFFFFFFFFFFFFFFFFFFFFF8D
:10038000FFFFFFFFFFFFFFFFFFFFFFFFFFFFFFFF7D
:10039000FFFFFFFFFFFFFFFFFFFFFFFFFFFFFFFF6D
:1003A000FFFFFFFFFFFFFFFFFFFFFFFFFFFFFFFF5D
:1003B000FFFFFFFFFFFFFFFFFFFFFFFFFFFFFFFF4D
:1003C000FFFFFFFFFFFFFFFFFFFFFFFFFFFFFFFF3D
:1003D000FFFFFFFFFFFFFFFFFFFFFFFFFFFFFFFF2D
:1003E000FFFFFFFFFFFFFFFFFFFFFFFFFFFFFFFF1D
:1003F000FFFFFFFFFFFFFFFFFFFFFFFFFFFFFFFF0D
:10040000FFFFFFFFFFFFFFFFFFFFFFFFFEFFFFFFFD
:1004100008B541F2B430074BC2F200001B1A062B9C
:1004200000D808BD40F20003C0F20003002BF8D052
:100430009847F6E7B713002008B541F2B43041F20F
:10044000B433C2F20000C2F200031B1A9B1003EB8C
:10045000D373591000D108BD40F20002C0F200026F
:10046000002AF8D09047F6E710B541F2B834C2F24E
:100470000004237873B9FFF7CBFF40F20003C0F20A
:1004800000032BB14CF20C50C0F20000AFF300801F
:100490000123237010BD00BF08B540F20003C0F275
:1004A00000034BB14CF20C5041F2BC31C0F20000E1
:1004B000C2F20001AFF3008041F2B430C2F200009A
:1004C00003682BB140F20003C0F2000303B1984768
:1004D000BDE80840FFF7B0BF074B1A6842F01002B2
:1004E0001A601A6C42F400221A64D3F8002142F018
:1004F0000202C3F80021704700F00F401D4B1E4957
:100500001A681E4842F0020210B51A6053F8042C13
:1005100042F0020243F8042C194A0023136002F54A
:1005200084526FF00104116093801946D360154B1B
:100530001B681A690260022282805889444312486B
:10054000046040F2011420F8124C5C8940F8102C31
:1005500020F8024C58890D4B188023F8022C0C4BC4
:10056000A92219701A700B4B04221A700A4B102220
:100570001A6010BD4080044010B00B4090900040C5
:100580000080004010200020989000409E90004085
:10059000041002401B80004000E100E01D4B1A687F
:1005A00042F04D0270B51C3343F81C2C1A6842F01F
:1005B00087021A601A681206FCD4174B186810F0EC
:1005C000400024D15A699E69DD691C6A596AB218D3
:1005D000283352191B6812195218D218C2F34E024E
:1005E0000E4B42F400421A60DA6A1E6B5D6B9C6B24
:1005F000D96BB218403352191B6812195218D2180D
:10060000C2F34E02064B42F400421A6070BD012054
:1006100070BD00BF08B00B4024B00B402CB00B40A5
:1006200030B00B400E4B1A6842F4000210B51A604D
:100630000C4B00221A60D3F8082122F00102C3F803
:100640000821094A10241460084A094CB2FBF0F052
:10065000421E22600222C3F80821064B197010BD09
:100660003C8004400070034008E100E0006CDC02C4
:10067000007103409D1F0020044B1A6801280CBF25
:1006800042F0010222F001021A6070470871034033
:10069000012870B504460E461AD10E4D2B68002174
:1006A0005868FFF7BFFF2B680B4A198811605988FB
:1006B0005160916841F02001916000221A819E737F
:1006C000DA73FFF709FF2046BDE87040FFF7D4BF9B
:1006D00070BD00BF1020002018B00B40024B1B68FB
:1006E00018805980704700BF1020002008B51A4BB1
:1006F00001221A60194B1B78934206D1184B1A88B5
:1007000092B242F001021A8008BD164B1B681A898A
:1007100092B2012A0FD172B6134A1168134A1160BE
:1007200062B600229A73124A116821F0200111600A
:100730001A8901321A819A7B22B1DA7B0132DA738B
:10074000FFF7CAFE074B1B689A890A4B02F01F028B
:1007500042F040021A6008BD0C7103409D1F00204A
:100760001C90004010200020247103401420002021
:1007700020B00B4000B00B40012801D1FFF7ACBE08
:10078000024B1A6822F010021A60704700F00F4006
:1007900008B51A4B1A68920503D41A6842F400721D
:1007A0001A601B68154A580503D4136843F4806324
:1007B0001360124B1A68910403D41A6842F4005271
:1007C0001A602120012102F0ABFB0D4B1A6842F4A4
:1007D00080721A600B4B1A6842F002021A600A4BD0
:1007E0001A6842F480721A60084B1A6842F40022B8
:1007F0001A60BDE80840FFF76FBE00BF38800440B4
:1008000004D0044014F10F404CA0044054F00F40B9
:1008100038B505461B481C4C01F05AFF1B4B2560A0
:100820001A6842F000621A60FFF7B2FFFFF7B6FEE7
:100830002368174A002128201981D97310601020DD
:100840005060906940F03C0090611888D16110615F
:10085000588850610F4A4FF0806010600E4A10684F
:1008600040F01F0010605868FFF7DCFEFFF746FEFF
:100870001820012102F054FB0848BDE8384001F07F
:1008800027BF00BF48BC000010200020308004407B
:1008900008B00B4004E100E000B00B4066BC000073
:1008A000024B1B681A8901321A8170471020002000
:1008B000104B1A68D20703D41A6842F001021A607A
:1008C0004FF4FA7358430C4B18600C4B4FF4001262
:1008D0001A600B4B01221A601A6842F004021A6077
:1008E000402243F8042C53F8042C42F0010243F850
:1008F000042C7047388004400800044008E100E000
:1009000004000440064B0421002201391A601A61D8
:100910001A621A63043311F0FF01F6D1704700BF69
:100920002C2000201FB5134B0722002001211A7034
:10093000FFF7AEFE0120342101F018FC0E4801F053
:1009400046FA6D238DF800300C4B0D4A93F8403079
:100950008DF8013013786846013313708DF802303A
:1009600001F066F901F0FBF80028FBD101F07CF9F9
:1009700005B000BD26200020602200202C20002091
:10098000282000201FB5134B1A78002101320120C6
:100990001A70FFF77DFE0A2002F04CFC0E4B0F4848
:1009A00006221A7001F013FA74238DF800300C4BF4
:1009B00093F8403068468DF8013001F039F901F0C4
:1009C000CEF80028FBD101F04FF90220FFF770FFAD
:1009D00005B000BD1C20002026200020981F00200C
:1009E0002C20002070B50F4E83780F4D3370437864
:1009F0000E4C2B70012323700D4B06223421002056
:100A00001A7001F0B3FB01F0E5FB40F6C41002F0F0
:100A100011FC3378022B94BF28782078BDE8704011
:100A2000FFF7B0BF28200020272000201C20002036
:100A3000262000201FB51E4801F0C9F970238DF84B
:100A400000301C4B93F840208DF801201A68110EDD
:100A50008DF80210110C8DF803108DF80520110A85
:100A60001A698DF804101B6A8DF80920110E8DF893
:100A70000610110C8DF80710110A1A0E8DF80A20B5
:100A80001A0C8DF80B2068461A0A8DF808108DF89C
:100A90000C208DF80D3001F0CBF801F060F8002843
:100AA000FBD101F0E1F8044B01221A7005B000BD42
:100AB000981F00202C2000202520002030B51C4A43
:100AC000012392F854102FE00532457892F8404007
:100AD000A54227D1C1788478154A090401EB046145
:100AE000047901EB04214479091942F82310C479EF
:100AF0008579240404EB0564057A04EB0524457A22
:100B0000191D641942F82140C17A847A090401EB65
:100B10000461047B407B083301EB0421091842F88F
:100B2000231030BD0133DBB28B42CDD3D2E700BFFF
:100B30002C200020064B1A78062A05D006221A70AF
:100B4000044B01221A707047034801F0C1BD00BF79
:100B500026200020292000206DBC00002DE9F8434C
:100B60002C4B1B78022B52D1DFF8B4802A4F2B4C30
:100B700098F800103A7854F8210054F822300431E3
:100B80000432C31A54F8222054F821005B43801A1F
:100B900000FB003000F0E2F90546606BA66B4043B5
:100BA00006FB16066B0005FB0566B6FBF3F606FBB7
:100BB000160000F0D3F93B7898F8002054F823C0D1
:100BC000191D54F82170111D54F82110C7EB0109AB
:100BD00009FB00F854F82210B8FBF5F8E044CCEB20
:100BE000010C0CFB06FCBCFBF5FCC444C4F800C0C3
:100BF00054F8222054F82330D31A5843B0FBF5F0B0
:100C000009FB06F63F1AB6FBF5F57D192561BDE82F
:100C1000F88300BF28200020272000202C2000205F
:100C20002420002070B5ADF5405D69464FF4806228
:100C300004F07EF99DE803000DF5805686E8030078
:100C40004FF4806231462A4800F02AF94FF480625E
:100C500004460D462748314600F022F90B46264946
:100C6000264E09680246761A2046294604F0B8FC4A
:100C700017A3D3E9002304F091FF17A3D3E90023BE
:100C800004F0B0FC16A3D3E9002304F05DFE05F0E8
:100C90001DF9301801F008FC194B1B68C01A04F04C
:100CA000DDFD11A3D3E9002304F04EFE05F00EF99B
:100CB000144B1A78144B0C32014643F822001348A7
:100CC00001F006FD0DF5405D70BD00BFAFF3008083
:100CD00009944A702F8BA8C0FCA9F1D24D62503FF5
:100CE00000000000D01263413D0AD7A3703DD23FFF
:100CF00088C5FF1F8885FF1F1420002000286BEE89
:100D000020200020282000202C20002090BC000063
:100D10004FF4FA200121FFF785BC084A0848002358
:100D2000195A41F4805189B241F4002142F813105C
:100D30000233B3F5006FF3D1704700BF8820002065
:100D40008805002008B50D4801F0C2FCFFF7E5FF5B
:100D500001F0D0F84FF4104001F03AF901214FF4BE
:100D6000FA20FFF75FFC0020FFF786FC01F064F833
:100D70000348BDE8084001F0ABBC00BF95BC0000D3
:100D800066BC00000120FFF777BC48B92A4B012957
:100D90001A6802D142F080020AE022EAC11148E05A
:100DA00001280AD1244B01291A6803D142F010020C
:100DB0001A60704722EA01113BE0022809D11E4B5C
:100DC00001291A6802D142F00102F1E722EA010189
:100DD0002FE0032806D1194B01291A6827D142F4C4
:100DE0000032E5E7042825D1134B01291A6811D1F7
:100DF00042F080021A601A6842F010021A601A6803
:100E000042F001021A6053F8802C42F4003243F899
:100E1000802C704722EAC1121A601A6822EA011275
:100E20001A601A6822EA01021A60044B1A6822EA60
:100E300041411960704700BFC0F00F4040F00F40C3
:100E4000144B1A68D20403D41A6842F480521A6010
:100E50001B68104A5B0503D4136843F48063136076
:100E60000D4B1A6842F480721A6053F80C2C42F44D
:100E7000807243F80C2C53F81C2C42F4807243F817
:100E80001C2C064B1A68042042F4807200211A6060
:100E9000FFF77BBF388004401CC0044044A00440DE
:100EA0002DE9F14F0024002581468A4693464FF0F4
:100EB000000826462F462AE04FEAC80309EB030242
:100EC0005344D2E90001D3E9002304F03DFD02467A
:100ED0000B462046294604F085FB08F10103DB00A0
:100EE00009EB0302534404460D46D2E90001D3E95D
:100EF000002304F029FD02460B463046394604F033
:100F000071FB08F1020806460F461FFA88F8D8451B
:100F1000D2DB584604F0B2FC2246804689462B4676
:100F20002046294604F05EFB42464B4604F036FE5E
:100F3000002204460D46304639464FF0404304F047
:100F400003FD42464B4604F029FE02460B4620466E
:100F5000294601B0BDE8F04F04F068B84FF0804377
:100F600000E09B088342FCD80246002008E01918E4
:100F70008A4203D39A18121A00EB430040089B08D8
:100F8000002BF4D17047FFFF08B5244801F0A0FB07
:100F9000234B1A68100503D41A6842F400621A60E1
:100FA0001B681F4A590503D4136843F48063136018
:100FB0001B4B1A68920403D41A6842F400521A6058
:100FC000184B19484FF080721A604FF000721A6087
:100FD0004FF000621A60154B1A6822F480221A60E2
:100FE000134A116821F00101116052F8801C21F4AC
:100FF000807142F8801C1A6822F002021A600D4BC0
:101000000D4A13600D4A1360A2F5FF5213600C4A9B
:101010000C4B1A60BDE8084001F05ABBB3BC00009D
:101020003880044008E100E066BC000054F00F4046
:1010300014F10F4000010B0048A0044000D0044010
:101040000001090004A0044008B50A4B1B689B0777
:1010500006D5FFF76FFDC82002F0ECF8064B04E060
:101060004FF4C87002F0E6F8044B1A6842F0807240
:101070001A6008BD50F00F4004A0044048A004408E
:1010800008B5C82002F0D6F8024B1A6842F0807208
:101090001A6008BD20B0044008B5C82002F0CAF8A4
:1010A000024B1A6842F080721A6008BD00D00440FA
:1010B000444B8022F0B51A601A68434C22F00102BA
:1010C0001A602378062B85B015D10020FFF7D4FADB
:1010D0003E4801F0FDFA3E4A002313703D4A4FF4AA
:1010E000FA6013700723237002F0A4F83A4B1878C3
:1010F000FFF748FC63E0394B1C78012C48D1384D90
:10110000384895F8541000221A70052701F0E0FACB
:101110000FE02B19214693F85530742B07FB04532D
:101120000CBF3148314893F8402001F0D1FA013426
:10113000E4B295F85460A642EBDA0121284B05226F
:1011400015E002FB013090F8400088420DD0244B9E
:10115000F02283F8401083F8412083F8422083F87E
:10116000432083F844202EB10CE00131C9B28E42F5
:10117000E7DAECE71E4801F0ABFA3046342100F024
:10118000F5FF02E01B4801F0A3FA1B4B01221A7085
:10119000114800F01CFE77238DF80030104B93F8B7
:1011A000403068468DF8013074238DF8023000F02D
:1011B0003FFD00F0D4FC0028FBD100F055FD05B048
:1011C000F0BD00BF0000044026200020D1BC00007C
:1011D0000C32002088300020981F00208930002029
:1011E0002C200020DBBC0000FBBC000020BD000068
:1011F00042BD000077BD00008A300020054B002270
:1012000083F8542083F8452083F84A2083F84F2040
:10121000704700BF2C20002010B50C4A052303FBAB
:101220000023F02483F8400083F8414083F84240D3
:1012300083F8434083F8444092F854301018013347
:1012400080F8551082F8543010BD00BF2C200020CB
:1012500030B585B0FFF75CFD214801F039FA72B670
:10126000204B18681CA3D3E90023141A63F100056E
:101270002046294604F03AFB0022002304F0B2F98C
:1012800004F024FE01F010F9044662B6FFF77AFD7F
:101290004FF46143013B7FF4FDAF134800F097FD2D
:1012A00065238DF80030230E8DF80130230C8DF866
:1012B00002306846230A8DF803308DF8044000F0B0
:1012C000B7FC00F04CFC0028FBD100F0CDFC074B34
:1012D00007221A7005B030BD00286BEE0000000038
:1012E000ABBD000024710340981F00202620002081
:1012F0007FB5564B00221A7000F049FD002800F01F
:10130000A480684600F0C9FC9DF80030633B142BB4
:1013100000F29B80DFE803F0250B821D99999999D3
:1013200099999699997E9917135999993900484A2C
:101330009DF8014092F854100123052566E06846A7
:1013400000F0F8FF81E0434801F0C2F900F0B8FF77
:101350007BE0414B93F86C30002B76D100F03AFFE4
:1013600073E03E4B3E4807221A703E4B00221A7033
:1013700001F0AEF99DF801203B4B1A70FFF7C2FA5D
:101380000120342100F0F2FE5FE09DF8011051B918
:101390002F4B93F84000FFF78BFAFFF72FFF3348EE
:1013A00001F096F951E0324B1B783BB99DF80230C1
:1013B000742B0CBF2F48304801F08AF99DF80100CA
:1013C0009DF80210FFF728FF3FE09DF80100FFF7AE
:1013D0003FFF3AE01846013305FB032696F83B60D1
:1013E000A64213D19DF803109DF80230090401EBC9
:1013F00003619DF8043001EB03219DF8053000F1F5
:101400000C02C918124B43F822101EE0D8B28842D1
:10141000E0D31AE06846FFF751FB16E09DF8022082
:101420009DF80130120402EB03629DF8033002EBD9
:1014300003229DF80430D218104B1A60104B012281
:101440001A7002E06846FFF7CDFA7FBD1820002031
:101450002C200020D6BD0000A01F00202620002048
:10146000F7BD00008A3000202420002014BE0000B8
:101470008930002037BE00006CBE00002020002014
:101480000C32002008B50020FFF7F6F8034B0122CC
:101490001A70034B04221A7008BD00BF8830002068
:1014A0001F80004010B51E4B1B78052B34D8DFE899
:1014B00003F0030D3317212B002420464FF4005175
:1014C000013400F0E1FA102CF7D125E00024204689
:1014D0004FF40011013400F0D7FA102CF7D11BE0C3
:1014E000002420464FF4A001013400F0CDFA102C66
:1014F000F7D111E0002420464FF02011013400F014
:10150000C3FA102CF7D107E0002420462021013433
:1015100000F0BAFA102CF8D1BDE8104000F060BA23
:101520008A30002030B5194885B001F0D1F8FFF7B6
:1015300065FE174800F04BFC77238DF80030002340
:101540008DF80130684674238DF8023000F070FB8E
:1015500000F005FB0028FBD10E4C0F4D00F084FB82
:10156000012323700D4B052204201A70FFF7A0F908
:1015700006E02B78012B01D1FFF7BAFEFFF792FFAF
:101580002378012BF5D005B030BD00BF9EBE000012
:10159000981F002089300020182000208A30002069
:1015A0005E4B1A6842F08072F0B51A605C4B5D4A7F
:1015B0005D4C5E4F00251D705D4B01261E705D4B1E
:1015C00087B04FF4FA601A6001F034FE5A4801F017
:1015D0007FF85A4801F07CF8594801F079F85948E9
:1015E00001F076F8564801F073F8574801F070F8AA
:1015F0004FF48063ADF80E304FF4FA2302930523C5
:10160000ADF810304FF40C73ADF804304FF4E673BE
:10161000ADF806304D4B8DF812500593FFF792FB55
:1016200001A8FFF7F5F84A4A4A49102000F0C4F82B
:10163000FFF738FF00F06CFAF0230E2130462370DC
:101640006370A370E370237100F03CFB204600F050
:10165000DBFB204600F0C9FB642001F0EBFD3E4BB4
:101660003E4C1A6842F480521A603D4B1A6842F4AC
:10167000003242F480721A603046342100F076FD68
:10168000FFF750FF374B1D70374B1E70374B384EEE
:101690001D70384B35701D70FFF776FC35463B7872
:1016A000012B01D1FFF724FE2378062B02D0072B54
:1016B00015D10BE02B78012B11D11D4A00232B7083
:1016C0001370194B1878FFF75DF908E02A4B1B7867
:1016D000022B174B01D8042200E003221A70234B7F
:1016E0001A78012A13D123490A78012A0FD100223E
:1016F00016481A700A70FFF795FA4FF4FA6001F075
:1017000099FD094B1878FFF73DF907232370FFF780
:10171000C9FE642001F08EFDC1E700BF4480044093
:101720002520002045490000981F00201820002097
:101730008A30002020320020C0BE0000CBBE000056
:10174000FCBE00002BBF00005ABF0000D4130020D5
:101750008C300020A080FF1F38800440262000200D
:101760000CC00440282000201C20002088300020CD
:10177000292000200C3200201920002072B60B4BCB
:101780000B491A680B4B1B68096862B6490102D500
:10179000322A88BF0133C2F5BB32FF326021B2FB6F
:1017A000F1F24FF47A7000FB0320704718E000E07C
:1017B00004ED00E0701C00202DE9F04104465A4879
:1017C0005A4E5B4D8846174600F082FF594BC6F8CB
:1017D00000801C801822A4B25443404600212246B7
:1017E0002F6005F0F5FE384627B10021224605F0AE
:1017F000EFFE01E033682B604F4D504F2B6843F0F4
:1018000020032B604E4B1A6842F480721A604D4BD5
:101810001A6842F020021A60082001F003FB03203E
:10182000494901F00BFB0420474901F007FB032065
:101830003C2101F091FB0420B02101F08DFB434AD3
:10184000434B44481A60444B1A681A60434A444B5D
:101850001A60444B02F500721A60434B1A6842F05A
:1018600002021A6053F8042C42F0020243F8042CDE
:101870003E4B3F4A1F60012100231380538051607B
:101880009360D0603B481382048022463A4CC0F8F3
:101890000230082020806280244CD4F800C0374CED
:1018A000C4F800C0C2F1000CA180E380A160C4F8BC
:1018B0000CC0DFF8E4C0283444F818CC24F8143CF9
:1018C00024F8122C44F8103C24F80C0C24F80A2CB0
:1018D00044F8087C24F8043C24F8023C21602849A0
:1018E0001E460B604D600B814A81CB60254B0A215F
:1018F00019805A80244B4FF080521A604FF04023D9
:1019000041F232021A60214BB2221E701A70B322C9
:101910005E705A70B1229E709A701D4B18601D48FF
:10192000BDE8F04100F0D4BE8CBF000014320020AE
:101930001832002010320020C8F00F408BBF00008A
:1019400014C00440D4F00F4000350C000003010027
:1019500000A00440C4F00F4094F00F4000010200CA
:1019600000B0044034900440408004402090004087
:1019700024900040369000403C9000404090004051
:101980006C9000407C9000400C0008E00110024088
:1019900000E100E066BC0000C0F00F4008B5054B58
:1019A00003221A70FFF7EAFE034B002218601A7137
:1019B00008BD00BF1F800040D41B002010B5074C9D
:1019C000237943B9FFF7DAFE2368C01A31288CBFA8
:1019D0000020012010BD012010BD00BFD41B00203D
:1019E00010B5214A1379002BFCD1204B1968204BEC
:1019F0001868814205D01F4B1B8818225A4305F0F6
:101A0000C7FC194CFFF7BAFE2368C01A3128F9D970
:101A1000194B186818331B6872B6134A01211171EB
:101A200016490A689A42154AFBD911689942FCD8AE
:101A300011689942FCD3104900F0E7030B60104B8A
:101A400001221A6003F580534FF400541A60A3F585
:101A500000531C600B4B1A7002221A7003221A707A
:101A6000086062B610BD00BFD41B002018320020F1
:101A700014320020103200200090034004900340F4
:101A8000A0A004401B8000400A020B1202F47F0257
:101A900003F47F4313430D4A10B51268C9B21943CA
:101AA000182303FB002001304FF4000210F8014C12
:101AB0000A4214BF44F0200424F0200400F8014C32
:101AC00052080130013BF1D110BD00BF1832002097
:101AD0000E4B10B51B68182202FB00300022134683
:101AE0004FF40001845C04F02004E4B204B10B4321
:101AF00001324908182AF5D118021A1202F47F425D
:101B000000F47F001043DBB2184310BD18320020F0
:101B100008B5064800F0DCFD00F0ECF9002000F00C
:101B200069FA0348BDE8084000F0D2BDAEBF00002E
:101B300066BC0000014B1878704700BF1C320020C3
:101B400008B50021602000F029FA00200121BDE83D
:101B5000084000F023BAFF20012100F01FBA08B5A9
:101B6000FFF7F9FF10F0300F14BF0020012008BD6F
:101B700008B5FFF7F0FF00F01003DBB23BB900F04F
:101B80002000C0B200280CBFFF20002008BD0120AB
:101B900008BD2DE9F04106460F461546002402F126
:101BA000FF3809E04445305D01DA002100E0012101
:101BB00000F0F4F938550134E3B2AB42F2D3BDE89A
:101BC000F081F8B506460D4600244F1E08E0BC42E1
:101BD000305D01DA002100E0012100F0DFF901347D
:101BE000E3B2AB42F3D3F8BD10B500F01F000C46D2
:101BF00040F02000002100F0D1F920460121BDE88D
:101C0000104000F0CBB908B5002000F0F3F9002037
:101C10000821BDE80840FFF7E7BF08B5072070219D
:101C2000FFF7E2FF00200A21BDE80840FFF7DCBF14
:101C300010B50446002000F0DDF9FFF7EEFF0121AA
:101C4000E12000F0ABF90021A02000F0A7F9054B3E
:101C500020461978FFF7B5FF0120BDE8104000F0DD
:101C6000C9B900BF1C32002008B5002000F0C2F93D
:101C70000121E22000F092F90121E12000F08EF92B
:101C800007207021FFF7B0FF00200B21FFF7ACFF0A
:101C90000120BDE8084000F0ADB910B500210446B0
:101CA000612000F07BF9064B204621461A78FFF7A9
:101CB00070FF07204021BDE81040FFF795BF00BF2F
:101CC0001C32002010B51D4C03462170052019461A
:101CD000FFF78AFF11200021FFF786FF12202178ED
:101CE000FFF782FF13202178FFF77EFF14200021E9
:101CF000FFF77AFF15200021FFF776FF162000215D
:101D0000FFF772FF06200146FFF76EFF0020082153
:101D1000FFF76AFF01200721FFF766FF0220072176
:101D2000FFF762FF04200521FFF75EFF1C20002162
:101D3000FFF75AFFBDE81040FFF796BF1C320020A6
:101D400038B500F01F000C460021154600F026F9BA
:101D5000204621462A46BDE83840FFF71ABF07B59E
:101D600008200DF107010122FFF7EAFF9DF80700A7
:101D700000F00F000EBD07B517200DF1070101227D
:101D8000FFF7DEFF9DF8070000F001000EBD08B56B
:101D9000FFF7E1FE00F04000C0B230B9FFF7EBFF03
:101DA000D0F1010038BF002008BD012008BD38B5C2
:101DB00000F01F000C4640F020000021154600F006
:101DC000EDF820462946BDE83840FFF7FABE10B5C9
:101DD000044621460A200522FFF7E9FF102021468C
:101DE0000522BDE81040FFF7E2BF10B50446002011
:101DF00000F000F90C2021460522FFF7D8FF012052
:101E0000BDE8104000F0F6B810B50446002000F020
:101E1000F1F80B2021460522FFF7C9FF0120BDE89C
:101E2000104000F0E7B800BF024B186800F0804097
:101E3000704700BF2CC002401A4B1B491A6842F081
:101E400002021A6053F8042C42F0020243F8042CF8
:101E5000164B174A1A60174A1A6104229A80002307
:101E60000B70154940F202200880C1F80220134A85
:101E700013491160134913814FF480620A800A816B
:101E8000114A082113609180918889B241F00201C2
:101E900091800E4A012111600D4A1370B623137010
:101EA000704700BF408004401B800040009000400D
:101EB0008820002034C00240069000400C90004072
:101EC00000F0FFFF169000401890004000E100E095
:101ED0000010024008B5054B1B78012B02D10020F1
:101EE000FEF7CAFB024B00221A7008BD9D1F00209E
:101EF0001F8000401E4B1A68D20403D41A6842F4B3
:101F000080521A601B4A4FF4117313601A4A13600F
:101F10001A4A116841F480711160194A116841F040
:101F20000801116017494FF401720A60C1F8F02FDF
:101F3000154A16491360C2F8F03F154B40F20222D1
:101F40001A60144B01221A601A6842F0004242F4EF
:101F500013221A60104A11604FF0F44142F8041C39
:101F6000002111621A6822F001021A60704700BF56
:101F70003C80044010B0044018C004400CB0044041
:101F800094F00F4014B0044018B00440040300382B
:101F90001CB0044000C0024010C002400129094B9F
:101FA000094A0CBF40F0805040F0104040F48030AF
:101FB0001860136813F0700FFBD0044B1868C0B2A0
:101FC000704700BF34C002402CC0024038C00240FD
:101FD000054B064A40F400201860136813F0700F98
:101FE000FBD0034B1B68704734C002402CC002403A
:101FF00038C00240044B1A6810B142F0080201E0F8
:1020000022F008021A60704780F00F401C4B1A68DB
:1020100042F002021A6053F8042C42F0020243F824
:10202000042C184A184B1A60184A00231380936036
:10203000174B93F86C100C3209B9543300E020337D
:102040001449136000230B801A464B60124B40F278
:10205000022119800421C3F80210104901230B80CA
:102060000B810F4B022119800E4B40F080001A703B
:1020700018700D4B05221A700C4B20221A60704705
:102080004080044024710340A0900040A490004090
:10209000A01F0020B4900040A6900040B6900040E1
:1020A000BC900040051002401B80004000E100E0B1
:1020B000094B05221A70094B93F85820012A07D1C1
:1020C000002283F85820596D054A521A1A65704744
:1020D000044B01221A7070471F800040A01F00208F
:1020E00000286BEE18200020184B19491A6842F49A
:1020F00000021A60174B00221A60174AC3F8202109
:1021000040230B60154B02221A60186840F004004F
:102110001860186840F0010018602F2043F8180C70
:1021200053F8100C40F0010043F8100C0C4B93F8DE
:102130006C0050B9186E0B4B186080230B600A4B73
:102140001A601A6842F001021A6070473C8004402D
:1021500008E100E00070034000286BEE28710340A6
:10216000A01F0020307103403871034070B5124C3D
:10217000054612480E4600F0ABFA01236366104B89
:1021800084F86C50E3650F4B002223660023C4E9FA
:10219000102330460023A3646362FFF737FFFFF785
:1021A000A3FF094800F094FA0DB9084800E0084878
:1021B000BDE8704000F08CBAA01F0020CBBF00002B
:1021C000FFD7B805FF356E01E9BF0000EFBF000083
:1021D000F8BF0000054B012283F86E20002283F82F
:1021E0006D201A6E024B1A60704700BFA01F0020BE
:1021F00030710340034B0449DA6D0A60002283F812
:102200006E207047A01F0020307103401FB51F4B88
:1022100001221A601E4B93F86E20012A08D193F810
:102220006D20511C052A83F86D1001D9FFF7E2FFDC
:10223000174C1848012384F8583073238DF8003068
:10224000636E1B0A8DF80130636E8DF80230236DCA
:102250001B0E8DF80330236D1B0C8DF80430236D9D
:102260001B0A8DF80530236D8DF80630FFF7AFFDA2
:102270006846FFF7DDFCFFF772FC0028FBD1FFF793
:10228000F3FC636E013363661FBD00BF3C71034006
:10229000A01F0020981F00201FB504AC662307482C
:1022A00004F8103DFFF793FD6846FFF7C1FCFFF708
:1022B00056FC0028FBD1FFF7D7FC1FBD981F00205C
:1022C000002307491A465818026182625A500433A3
:1022D000102BF8D1024B002283F84C20704700BF2E
:1022E000A01F00201FB5104B01221A600F4B93F85E
:1022F0006C30934204D1FFF7E3FFFFF7CDFF11E00D
:1023000004AC72230A4804F8103DFFF760FD6846EC
:10231000FFF78EFCFFF723FC0028FBD1FFF7A4FC9E
:10232000FFF758FF1FBD00BF2C710340A01F002006
:10233000981F00202DE9F04F8378427803EB0222AA
:10234000564B5A665E6E196A013E06F003069E669B
:102350000779C2783F0407EB0267427907EB02274F
:102360008279586EBF1800F003004D4A43F826707A
:102370000430521A43F8202093F84C20032A85B0E9
:1023800002D8013283F84C20311D93F84C8053F869
:102390002110424A0291029C06F10A01381BB8F151
:1023A000020F43F821006FD902F10C09002000212F
:1023B000CE4604460D4600230BE05EF8042F80183D
:1023C000DEF8182041F10001A41845EBE275013355
:1023D0009BB24345F1D35FFA88FB4FF0000A5A469F
:1023E000534603F0F1FFDFF8B4C00390CCF82400AB
:1023F000534620465A462946CDF804C003F0E4FF70
:10240000DDF804C0044600210020DCF848E08246E4
:102410008B46002359F8045F039AAD1A05FB05F2B9
:102420001AEB020A4BEBE27BD9F81820CEEB020242
:102430006A43801841EBE27101339BB24345E9D313
:1024400052465B4603F0C0FF029D03992B196A1A9E
:1024500002FB003207F10A039A42104B1E4402D8D5
:102460000A3FBA4204D2002286F838200D4B09E018
:10247000C117186459649C640A4B012286F83820FD
:102480001A7801321A7005E09619064A002386F878
:102490003830137005B0BDE8F08F00BFA01F0020DA
:1024A00000286BEE19200020054B93F86C2032B108
:1024B0009A6C81185A6A1B6C801A03FB00107047D3
:1024C000A01F0020064A08B513681BB103F8010BD2
:1024D000136008BD034B1B6803B1984708BD00BFDC
:1024E000DC1B00202032002010B5441E01E0FFF765
:1024F000E9FF14F8010F0028F9D110BD2DE9F04FC4
:10250000044685B00D464FF00A0800E035462078B5
:10251000002800F0C880252801D0013468E06078E8
:10252000302803D1A0780123033407E02D2802D0FE
:102530000234002302E0A07802230334002704E0E1
:1025400008FB070714F8010B303FA0F13002092AFD
:10255000F6D96C2801D04C2803D114F8010B43F0B4
:102560000403002800F09F80602886BFA0F12002AD
:10257000D2B202464F2A42D006D8432A30D0442A4B
:1025800009D0422A34D137E0552A04D0582A2CD019
:10259000532A2DD102E04FF00A0E32E02E1DD5F85D
:1025A0000090002500E0013519F80520002AFAD135
:1025B00004E02020FFF786FF554601E0980704D489
:1025C000BD4205F1010AF4D355464846FFF78CFF9A
:1025D00003E02020FFF776FF0135BD42F9D395E7F0
:1025E00028782E1DFFF76EFF90E74FF0100E08E0E1
:1025F000FFF768FF2E4689E74FF0020E01E04FF02B
:10260000080E2E1D442A296804D1002902DA494205
:1026100043F00803002200E02A46B1FBFEFC0EFB5B
:102620001C11CDB2092D614607D9782814BF4FF08F
:1026300007094FF027094D44EDB230350DF802502F
:10264000551CBCF1000F02D0102DE5D10F22190747
:1026500005D504A94D192D2105F8101C951C13F062
:10266000010F0CBF4FF0200B4FF0300B9B07A9461A
:1026700004D508E05846FFF725FFD146B94509F1D2
:10268000010AF7D3D146013D1DF80500FFF71AFFF7
:10269000002DF8D104E02020FFF714FF09F1010913
:1026A000B945F8D332E705B0BDE8F08F074B70B5F8
:1026B0001D6818604C1E1E4601E0FFF703FF14F86A
:1026C000010F0028F9D1356070BD00BF2032002015
:1026D0000FB407B504A951F8040B0191FFF70EFFE1
:1026E000BDE80E4004B070470EB417B505A9084CFC
:1026F00051F8043B206018460191FFF7FFFE226865
:10270000002313702360BDE81E4003B0704700BF74
:10271000DC1B00200EB433B505A9074C51F8043B6F
:102720002568206018460191FFF7E8FE2560BDE8A6
:102730003C4003B0704700BF2032002070B51E46F9
:1027400005461D481446FFF7C3FF022E1FD0042E76
:1027500025D0012E2AD105E0A95D1848FFF7B8FF62
:10276000013600E00026A642F6DB2020FFF7AAFE95
:10277000002609E0AB5DA3F120005E2894BF184657
:102780002E20FFF79FFE0136A642F3DB0EE00C4839
:1027900035F8021BFFF79CFF013CF8D106E0094821
:1027A00055F8041BFFF794FF013CF8D10A20BDE85F
:1027B0007040FFF787BE00BF00C0000007C00000E8
:1027C0000DC0000013C00000F0B530483049036868
:1027D0001B06FCD40B6813F08002F8D172B62D4BA7
:1027E0001978002950D02C4908684F688E68CD6848
:1027F0000C693818143180190968401900194018FB
:10280000C0F34E00254940F400400860C86A0F6BD1
:102810004E6B8D6BCC6B38184031801909684019AC
:1028200000194018C0F34E001D4940F400400860F4
:1028300001F10811143151F8140C51F8107C51F8C1
:102840000C6C51F8085C51F8044C09683818801970
:10285000401900194018C0F34E00124940F40040DE
:102860000860C86A0F6B4E6B8D6BCC6B38184031AB
:1028700080190968401900194018C0F34E000A4930
:1028800040F4004008601A7062B6F0BD24B0034006
:1028900024B00B40E01B002038B003402CB00340B4
:1028A00030B003402CB00B4030B00B40224B6022C4
:1028B0001A70E1225A70214B214A1978214B0829BC
:1028C00001D1012102E00A2907D139211160132227
:1028D0001A601D4B19605A600BE00C291A4901D18E
:1028E000352000E03D20106012221A60174B08606E
:1028F0001A60174B17495B78174A03B101230B6025
:1029000013600E4B154A5978154B012901D88021C7
:102910000CE0042901D8842108E0082901D8852188
:1029200004E0102901D8862100E087211160196098
:10293000074B01221A70704700400740880D0020A5
:1029400008B003400CB0034008B00B400CB00B4083
:10295000E01B002020B0034020B00B4024B0034017
:1029600024B00B400D4B5A7858B1AAB901215970C7
:102970001B7823B10A4B1A6003F500231A60FFF796
:1029800095BF4AB158701B78002BF8D0044B1860E3
:1029900003F500231860F2E7704700BFE01B00203A
:1029A00024B003400C2810B503D91023102807D8F1
:1029B00009E00A2806D8082894BF08230A2302E061
:1029C000184600E00C23DCB2084A0949201A90702E
:1029D0000878834209D013780C7013B1054B00229C
:1029E0001A60BDE81040FFF761BF10BDE01B00207A
:1029F000880D002024B0034010B5114B1B7804460D
:102A00000BB1FFF7E1FE012C0E4A01D8002302E0D2
:102A1000042C02D8042313600EE0082C03D80523ED
:102A20001360082308E0102C03D80623136010233A
:102A300002E0072313602023034A537010BD00BF38
:102A4000E01B002024B00340880D00200D282DE954
:102A5000F0410FD9172801D80E380AE0A0F11A0367
:102A6000052B01D8093804E0A0F12203062B50D829
:102A70001838C0B2284B1C5C284B1B780BB1FFF7F1
:102A8000A3FE72B6220617D4254D244E01272C60D2
:102A9000F77062B672B62B6813F0800F1F4B04D02C
:102AA000204A10680022DA7026E0F378002BEED07E
:102AB00062B601F091FFEDE704F040071A4D174EA2
:102AC000FFB204F03F044FF00108184B1A6817B129
:102AD00022F0100201E042F010021A602C6086F829
:102AE000048062B672B62B6813F0800F0B4B09D0CE
:102AF0000F4A106800221A7162B69B7840FA03F000
:102B0000BDE8F0813379002BDFD062B601F064FFBD
:102B1000E8E70020BDE8F0811AC00000E01B0020BB
:102B200000B0034010B0034000B00B400CB00B40AD
:102B300010B00B400B4B1A6842F480521A600A4BDB
:102B40005A780A4B0AB1802200E0C0221A7040F67F
:102B5000FF739842A8BF1846054B20EAE070188022
:102B6000704700BF2C800440E01B002021C00C40B7
:102B700000C00C40024B1A6801321A60704700BF57
:102B8000701C002038B50B4C25462368580301D52E
:102B900001F01CFA2B68590501D500F099FD2B684E
:102BA0001A0501D500F050FF2368DB04EDD501F0D4
:102BB000ADF8EAE73480044008B5FFF7E3FF024BC5
:102BC00010221A80704700BF002005407047034A5A
:102BD0001368181810601846704700BF8C0D00204D
:102BE000002070474FF0FF3070474FF400534B60A8
:102BF00000207047012070474FF0FF307047FEE71C
:102C0000FEE70078D0F1010038BF002070470123B3
:102C100003707047EFF313839BB9EFF3108098B9FB
:102C2000EFF3058323B10F2B04D9084A985C01E028
:102C30004FF48070EFF311833BB1984228BF1846E0
:102C400070474FF0FF30704718467047F0E300E0E0
:102C5000002300E00133C25C002AFBD11846704714
:102C600010B50023B0FBF2F402FB1400092801D8D0
:102C7000303000E03730C85420460CB10133F1E762
:102C8000CA185470224605E0885CCC5C8C54C85449
:102C90000132013B9A42F7DB084610BD031E10B516
:102CA0000C4603DBBDE81040FFF7DABF2D2001F82A
:102CB000010B5842FFF7D4FF204610BDF0B50F4678
:102CC00087B016461C463A4633460546074901A8D2
:102CD00004F004FF284602F0E3FD02460B462046BE
:102CE00001A904F0FBFE204607B0F0BD31C0000092
:102CF000084B4FF400021A604FF080721A604FF0D8
:102D000000721A604FF080621A604FF000621A6021
:102D1000704700BF08E100E0212830B521D8042A1F
:102D20001FD8DFE802F00709050B03000B2306E0BC
:102D30000A2304E0082302E00C2300E00923094AE7
:102D400002EBC002526872B61468074D24F4702476
:102D5000146044F0807444EA034345F82010136083
:102D600062B630BD3CC00000E81B0020094B03EBFD
:102D7000C0035B6872B61A6822F0877222F4803250
:102D800042F080721A60044B002243F8202062B6A1
:102D9000704700BF3CC00000E81B0020014B1868D2
:102DA000704700BF00D00340044B054900221A6061
:102DB0000A60044A106010221A60704714D0034061
:102DC00004D0034000D00340002810B50FDB0202FE
:102DD0004FF4807347F6FF7400E00A46A24204D91C
:102DE000013B012BC0EB0201F7D1120A11E0404276
:102DF00002024FF4807348F2FF0400E00A46A24248
:102E000004D9013B012BC0EB0201F7D1120AC2F534
:102E10008072013B024942EA03220A6010BD00BFF2
:102E20000CD0034018B1102828BF102000E001206A
:102E3000014B1870704700BF900D002010B50023A3
:102E40004FF4377242FA03F4A14202D80133072B40
:102E5000F8D1164A42FA03F202EB5102B2FBF1F149
:102E600001394FF6FF72914228BF1146C21E012A56
:102E700006D80F4A0F4C0020106020600E480FE06B
:102E8000421F012A06D9092804D00A2802D0143882
:102E9000032809D8094A0A4C00201060206009481C
:102EA00043F008030160136010BD00BF006CDC023A
:102EB00000900340049003400890034000800340CA
:102EC0000480034008800340212810B518D80D4A1B
:102ED00052F8303093F880423CB1012211B183F8AE
:102EE000802010BD83F8002110BD02EBC0004368B4
:102EF0001A6811B142F0030201E022F002021A60E6
:102F000010BD00BF3CC00000212805D8034B53F87A
:102F1000303093F800027047002070473CC000003A
:102F2000212816D80B4A02EBC00301295B6852F82E
:102F3000302004D182F880124FF4A27208E0002001
:102F400082F8800211B94FF4807201E040F203125E
:102F50001A6070473CC00000282838B50A4604466D
:102F60004E4B0FD11B780B2B03D8C3F10C039A40A7
:102F700003E00C2B01D00C3B1A411046BDE8384051
:102F8000FFF7D8BD19780125002A05FA01F301DC05
:102F9000002102E09A4205D32946FFF795FF20461B
:102FA000294676E0C31E012B01D83D4B06E01928C7
:102FB00001D0202801D13B4B00E03B4B1B68013383
:102FC000534323FA01F3E11E1D2959D8DFE801F02C
:102FD0000F151B215858272D5858585858585858CD
:102FE0005833393F4558515858585858584B2F4A1C
:102FF00013604FF451722E4B40E02E4A13604FF491
:1030000051722D4B3AE02D4A136040F244422C4B52
:1030100034E02C4A136040F244422B4B2EE02B4A02
:10302000136040F244422A4B28E02A4A136040F2DF
:103030004442294B22E0294A136040F24442284B83
:103040001CE0284A136040F24442274B16E0274A0E
:10305000136040F24442264B10E0264A136040F2CF
:103060004442254B0AE0254A13604FF45172244B29
:1030700004E0244A1360244B4FF451721A6038BDA7
:103080007F2A2046D4BF00210121FFF71DFF2046E3
:103090000121BDE83840FFF743BF00BF900D00207D
:1030A0000890034008800B400880034010900340C4
:1030B000309004401890034034900440488003400E
:1030C0001CC004403080034010C0044020800340F6
:1030D0000CB004402880034010B004403880034006
:1030E00014C004404080034018C0044010800340D6
:1030F00004B004401880034008B0044010800B4026
:1031000048A0044018800B404CA004402DE9F04139
:1031100007460E4690460824012505EA0801384670
:10312000FFF7D2FE01213046FFF7CEFE00213046E8
:103130006D00FFF7C9FE013CEDB2EED1BDE8F081B4
:103140002DE9F04107460E4690460824802505EA01
:1031500008013846FFF7B8FE01213046FFF7B4FEFC
:1031600000213046FFF7B0FE6D08013CEFD1BDE80D
:10317000F08112B91A46FFF7C9BF1A46FFF7E0BF40
:103180002DE9F04180460F460824002501263846E7
:103190000121FFF799FE4046FFF7B6FE00B1354327
:1031A000002138467600FFF78FFE013CF6B2EED1E3
:1031B0002846BDE8F0812DE9F04180460F460824FD
:1031C0000025802638460121FFF77EFE4046FFF7A6
:1031D0009BFE00B1354300213846FFF775FE7608A7
:1031E000013CEFD12846BDE8F0810AB9FFF7C8BF1E
:1031F000FFF7E1BF72B60C4B0C491A680C4BD3F8C1
:103200008830096862B6490102D5322A88BF013385
:10321000C2F5BB32FF326021B2FBF1F24FF47A709B
:1032200000FB0320704700BF18E000E004ED00E061
:10323000E81B002070B50446FFF7DCFF05466CB1C3
:1032400040F2E736FFF7D6FF401BB04203D9013CFE
:1032500004D005F57A7501F0BFFBF3E770BD10B53A
:10326000FFF746FD154B164A164C00204BF6FF7132
:10327000186059602823136093601361936113628F
:10328000936213639363092222600F4C2060616094
:10329000A360236144F8042C0C4C20600C480160AE
:1032A0000C490B608B600C4B1A60FFF7FFFA04208F
:1032B000FFF7C0FFBDE8104001F0AEB90480034045
:1032C0000C800340008003400490034004800B40C6
:1032D00008800B400C800B4000800B4070B50E2422
:1032E00005464C4303E0013C01D1002070BD2B7822
:1032F000002BF8D101E0013CF7D02B78002BFAD05D
:10330000FFF778FF064601E0013CEED02B78002B5A
:10331000FAD1FFF76FFF801B70BD70B50E24054614
:103320004C4303E0013C01D1002070BD2B78002B01
:10333000F8D001E0013CF7D02B78002BFAD1FFF751
:1033400059FF064601E0013CEED02B78002BFAD065
:10335000FFF750FF801B70BD21280BD8064B53F898
:10336000300000F5007011B11146FFF7B7BF1146EC
:10337000FFF7D3BF002070473CC00000194B1A680C
:1033800042F480621A60184B00221A705A709A70C8
:10339000DA701A71154B40F213321A604FF4517201
:1033A0005A60134BC0F344321A70C0F347125A707C
:1033B00000F01F000F4A9872022104231370517409
:1033C000D3740D4B88221A703C2203F80D2C0B4B42
:1033D00040226FF44A711A705B184FF400521A6061
:1033E000704700BF34800440741C002040A004409B
:1033F00000A0064002A0064010A006402DE400E018
:10340000134A137800F0030103F0EC030B43410768
:1034100048BF43F01003137000F00F03042B04D1D6
:103420000C4B1A7842F040021A700B4A1378C1060E
:1034300003F0EF0348BF43F010031370054A1378FD
:10344000800603F0EF0348BF43F01003137070478A
:1034500002A0064006A0064005A006400D4B1B68D2
:10346000580510B503D410BD01F0B6FA00E00A4CBF
:103470002379094A002BF7D108494FF4005008601E
:10348000074908480B7040F2031101604160137056
:10349000537010BD34800440741C002084E100E0AF
:1034A00003A0064040A0044038B5094B04461D79EE
:1034B000002DFCD120460121FFF732FD2046294690
:1034C000FFF702FD034B53F83420014B9A6038BDDF
:1034D000741C00203CC000001C4B1B685A052DE9E1
:1034E000F041064630D51A4A93680BB10121197094
:1034F0009478174D174FDFF8648001343F2C88BF54
:10350000002415E0FFF786FB40280DDC3B781B0606
:103510000ED5EB7801333F2B88BF0023EA18127BCE
:1035200088F80020EB7003E0FF2801DD01F054FA79
:10353000EA78074BA242E5D01A19167301221A71D4
:103540009C70054BBC221A70BDE8F08134800440A9
:10355000741C002004A0064003A0064007A00640FB
:1035600000F00F00092801D8303000E03730FFF7B5
:10357000B3BF2DE9F84F254B1B6807465805894610
:1035800042D5234B9B680BB101221A70204C3E465A
:10359000A34632E0A5789BF8038001353F2D88BF14
:1035A0000025A84507D0631916F8012B1A730123CB
:1035B0002371A57021E0174BDFF860A0BC221A70C0
:1035C000FFF728FB402810DC9AF80030190610D5C8
:1035D000E37801333F2B88BF00230BEB0302117B01
:1035E0000D4A11708BF8033003E0FF2801DD01F074
:1035F000F3F9E3784345E3D0D5E707EB09039E42AF
:10360000C8D3044BBC221A70BDE8F88F3480044044
:10361000741C002003A0064007A0064004A006403A
:1036200010B5044C01E001F0D7F92379002BFAD151
:1036300010BD00BF741C0020034A107853789842D4
:1036400038BF4030C01A7047741C0020084A1178F7
:103650005378994208D001333F2B88BF0023D118FB
:1036600091F84C00537070474FF0FF30704700BF27
:10367000741C0020074A11785378994207D001330F
:103680003F2B88BF0023D31893F84C0070474FF0AE
:10369000FF307047741C0020094B1B685B050ED57A
:1036A000084B1A7802F0CB021A70074A40211170B9
:1036B0001A7842F034021A70044B5A781A70704724
:1036C0003480044003A0064011A00640741C002072
:1036D000F0B5304B1B7813F0300F21D072B62E4B63
:1036E000197831B90F3B40221B782C4B1A7062B607
:1036F00016E062B62A4B2B4C1A7858781D46531C9C
:103700003F2B88BF00238342267803D0EA1882F833
:103710004C601A46013911F0FF01F0D1204B1A70AC
:10372000214B1B7818465BB2002B1EDA19490B7827
:103730001B061AD51A4A1B4E97781C4DD378BB42EC
:103740000AD001333F2B88BF00230C78D418247B88
:1037500034702C78072CF2D9114AD3700D4B1B789A
:103760001A0602D5104B7C221A7000F04003DBB21F
:1037700073B1084B1B7803F04003DBB243B1084B35
:1037800000221A719B6803B11A70074B3C221A7011
:10379000F0BD00BF04A0064016A0064011A00640E0
:1037A000741C002007A0064003A0064014A0064099
:1037B00038B5451E07E00A2C02D10D20FFF78CFE1C
:1037C0002046FFF789FE15F8014F002CF3D138BDD4
:1037D00010B504460009FFF7C3FE2046BDE81040BF
:1037E000FFF7BEBE10B50446000AFFF7F1FF204602
:1037F000BDE81040FFF7ECBF10B50446000EFFF720
:10380000E7FF200CFFF7E4FF200AFFF7E1FF204667
:10381000BDE81040FFF7DCBF144B1A6842F40062A9
:103820001A60134A0023137053709370D37013718E
:10383000104A40F2133111604FF4517151600E4A39
:10384000C0F344311170C0F3471100F01F005170F4
:10385000907293701374094B2C221A70084B4022FB
:103860001A70084B4FF400421A60704734800440CD
:10387000001D00200CB0044000B0064003B006401C
:103880002FE400E004E100E0134A137800F00301A4
:1038900003F0EC030B43410748BF43F010031370E0
:1038A00000F00F03042B04D10C4B1A7842F04002B5
:1038B0001A700B4A1378C10603F0EF0348BF43F0B8
:1038C00010031370054A1378810603F0EF0348BF15
:1038D00043F010031370704702B0064006B0064074
:1038E00005B006400D4B1B68180510B503D410BD7C
:1038F00001F072F800E00A4C2379094A002BF7D155
:1039000008494FF400400860074908480B7040F22E
:103910000311016041601370537010BD3480044086
:10392000001D002084E100E003B006400CB004401C
:103930001A4B1B681A052DE9F04106462BD5184D88
:10394000184FAC78DFF864800134272C88BF00243E
:1039500015E0FFF75FF940280DDC3B781B060ED51C
:10396000EB780133272B88BF0023EA18527988F8B7
:103970000020EB7003E0FF2801DD01F02DF8EA786C
:10398000074BA242E5D01A19567101221A719C7098
:10399000054BAC221A70BDE8F08100BF34800440B2
:1039A000001D002004B0064003B0064007B00640EA
:1039B00038B54518044603E014F8010BFFF7B8FFCB
:1039C000AC42F9D138BD10B5034C01E001F004F868
:1039D0002379002BFAD110BD001D0020034A107876
:1039E0005378984238BF4030C01A7047001D0020FD
:1039F000084A11785378994208D001333F2B88BF89
:103A00000023D11891F82D00537070474FF0FF300C
:103A1000704700BF001D0020074A11785378994273
:103A200007D001333F2B88BF0023D31893F82D0014
:103A300070474FF0FF307047001D0020014B5A784F
:103A40001A707047001D002010B5204B1B7803F042
:103A50002003DBB273B11E4B1E4A187813785178DD
:103A600001333F2B88BF00238B4203D0D11881F84C
:103A70002D00137018490B7818465BB2002B14DA2E
:103A8000124B1B781B0610D5124A9478D3789C42AF
:103A900002D16C230B7008E00133272B88BF002371
:103AA000D1184C790A490C70D37000F04003DBB296
:103AB0005BB1064B1B7803F04003DBB22BB1054B27
:103AC00000221A71044B2C221A7010BD04B006405B
:103AD00007B00640001D002003B00640154B1A68D1
:103AE00042F480521A60144A00231370537093708A
:103AF000D3701371114A40F2133111604FF45171B8
:103B000051600F4AC0F344311170C0F3471100F007
:103B10001F0051709072937013740A4B2C221A700C
:103B2000094B40226FF44B711A705B184FF400324E
:103B30001A607047348004406D1D002008C00440A6
:103B400000C0064003C0064031E400E0134A137889
:103B500000F0030103F0EC030B43410748BF43F0BF
:103B60001003137000F00F03042B04D10C4B1A78D0
:103B700042F040021A700B4A1378C10603F0EF03BB
:103B800048BF43F010031370054A1378800603F012
:103B9000EF0348BF43F010031370704702C00640A4
:103BA00006C0064005C006400D4B1B68D80410B582
:103BB00003D410BD00F010FF00E00A4C2379094A3D
:103BC000002BF7D108494FF4003008600749084836
:103BD0000B7040F20311016041601370537010BD0F
:103BE000348004406D1D002084E100E003C00640E5
:103BF00008C004401A4B1B68DA042DE9F041064660
:103C00002BD5184D184FAC78DFF864800134272C81
:103C100088BF002415E0FEF7FDFF40280DDC3B784F
:103C20001B060ED5EB780133272B88BF0023EA183B
:103C3000527988F80020EB7003E0FF2801DD00F0E6
:103C4000CBFEEA78074BA242E5D01A195671012241
:103C50001A719C70054BAC221A70BDE8F08100BF50
:103C6000348004406D1D002004C0064003C006409F
:103C700007C0064038B54518044603E014F8010BA8
:103C8000FFF7B8FFAC42F9D138BD10B5034C01E0E5
:103C900000F0A2FE2379002BFAD110BD6D1D00208B
:103CA000034A10785378984238BF4030C01A7047A2
:103CB0006D1D0020084A11785378994208D00133CD
:103CC0003F2B88BF0023D11891F82D005370704707
:103CD0004FF0FF30704700BF6D1D0020074A11787C
:103CE0005378994207D001333F2B88BF0023D31864
:103CF00093F82D0070474FF0FF3070476D1D002086
:103D0000014B5A781A7070476D1D002010B5204B7A
:103D10001B7803F02003DBB273B11E4B1E4A1878E8
:103D20001378517801333F2B88BF00238B4203D097
:103D3000D11881F82D00137018490B7818465BB222
:103D4000002B14DA124B1B781B0610D5124A9478FC
:103D5000D3789C4202D16C230B7008E00133272BEF
:103D600088BF0023D1184C790A490C70D37000F039
:103D70004003DBB25BB1064B1B7803F04003DBB2C0
:103D80002BB1054B00221A71044B2C221A7010BD66
:103D900004C0064007C006406D1D002003C0064059
:103DA0001FB572B6124B70221A70124A412111705F
:103DB0000F2102F8011C80221A701A781206FCD515
:103DC00062B60D4B01A918680A22FEF749FF0B489D
:103DD000002301AA9A5C2AB100EB430101330A2BAC
:103DE0004A80F6D10133054A5B00137005B000BD6F
:103DF000000002400700024008000240920D00202F
:103E000070B50C4B0C4C1A7842F0020504EBC50659
:103E100082F00102706058781A7000280CBF882662
:103E2000C82646EA014180F0010044F83510587078
:103E300070BD00BFDC1D00200080FF1F431E032B50
:103E400010B510D872B6094A02EB8302506840B12F
:103E500041685160064A018832F81340611A22F81D
:103E6000131062B610BD002010BD00BFDC1D002085
:103E700024320020013803280DD8084B03EB8000C2
:103E8000436972B6002002E01A885B688018002B34
:103E9000FAD162B670470020704700BFDC1D0020D9
:103EA000013803280CD872B6064B03EB8000436937
:103EB000002001E05B680130002BFBD162B6704747
:103EC00000207047DC1D002070B572B61A4E1B4CE6
:103ED00001239A1912F8012C02F00802D2B2F2B1B1
:103EE0009900164A54F831502DB902EB43130830AB
:103EF0005860134B09E041F0010154F8315075B995
:103F000002EBC103083058600E4B42F831300E4BC3
:103F100093F82420013A83F8242062B670BD01335F
:103F2000052BD6D162B6084B002283F82420BDE8C9
:103F3000704000F0DDBB00BF4CC100000080FF1FDF
:103F400088004000C8004000DC1D0020421E032AFB
:103F500030B533D840011A4B40F01000181872B633
:103F6000184CA31893F82530032B09D8DFE803F089
:103F7000130215050830022310E0083004230DE079
:103F80009200A318586908B9596101E0DB6A5960C9
:103F9000A218D16211E0032300E00523A21810F05B
:103FA000080F82F8253001F108030A8843600CBF2E
:103FB0008823C82343EA0243036062B630BD00BFD2
:103FC0000080FF1FDC1D002000BE70472DE9F74F69
:103FD000AB4EAC4C357805F00403DBB2BBB1AA4B59
:103FE00093F844208AB193F845202AB1013AD2B21D
:103FF00083F8452002B900BEA44A13782BB1013BD7
:10400000DBB213700BB900F0CBFC0423337005F066
:104010000802D2B2002A00F0AF829D4B1B781D0926
:104020004FEA930940F0058204EBC903596854F83C
:104030003930C3F38303013B0C2B00F2F681DFE838
:1040400013F0AB01AB01F401F401F401F401F4014C
:10405000F401C901F401F401F4010D004B688A4830
:104060000A68C3648B4B826440F2816592B244F863
:10407000393001210023AA4203652361A361417005
:1040800017D8B2F5D06F80F02C81B2F5817F00F0A7
:10409000E58006D8802A00F0C580822A40F0408161
:1040A000C5E040F202339A4200F00A81B2F5A06FF7
:1040B00016E042F22105AA4200F06B8108D8B2F561
:1040C000086F00F0A880B2F5106F40F029810AE077
:1040D00042F221218A4200F01E8142F221339A42AB
:1040E00040F01E8120E190F84A30664D80F844305F
:1040F0002B6A180603D5686A083800F0F9FA664991
:1041000008358D42F4D1DFF8B0B10025A846D94674
:104110000BF1500A55F80B0005E04368009300F0DE
:10412000E7FA009B18460028F7D15C4B49F80500D8
:1041300045F80A00E85807E042680093019200F051
:10414000D7FA019A009B10460028F5D15851544BDC
:10415000E850544B23F81800534B18F80320023A48
:10416000032A08D8DFE802F002040204002200E07B
:10417000012203F8082008F101080435B8F1040F02
:10418000C8D1414BDFF83491002283F82420012567
:104190009846464B05EB0902EB1812F8012C9B00E0
:1041A0001A7002F00802D2B23AB300F083FAAB0000
:1041B00038B104EB4512083050603D4A44F83320D2
:1041C00006E044F8330098F82430013388F82430AE
:1041D00000F070FAAB0043F0010338B104EBC30206
:1041E000083050602B4A44F8332006E044F833008E
:1041F00098F82430013388F82430AA0042F00201F4
:10420000013542F003020023052D44F8313044F813
:104210003230BED189E090F84430054605F83C3F85
:104220000B4687E080F83C3080F83D307FE0B0F806
:104230004C20042A00D973E080F83C3080F83D30EF
:104240001C4B9200D3181B7803F00203DBB2002B47
:104250006DD00546022305F83C1F6BE0B0F84C20FA
:1042600002F07F03042B5BDCB0F84A3003B157E067
:104270009100104A8A18117821F002014EE000BF27
:10428000802007400080FF1FDC1D0020D11E002081
:1042900090200740C80040008080FF1FF01D0020D4
:1042A000081E002024320020011E002030C801100A
:1042B00088004000C0200740E01D00204CC10000E5
:1042C000B0F84C2002F07F03042B29DCB0F84A3010
:1042D00003B125E091009E4A8A18117841F002014D
:1042E0001CE0B0F84A20B0F84C109A4B53F8085C28
:1042F000A3F10C00A5B133F80CCC944509D133F8E7
:104300000ACC8C4505D1120A032A0CBF2B780389ED
:1043100010E00C33EAE790F84A108F4A117004E07D
:104320008B4B0F221A7034E000231D4602E002235B
:1043300000F13C05894AB2F84E904B4538BF99468A
:10434000B9F1400F34BFC8464FF0400828464146F7
:10435000FFF756FDB9EB0809454403D1B8F1400F0A
:1043600007D016E0B9F1400F34BFC8464FF04008FF
:1043700000E0C84628464146FFF742FDB9EB080970
:10438000454402D1B8F1400F03D1744A1565A2F833
:1043900064900122724B47E0704BB3F8482042F220
:1043A00021039A4212D16F4A0023C85C985401330A
:1043B000072BFAD16B4B1B68862B03D1674B0F225F
:1043C00083F8452000200146FFF71AFD664B44F8AC
:1043D00039302AE0DFF88491D9F85080B8F1000F25
:1043E00016D0B9F864A0BAF1400F34BF5546402545
:1043F00040462946FFF704FDC5EB0A039BB2A9F826
:1044000064300BB9402D01D108EB0503534A136505
:10441000524BB3F84820B2F5A06F06D1002283F8C2
:10442000492093F84A20514B1A704D4B01221A70C3
:104430008AE004EBC90803F00803D8F80420013D22
:10444000D9B2A2F10800EDB2002945D000F050F930
:10445000424B03EB8500416921B34A68426101F197
:104460000802C8F804205A1992F82520032A10D807
:10447000DFE802F00205080B5D19032307E05D1970
:10448000022304E05D19052301E05D19042385F88A
:10449000253018F0080F0A880CBF8823C82343EA88
:1044A00002434FE05A1992F82520032A0BD8DFE87F
:1044B00002F04B4B02055D19002301E05D19012359
:1044C00085F8253040E018F0080F1D440CBF02228B
:1044D000032285F8252037E054F839301B0C22F8E8
:1044E000083C4BB322F8061C42F8041C1B4A4FEA56
:1044F000850E02EB0E0194464A680AB9486001E055
:104500004A6D50600CEB0E02DFF850A05065184A5F
:1045100032F815105B1822F8153000F0CBF818B1FE
:104520000830C8F8040007E09AF8243044F839004D
:1045300001338AF8243007E00B4B0E4A18F0080FBD
:1045400008BF134644F839300823337042E500BFF2
:10455000C02007405CC10000D21E0020DC1D0020EE
:10456000942007402C320020C800400098200740CB
:104570002432002088004000E90720D51D4C1E4849
:104580001E4D21460223037001F8682B1C4BA834F2
:104590001D6059601A619A619D60DC60194B0D21A4
:1045A00019701949FF230B7001F8083C0A74174A67
:1045B0001370174B9F221A700123037018E02B060B
:1045C00005D5104B0D221A70802203F8402C05F0FF
:1045D0000203DBB22BB10C4B1A781A70022203F8DB
:1045E000082C05F01005EDB215B10A4B10221A7017
:1045F000BDE8FE8FDC1D00209420074088004000AD
:104600000080FF1FC0200740882007408C20074003
:10461000842007408020074008B5FFF7C1FB002336
:104620001E491A465A50C8180833882B4260F9D1DF
:104630001B4B1A6842F480221A601A4B80221A70AF
:104640001978184A0906FBD4144B1749C3F30720FD
:104650000870C3F307401B0E08750B76FF2301F8A3
:104660001C3C01F8143C01F88C3C137843F04003E7
:1046700013700021012302F8783C02F80C1C02F8A8
:10468000883C0A4B70226FF4507C1A7063444FF4DC
:1046900000721A60064B10221A7008BD0080FF1FBE
:1046A000348004400C2107409C20074049E400E08E
:1046B0000821074072B60C4A1168B1FA81F30B2B3E
:1046C00002D962B6002070474FF0004020FA03F094
:1046D00021EA0001116062B6044948225343C81818
:1046E0000022CA5042607047300E00202082FF1F17
:1046F0000C4B4822C31AB3FBF2F30B2B11D80A4A16
:10470000127822B1094A12780AB1FFF7DDBB72B6FE
:10471000074A4FF0004121FA03F311681943116071
:1047200062B670472082FF1F001E0020201E00205E
:10473000300E002038B5114C23684BB10F4D28685E
:104740004288811801320C7A01888A4212D30CE027
:104750000B4B1B7813B94FF0FF340CE00320FFF72D
:104760006DFB20600028E9D1F5E7FFF7C1FF0023CA
:104770002B6000E04280204638BD00BFC41E0020F0
:10478000201E002010B50C4C23681BB10A4B1B687F
:104790006BB902E0094B1B7813B94FF0FF3010BD25
:1047A0000320FFF74BFB20600028EFD1F5E75A8884
:1047B0009B18187A10BD00BFC41E0020201E0020C8
:1047C000044B9888044B1B681BB11A885B88D31A6A
:1047D000C018704724320020C41E00202DE9F04785
:1047E0000E4681464FF00008DFF868A0184F2AE017
:1047F0009AF800304BB33B684BB90320FFF71EFB20
:10480000386010B3038813B9FFF772FFF5E73C680F
:10481000618825886D1AAE4238BF35460831484652
:104820002A46611802F0B4FD6388A944A844761BA7
:10483000ED182388ADB2AB42658004D82046FFF75F
:1048400057FF00233B60002ED2D14046BDE8F087E1
:10485000C41E0020201E002010B5094B1B786BB130
:10486000084C206818B1FFF743FF002323600320A2
:10487000FFF7E4FA10B1FFF73BFFF8E710BD00BF08
:10488000201E0020C41E00202DE9F8432B4CDFF829
:10489000B08001230D462371064647E0A3681BBB89
:1048A0004AF2F9274FF0010998F8003013B9234A6A
:1048B000137112E00420FFF7F3FA072806D884F8F2
:1048C0000490FFF7F7FEA06070B92071013F01D09E
:1048D000237B33B1194B01221A734FF0FF30BDE82F
:1048E000F88300F079F8DFE7A1684888C0F140025A
:1048F000954238BF2A4600F1080700238018237329
:10490000CF194880AD1A02E0F05CF85401339342AD
:10491000FAD1F6184B883F2B06D940230B80042090
:10492000FFF714FB0023A36005236373002DB5D1AB
:10493000024B28461D71BDE8F88300BFC41E00204D
:10494000201E002007B502AB012103F8010D184617
:10495000FFF79AFF0EBD70B50F4B1B78DBB10F4C04
:10496000A568012626714DB16B8800266673042068
:104970002B802946FFF7EAFAA66009E0FFF79AFEC6
:10498000014620B104206573FFF7E0FA00E066738A
:10499000024B00221A7170BD201E0020C41E002090
:1049A00038B50C4C25799DB9A16831B14B880420EC
:1049B0000B80FFF7CBFAA56038BDFFF77BFE014601
:1049C00020B10420BDE83840FFF7C0BA012363736B
:1049D00038BD00BFC41E00207047FFFF0A4B4FF0D8
:1049E000FF321F2928BF1F2110B59A601860197166
:1049F0004FF48172002303E002FB03046370013370
:104A00008B42F9D110BD00BFD41E002030B572B664
:104A1000104B9A681879B2FA82F1814202D362B6D9
:104A2000002030BD4FF0004020FA01F022EA0002E1
:104A30009A601A7B0132D2B21A7362B64FF4817057
:104A400041431C68012565546018597B914238BF69
:104A50005A7330BDD41E0020427872B60378012B01
:104A600002D9013B03700AE0064B4FF0004121FAE6
:104A700002F19A680A439A601A7B013A1A7362B685
:104A8000704700BFD41E002030B5C3680EE0187A0E
:104A900090420AD158685C7A006950F8245025B9D0
:104AA00040F82410087801300870DB68002BEED144
:104AB00030BD437A99424FF0000305D2026952F8A3
:104AC000210042F8213070471846704738B5437AC4
:104AD000994201D3002418E0036953F821400022D1
:104AE00043F82120002CF5D02378012B0DD9FFF7B6
:104AF0008DFF054628B10230A11C4FF4807202F0F0
:104B000047FC2378013B23702C46204638BD10B566
:104B10004168427A4B7A9A420ED872B60268D368DC
:104B200013B9D06004E02346DC68002CFBD1D860C8
:104B3000012313720B7262B610BD074B9A7B4AB900
:104B4000064AFF211170064A4FF080410120116092
:104B50009873704700207047D41E00205EE400E088
:104B600008E100E0034B4FF080421A60024B002244
:104B70009A73704788E100E0D41E0020F8B5164B08
:104B8000164D1A6842F080721A60154B1A6842F08E
:104B900001021A60134B2E681C690FE0237A63B17F
:104BA00021682F680B68204698472B68E288DB1B3A
:104BB0001B099342A38088BFE3806469002CEDD178
:104BC000064B1A68074B921BD98A12098A429A82AD
:104BD00088BFDA82F8BD00BFFCED00E0041000E001
:104BE000001000E0D41E002010B5084614461146FF
:104BF000FEF7BFFC204610BD084608B5FEF76CFC6A
:104C0000012008BDFEF748BDFEF70ABDFEF71EBD38
:104C1000FEF730BDFEF710BD0846FEF745BCFEF7B7
:104C20001DBC480800F1376000F5D830B0FBF1F04A
:104C3000FEF7A4BB480800F1376010B500F5D83086
:104C4000B0FBF1F01446FEF799FB2046BDE810409A
:104C5000FEF7D6BB044B00221A711A73034A4FF4B5
:104C60007A7199601A607047EC1E0020B0C1000094
:104C700010B5084614461146FEF79AFE204610BDB0
:104C8000084608B5FEF754FE012008BDFEF7D6BE63
:104C9000FEF799BEFEF7ACBEFEF7BEBEFEF79EBEA7
:104CA000FEF720BE480800F1376000F5D830B0FBB1
:104CB000F1F0FEF7B1BD480800F1376010B500F51E
:104CC000D830B0FBF1F01446FEF7A6FD2046BDE853
:104CD0001040FEF7D9BDFFFF044B00221A711A7372
:104CE000034A4FF47A7199601A607047FC1E0020E5
:104CF000E8C1000010B5084614461146FEF7BAFF99
:104D0000204610BD084608B5FEF774FF012008BD17
:104D1000FEF7F6BFFEF7B9BFFEF7CCBFFEF7DEBF6A
:104D2000FEF7BEBFFEF740BF480800F1B76000F5D0
:104D30005840B0FBF1F0FEF7D1BE480800F1B76073
:104D400010B500F55840B0FBF1F01446FEF7C6FE72
:104D50002046BDE81040FEF7F9BEFFFF044B0022DD
:104D60001A711A73034A4FF47A7199601A60704786
:104D70000C1F002020C20000054B1A6842F40002FC
:104D80001A60044B00221A60034B01221A7070470C
:104D90003C800440007003401C1F0020054B012292
:104DA0001A60054B1A6822F400021A60034B0022B5
:104DB0001A707047007003403C8004401C1F0020A4
:104DC00070B54478104D23015A1942600F4A9E185D
:104DD000866004F1440606730D4E06EB84040669F2
:104DE000666000249C50595103219950037B5A114D
:104DF000920002F1604202F5614203F01F030121BB
:104E000001FA03F3136070BD0071034008710340A1
:104E10001C1F0020F8B50D4B1B7806460F460BB93A
:104E2000FFF7AAFF0024094D05F11402A25C42B964
:104E30007470304639462C19FFF7C2FF01202075E7
:104E4000F8BD0134042CEED10020F8BD1C1F002059
:104E5000037B0122591103F01F0302FA03F3094AED
:104E600042F821308268002313604178064A5118C5
:104E700014320B75995C21B90133042BFAD1FFF779
:104E80008DBF704780E100E01C1F0020037810B543
:104E900004460BB1FFF7DCFF0023237010BD03783D
:104EA00070B504460D4616461BB1FFF7D1FF00232F
:104EB0002370256120463146FFF7ACFF10B1012376
:104EC000237000E02070207870BD00BF10B504464C
:104ED000FFF7DCFF204610BD03480449044A0023C5
:104EE00000F8083F01F03CBF341F0020CD4E000009
:104EF0008085FF1F08461146FFF7C6BC0846FFF72E
:104F000021BDFFF728BDFFF73DBCFFF713BCFFF73E
:104F100057BCFFFF044B00221A711A73034A4FF467
:104F20007A7199601A607047541F002058C20000BF
:104F30002DE9F0475FEA92091746824688466FD00E
:104F40004E4605460C46B5F9000001F099F84FF0C1
:104F5000605101F0E9F82060B5F9020001F090F825
:104F60004FF0605101F0E0F86060B5F9040001F025
:104F700087F84FF0605101F0D7F8A060B5F906004E
:104F800001F07EF84FF0605101F0CEF80835E06096
:104F90001034013ED7D108EB09180AEBC90517F008
:104FA00003073BD035F9020B01F06AF84FF060516E
:104FB00001F0BAF8013F4446B84644F8040B07F044
:104FC0000107B8F1000F2DD067B135F9020B01F0E0
:104FD00057F84FF0605101F0A7F8B8F1010844F814
:104FE000040B21D02F46264637F9020B01F048F872
:104FF0004FF0605101F098F846F8040B688800B251
:1050000001F03EF84FF0605101F08EF808F1FF31E9
:105010006060BD1C341DB1F10108E3D1BDE8F0872B
:105020000546BCE7BDE8F087BDE8F08700F000B8B2
:105030002DE9F04784B000260446CDE90023C7F6E9
:10504000F0769DE880100D46CDE902230246C7F1B7
:1050500000092CF0004849EA07090B4648EAD979CB
:10506000B1454FD8C0F1000A21F000494AEA000AD0
:1050700049EADA7AB24545D80CF1404CDDF804A093
:105080000CF5801C5CEA070C5CD04FEAAA7659EA62
:10509000020206F0020646EAD17640D058EA070737
:1050A0004AD00022C7F6F07290455CD00022C7F6C5
:1050B000F072914540D0C8EB09084FEA2858B8F182
:1050C0003C0F4CDC18F13C0FACBF4FF000084FF028
:1050D000010818EADA7873D000200021012E6BD085
:1050E000022E5AD004460D46A6B147A3D3E90023A9
:1050F00000F076FA46A3D3E9002300F071FA0446E3
:105100000D4607E020462946DDE9022300F06AFA51
:1051100004460D462046294604B0BDE8F087032E1C
:10512000BCD801A252F826F015510000155100001C
:10513000575100004F510000002B2ADB36A5D5E95E
:105140000045E7E704B0BDE8F04700F081B834A5BA
:10515000D5E90045DEE72EA5D5E90045DAE72EA121
:10516000D1E90001BAE7C14535D0032E9ED801A28E
:1051700052F826F08D510000855100005751000073
:105180004F51000000244FF00045C3E700240025E4
:10519000C0E725A5D5E90045BCE71BA3D3E900235B
:1051A00000F01EFA02460B4619A1D1E9000100F0F9
:1051B00017FA04460D46ADE7044601F10045A9E79C
:1051C000DDE902232046294600F0E8FC00F0D8F98A
:1051D00000F03EF882E7032EAED8DFE806F00E0AB4
:1051E000060213A5D5E9004594E713A5D5E90045C6
:1051F00090E713A5D5E900458CE713A5D5E900454F
:1052000088E700BFAFF30080075C143326A6A13CFB
:10521000182D4454FB210940182D4454FB21F93F1B
:10522000182D4454FB2109C0182D4454FB21F9BF0B
:10523000D221337F7CD902C0D221337F7CD9024076
:10524000182D4454FB21E9BF182D4454FB21E93F9C
:105250002DE9F84F89464FF6FF7129F00044C4F25A
:105260000F4180468C424A46CA461FDD0023C7F6DE
:10527000F0739C4200F3C08014BF00230123002878
:105280000CBF002103F00101002940F0B58042F27B
:10529000FB1942F618584B46CBF6F979C3F6F97369
:1052A000C5F24448002AC8BF9946ADE04FF6FF73E7
:1052B000C3F6DB739C4200F3BA804FF6FF73C3F66C
:1052C0001F639C4240F3A4804FF0FF3B42464B4695
:1052D0004046494600F038FB02460B4606460F465C
:1052E00000F032FB8EA3D3E9002304460D4600F004
:1052F0002BFB8DA3D3E9002300F074F922462B4643
:1053000000F022FB8AA3D3E9002300F06BF92246C8
:105310002B4600F019FB88A3D3E9002300F062F9C3
:1053200022462B4600F010FB85A3D3E9002300F0B2
:1053300059F922462B4600F007FB83A3D3E900234B
:1053400000F050F932463B4600F0FEFA80A3D3E964
:10535000002306460F462046294600F0F5FA7EA3B4
:10536000D3E9002300F03CF922462B4600F0ECFA8A
:105370007BA3D3E9002300F033F922462B4600F04B
:10538000E3FA79A3D3E9002300F02AF922462B4659
:1053900000F0DAFA76A3D3E9002300F021F92246DF
:1053A0002B4600F0D1FABBF1FF3F02460B4663D01B
:1053B0004CF270243046C0F20004394604EBCB0BAB
:1053C00000F010F94B46424600F0BEFADBE9082334
:1053D00000F006F94B46424600F002F902460B4641
:1053E000DBE9000100F0FCF8BAF1000F8046B4BF21
:1053F00001F10049894607E04046424649464B468E
:1054000000F0F0F88046894640464946BDE8F88FEE
:1054100059A3D3E90023494600F0E4F80023002211
:10542000C3F6F07300F020FD0028EDD14CE74946AB
:1054300000F0A6F84FF6FF73C3F6F2739C420646DF
:105440000F462ADC4FF6FF73C3F6E5739C4258DC27
:1054500002460B4600F0C6F800230022C3F6F073A4
:1054600000F0BEF84FF0000B00224FF080430446DE
:105470000D46304639462CE03046394600F0B2F849
:1054800042464B4600F060FA02460B46404649460B
:1054900000F0A6F880468946B6E747F6FF73C4F2E7
:1054A00003039C4220DC00230022C3F6F8734FF074
:1054B000020B00F095F800230022C3F6F8730446AF
:1054C0000D463046394600F03FFA00230022C3F66D
:1054D000F07300F087F802460B462046294600F09C
:1054E0005DFB80468946F1E600210020CBF6F07195
:1054F00032463B464FF0030B00F050FB8046894696
:10550000E4E600230022C3F6F0734FF0010B00F035
:1055100067F804460D4630463946D6E7AFF30080BB
:1055200011DA22E33AAD903FEB0D76244B7BA93F95
:10553000513DD0A0660DB13F6E204CC5CD45B73F63
:10554000FF8300922449C23F0D5555555555D53F0F
:105550002F6C6A2C44B4A2BF9AFDDE522DDEAD3F03
:105560006D9A74AFF2B0B33F711623FEC671BC3FA3
:10557000C4EB98999999C93F9C7500883CE4377EA3
:1055800021F00041704700BF50EA010201D1022022
:105590007047D0F1010238BF0022B1F1004F08BFBF
:1055A0000028F4D021F000434FF6FF71A3F58010DE
:1055B000C7F6DF71884201D804207047B3F5801F19
:1055C00001D2032070470020C7F6F070834214BF59
:1055D000002002F00100704781F0004102E000BFAE
:1055E00083F0004330B54FEA41044FEA430594EAA3
:1055F000050F08BF90EA020F1FBF54EA000C55EADE
:10560000020C7FEA645C7FEA655C00F0E2804FEAAE
:105610005454D4EB5555B8BF6D420CDD2C4480EA90
:10562000020281EA030382EA000083EA010180EAC0
:10563000020281EA0303362D88BF30BD11F0004F0E
:105640004FEA01314FF4801C4CEA113102D0404244
:1056500061EB410113F0004F4FEA03334CEA13337F
:1056600002D0524263EB430394EA050F00F0A78097
:10567000A4F10104D5F1200E0DDB02FA0EFC22FA92
:1056800005F2801841F1000103FA0EF2801843FA86
:1056900005F359410EE0A5F120050EF1200E012A77
:1056A00003FA0EFC28BF4CF0020C43FA05F3C018B5
:1056B00051EBE37101F0004507D54FF0000EDCF12E
:1056C000000C7EEB00006EEB0101B1F5801F1BD3D7
:1056D000B1F5001F0CD349085FEA30004FEA3C0CDB
:1056E00004F101044FEA445212F5800F80F09A80D1
:1056F000BCF1004F08BF5FEA500C50F1000041EBD5
:10570000045141EA050130BD5FEA4C0C404141EBD8
:10571000010111F4801FA4F10104E9D191F0000FFF
:1057200004BF01460020B1FA81F308BF2033A3F182
:105730000B03B3F120020CDA0C3208DD02F1140C79
:10574000C2F10C0201FA0CF021FA02F10CE002F1B4
:105750001402D8BFC2F1200C01FA02F120FA0CFCAD
:10576000DCBF41EA0C019040E41AA2BF01EB0451F6
:10577000294330BD6FEA04041F3C1CDA0C340EDCF4
:1057800004F11404C4F1200220FA04F001FA02F337
:1057900040EA030021FA04F345EA030130BDC4F1F5
:1057A0000C04C4F1200220FA02F001FA04F340EAEA
:1057B0000300294630BD21FA04F0294630BD94F09B
:1057C000000F83F4801306BF81F480110134013D82
:1057D0004EE77FEA645C18BF7FEA655C29D094EAF3
:1057E000050F08BF90EA020F05D054EA000C04BF71
:1057F0001946104630BD91EA030F1EBF002100205C
:1058000030BD5FEA545C05D14000494128BF41F0FA
:10581000004130BD14F580043CBF01F5801130BD5E
:1058200001F0004545F0FE4141F470014FF00000E9
:1058300030BD7FEA645C1ABF194610467FEA655C9A
:105840001CBF0B46024650EA013406BF52EA03353C
:1058500091EA030F41F4002130BD00BF90F0000F2A
:1058600004BF0021704730B54FF4806404F1320466
:105870004FF000054FF0000150E700BF90F0000F1F
:1058800004BF0021704730B54FF4806404F1320446
:1058900010F0004548BF40424FF000013EE700BF16
:1058A00042004FEAE2014FEA31014FEA02701FBFA6
:1058B00012F07F4393F07F4F81F06051704792F078
:1058C000000F14BF93F07F4F704730B54FF46074F2
:1058D00001F0004521F0004120E700BF50EA01023D
:1058E00008BF704730B54FF000050AE050EA0102EA
:1058F00008BF704730B511F0004502D5404261EB5A
:1059000041014FF4806404F132045FEA915C3FF49A
:10591000DCAE4FF003025FEADC0C18BF03325FEA33
:10592000DC0C18BF033202EBDC02C2F1200300FAE8
:1059300003FC20FA02F001FA03FE40EA0E0021FA0D
:1059400002F11444C1E600BF70B54FF0FF0C4CF4F7
:10595000E06C1CEA11541DBF1CEA135594EA0C0FAD
:1059600095EA0C0F00F0DEF82C4481EA030621EAE8
:105970004C5123EA4C5350EA013518BF52EA033523
:1059800041F4801143F4801338D0A0FB02CE4FF0D5
:105990000005E1FB02E506F00042E0FB03E54FF005
:1059A0000006E1FB03569CF0000F18BF4EF0010EFD
:1059B000A4F1FF04B6F5007F64F5407404D25FEAF9
:1059C0004E0E6D4146EB060642EAC62141EA5551AC
:1059D0004FEAC52040EA5E504FEACE2EB4F1FD0CEE
:1059E00088BFBCF5E06F1ED8BEF1004F08BF5FEA6C
:1059F000500E50F1000041EB045170BD06F000461E
:105A000046EA010140EA020081EA0301B4EB5C04CA
:105A1000C2BFD4EB0C0541EA045170BD41F48011C2
:105A20004FF0000E013C00F3AB8014F1360FDEBFE7
:105A3000002001F0004170BDC4F10004203C35DAC3
:105A40000C341BDC04F11404C4F1200500FA05F346
:105A500020FA04F001FA05F240EA020001F00042E7
:105A600021F0004110EBD37021FA04F642EB06015D
:105A70005EEA430E08BF20EAD37070BDC4F10C0487
:105A8000C4F1200500FA04F320FA05F001FA04F24B
:105A900040EA020001F0004110EBD37041F1000137
:105AA0005EEA430E08BF20EAD37070BDC4F1200542
:105AB00000FA05F24EEA020E20FA04F301FA05F2AA
:105AC00043EA020321FA04F001F0004121FA04F252
:105AD00020EA020000EBD3705EEA430E08BF20EA22
