:1000000000800020BD01000069130000691300009A
:100010006913000069130000691300003513000024
:10002000351300003513000035130000691300007C
:100030006913000035130000691300002513000048
:10004000090800006913000069130000691300002B
:1000500069130000691300006913000069130000B0
:1000600069130000691300006913000069130000A0
:100070006913000069130000691300006913000090
:100080006913000069130000691300006913000080
:100090006913000069130000691300006913000070
:1000A0006913000069130000691300006913000060
:1000B0006913000069130000691300006913000050
:1000C0006913000069130000691300006913000040
:1000D0006913000069130000691300006913000030
:1000E0006913000069130000691300006913000020
:1000F00069130000C92000006913000041240000BA
:10010000691300000527000069130000691300004F
:1001100069130000691300006913000069130000EF
:1001200069130000691300006913000069130000DF
:1001300069130000691300006913000069130000CF
:1001400069130000691300006913000069130000BF
:1001500049080000691300006913000069130000DA
:10016000ED070000C52900006913000069130000B5
:10017000691300006913000069130000691300008F
:10018000691300006913000069130000691300007F
:100190006913000069130000691300004D15000089
:1001A0009D15000025160000E116000065170000EF
:1001B0006913000069130000753500004E4B4CF2C6
:1001C000205210B51A804DF628121A8000BF00BFC9
:1001D00001F0CDF8494B4FF010621A60484A9A601E
:1001E000484ADA60484B1A6812F4807204D14749D1
:1001F0000A604FF4A8521A60454B1A7802F00802C0
:10020000D2B21AB11A7842F008021A700023414A99
:100210004148424C02E019599950043399188142DF
:10022000F9D33F4B3F4A002101E043F8041B9342BE
:10023000FBD33D4B00221A603C4B3D4A802103F822
:10024000011B9342FBD13B4B0A221A703A4B2422EA
:100250001A70A02203F8012C384A137803F0020325
:10026000DBB2002BF9D0354A137803F01003DBB270
:10027000002BF9D1314A137803F00C03082BFAD183
:100280002F4B03221A7040225A702C4A137803F025
:100290002003DBB2002BF9D0284A137803F0400387
:1002A000DBB2002BF9D0274A274B1A60274B2022BC
:1002B0001A70224A137803F00C030C2BFAD1244B4A
:1002C00002221A60234A43F8442C234B234A1A6023
:1002D000072243F8042C62B601F0BDFC0B4B1B68EF
:1002E000DC0702D51E4801F05BFA04F031FF01F093
:1002F00045F800F033FBFEE70E2005403080044057
:10030000823F04000100002B10D0034014D00340B2
:1003100002D007400084FF1F388AFF1FA4A70100F6
:10032000388AFF1F3898FF1F08ED00E000E400E066
:100330005FE400E0005006400140064006400640F1
:100340000440064000000301448004400040064091
:1003500048800440C010050014E000E0FF76010072
:1003600000DD6850FFFFFFFFFFFFFFFFFFFFFFFF04
:10037000FFFFFFFFFFFFFFFFFFFFFFFFFFFFFFFF8D
:10038000FFFFFFFFFFFFFFFFFFFFFFFFFFFFFFFF7D
:10039000FFFFFFFFFFFFFFFFFFFFFFFFFFFFFFFF6D
:1003A000FFFFFFFFFFFFFFFFFFFFFFFFFFFFFFFF5D
:1003B000FFFFFFFFFFFFFFFFFFFFFFFFFFFFFFFF4D
:1003C000FFFFFFFFFFFFFFFFFFFFFFFFFFFFFFFF3D
:1003D000FFFFFFFFFFFFFFFFFFFFFFFFFFFFFFFF2D
:1003E000FFFFFFFFFFFFFFFFFFFFFFFFFFFFFFFF1D
:1003F000FFFFFFFFFFFFFFFFFFFFFFFFFFFFFFFF0D
:10040000FFFFFFFFFFFFFFFFFFFFFFFFFEFFFFFFFD
:1004100008B548F63820074BC1F6FF701B1A062BAB
:1004200000D808BD40F20003C0F20003002BF8D052
:100430009847F6E73B8AFF1F08B548F6382048F68C
:100440003823C1F6FF70C1F6FF731B1A9B1003EB34
:10045000D373591000D108BD40F20002C0F200026F
:10046000002AF8D09047F6E710B548F63824C1F6D0
:10047000FF74237873B9FFF7CBFF40F20003C0F29B
:1004800000032BB14AF2A470C0F20100AFF3008068
:100490000123237010BD00BF08B540F20003C0F275
:1004A00000034BB14AF2A47048F63C21C0F20100AF
:1004B000C1F6FF71AFF3008048F63820C1F6FF7037
:1004C00003682BB140F20003C0F2000303B1984768
:1004D000BDE80840FFF7B0BF2DE9F04F85B04FEA07
:1004E000920A8B4601F10809029001920146D0461A
:1004F000002350E091E890008868CD681031002F0B
:1005000002DAD3FA17FC00E0BC46002D02DAD3FA77
:1005100015F600E02E4657B1002C04DBD4FA1CF28D
:1005200094FA1CFC03E094FA1CF2D4FA1CFC93FA33
:1005300013FC4FEADC3C0CF30F0C0FFA8CFC93FA23
:100540001CFC002F03DA0FFA8CFCD3FA1CFC55B10B
:10055000002804DBD0FA16F490FA16F603E090FABD
:1005600016F4D0FA16F693FA13F4E40B04F30F041E
:1005700020B293FA10F0002D02DA00B2D3FA10F094
:100580000FFA8CF400B249F8084C49F8040C08F151
:10059000FF3809F10809B8F1000FABD1019B03F056
:1005A0000302029B03EB0A100BEBCA0A08300AF1A4
:1005B000040526E010E91800002C02DAD8FA14F13C
:1005C00001E00BD02146002B04DBD3FA11F693FA9D
:1005D00011F103E093FA11F6D3FA11F198FA18F138
:1005E000C90B01F30F010BB298FA13F3002C02DAD6
:1005F0001BB2D8FA13F31BB245F8043C013A083099
:100600000435002AD6D105B0BDE8F08F164B802204
:1006100030B51A601A681206FCD4144B1A685D686B
:100620009C68D8681969AA18143312191B68121823
:100630005218D218C2F34E020D4B42F400421A6017
:10064000DA6A1D6B5C6B986BD96BAA184033121970
:100650001B6812185218D218C2F34E02054B42F40E
:1006600000421A6030BD00BF24B0034038B00340E0
:100670002CB0034030B0034008B5064B38221A6056
:1006800013225A6044229A61FFF7C0FF024B4922AD
:100690001A6008BD08B0034000B003400B4B1A6855
:1006A00042F480021A600A4B77221A6000229A6094
:1006B00040F20112DA6040F6837243F8042C53F8DA
:1006C000042C42F4803243F8042C70473C800440F0
:1006D000046003401A491B4A0868002340F00200E6
:1006E00042F8043B086051F8040C40F0020041F865
:1006F000040C154915480B6001F580510860144839
:1007000003808360C260134A19461380124B134A58
:100710001A6040F2011223F8122C114A02231360CE
:100720004FF48072428242830E4A13800E4BA822FD
:1007300019701A700D4B19700D4B01221A60704719
:1007400040800440548AFF1F0080004010B00340E6
:1007500004900040149000401890004000FEFFFFFD
:10076000089000401C900040001002401B80004098
:1007700000E100E07047034B1A6842F410021A606F
:10078000704700BF50B00340044B1A6810B922F004
:10079000200201E042F020021A60704720B00340BE
:1007A000034B00F50062C0F500601A6058607047A6
:1007B00018B00340074B1A6842F018021A604FF451
:1007C000106243F8082C01204FF4E06243F8042C37
:1007D000FFF7DABF20B00340062804D8024B1A689E
:1007E00042EA00401860704750B00340044B1A685A
:1007F00001321A60034B1A6822F040021A607047F7
:100800001498FF1F006003400A4B0B4918680B4AFD
:1008100030B903F50170086009491160012204E054
:10082000181D08600649116000221A60054B00225D
:100830001A707047548AFF1F1090004018900040B3
:1008400000FEFFFF1F800040074B01221A60074B8C
:100850001A8892B2511C19804FF6FF718A4201D159
:1008600000221A80704700BF0C7103401898FF1FC8
:100870000C4B1A6842F400021A600B4B00221A60FB
:100880000A4B10221A600A4B2F221A6002229A6029
:100890009A6842F001029A60DA6842F00102DA6076
:1008A000704700BF3C8004400070034008E100E056
:1008B0000071034010B50B490B4C4FF480720020BF
:1008C00003F032F84FF48043A4F80434A4F804355C
:1008D000044B47F6FF7103F1FE0223F8021F934217
:1008E000FBD110BD588EFF1F548AFF1F164B1748AF
:1008F000102210B51A60164B1988164BA3F804166F
:1009000015490A6063220270B3F80426B3F804366E
:10091000C2F307224270837000F08CF900F013F9E3
:100920000028FBD100F018F9044600F026FA3CB983
:10093000084BB3F80426FB2101FB0020A3F80406B2
:10094000BDE8104000F09CB988E100E01A98FF1F54
:100950001898FF1F548AFF1F08E100E030B5564B7E
:10096000564C1A6842F08072ADF50B7D1A60FFF7A5
:1009700083FEFFF71FFFFFF791FEFFF7ABFE00F0CE
:10098000B3F8FFF775FF0321012000F0A3F94C48ED
:1009900000F031FA4B4800F03CFA4B4A4B4B4FF415
:1009A00080611A6002A80022012303F0F3FB0122F8
:1009B0004FF48061134606A803F0ECFBFFF77AFFC3
:1009C000236822689A422FD00025414B28466908A7
:1009D00004EB41010AB9898801E0B1F8041202353B
:1009E000ADB2B5F5007F23F8021C23F8040BEED15D
:1009F00002A8384903F0B0FB3648032102462B46D3
:100A000003F078FD3348344902464FF4807303F015
:100A10009DFC06A82F4903F09FFB2E480AA92A46F1
:100A2000FFF75AFDFFF762FF4FF41653013B7FF4C7
:100A3000FDAF00F0BAF90028C2D001A800F030F9EB
:100A40009DF80430632B26D1244B10221A60244BCE
:100A5000B4F804161A8889B292B291421A88B4F88E
:100A6000043692B204D9DB4312FA83F35B0805E043
:100A70009BB2D31A022293FBF2F39BB29DF80510AE
:100A80009DF8062042EA01229B18154A1380154B57
:100A900010221A6094E7722B92D1104A102313602F
:100AA0000F4A9DF8051010886FF07C0505FB0101C9
:100AB00011800C4A136083E744800440548AFF1F6E
:100AC0000484FF1F0984FF1F3D3300002098FF1F8F
:100AD0005C90FF1F5A90FF1F588EFF1F88E100E0B7
:100AE0001898FF1F08E100E008B500F0B9F90020F0
:100AF00000F018FA012000F021FABDE8084000F0EB
:100B00009FB9014B187870471D98FF1F10B5002042
:100B100000F014FA602000F0F3F9002000F0F0F982
:100B20000446012000F00AFA204610BD10B500204E
:100B300000F004FAFF2000F0E3F90446012000F081
:100B4000FDF9204610BD08B5FFF7F0FF10F0300F9B
:100B500014BF0020012008BD08B5FFF7E7FF00F033
:100B60001003DBB23BB900F02000C0B200280CBF7C
:100B7000FF20002008BD012008BD08B5002000F0BE
:100B8000D1F9002000F0DAF9E22000F0B9F90120F3
:100B900000F0D4F9002000F0D1F9E12000F0B0F924
:100BA0000120BDE8084000F0C9B9F8B505460E4679
:100BB0001746002404E0285D00F0A2F93055013406
:100BC000E3B2BB42F7D3F8BD70B505460E4600242C
:100BD00003E0285D00F094F90134E3B2B342F8D3A6
:100BE00070BD38B5044600200D4600F0A7F904F0AA
:100BF0001F0040F0200000F083F9284600F080F943
:100C00000120BDE8384000F099B908B5002000F097
:100C100089F900200821BDE80840FFF7E2BF08B5C8
:100C200007207021FFF7DDFF00200A21BDE8084002
:100C3000FFF7D7BF10B50446002000F073F9FFF7A7
:100C4000EEFF002000F07AF9E12000F059F90120D0
:100C500000F074F9002000F071F9A02000F050F9C4
:100C6000064B20461978FFF7AFFF012000F066F928
:100C70000120BDE8104000F055B900BF1D98FF1FCE
:100C800008B5FFF77AFF07207021FFF7AAFF0020C1
:100C90000B21FFF7A6FF0120BDE8084000F042B994
:100CA00010B50446002000F049F9612000F028F951
:100CB000074B214620461A78FFF777FF012000F006
:100CC0003DF907204021BDE81040FFF78ABF00BF73
:100CD0001D98FF1F10B51D4C0346217005201946B5
:100CE000FFF77FFF11200021FFF77BFF1220217803
:100CF000FFF777FF13200021FFF773FF1420002177
:100D0000FFF76FFF15200021FFF76BFF1620002172
:100D1000FFF767FF06200146FFF763FF0020082169
:100D2000FFF75FFF01200321FFF75BFF0220032194
:100D3000FFF757FF05210420FFF753FF1C20002178
:100D4000FFF74FFFBDE81040FFF79ABF1D98FF1F48
:100D500070B5044600200E46154600F0EFF804F08A
:100D60001F0000F0CDF8304631462A46FFF71DFF40
:100D70000120BDE8704000F0E1B807B508200DF192
:100D800007010122FFF7E4FF9DF8070000F00F00C4
:100D90000EBD07B517200DF107010122FFF7D8FF9F
:100DA0009DF8070000F001000EBD08B5FFF7BEFE7C
:100DB00000F04000C0B230B9FFF7EBFFD0F1010006
:100DC00038BF002008BD012008BD70B504460020D2
:100DD0000D46164600F0B2F804F01F0040F0200067
:100DE00000F08EF828463146FFF7EEFE0120BDE800
:100DF000704000F0A3B810B5044621460A20052231
:100E0000FFF7E3FF102021460522BDE81040FFF761
:100E1000DCBF10B50446002000F084F80B2021460A
:100E20000522FFF7D2FF0120BDE8104000F07AB89C
:100E3000024B1A6842F001021A60704700C002407B
:100E4000024B1A6822F001021A60704700C002408B
:100E5000024B186800F08040704700BF2CC0024071
:100E60001C4B1A68D20403D41A6842F480521A60E8
:100E7000194B4FF4A2721A60184B1A6842F0100214
:100E80001A60174A116841F4807111601A6842F0C3
:100E900008021A60134A4FF4117313605360124B27
:100EA00040F202221A60114B4FF480421A60104A3D
:100EB0001A60104A136813F08043FBD10E4A0F49A1
:100EC00011605362094B1A6822F4804222F0010239
:100ED0001A6070473C80044010B0044094F00F400A
:100EE0000CB0044014B004401CB0044000C00240E8
:100EF000017000802CC002400CC002400400003889
:100F0000054B064A1860136813F0700FFBD0044BB2
:100F10001868C0B2704700BF34C002402CC0024005
:100F200038C00240044B1A6810B142F0080201E0D8
:100F300022F008021A60704780F00F40044B1A68D4
:100F400010B142F0100201E022F010021A60704766
:100F500080F00F4008B5FF20FFF7D2FF044A136866
:100F600013F0700FFBD0034B1868C0B208BD00BF70
:100F70002CC0024038C00240F0B530483049036808
:100F80001B06FCD40B6813F08002F8D172B62D4B0F
:100F90001978002950D02C4908684F688E68CD68B0
:100FA0000C69381814318019096840190019401863
:100FB000C0F34E00254940F400400860C86A0F6B3A
:100FC0004E6B8D6BCC6B3818403180190968401915
:100FD00000194018C0F34E001D4940F4004008605D
:100FE00001F10811143151F8140C51F8107C51F82A
:100FF0000C6C51F8085C51F8044C096838188019D9
:10100000401900194018C0F34E00124940F4004046
:101010000860C86A0F6B4E6B8D6BCC6B3818403113
:1010200080190968401900194018C0F34E000A4998
:1010300040F4004008601A7062B6F0BD24B003406E
:1010400024B00B405C94FF1F38B003402CB0034029
:1010500030B003402CB00B4030B00B40224B60222C
:101060001A70E1225A70214B214A1978214B082924
:1010700001D1012102E00A2907D13921116013228F
:101080001A601D4B19605A600BE00C291A4901D1F6
:10109000352000E03D20106012221A60174B0860D6
:1010A0001A60174B17495B78174A03B101230B608D
:1010B00013600E4B154A5978154B012901D8802130
:1010C0000CE0042901D8842108E0082901D88521F1
:1010D00004E0102901D8862100E087211160196001
:1010E000074B01221A707047004007400E84FF1F13
:1010F00008B003400CB0034008B00B400CB00B40EC
:101100005C94FF1F20B0034020B00B4024B003408C
:1011100024B00B400D4B5A7858B1AAB9012159702F
:101120001B7823B10A4B1A6003F500231A60FFF7FE
:1011300095BF4AB158701B78002BF8D0044B18604B
:1011400003F500231860F2E7704700BF5C94FF1FAF
:1011500024B003400C2810B503D91023102807D859
:1011600009E00A2806D8082894BF08230A2302E0C9
:10117000184600E00C23DCB2084A0949201A907096
:101180000878834209D013780C7013B1054B002204
:101190001A60BDE81040FFF761BF10BD5C94FF1FEF
:1011A0000E84FF1F24B0034010B5114B1B7804467A
:1011B0000BB1FFF7E1FE012C0E4A01D8002302E03B
:1011C000042C02D8042313600EE0082C03D8052356
:1011D0001360082308E0102C03D8062313601023A3
:1011E00002E0072313602023034A537010BD00BFA1
:1011F0005C94FF1F24B003400E84FF1F0D282DE9CF
:10120000F0410FD9172801D80E380AE0A0F11A03CF
:10121000052B01D8093804E0A0F12203062B50D891
:101220001838C0B2284B1C5C284B1B780BB1FFF759
:10123000A3FE72B6220617D4254D244E01272C603A
:10124000F77062B672B62B6813F0800F1F4B04D094
:10125000204A10680022DA7026E0F378002BEED0E6
:1012600062B602F0B5F8EDE704F040071A4D174EEC
:10127000FFB204F03F044FF00108184B1A6817B191
:1012800022F0100201E042F010021A602C6086F891
:10129000048062B672B62B6813F0800F0B4B09D036
:1012A0000F4A106800221A7162B69B7840FA03F068
:1012B000BDE8F0813379002BDFD062B602F088F808
:1012C000E8E70020BDE8F08178A900005C94FF1FEA
:1012D00000B0034010B0034000B00B400CB00B4016
:1012E00010B00B400B4B1A6842F480521A600A4B44
:1012F0005A780A4B0AB1802200E0C0221A7040F6E8
:10130000FF739842A8BF1846054B20EAE07018808A
:10131000704700BF2C8004405C94FF1F21C00C402C
:1013200000C00C40024B1A6801321A60704700BFBF
:10133000EC94FF1F38B50B4C25462368580301D5A4
:1013400001F040FB2B68590501D500F0BDFE2B686C
:101350001A0501D501F074F82368DB04EDD501F01E
:10136000D1F9EAE73480044008B5FFF7E3FF024B08
:1013700010221A80704700BF002005407047034AC2
:101380001368181810601846704700BF1084FF1FBC
:10139000002070474FF0FF3070474FF400534B6010
:1013A00000207047012070474FF0FF307047FEE784
:1013B000FEE70078D0F1010038BF0020704701231C
:1013C00003707047EFF313839BB9EFF3108098B964
:1013D000EFF3058323B10F2B04D9084A985C01E091
:1013E0004FF48070EFF311833BB1984228BF184649
:1013F00070474FF0FF30704718467047F0E300E049
:10140000002300E00133C25C002AFBD1184670477C
:1014100010B50023B0FBF2F402FB1400092801D838
:10142000303000E03730C85420460CB10133F1E7CA
:10143000CA185470224605E0885CCC5C8C54C854B1
:101440000132013B9A42F7DB084610BD031E10B57E
:101450000C4603DBBDE81040FFF7DABF2D2001F892
:10146000010B5842FFF7D4FF204610BDF0B50F46E0
:1014700087B016461C463A4633460546074901A83A
:1014800004F0AEFC284603F03DFB02460B46204626
:1014900001A904F0A5FC204607B0F0BD8FA900000B
:1014A000084B4FF400021A604FF080721A604FF040
:1014B00000721A604FF080621A604FF000621A608A
:1014C000704700BF08E100E0212830B521D8042A88
:1014D0001FD8DFE802F00709050B03000B2306E025
:1014E0000A2304E0082302E00C2300E00923094A50
:1014F00002EBC002526872B61468074D24F47024DF
:10150000146044F0807444EA034345F820101360EB
:1015100062B630BD98A900006494FF1F094B03EB2D
:10152000C0035B6872B61A6822F0877222F48032B8
:1015300042F080721A60044B002243F8202062B609
:10154000704700BF98A900006494FF1F114B10B5AD
:101550001C68E0041C6004D50F4BDA680AB1DB6834
:101560009847A10404D50C4B1A690AB11B69984726
:10157000A20604D5084B1A6E0AB11B6E9847E30603
:1015800006D5054BD3F8842012B1D3F884309847A0
:1015900010BD00BFA09004406494FF1F1F4B10B506
:1015A0001C68E0031C6004D51D4B1A680AB11B6857
:1015B0009847A10304D51A4B5A680AB15B6898474B
:1015C000E20704D5164B1A6C0AB11B6C9847A307A7
:1015D00004D5134B5A6C0AB15B6C9847200704D5AD
:1015E0000F4B9A6C0AB19B6C9847610704D50C4B62
:1015F000DA6C0AB1DB6C9847220304D5084B5A6EAB
:101600000AB15B6E9847630306D5054BD3F880207B
:1016100012B1D3F88030984710BD00BFA0A004409D
:101620006494FF1F2C4B10B51C6820071C6004D568
:101630002A4B5A6A0AB15B6A9847E10604D5274BE0
:101640009A6A0AB19B6A9847620604D5234BDA6A04
:101650000AB1DB6A9847230604D5204B1A6B0AB1FE
:101660001B6B9847A00604D51C4B5A6B0AB15B6BE9
:101670009847E10704D5194BDA6B0AB1DB6B984741
:10168000A20704D5154B9A6D0AB19B6D9847630765
:1016900004D5124BDA6D0AB1DB6D9847A00504D56D
:1016A0000E4BDA6E0AB1DB6E9847E10504D50B4BA1
:1016B0001A6F0AB11B6F9847620504D5074B5A6F22
:1016C0000AB15B6F9847230504D5044B9A6F0AB1A2
:1016D0009B6F984710BD00BFA0B004406494FF1FEB
:1016E0001E4B10B51C68E0071C6004D51C4B9A68A3
:1016F0000AB19B689847210604D5194B5A690AB16B
:101700005B699847E20604D5154B9A690AB19B6953
:101710009847630704D5124BDA690AB1DB69984729
:10172000200704D50E4B1A6A0AB11B6A9847A10715
:1017300004D50B4B9A6B0AB19B6B9847A20604D554
:10174000074B1A6D0AB11B6D9847630604D5044B0D
:101750005A6D0AB15B6D984710BD00BFA0C0044030
:101760006494FF1F094B10B51C68A2071C6004D5C8
:10177000074B9A6E0AB19B6E9847E30704D5044B5A
:10178000DA6F0AB1DB6F984710BD00BFA0D00440EC
:101790006494FF1F014B1868704700BF00D00340DE
:1017A000044B054900221A600A60044A10601022A6
:1017B0001A60704714D0034004D0034000D00340A7
:1017C000002810B50FDB02024FF4807347F6FF7458
:1017D00000E00A46A24204D9013B012BC0EB020102
:1017E000F7D1120A11E0404202024FF4807348F22E
:1017F000FF0400E00A46A24204D9013B012BC0EBE2
:101800000201F7D1120AC2F58072013B024942EA95
:1018100003220A6010BD00BF0CD0034018B110288D
:1018200028BF102000E00120014B1870704700BF56
:101830001484FF1F10B500234FF4377242FA03F4EB
:10184000A14202D80133072BF8D1164A42FA03F21B
:1018500002EB5102B2FBF1F101394FF6FF729142F6
:1018600028BF1146C21E012A06D80F4A0F4C00207D
:10187000106020600E480FE0421F012A06D9092897
:1018800004D00A2802D01438032809D8094A0A4C7F
:10189000002010602060094843F0080301601360D5
:1018A00010BD00BF006CDC020090034004900340B8
:1018B00008900340008003400480034008800340F8
:1018C000212810B518D80D4A52F8303093F88042CC
:1018D0003CB1012211B183F8802010BD83F80021B2
:1018E00010BD02EBC00043681A6811B142F0030258
:1018F00001E022F002021A6010BD00BF98A90000AA
:10190000212805D8034B53F8303093F80002704774
:101910000020704798A90000212816D80B4A02EB36
:10192000C00301295B6852F8302004D182F880128C
:101930004FF4A27208E0002082F8800211B94FF43F
:10194000807201E040F203121A60704798A900000B
:10195000282838B50A4604464E4B0FD11B780B2B6E
:1019600003D8C3F10C039A4003E00C2B01D00C3BCD
:101970001A411046BDE83840FFF7B4BC197801257C
:10198000002A05FA01F301DC002102E09A4205D3A6
:101990002946FFF795FF2046294676E0C31E012B16
:1019A00001D83D4B06E0192801D0202801D13B4B3E
:1019B00000E03B4B1B680133534323FA01F3E11E64
:1019C0001D2959D8DFE801F00F151B215858272D84
:1019D00058585858585858585833393F45585158FE
:1019E00058585858584B2F4A13604FF451722E4B89
:1019F00040E02E4A13604FF451722D4B3AE02D4ACD
:101A0000136040F244422C4B34E02C4A136040F205
:101A100044422B4B2EE02B4A136040F244422A4BA7
:101A200028E02A4A136040F24442294B22E0294A26
:101A3000136040F24442284B1CE0284A136040F2F5
:101A40004442274B16E0274A136040F24442264B9B
:101A500010E0264A136040F24442254B0AE0254A32
:101A600013604FF45172244B04E0244A1360244B5A
:101A70004FF451721A6038BD7F2A2046D4BF00212E
:101A80000121FFF71DFF20460121BDE83840FFF787
:101A900043BF00BF1484FF1F0890034008800B4021
:101AA0000880034010900340309004401890034099
:101AB00034900440488003401CC004403080034000
:101AC00010C00440208003400CB004402880034034
:101AD00010B004403880034014C0044040800340EC
:101AE00018C004401080034004B004401880034034
:101AF00008B0044010800B4048A0044018800B4000
:101B00004CA004402DE9F04107460E4690460824BB
:101B1000012505EA08013846FFF7D2FE01213046CB
:101B2000FFF7CEFE002130466D00FFF7C9FE013CF5
:101B3000EDB2EED1BDE8F0812DE9F04107460E4649
:101B400090460824802505EA08013846FFF7B8FECC
:101B500001213046FFF7B4FE00213046FFF7B0FE0A
:101B60006D08013CEFD1BDE8F08112B91A46FFF7CC
:101B7000C9BF1A46FFF7E0BF2DE9F04180460F4686
:101B800008240025012638460121FFF799FE40462A
:101B9000FFF7B6FE00B13543002138467600FFF767
:101BA0008FFE013CF6B2EED12846BDE8F0812DE96A
:101BB000F04180460F460824002580263846012142
:101BC000FFF77EFE4046FFF79BFE00B13543002144
:101BD0003846FFF775FE7608013CEFD12846BDE890
:101BE000F0810AB9FFF7C8BFFFF7E1BF72B60C4B2F
:101BF0000C491A680C4BD3F88830096862B6490161
:101C000002D5322A88BF0133C2F5BB32FF326021D0
:101C1000B2FBF1F24FF47A7000FB0320704700BF73
:101C200018E000E004ED00E06494FF1F70B5044686
:101C3000FFF7DCFF05466CB140F2E736FFF7D6FF51
:101C4000401BB04203D9013C04D005F57A7501F080
:101C5000BFFBF3E770BD10B5FFF722FC154B164A2A
:101C6000164C00204BF6FF71186059602823136052
:101C70009360136193611362936213639363092208
:101C800022600F4C20606160A360236144F8042C43
:101C90000C4C20600C4801600C490B608B600C4BB5
:101CA0001A60FFF7DBF90420FFF7C0FFBDE8104022
:101CB00001F0AEB9048003400C8003400080034073
:101CC0000490034004800B4008800B400C800B40C4
:101CD00000800B4070B50E2405464C4303E0013CE8
:101CE00001D1002070BD2B78002BF8D101E0013C20
:101CF000F7D02B78002BFAD0FFF778FF064601E0EB
:101D0000013CEED02B78002BFAD1FFF76FFF801B40
:101D100070BD70B50E2405464C4303E0013C01D173
:101D2000002070BD2B78002BF8D001E0013CF7D0EB
:101D30002B78002BFAD1FFF759FF064601E0013C52
:101D4000EED02B78002BFAD0FFF750FF801B70BD30
:101D500021280BD8064B53F8300000F5007011B164
:101D60001146FFF7B7BF1146FFF7D3BF00207047FA
:101D700098A90000194B1A6842F480621A60184B47
:101D800000221A705A709A70DA701A71154B40F26C
:101D900013321A604FF451725A60134BC0F344323D
:101DA0001A70C0F347125A7000F01F000F4A987261
:101DB0000221042313705174D3740D4B88221A70BE
:101DC0003C2203F80D2C0B4B40226FF44A711A7021
:101DD0005B184FF400521A60704700BF3480044013
:101DE000F094FF1F40A0044000A0064002A006405F
:101DF00010A006402DE400E0134A137800F0030120
:101E000003F0EC030B43410748BF43F0100313708A
:101E100000F00F03042B04D10C4B1A7842F040025F
:101E20001A700B4A1378C10603F0EF0348BF43F062
:101E300010031370054A1378800603F0EF0348BFC0
:101E400043F010031370704702A0064006A006403E
:101E500005A006400D4B1B68580510B503D410BDF6
:101E600001F0B6FA00E00A4C2379094A002BF7D1B9
:101E700008494FF400500860074908480B7040F2C9
:101E80000311016041601370537010BD3480044031
:101E9000F094FF1F84E100E003A0064040A004404E
:101EA00038B5094B04461D79002DFCD1204601218F
:101EB000FFF732FD20462946FFF702FD034B53F89A
:101EC0003420014B9A6038BDF094FF1F98A90000A0
:101ED0001C4B1B685A052DE9F041064630D51A4ABD
:101EE00093680BB1012119709478174D174FDFF8E3
:101EF000648001343F2C88BF002415E0FFF762FAAC
:101F000040280DDC3B781B060ED5EB7801333F2BC8
:101F100088BF0023EA18127B88F80020EB7003E0EA
:101F2000FF2801DD01F054FAEA78074BA242E5D020
:101F30001A19167301221A719C70054BBC221A7073
:101F4000BDE8F08134800440F094FF1F04A00640F7
:101F500003A0064007A0064000F00F00092801D8A2
:101F6000303000E03730FFF7B3BF2DE9F84F254B95
:101F70001B6807465805894642D5234B9B680BB121
:101F800001221A70204C3E46A34632E0A5789BF809
:101F9000038001353F2D88BF0025A84507D0631970
:101FA00016F8012B1A7301232371A57021E0174B3A
:101FB000DFF860A0BC221A70FFF704FA402810DC9A
:101FC0009AF80030190610D5E37801333F2B88BF0B
:101FD00000230BEB0302117B0D4A11708BF80330C9
:101FE00003E0FF2801DD01F0F3F9E3784345E3D096
:101FF000D5E707EB09039E42C8D3044BBC221A70F5
:10200000BDE8F88F34800440F094FF1F03A0064021
:1020100007A0064004A0064010B5044C01E001F002
:10202000D7F92379002BFAD110BD00BFF094FF1F20
:10203000034A10785378984238BF4030C01A70472E
:10204000F094FF1F084A11785378994208D0013361
:102050003F2B88BF0023D11891F84C005370704774
:102060004FF0FF30704700BFF094FF1F074A117810
:102070005378994207D001333F2B88BF0023D318F0
:1020800093F84C0070474FF0FF307047F094FF1FFB
:10209000094B1B685B050ED5084B1A7802F0CB0282
:1020A0001A70074A402111701A7842F034021A70EF
:1020B000044B5A781A7070473480044003A00640DD
:1020C00011A00640F094FF1FF0B5304B1B7813F0C1
:1020D000300F21D072B62E4B197831B90F3B402208
:1020E0001B782C4B1A7062B616E062B62A4B2B4C4A
:1020F0001A7858781D46531C3F2B88BF0023834213
:10210000267803D0EA1882F84C601A46013911F09B
:10211000FF01F0D1204B1A70214B1B7818465BB29F
:10212000002B1EDA19490B781B061AD51A4A1B4ECA
:1021300097781C4DD378BB420AD001333F2B88BF20
:1021400000230C78D418247B34702C78072CF2D917
:10215000114AD3700D4B1B781A0602D5104B7C2206
:102160001A7000F04003DBB273B1084B1B7803F028
:102170004003DBB243B1084B00221A719B6803B1E4
:102180001A70074B3C221A70F0BD00BF04A0064035
:1021900016A0064011A00640F094FF1F07A00640BD
:1021A00003A0064014A0064038B5451E07E00A2CDF
:1021B00002D10D20FFF78CFE2046FFF789FE15F8AF
:1021C000014F002CF3D138BD10B504460009FFF7CC
:1021D000C3FE2046BDE81040FFF7BEBE10B5044662
:1021E000000AFFF7F1FF2046BDE81040FFF7ECBF03
:1021F00010B50446000EFFF7E7FF200CFFF7E4FFE1
:10220000200AFFF7E1FF2046BDE81040FFF7DCBFE2
:10221000144B1A6842F400621A60134A00231370C8
:1022200053709370D3701371104A40F213311160E0
:102230004FF4517151600E4AC0F344311170C0F334
:10224000471100F01F005170907293701374094B86
:102250002C221A70084B40221A70084B4FF400428F
:102260001A607047348004407C95FF1F0CB0044016
:1022700000B0064003B006402FE400E004E100E0B7
:10228000134A137800F0030103F0EC030B434107FA
:1022900048BF43F01003137000F00F03042B04D168
:1022A0000C4B1A7842F040021A700B4A1378C106A0
:1022B00003F0EF0348BF43F010031370054A13788F
:1022C000810603F0EF0348BF43F01003137070471B
:1022D00002B0064006B0064005B006400D4B1B6834
:1022E000180510B503D410BD01F072F800E00A4CD7
:1022F0002379094A002BF7D108494FF400400860C0
:10230000074908480B7040F20311016041601370E7
:10231000537010BD348004407C95FF1F84E100E0C1
:1023200003B006400CB004401A4B1B681A052DE997
:10233000F04106462BD5184D184FAC78DFF8648075
:102340000134272C88BF002415E0FFF73BF8402814
:102350000DDC3B781B060ED5EB780133272B88BFAD
:102360000023EA18527988F80020EB7003E0FF2878
:1023700001DD01F02DF8EA78074BA242E5D01A19E9
:10238000567101221A719C70054BAC221A70BDE87F
:10239000F08100BF348004407C95FF1F04B00640EC
:1023A00003B0064007B0064038B54518044603E0C0
:1023B00014F8010BFFF7B8FFAC42F9D138BD10B5E6
:1023C000034C01E001F004F82379002BFAD110BD91
:1023D0007C95FF1F034A10785378984238BF4030ED
:1023E000C01A70477C95FF1F084A117853789942AC
:1023F00008D001333F2B88BF0023D11891F82D005E
:10240000537070474FF0FF30704700BF7C95FF1F3F
:10241000074A11785378994207D001333F2B88BF80
:102420000023D31893F82D0070474FF0FF3070470A
:102430007C95FF1F014B5A781A7070477C95FF1FDF
:1024400010B5204B1B7803F02003DBB273B11E4B99
:102450001E4A18781378517801333F2B88BF002328
:102460008B4203D0D11881F82D00137018490B78D6
:1024700018465BB2002B14DA124B1B781B0610D5E2
:10248000124A9478D3789C4202D16C230B7008E0F6
:102490000133272B88BF0023D1184C790A490C70CF
:1024A000D37000F04003DBB25BB1064B1B7803F046
:1024B0004003DBB22BB1054B00221A71044B2C22D6
:1024C0001A7010BD04B0064007B006407C95FF1F8F
:1024D00003B00640154B1A6842F480521A60144A41
:1024E0000023137053709370D3701371114A40F22C
:1024F000133111604FF4517151600F4AC0F34431F0
:102500001170C0F3471100F01F005170907293706A
:1025100013740A4B2C221A70094B40226FF44B7132
:102520001A705B184FF400321A6070473480044010
:10253000E995FF1F08C0044000C0064003C00640E4
:1025400031E400E0134A137800F0030103F0EC03D8
:102550000B43410748BF43F01003137000F00F0313
:10256000042B04D10C4B1A7842F040021A700B4A2B
:102570001378C10603F0EF0348BF43F01003137054
:10258000054A1378800603F0EF0348BF43F01003B9
:102590001370704702C0064006C0064005C00640E2
:1025A0000D4B1B68D80410B503D410BD00F010FF0C
:1025B00000E00A4C2379094A002BF7D108494FF46F
:1025C00000300860074908480B7040F203110160B1
:1025D00041601370537010BD34800440E995FF1FB3
:1025E00084E100E003C0064008C004401A4B1B68A9
:1025F000DA042DE9F04106462BD5184D184FAC787A
:10260000DFF864800134272C88BF002415E0FEF732
:10261000D9FE40280DDC3B781B060ED5EB78013344
:10262000272B88BF0023EA18527988F80020EB7026
:1026300003E0FF2801DD00F0CBFEEA78074BA24261
:10264000E5D01A19567101221A719C70054BAC2203
:102650001A70BDE8F08100BF34800440E995FF1F87
:1026600004C0064003C0064007C0064038B5451800
:10267000044603E014F8010BFFF7B8FFAC42F9D1B0
:1026800038BD10B5034C01E000F0A2FE2379002B09
:10269000FAD110BDE995FF1F034A1078537898428C
:1026A00038BF4030C01A7047E995FF1F084A1178BB
:1026B0005378994208D001333F2B88BF0023D118AB
:1026C00091F82D00537070474FF0FF30704700BFF6
:1026D000E995FF1F074A11785378994207D00133D3
:1026E0003F2B88BF0023D31893F82D0070474FF07D
:1026F000FF307047E995FF1F014B5A781A707047F9
:10270000E995FF1F10B5204B1B7803F02003DBB2C7
:1027100073B11E4B1E4A18781378517801333F2B42
:1027200088BF00238B4203D0D11881F82D0013708D
:1027300018490B7818465BB2002B14DA124B1B7841
:102740001B0610D5124A9478D3789C4202D16C2390
:102750000B7008E00133272B88BF0023D1184C7978
:102760000A490C70D37000F04003DBB25BB1064B3A
:102770001B7803F04003DBB22BB1054B00221A712A
:10278000044B2C221A7010BD04C0064007C006403E
:10279000E995FF1F03C006401FB572B6124B7022A9
:1027A0001A70124A412111700F2102F8011C802277
:1027B0001A701A781206FCD562B60D4B01A918687A
:1027C0000A22FEF725FE0B48002301AA9A5C2AB1D3
:1027D00000EB430101330A2B4A80F6D10133054A4D
:1027E0005B00137005B000BD00000240070002400E
:1027F000080002401684FF1F70B50C4B0C4C1A7871
:1028000042F0020504EBC50682F0010270605878C0
:102810001A7000280CBF8826C82646EA014180F0BD
:10282000010044F83510587070BD00BF5896FF1F66
:102830000080FF1F431E032B10B510D872B6094A43
:1028400002EB8302506840B141685160064A01883A
:1028500032F81340611A22F8131062B610BD00203E
:1028600010BD00BF5896FF1F2498FF1F0138032892
:102870000DD8084B03EB8000436972B6002002E0DC
:102880001A885B688018002BFAD162B67047002066
:10289000704700BF5896FF1F013803280CD872B646
:1028A000064B03EB80004369002001E05B680130C8
:1028B000002BFBD162B67047002070475896FF1F6F
:1028C00070B572B61A4E1B4C01239A1912F8012CDE
:1028D00002F00802D2B2F2B19900164A54F831500F
:1028E0002DB902EB431308305860134B09E041F057
:1028F000010154F8315075B902EBC103083058603A
:102900000E4B42F831300E4B93F82420013A83F8F5
:10291000242062B670BD0133052BD6D162B6084BB8
:10292000002283F82420BDE8704000F0DDBB00BF2A
:10293000A8AA00000080FF1F88004000C8004000D7
:102940005896FF1F421E032A30B533D840011A4B58
:1029500040F01000181872B6184CA31893F82530E0
:10296000032B09D8DFE803F0130215050830022312
:1029700010E0083004230DE09200A318586908B94C
:10298000596101E0DB6A5960A218D16211E00323AA
:1029900000E00523A21810F0080F82F8253001F19D
:1029A00008030A8843600CBF8823C82343EA024314
:1029B000036062B630BD00BF0080FF1F5896FF1F46
:1029C00000BE70472DE9F74FAB4EAC4C357805F0A3
:1029D0000403DBB2BBB1AA4B93F844208AB193F84D
:1029E00045202AB1013AD2B283F8452002B900BE8F
:1029F000A44A13782BB1013BDBB213700BB900F082
:102A0000CBFC0423337005F00802D2B2002A00F098
:102A1000AF829D4B1B781D094FEA930940F0058258
:102A200004EBC903596854F83930C3F38303013BFD
:102A30000C2B00F2F681DFE813F0AB01AB01F401DF
:102A4000F401F401F401F401F401C901F401F40109
:102A5000F4010D004B688A480A68C3648B4B82649A
:102A600040F2816592B244F8393001210023AA4234
:102A700003652361A361417017D8B2F5D06F80F070
:102A80002C81B2F5817F00F0E58006D8802A00F025
:102A9000C580822A40F04081C5E040F202339A426C
:102AA00000F00A81B2F5A06F16E042F22105AA42B9
:102AB00000F06B8108D8B2F5086F00F0A880B2F57D
:102AC000106F40F029810AE042F221218A4200F091
:102AD0001E8142F221339A4240F01E8120E190F89B
:102AE0004A30664D80F844302B6A180603D5686A70
:102AF000083800F0F9FA664908358D42F4D1DFF85C
:102B0000B0B10025A846D9460BF1500A55F80B0084
:102B100005E04368009300F0E7FA009B18460028A0
:102B2000F7D15C4B49F8050045F80A00E85807E082
:102B300042680093019200F0D7FA019A009B104678
:102B40000028F5D15851544BE850544B23F8180045
:102B5000534B18F80320023A032A08D8DFE802F0A2
:102B600002040204002200E0012203F8082008F118
:102B700001080435B8F1040FC8D1414BDFF8349196
:102B8000002283F8242001259846464B05EB0902D4
:102B9000EB1812F8012C9B001A7002F00802D2B256
:102BA0003AB300F083FAAB0038B104EB45120830B9
:102BB00050603D4A44F8332006E044F8330098F86A
:102BC0002430013388F8243000F070FAAB0043F071
:102BD000010338B104EBC302083050602B4A44F8BB
:102BE000332006E044F8330098F82430013388F8A5
:102BF0002430AA0042F00201013542F00302002312
:102C0000052D44F8313044F83230BED189E090F8D7
:102C10004430054605F83C3F0B4687E080F83C30E1
:102C200080F83D307FE0B0F84C20042A00D973E0F2
:102C300080F83C3080F83D301C4B9200D3181B7854
:102C400003F00203DBB2002B6DD00546022305F82A
:102C50003C1F6BE0B0F84C2002F07F03042B5BDCE0
:102C6000B0F84A3003B157E09100104A8A18117841
:102C700021F002014EE000BF802007400080FF1FCE
:102C80005896FF1F4D97FF1F90200740C800400037
:102C90008080FF1F6C96FF1F8496FF1F2498FF1FE4
:102CA0007D96FF1F30C8011088004000C0200740FB
:102CB0005C96FF1FA8AA0000B0F84C2002F07F032A
:102CC000042B29DCB0F84A3003B125E091009E4A7C
:102CD0008A18117841F002011CE0B0F84A20B0F8DF
:102CE0004C109A4B53F8085CA3F10C00A5B133F8D3
:102CF0000CCC944509D133F80ACC8C4505D1120A85
:102D0000032A0CBF2B78038910E00C33EAE790F814
:102D10004A108F4A117004E08B4B0F221A7034E076
:102D200000231D4602E0022300F13C05894AB2F867
:102D30004E904B4538BF9946B9F1400F34BFC84655
:102D40004FF0400828464146FFF756FDB9EB080909
:102D5000454403D1B8F1400F07D016E0B9F1400F58
:102D600034BFC8464FF0400800E0C84628464146F8
:102D7000FFF742FDB9EB0809454402D1B8F1400F15
:102D800003D1744A1565A2F864900122724B47E0A2
:102D9000704BB3F8482042F221039A4212D16F4A95
:102DA0000023C85C98540133072BFAD16B4B1B6886
:102DB000862B03D1674B0F2283F845200020014664
:102DC000FFF71AFD664B44F839302AE0DFF88491AA
:102DD000D9F85080B8F1000F16D0B9F864A0BAF154
:102DE000400F34BF5546402540462946FFF704FDB5
:102DF000C5EB0A039BB2A9F864300BB9402D01D191
:102E000008EB0503534A1365524BB3F84820B2F55B
:102E1000A06F06D1002283F8492093F84A20514B35
:102E20001A704D4B01221A708AE004EBC90803F0B6
:102E30000803D8F80420013DD9B2A2F10800EDB290
:102E4000002945D000F050F9424B03EB8500416961
:102E500021B34A68426101F10802C8F804205A19F6
:102E600092F82520032A10D8DFE802F00205080BAB
:102E70005D19032307E05D19022304E05D190523B2
:102E800001E05D19042385F8253018F0080F0A8841
:102E90000CBF8823C82343EA02434FE05A1992F833
:102EA0002520032A0BD8DFE802F04B4B02055D1901
:102EB000002301E05D19012385F8253040E018F07A
:102EC000080F1D440CBF0222032285F8252037E09D
:102ED00054F839301B0C22F8083C4BB322F8061C7E
:102EE00042F8041C1B4A4FEA850E02EB0E01944681
:102EF0004A680AB9486001E04A6D50600CEB0E0266
:102F0000DFF850A05065184A32F815105B1822F807
:102F1000153000F0CBF818B10830C8F8040007E00D
:102F20009AF8243044F8390001338AF8243007E055
:102F30000B4B0E4A18F0080F08BF134644F83930FF
:102F40000823337042E500BFC0200740B8AA000044
:102F50004E97FF1F5896FF1F942007402C98FF1F85
:102F6000C8004000982007402498FF1F88004000B8
:102F7000E90720D51D4C1E481E4D21460223037033
:102F800001F8682B1C4BA8341D6059601A619A61C6
:102F90009D60DC60194B0D2119701949FF230B70DE
:102FA00001F8083C0A74174A1370174B9F221A70D5
:102FB0000123037018E02B0605D5104B0D221A7063
:102FC000802203F8402C05F00203DBB22BB10C4B3E
:102FD0001A781A70022203F8082C05F01005EDB2D9
:102FE00015B10A4B10221A70BDE8FE8F5896FF1FCC
:102FF00094200740880040000080FF1FC020074049
:10300000882007408C20074084200740802007400C
:1030100008B5FFF7C1FB00231E491A465A50C818CD
:103020000833882B4260F9D11B4B1A6842F4802286
:103030001A601A4B80221A701978184A0906FBD4B4
:10304000144B1749C3F307200870C3F307401B0E46
:1030500008750B76FF2301F81C3C01F8143C01F8BD
:103060008C3C137843F0400313700021012302F8D5
:10307000783C02F80C1C02F8883C0A4B70226FF472
:10308000507C1A7063444FF400721A60064B102291
:103090001A7008BD0080FF1F348004400C210740D7
:1030A0009C20074049E400E00821074072B60C4A22
:1030B0001168B1FA81F30B2B02D962B60020704778
:1030C0004FF0004020FA03F021EA0001116062B6DF
:1030D000044948225343C8180022CA50426070472E
:1030E000B484FF1FA080FF1F0C4B4822C31AB3FB00
:1030F000F2F30B2B11D80A4A127822B1094A12783E
:103100000AB1FFF7DDBB72B6074A4FF0004121FA62
:1031100003F311681943116062B67047A080FF1F66
:103120007C96FF1F9C96FF1FB484FF1F38B5114C7F
:1031300023684BB10F4D28684288811801320C7A00
:1031400001888A4212D30CE00B4B1B7813B94FF065
:10315000FF340CE00320FFF76DFB20600028E9D16D
:10316000F5E7FFF7C1FF00232B6000E04280204617
:1031700038BD00BF4097FF1F9C96FF1F10B50C4C39
:1031800023681BB10A4B1B686BB902E0094B1B7823
:1031900013B94FF0FF3010BD0320FFF74BFB206049
:1031A0000028EFD1F5E75A889B18187A10BD00BFA8
:1031B0004097FF1F9C96FF1F044B9888044B1B6889
:1031C0001BB11A885B88D31AC01870472498FF1F58
:1031D0004097FF1F2DE9F0470E4681464FF000084B
:1031E000DFF868A0184F2AE09AF800304BB33B682C
:1031F0004BB90320FFF71EFB386010B3038813B9E7
:10320000FFF772FFF5E73C68618825886D1AAE42CA
:1032100038BF3546083148462A46611802F0A0FA00
:103220006388A944A844761BED182388ADB2AB424D
:10323000658004D82046FFF757FF00233B60002E2F
:10324000D2D14046BDE8F0874097FF1F9C96FF1FF4
:1032500010B5094B1B786BB1084C206818B1FFF70B
:1032600043FF002323600320FFF7E4FA10B1FFF7C8
:103270003BFFF8E710BD00BF9C96FF1F4097FF1F64
:103280002DE9F8432B4CDFF8B08001230D46237164
:10329000064647E0A3681BBB4AF2F9274FF0010935
:1032A00098F8003013B9234A137112E00420FFF795
:1032B000F3FA072806D884F80490FFF7F7FEA06019
:1032C00070B92071013F01D0237B33B1194B01222A
:1032D0001A734FF0FF30BDE8F88300F079F8DFE7AC
:1032E000A1684888C0F14002954238BF2A4600F1E3
:1032F0000807002380182373CF194880AD1A02E015
:10330000F05CF85401339342FAD1F6184B883F2B06
:1033100006D940230B800420FFF714FB0023A36091
:1033200005236373002DB5D1024B28461D71BDE8FE
:10333000F88300BF4097FF1F9C96FF1F07B502ABA5
:10334000012103F8010D1846FFF79AFF0EBD70B575
:103350000F4B1B78DBB10F4CA568012626714DB1D0
:103360006B880026667304202B802946FFF7EAFA53
:10337000A66009E0FFF79AFE014620B104206573BC
:10338000FFF7E0FA00E06673024B00221A7170BD8D
:103390009C96FF1F4097FF1F38B50C4C25799DB9AF
:1033A000A16831B14B8804200B80FFF7CBFAA560F0
:1033B00038BDFFF77BFE014620B10420BDE8384050
:1033C000FFF7C0BA0123637338BD00BF4097FF1FEA
:1033D0007047FFFF0A4B4FF0FF321F2928BF1F2104
:1033E00010B59A60186019714FF48172002303E0E0
:1033F00002FB0304637001338B42F9D110BD00BF9F
:103400005097FF1F30B572B6104B9A681879B2FA10
:1034100082F1814202D362B6002030BD4FF00040FD
:1034200020FA01F022EA00029A601A7B0132D2B23D
:103430001A7362B64FF4817041431C6801256554CC
:103440006018597B914238BF5A7330BD5097FF1FA7
:10345000427872B60378012B02D9013B03700AE06F
:10346000064B4FF0004121FA02F19A680A439A6034
:103470001A7B013A1A7362B6704700BF5097FF1F5C
:1034800030B5C3680EE0187A90420AD158685C7A69
:10349000006950F8245025B940F82410087801300C
:1034A0000870DB68002BEED130BD437A99424FF0B3
:1034B000000305D2026952F8210042F8213070471A
:1034C0001846704738B5437A994201D3002418E072
:1034D000036953F82140002243F82120002CF5D045
:1034E0002378012B0DD9FFF78DFF054628B1023057
:1034F000A11C4FF4807202F033F92378013B237052
:103500002C46204638BD10B54168427A4B7A9A4223
:103510000ED872B60268D36813B9D06004E02346AF
:10352000DC68002CFBD1D860012313720B7262B6E9
:1035300010BD074B9A7B4AB9064AFF211170064A13
:103540004FF0804101201160987370470020704750
:103550005097FF1F5EE400E008E100E0034B4FF0EE
:1035600080421A60024B00229A73704788E100E0A3
:103570005097FF1FF8B5164B164D1A6842F080722F
:103580001A60154B1A6842F001021A60134B2E683C
:103590001C690FE0237A63B121682F680B6820460D
:1035A00098472B68E288DB1B1B099342A38088BFE6
:1035B000E3806469002CEDD1064B1A68074B921B1F
:1035C000D98A12098A429A8288BFDA82F8BD00BF7E
:1035D000FCED00E0041000E0001000E05097FF1F39
:1035E00010B5084614461146FEF7BFFC204610BD34
:1035F000084608B5FEF76CFC012008BDFEF748BD83
:10360000FEF70ABDFEF71EBDFEF730BDFEF710BD8A
:103610000846FEF745BCFEF71DBC480800F13760C0
:1036200000F5D830B0FBF1F0FEF7A4BB480800F17C
:10363000376010B500F5D830B0FBF1F01446FEF756
:1036400099FB2046BDE81040FEF7D6BB044B002294
:103650001A711A73034A4FF47A7199601A607047AD
:103660006897FF1F08AB000010B5084614461146C6
:10367000FEF79AFE204610BD084608B5FEF754FE38
:10368000012008BDFEF7D6BEFEF799BEFEF7ACBE20
:10369000FEF7BEBEFEF79EBEFEF720BE480800F154
:1036A000376000F5D830B0FBF1F0FEF7B1BD480847
:1036B00000F1376010B500F5D830B0FBF1F01446DA
:1036C000FEF7A6FD2046BDE81040FEF7D9BDFFFF7E
:1036D000044B00221A711A73034A4FF47A719960ED
:1036E0001A6070477897FF1F40AB000010B508467E
:1036F00014461146FEF7BAFF204610BD084608B52D
:10370000FEF774FF012008BDFEF7F6BFFEF7B9BF54
:10371000FEF7CCBFFEF7DEBFFEF7BEBFFEF740BF31
:10372000480800F1B76000F55840B0FBF1F0FEF733
:10373000D1BE480800F1B76010B500F55840B0FBA5
:10374000F1F01446FEF7C6FE2046BDE81040FEF735
:10375000F9BEFFFF044B00221A711A73034A4FF49B
:103760007A7199601A6070478897FF1F78AB0000E4
:10377000054B1A6842F400021A60044B00221A60DA
:10378000034B01221A7070473C80044000700340D4
:103790009897FF1F054B01221A60054B1A6822F407
:1037A00000021A60034B00221A7070470070034039
:1037B0003C8004409897FF1F70B54478104D23015A
:1037C0005A1942600F4A9E18866004F14406067337
:1037D0000D4E06EB84040669666000249C50595126
:1037E00003219950037B5A11920002F1604202F5C5
:1037F000614203F01F03012101FA03F3136070BD5E
:1038000000710340087103409897FF1FF8B50D4BF6
:103810001B7806460F460BB9FFF7AAFF0024094D97
:1038200005F11402A25C42B97470304639462C1975
:10383000FFF7C2FF01202075F8BD0134042CEED142
:103840000020F8BD9897FF1F037B0122591103F058
:103850001F0302FA03F3094A42F821308268002369
:1038600013604178064A511814320B75995C21B9DE
:103870000133042BFAD1FFF78DBF704780E100E0E0
:103880009897FF1F037810B504460BB1FFF7DCFFD4
:103890000023237010BD037870B504460D4616460C
:1038A0001BB1FFF7D1FF002323702561204631466D
:1038B000FFF7ACFF10B10123237000E020702078E7
:1038C00070BD00BF10B50446FFF7DCFF204610BDF9
:1038D00003480449044A002300F8083F01F028BCCB
:1038E000B097FF1FC53800000084FF1F084611462F
:1038F000FFF7C6BC0846FFF721BDFFF728BDFFF75D
:103900003DBCFFF713BCFFF757BCFFFF044B002281
:103910001A711A73034A4FF47A7199601A607047EA
:10392000D097FF1FB0AB0000F0B4C0EA0044970886
:1039300019D07B1E1D4603F001060C604C6001F19E
:10394000080375B126B11C605C600833013D08D0E6
:1039500003F108061C605C609C60DC601033023D73
:10396000F6D101EBC70112F0030231D0C1F34004DC
:10397000944228BF14460B46002C2BD0551EA24261
:1039800023F8020B24D0121B56084FEA460C66B1EE
:10399000002760F30F0760F31F47624541F814707A
:1039A000CCEB050503EB860312D0013D2A4623F834
:1039B000020B05F001055AB11DB1013A23F8020BC3
:1039C00006D0194621F8020B58808B1C023AF8D118
:1039D000F0BC70471546D6E72DE9F00F92B003EB27
:1039E0004307019189081191119C0F90B8000F9F16
:1039F000089204EB4406DDF8449006900021DD00B7
:103A000007EB86029B00089E0595049302940D46E1
:103A10000C460B4607EBC90B07EB8900DDF83C8031
:103A20005BF8039058F8037049F38D0A4FEAA90830
:103A300047F38D0C4FEAA7071FFA8CFC4FEA174992
:103A40001FFA8AF74FEA184A4CEA094947EA0A4836
:103A500099FA18F7D9FA18F950F803A052F803C0E8
:103A6000CDF80C904FEAAA084AF38D094CF38D0A61
:103A70004FEAAC0C1FFA89F91FFA8AFA4FEA184884
:103A80004FEA1C4C49EA08484AEA0C4C98FA1CFCDC
:103A900097FA2CF8DDF83C9049F80380D7FA1CF926
:103AA000375927FB09F847FB19F73F0C3F0447EA52
:103AB000184750F803C0C750D7584CF38D094FEA48
:103AC000AC0847F38D0CBF101FFA89F91FFA8CFC64
:103AD0003F0C4FEA184849EA08484CEA0747D8FA29
:103AE00017F9DDF80CC0ACFA19F7ECFA19F856F82A
:103AF00005C02CFB08F94CFB18FC4FEA1C484FEAA8
:103B0000084C4CEA19484BF8038056F801C02CFBCE
:103B100007F84CFB17F73F0C3F0447EA1847D7500C
:103B2000059FDDF81090DDF818C0E419029F0433FA
:103B3000013F4D44614402977FF470AFDDF844903B
:103B4000B9F1040F40F29F80CDF80890049A0299D1
:103B5000CDF840904C46A408671E0C970F9F0E941A
:103B600002EB42034FEA820B4FEA8408D2000025A1
:103B70009800C4EB84760B9207EB08038A00049547
:103B8000CDF828B00D9009930695079505950392F9
:103B9000E1004FEA86090898079D019E4759049D58
:103BA000059B069C50F803B050F804C0AE4246D9BD
:103BB000099B2A4653F8090053F8085090FA15F467
:103BC000D0FA15F01D685E5895FA16F594FA25F6A8
:103BD00046F34E0A76101FFA8AFA360C4AEA06466F
:103BE00043F80960D4FA25F527FB05F647FB15F4E1
:103BF000250C2C0444EA16451E681D605C58D6FA54
:103C000014F5A0FA25F4E0FA25F62BFB06F54BFB9C
:103C100016F0060C300440EA154643F808602CFB09
:103C200004F64CFB14F4250C2804029C40EA1645CB
:103C3000019E03985D50121996420344BAD8049825
:103C4000059CDDF828C0079F0B9A461C04EB0C036B
:103C50000496BD18069E05930D98099B049ADDF8FD
:103C600030C007951F1D341862450694099792D9F4
:103C7000109D0A9AA9080429109104D90E9802905F
:103C80000446014667E7119E0F9C711E2068A468D8
:103C900001F0010690FA14F50F9A5368D26893FA6E
:103CA00012F995FA29F7DDF83C90C9F8007093FAFB
:103CB00012F7D5FA27F5C9F80450D0FA14FCD3FA54
:103CC00012F3ECFA23F0C9F80800ACFA23F2C9F8B1
:103CD0000C2009F11003002959D0E6B11C689D6839
:103CE00094FA15F65A68D86892FA10FC96FA2CF7EE
:103CF0001F6092FA10F7D6FA27F65E60D4FA15F430
:103D0000D2FA10FCE4FA2CF09860A4FA2CF2DA60F3
:103D1000103301393BD01D689E6895FA16FC5A682D
:103D2000D86892FA10F49CFA24F71F6092FA10F403
:103D3000DCFA24F75F60D5FA16F4D2FA10F6E4FA4A
:103D400026F29A60A4FA26F5DD609E691D6903F1EA
:103D500010024C1E95FA16F75969D86991FA10FCB1
:103D600097FA2CFCC3F810C091FA10FCD7FA2CF784
:103D70005760D5FA16FCD1FA10F3ECFA23F09060F4
:103D8000ACFA23F1D160611E02F11003C3D112B06D
:103D9000BDE8F00F704700BF2DE9F00F92B003EBC4
:103DA0004307019189081191119C0F90B8000F9F52
:103DB000089204EB4406DDF8449006900021DD00F3
:103DC00007EB86029B00089E0595049302940D461E
:103DD0000C460B4607EBC90B07EB8900DDF83C806E
:103DE0005BF8039058F8037049F38D0A4FEAA9086D
:103DF00047F38D0C4FEAA7071FFA8CFC4FEA1749CF
:103E00001FFA8AF74FEA184A4CEA094947EA0A4872
:103E100099FA18F7D9FA18F950F803A052F803C024
:103E2000CDF80C904FEAAA084AF38D094CF38D0A9D
:103E30004FEAAC0C1FFA89F91FFA8AFA4FEA1848C0
:103E40004FEA1C4C49EA08484AEA0C4C98FA1CFC18
:103E500097FA2CF8DDF83C9049F80380D7FA1CF962
:103E6000375947FB09F827FB19F73F0C3F0447EA8E
:103E7000184750F803C0C750D7584CF38D094FEA84
:103E8000AC0847F38D0CBF101FFA89F91FFA8CFCA0
:103E90003F0C4FEA184849EA08484CEA0747D8FA65
:103EA00017F9DDF80CC0ECFA19F7ACFA19F856F866
:103EB00005C04CFB08F92CFB18FC4FEA1C484FEAE4
:103EC000084C4CEA19484BF8038056F801C04CFBEB
:103ED00007F82CFB17F73F0C3F0447EA1847D75069
:103EE000059FDDF81090DDF818C0E419029F043337
:103EF000013F4D44614402977FF470AFDDF8449078
:103F0000B9F1040F40F29F80CDF80890049A02990D
:103F1000CDF840904C46A408671E0C970F9F0E9456
:103F200002EB42034FEA820B4FEA8408D2000025DD
:103F30009800C4EB84760B9207EB08038A00049583
:103F4000CDF828B00D900993069507950595039235
:103F5000E1004FEA86090898079D019E4759049D94
:103F6000059B069C50F803B050F804C0AE4246D9F9
:103F7000099B2A4653F8090053F8085090FA15F4A3
:103F8000D0FA15F01D685E5895FA16F594FA25F6E4
:103F900046F34E0A76101FFA8AFA360C4AEA0646AB
:103FA00043F80960D4FA25F547FB05F627FB15F41D
:103FB000250C2C0444EA16451E681D605C58D6FA90
:103FC00014F5E0FA25F4A0FA25F64BFB06F52BFBD9
:103FD00016F0060C300440EA154643F808604CFB26
:103FE00004F62CFB14F4250C2804029C40EA164528
:103FF000019E03985D50121996420344BAD8049862
:10400000059CDDF828C0079F0B9A461C04EB0C03A7
:104010000496BD18069E05930D98099B049ADDF839
:1040200030C007951F1D341862450694099792D930
:10403000109D0A9AA9080429109104D90E9802909B
:104040000446014667E7119E0F9C711E2068A46814
:1040500001F0010690FA14F50F9A5368D26893FAAA
:1040600012F995FA29F7DDF83C90C9F8007093FA37
:1040700012F7D5FA27F5C9F80450D0FA14FCD3FA90
:1040800012F3ACFA23F0C9F80800ECFA23F2C9F8ED
:104090000C2009F11003002959D0E6B11C689D6875
:1040A00094FA15F65A68D86892FA10FC96FA2CF72A
:1040B0001F6092FA10F7D6FA27F65E60D4FA15F46C
:1040C000D2FA10FCA4FA2CF09860E4FA2CF2DA6030
:1040D000103301393BD01D689E6895FA16FC5A686A
:1040E000D86892FA10F49CFA24F71F6092FA10F440
:1040F000DCFA24F75F60D5FA16F4D2FA10F6A4FAC7
:1041000026F29A60E4FA26F5DD609E691D6903F1E6
:1041100010024C1E95FA16F75969D86991FA10FCED
:1041200097FA2CFCC3F810C091FA10FCD7FA2CF7C0
:104130005760D5FA16FCD1FA10F3ACFA23F0906070
:10414000ECFA23F1D160611E02F11003C3D112B069
:10415000BDE8F00F704700BF70B5837842680D4628
:10416000012B044601888389284605D0FFF734FCDB
:10417000E078012805D070BDFFF70EFEE078012839
:10418000F9D12188E289A3682846BDE8704000F093
:1041900049B800BF10B41D4C0180B1F5807F446068
:1041A0008270C3702AD009D9B1F5806F18D0B1F5EB
:1041B000805F0ED0FF2040B210BC7047102916D08F
:1041C0004029F7D1124B4FF04011C16083600020AD
:1041D000F1E7104B4FF00111C16083600020EAE766
:1041E0000D4A4FF00413C36082600020E3E70B4ADE
:1041F0004FF00123C36082600020DCE708494FF0E4
:104200001012C26081600020D5E700BF48AD0000F9
:10421000C69D0100489D01004E9D0100469F010082
:10422000669D01002DE9F00F84B049080191019CC1
:10423000019EDDF80480023C0021013614F0020FDB
:104240004FEA420B03940296024600EB88050F46A4
:1042500059D029684268DDF80CC0416002272A6005
:10426000BC4519885B446CD3B94214D900EB810971
:10427000DDF808808468D9F800A001EB080C00EB99
:104280008C08C0F808A0C9F80040EC68D8F80060B5
:10429000EE60C8F8004000F108020835DDF804803F
:1042A00031E0B1420DD99668009650F821609660D1
:1042B000009A40F82120EA6850F82A60EE6040F841
:1042C0002A2050F829106268616040F82920BCF863
:1042D0000020029DBA42114615440ED9A66850F836
:1042E0002290C4F8089040F82260D8F80C2050F8CA
:1042F0002560C8F80C6040F8252008F10805DDF8B5
:10430000048004F1080201EB0809566850F829A05E
:10431000DDF808C0C2F804A040F82960198801EB54
:104320000809DDF80C80BE1CB71C01EB0C0AB04577
:1043300003EB0B0C02F1080405F108080CEB0B036E
:10434000AFD204B0BDE8F00F704700BF2DE9F00F09
:1043500082B091469A080093019263D004460D46BC
:104360004B46164688462F68D4F800C061683A0C60
:104370001FFA87FA1CFB0AFB1CFB2AF711FB02FC45
:1043800011FB22F24FEAEC3AD2134FEAEB3102F37F
:104390000F0CFF130AF30F0B07F30F070FFA8BFB3A
:1043A0003AB201F30F0109B2C1EA02470FFA8CF1E8
:1043B0001F60CBEA01475F606A68A168E7681FFA7F
:1043C00082FC120C11FB0CFA17FB02FB11FB2CF107
:1043D00017FB22F24FEAEB3CD2130CF30F0B02F364
:1043E0000F024FEAEA3A4FEAE1310AF30F0A01F30A
:1043F0000F010FFA8AFA09B20FFA8BFBCAEA0141E0
:104400000FFA82FC9960CBEA0C420835DA6010346E
:104410001033013EA7D1019A1301C0189944009BA3
:1044200008EBC20113F003025FD0B0F800C031F80E
:10443000023B1CFB03F4E41304F30F04A9F800404F
:10444000B0F802C0013A13FB0CF41346E41302F077
:10445000010204F30F040430A9F8024009F1040931
:10446000002B42D0B2B1028831F802CB12FB0CF41F
:10447000E21302F30F04A9F8004044881CFB04F285
:10448000D2130430013B02F30F02A9F8022009F114
:1044900004092AD00A46048832F802CB14FB0CF532
:1044A000EC1304F30F05A9F8005045881CFB05F434
:1044B000E41304F30F0CA9F802C08488B1F802C019
:1044C00014FB0CF1CC1304F30F01A9F80410C488F9
:1044D0001CFB04F1CC130830911C023B04F30F02C7
:1044E000A9F8062009F10809D4D102B0BDE8F00FFF
:1044F000704700BF2DE9F00721F07F0414F0FF0F93
:104500004FEA930C00F0A780BCF1000F78D0B0F90F
:104510000060B0F902504C4256FA04F72541C7EA50
:1045200005461660B0F90650B0F904700CF1FF3979
:10453000C84655FA04F6274109F00109C7EA0646BC
:1045400000F10805566002F10806B8F1000F53D0DB
:10455000B9F1000F1AD0B5F90090B5F9027049FA17
:1045600004F92741C9EA07473760B5F80490EF8896
:104570000FFA89F93FB2274149FA04F90835C9EA27
:10458000074777600836B8F1010835D0B5F900A0C3
:10459000B5F902704AFA04F92741C9EA07473760BA
:1045A000B5F904A0B5F906904AFA04FA49FA04F9F3
:1045B000CAEA094AC6F804A005F10807B5F9089047
:1045C000B5F90A5049FA04FA2541CAEA0545B56029
:1045D00006F10809B7F90460B7F906502641B8F1A9
:1045E000020845FA04FA07F10805C6EA0A4709F184
:1045F0000806C9F80470C9D14FEACC0C6044624483
:1046000013F0030324D030F9024B013B494254FA22
:1046100001F51C4622F8025B03F00103C4B133B17B
:1046200030F9023B0B41013C22F8023B10D0054619
:10463000134635F9026B0E4123F8026BB0F802C045
:104640000FFA8CF008415080A81C9A1C023CEED155
:10465000BDE8F0077047BCF1000F00F09580B0F99D
:104660000050B0F9027015FA01F617FA01F406F3DA
:104670000F0504F30F08C5EA084717600CF1FF3473
:10468000B0F90460B0F9065027468E408D4006F31D
:104690000F0605F30F0504F00108C6EA054500F111
:1046A0000804556002F10805002F69D0B8F1000F29
:1046B00021D0B4F90080B4F9026008FA01F88E4004
:1046C00008F30F0806F30F06C8EA06462E60B4F892
:1046D0000480E6880FFA88F836B28E4008FA01F8AE
:1046E00006F30F0608F30F080834C8EA06466E60A2
:1046F0000835013F44D0B4F90080B4F9026008FAEB
:1047000001F98E4009F30F0806F30F09C8EA0946BC
:104710002E60B4F90490B4F9068009FA01F908FA98
:1047200001F809F30F0908F30F08C9EA0849C5F8A9
:10473000049004F10806B4F90880B4F90A4008FAB4
:1047400001F98C4009F30F0804F30F09C8EA094482
:10475000AC6005F10808B6F90450B6F906408D4082
:10476000023F04FA01F405F30F0504F30F0906F103
:104770000804C5EA094608F10805C8F80460BAD17A
:104780004FEACC0C6044624413F003033FF460AF83
:10479000013B30F9025B1C468D4003F0010305F339
:1047A0000F0522F8025B002C3FF452AF4BB130F9F9
:1047B000023B8B40013C03F30F0322F8023B3FF422
:1047C00047AF0546134635F9026B8E4006F30F06D8
:1047D00023F8026BB0F90260A81C16FA01F505F384
:1047E0000F0555809A1C023CEBD131E750EA0102DB
:1047F00001D102207047D0F1010238BF0022B1F18F
:10480000004F08BF0028F4D021F000434FF6FF719D
:10481000A3F58010C7F6DF71884201D804207047E5
:10482000B3F5801F01D2032070470020C7F6F07057
:10483000834214BF002002F00100704781F0004164
:1048400002E000BF83F0004330B54FEA41044FEA75
:10485000430594EA050F08BF90EA020F1FBF54EA10
:10486000000C55EA020C7FEA645C7FEA655C00F0AC
:10487000E2804FEA5454D4EB5555B8BF6D420CDD7D
:104880002C4480EA020281EA030382EA000083EA00
:10489000010180EA020281EA0303362D88BF30BDA0
:1048A00011F0004F4FEA01314FF4801C4CEA1131F6
:1048B00002D0404261EB410113F0004F4FEA033355
:1048C0004CEA133302D0524263EB430394EA050FE0
:1048D00000F0A780A4F10104D5F1200E0DDB02FA4F
:1048E0000EFC22FA05F2801841F1000103FA0EF2E3
:1048F000801843FA05F359410EE0A5F120050EF1A9
:10490000200E012A03FA0EFC28BF4CF0020C43FAD9
:1049100005F3C01851EBE37101F0004507D54FF0E6
:10492000000EDCF1000C7EEB00006EEB0101B1F536
:10493000801F1BD3B1F5001F0CD349085FEA30007C
:104940004FEA3C0C04F101044FEA445212F5800F87
:1049500080F09A80BCF1004F08BF5FEA500C50F124
:10496000000041EB045141EA050130BD5FEA4C0C07
:10497000404141EB010111F4801FA4F10104E9D190
:1049800091F0000F04BF01460020B1FA81F308BF87
:104990002033A3F10B03B3F120020CDA0C3208DD53
:1049A00002F1140CC2F10C0201FA0CF021FA02F12E
:1049B0000CE002F11402D8BFC2F1200C01FA02F19E
:1049C00020FA0CFCDCBF41EA0C019040E41AA2BFC3
:1049D00001EB0451294330BD6FEA04041F3C1CDA8B
:1049E0000C340EDC04F11404C4F1200220FA04F0AB
:1049F00001FA02F340EA030021FA04F345EA030155
:104A000030BDC4F10C04C4F1200220FA02F001FA16
:104A100004F340EA0300294630BD21FA04F0294698
:104A200030BD94F0000F83F4801306BF81F4801131
:104A30000134013D4EE77FEA645C18BF7FEA655CA4
:104A400029D094EA050F08BF90EA020F05D054EA76
:104A5000000C04BF1946104630BD91EA030F1EBF7B
:104A60000021002030BD5FEA545C05D1400049417F
:104A700028BF41F0004130BD14F580043CBF01F572
:104A8000801130BD01F0004545F0FE4141F4700158
:104A90004FF0000030BD7FEA645C1ABF1946104633
:104AA0007FEA655C1CBF0B46024650EA013406BF34
:104AB00052EA033591EA030F41F4002130BD00BFF3
:104AC00090F0000F04BF0021704730B54FF48064B0
:104AD00004F132044FF000054FF0000150E700BF31
:104AE00090F0000F04BF0021704730B54FF4806490
:104AF00004F1320410F0004548BF40424FF000017D
:104B00003EE700BF42004FEAE2014FEA31014FEABF
:104B100002701FBF12F07F4393F07F4F81F060510E
:104B2000704792F0000F14BF93F07F4F704730B57D
:104B30004FF4607401F0004521F0004120E700BF10
:104B400050EA010208BF704730B54FF000050AE097
:104B500050EA010208BF704730B511F0004502D598
:104B6000404261EB41014FF4806404F132045FEA9A
:104B7000915C3FF4DCAE4FF003025FEADC0C18BF3F
:104B800003325FEADC0C18BF033202EBDC02C2F135
:104B9000200300FA03FC20FA02F001FA03FE40EAC7
:104BA0000E0021FA02F11444C1E600BF70B54FF0C7
:104BB000FF0C4CF4E06C1CEA11541DBF1CEA1355A9
:104BC00094EA0C0F95EA0C0F00F0DEF82C4481EA11
:104BD000030621EA4C5123EA4C5350EA013518BF31
:104BE00052EA033541F4801143F4801338D0A0FB1E
:104BF00002CE4FF00005E1FB02E506F00042E0FBCB
:104C000003E54FF00006E1FB03569CF0000F18BFD0
:104C10004EF0010EA4F1FF04B6F5007F64F5407478
:104C200004D25FEA4E0E6D4146EB060642EAC6210B
:104C300041EA55514FEAC52040EA5E504FEACE2E78
:104C4000B4F1FD0C88BFBCF5E06F1ED8BEF1004F7B
:104C500008BF5FEA500E50F1000041EB045170BDF7
:104C600006F0004646EA010140EA020081EA03013B
:104C7000B4EB5C04C2BFD4EB0C0541EA045170BD37
:104C800041F480114FF0000E013C00F3AB8014F1B1
:104C9000360FDEBF002001F0004170BDC4F10004FA
:104CA000203C35DA0C341BDC04F11404C4F120057B
:104CB00000FA05F320FA04F001FA05F240EA0200D6
:104CC00001F0004221F0004110EBD37021FA04F60C
:104CD00042EB06015EEA430E08BF20EAD37070BDC6
:104CE000C4F10C04C4F1200500FA04F320FA05F025
:104CF00001FA04F240EA020001F0004110EBD37027
:104D000041F100015EEA430E08BF20EAD37070BD96
:104D1000C4F1200500FA05F24EEA020E20FA04F36F
:104D200001FA05F243EA020321FA04F001F000411E
:104D300021FA04F220EA020000EBD3705EEA430E8F
:104D400008BF20EAD37070BD94F0000F0FD101F0BE
:104D50000046400041EB010111F4801F08BF013CF7
:104D6000F7D041EA060195F0000F18BF704703F035
:104D70000046520043EB030313F4801F08BF013DBC
:104D8000F7D043EA0603704794EA0C0F0CEA135578
:104D900018BF95EA0C0F0CD050EA410618BF52EA32
:104DA0004306D1D181EA030101F000414FF0000038
:104DB00070BD50EA410606BF1046194652EA430646
:104DC00019D094EA0C0F02D150EA013613D195EABA
:104DD0000C0F05D152EA03361CBF104619460AD102
:104DE00081EA030101F0004141F0FE4141F470010C
:104DF0004FF0000070BD41F0FE4141F4780170BDFC
:104E000070B54FF0FF0C4CF4E06C1CEA11541DBF60
:104E10001CEA135594EA0C0F95EA0C0F00F0A7F862
:104E2000A4EB050481EA030E52EA03354FEA01318F
:104E300000F088804FEA03334FF0805545EA1313A2
:104E400043EA12634FEA022245EA111545EA10656A
:104E50004FEA00260EF000419D4208BF964244F101
:104E6000FD0404F5407402D25B084FEA3202B61A20
:104E700065EB03055B084FEA32024FF480104FF4F4
:104E8000002CB6EB020E75EB030E22BFB61A754668
:104E900040EA0C005B084FEA3202B6EB020E75EBFB
:104EA000030E22BFB61A754640EA5C005B084FEA63
:104EB0003202B6EB020E75EB030E22BFB61A754630
:104EC00040EA9C005B084FEA3202B6EB020E75EB3B
:104ED000030E22BFB61A754640EADC0055EA060EFC
:104EE00018D04FEA051545EA16754FEA06164FEA3F
:104EF000C30343EA52734FEAC2025FEA1C1CC0D1EB
:104F000011F4801F0BD141EA00014FF000004FF077
:104F1000004CB6E711F4801F04BF01430020B4F138
:104F2000FD0C88BFBCF5E06F3FF6AFAEB5EB030CF0
:104F300004BFB6EB020C5FEA500C50F1000041EBED
:104F4000045170BD0EF0004E4EEA113114EB5C04BA
:104F5000C2BFD4EB0C0541EA045170BD41F480118D
:104F60004FF0000E013C90E645EA060E8DE60CEA95
:104F7000135594EA0C0F08BF95EA0C0F3FF43BAFB2
:104F800094EA0C0F0AD150EA01347FF434AF95EA69
:104F90000C0F7FF425AF104619462CE795EA0C0F4D
:104FA00006D152EA03353FF4FDAE1046194622E71A
:104FB00050EA410618BF52EA43067FF4C5AE50EAF4
:104FC00041047FF40DAF52EA43057FF4EBAE12E7E4
:104FD0004FF0FF3C06E000BF4FF0010C02E000BFC5
:104FE0004FF0010C4DF804CD4FEA410C7FEA6C5CA8
:104FF0004FEA430C18BF7FEA6C5C1BD001B050EA4B
:10500000410C0CBF52EA430C91EA030F02BF90EA35
:10501000020F0020704710F1000F91EA030F58BFF4
:10502000994208BF90422CBFD8176FEAE37040F056
:10503000010070474FEA410C7FEA6C5C02D150EAF4
:10504000013C07D14FEA430C7FEA6C5CD6D152EAAF
:10505000033CD3D05DF8040B704700BF8446104674
:1050600062468C461946634600E000BF01B5FFF773
:10507000B7FF002848BF10F1000F01BD4DF808ED43
:10508000FFF7F4FF0CBF012000205DF808FB00BF14
:105090004DF808EDFFF7EAFF34BF012000205DF86E
:1050A00008FB00BF4DF808EDFFF7E0FF94BF0120BB
:1050B00000205DF808FB00BF4DF808EDFFF7CEFFBC
:1050C00094BF012000205DF808FB00BF4DF808EDFB
:1050D000FFF7C4FF34BF012000205DF808FB00BFCC
:1050E0004FEA410212F5001215D211D56FF4787310
:1050F000B3EB625212D94FEAC12343F0004343EAB3
:10510000505311F0004F23FA02F018BF404270478D
:105110004FF00000704750EA013005D111F0004017
:1051200008BF6FF0004070474FF00000704700BFAD
:1051300003460846194600F001B800BF30B40546E2
:105140000C46134602202946224630BC02F0FAB92A
:1051500070B54AF284764AF28475C0F20106C0F254
:105160000105761BB61007D0043D002455F8043F16
:1051700001349847A642F9D14AF29C764AF28475E6
:10518000C0F20106C0F20105761B15F0F5FAB61063
:1051900008D0043D002455F8043F01349847A64246
:1051A000F9D170BD70BD00BF48F2B8430146C1F6E9
:1051B000FF73186800F008B848F2B8430146C1F61A
:1051C000FF73186803F0B6BA2DE9F04F01F10B0434
:1051D000162C83B0074630D924F00704E30F8C4225
:1051E0002CBF194643F0010100292FD1384600F0A9
:1051F000D7FBB4F5FC7F2ED24FEAD40C48F2AC5664
:10520000C1F6FF7606EBCC02D368934200F0118220
:10521000596803F10808DA68384621F003049968F0
:105220001B195C68CA6044F0010491605C6000F086
:10523000B9FB404603B0BDE8F08F002310248C4238
:105240002CBF194643F001010029CFD00C234FF0A9
:1052500000083B60EDE75FEA542C04BF4FEAD40C32
:105260004FEA4C0540F08F8048F2AC56C1F6FF760D
:1052700006EB8505EB689D4206D10DE0002A80F221
:105280005581DB689D4207D0596821F003010A1B54
:105290000F2AF3DD0CF1FF3C0CF1010C48F2AC528B
:1052A0003369C1F6FF7202F1080E734508BFD2F8E8
:1052B000049022D0586820F00300011B0F2900F34E
:1052C00084810029C2F814E0C2F810E066DAB0F573
:1052D000007F80F04E81C1084FF0010802EBC10051
:1052E000891008FA01F851688568D86048EA010910
:1052F000C2F804909D60EB60836001224FEAAC032A
:1053000002FA03F34B4554D819EA030F0DD1934029
:105310002CF0030C19EA030F0CF1040C05D15B000F
:105320000CF1040C19EA030FF9D006EBCC09E046A6
:105330004846C268904207D15BE1002980F2838130
:10534000D268904200F05581556825F00305291B6D
:105350000F29F2DD90461319D56844F0010058F882
:10536000084F41F0010C50603846C3F804C0E560B6
:10537000AC6073613361C3F80CE0C3F808E05950C6
:1053800000F010FB55E7BCF1040F00F2DE804FEA9D
:10539000941C0CF1380C4FEA4C0565E71A1803F120
:1053A00008083846536843F00103536000F0FAFAE6
:1053B0003FE7B5686B6823F0030A544504D8C4EB93
:1053C0000A030F2B00F3A48049F2E079D6F8081401
:1053D000C1F6FF7905EB0A020131D9F80030234408
:1053E00008BF03F1100B06D003F580530F3323F4ED
:1053F0007F6323F00F0B38465946019200F0BAFC48
:10540000019A411C804600F06881824200F231819D
:10541000D9F8043042455B44C9F8043000F0668195
:10542000D6F8081448F2AC50C1F6FF70013117BF2E
:10543000C2EB0802C0F808849B18C9F8043018F0C1
:10544000070338461FBFC3F10802C3F580539044D9
:1054500003F1080208EB0B0308BF4FF480521B0551
:105460001B0DC3EB020B594600F084FC431C00F0FB
:105470004981C8EB0001594441F00101D9F80430D9
:10548000B54249F2E072C6F808805B44C1F6FF728B
:10549000C8F80410C9F8043018D0BAF10F0F40F260
:1054A0000B81AAF10C00696820F007004FF0050C91
:1054B00005EB000E0F2801F0010140EA01016960CF
:1054C000CEF804C0CEF808C000F2208149F2E072A4
:1054D000D9F82C10C1F6FF72B5688B42D9F830109C
:1054E00088BFD36249F2E072C1F6FF728B4288BF77
:1054F00013636A6822F003029442C4EB020301D8EA
:105500000F2B05DC38464FF0000800F04BFA90E610
:105510002A1943F0010344F0010438466C6005F198
:1055200008085360B26000F03DFA82E65918DA6864
:105530009C6838464D6803F1080845F00105E260B3
:1055400094604D6000F02EFA73E6BCF1140F9CBF1E
:105550000CF15B0C4FEA4C057FF686AEBCF1540FA4
:1055600000F293804FEA143C0CF16E0C4FEA4C05AC
:105570007AE6420A042A75D9142A9CBF02F15B0913
:105580004FEA490508D9542A00F2C9804FEA103978
:1055900009F16E094FEA490506EB850548F2AC585A
:1055A000C1F6FF78AA68AA4279D0516821F00301B8
:1055B000884202D292689542F7D1D068D6F804901A
:1055C000D8609A60D360836097E61D1941F00106A8
:1055D000556144F00104156138465C6003F1080828
:1055E000C5F80CE0C5F808E06E60695000F0DAF923
:1055F0001FE608F10108083018F0030F7FF499AE98
:105600004A461CF0030FA2F108010CF1FF3C00F028
:105610009E8012688A42F4D072685B0093423FF623
:10562000C8AE002B3FF4C5AE1A4200F09580C446C8
:105630007BE603F108025B699A4208BF0CF1020C99
:105640003FF42CAEE4E590465519D368384658F837
:10565000082F6968D36041F001019A60696000F029
:10566000A1F9E6E54FEA901909F138094FEA490531
:1056700092E7B54248F2AC53C1F6FF733FF4C8AEAF
:105680009D686A6822F0030236E7BCF5AA7F19D844
:105690004FEAD43C0CF1770C4FEA4C05E4E50125C8
:1056A000D8F804104FEAA909104605FA09F545EAA9
:1056B0000109C8F8049083E701234546C8F804307F
:1056C000002219E740F254539C450BD84FEA944C02
:1056D0000CF17C0C4FEA4C05C6E5B5686A6822F00F
:1056E000030209E7FC254FF07E0CBDE51105090D0D
:1056F00000297FF495AEB2680BEB0A0141F001017D
:105700005160E3E601214FF0000BB7E6384605F1A2
:105710000801019203F00EF8019A5368D6E6B2F53B
:10572000AA7F06D84FEAD03909F177094FEA49052F
:1057300032E740F25451FC258A424FF07E099EBF69
:105740004FEA904909F17C094FEA490524E772685C
:1057500022EA0302726060E75B0008F1040863E775
:10576000032A2DE9F00F09D82AB10023CC5CC454D8
:1057700001339342FAD1BDE8F00F7047830702442A
:105780000ED0441C4D1C15F8017C04F00306234682
:1057900001342946013504F8027C002EF3D100E0E3
:1057A000034611F003046DD0D71A0D1B032F2E688A
:1057B00019DDC4F1040C4FEAC4081C1D4FEACC0CDF
:1057C00055F8047FC4EB0209234604310434B9F1CF
:1057D000030F26FA08FA07FA0CFB3E464BEA0A07C3
:1057E00044F8087CECDC9A42C5D90133013101321E
:1057F00011F8014C01330131934203F8024CF7D107
:10580000B9E70C684033403143F8404C51F83C4C08
:1058100043F83C4C51F8384C43F8384C51F8344C70
:1058200043F8344C51F8304C43F8304C51F82C4C80
:1058300043F82C4C51F8284C43F8284C51F8244C90
:1058400043F8244C51F8204C43F8204C51F81C4CA0
:1058500043F81C4C51F8184C43F8184C51F8144CB0
:1058600043F8144C51F8104C43F8104C51F80C4CC0
:1058700043F80C4C51F8084C43F8084C51F8044CD0
:1058800043F8044CD41A3F2CBBDC11E00C681033F5
:10589000103143F8104C51F80C4C43F80C4C51F8B3
:1058A000084C43F8084C51F8044C43F8044CD41A03
:1058B0000F2CEBDC032C96DD1C1D0D1D55F8047C14
:1058C000161B2346294604340435032E44F8087C6D
:1058D000F4DC88E78842F0B411D98C18A0420ED2CB
:1058E0008518531E4AB121462A4611F8014D013B45
:1058F000B3F1FF3F02F8014DF7D1F0BC70470F2A1A
:1059000047D941EA00039B0745D10C46034615469B
:10591000266810331034103D0F2D43F8106C54F8E6
:105920000C6C43F80C6C54F8086C43F8086C54F891
:10593000046C43F8046CEBD8A2F1100502F00F04DC
:1059400025F00F051035032C00EB0503294424D95D
:10595000A4F1040C1D460C464FEA9C0C01EB8C078D
:10596000043754F8046BBC4245F8046BF9D10CF1D0
:10597000010402F00302A40009191B19002ABCD07B
:1059800001399A1811F8014F03F8014B9342F9D1EC
:10599000B3E70346F2E70346F2E72246EEE700BF2D
:1059A000704700BF704700BF2DE9F04F0C4683B031
:1059B00081461746002900F01C8107F10B05FFF70F
:1059C000EFFF54F8042C162DA4F1080A22F0030668
:1059D00075D8102100230D46BD4238BF43F00103A6
:1059E000002B40F00C818E426EDA48F2AC5B0AEB81
:1059F0000600C1F6FF7BDBF808E0864500F0048175
:105A0000D0F804C02CF001088044D8F8048018F0C5
:105A1000010F1CBF9C4660466FD0D30700F1C380C6
:105A200054F8083CC3EB0A035A6822F003029219A7
:105A3000019200286CD0704500F037810CEB020811
:105A4000884565DBC1681F468068321F242A88604C
:105A5000C16057F8080FD968C160886000F278818A
:105A6000132A9CBF394620461FD921681B2A98BF9C
:105A700004F1080099606168D96098BF03F11001D2
:105A800013D9A168242A14BF04F1100004F11800EE
:105A90001961E168596111BF03F11801226903F12D
:105AA00020019A6104BF6269DA6102683C460A60BB
:105AB0009A4642684A6082688A605A6805E025F022
:105AC00007052946EB0F87E7B046C5EB08030F2B08
:105AD00055D80AEB080302F0010242EA0802CAF8AC
