:1000000000800020BD0100006D0C00006D0C0000A0
:100010006D0C00006D0C00006D0C0000390C000030
:10002000390C0000390C0000390C00006D0C000088
:100030006D0C0000390C00006D0C0000290C000054
:100040006D0C00006D0C00006D0C0000F906000046
:100050006D0C00006D0C00006D0C00006D0C0000BC
:100060006D0C00006D0C00006D0C00006D0C0000AC
:100070006D0C00006D0C00006D0C00006D0C00009C
:100080006D0C00006D0C00006D0C00006D0C00008C
:100090006D0C00006D0C00006D0C00006D0C00007C
:1000A0006D0C00006D0C00006D0C00006D0C00006C
:1000B0006D0C00006D0C00006D0C00006D0C00005C
:1000C0006D0C00006D0C00006D0C00006D0C00004C
:1000D0006D0C00006D0C00006D0C00006D0C00003C
:1000E0006D0C00006D0C00006D0C00006D0C00002C
:1000F0006D0C0000CD1900006D0C0000451D0000C6
:100100006D0C0000092000006D0C00006D0C00005B
:100110006D0C00006D0C00006D0C00006D0C0000FB
:100120006D0C00006D0C00006D0C00006D0C0000EB
:100130006D0C00006D0C00006D0C00006D0C0000DB
:100140006D0C00006D0C00006D0C00006D0C0000CB
:100150006D0C00006D0C00006D0C00006D0C0000BB
:100160006D0C0000C92200006D0C00006D0C000039
:100170006D0C00006D0C00006D0C00006D0C00009B
:100180006D0C00006D0C00006D0C00006D0C00008B
:100190006D0C00006D0C00006D0C0000510E000095
:1001A000A10E0000290F0000E50F000069100000FB
:1001B0006D0C00006D0C0000792E00004E4B4CF2CF
:1001C000205210B51A804DF628121A8000BF00BFC9
:1001D00000F04FFD494B4FF010621A60484A9A6098
:1001E000484ADA60484B1A6812F4807204D14749D1
:1001F0000A604FF4A8521A60454B1A7802F00802C0
:10020000D2B21AB11A7842F008021A700023414A99
:100210004148424C02E019599950043399188142DF
:10022000F9D33F4B3F4A002101E043F8041B9342BE
:10023000FBD33D4B00221A603C4B3D4A802103F822
:10024000011B9342FBD13B4B0A221A703A4B2422EA
:100250001A70A02203F8012C384A137803F0020325
:10026000DBB2002BF9D0354A137803F01003DBB270
:10027000002BF9D1314A137803F00C03082BFAD183
:100280002F4B03221A7040225A702C4A137803F025
:100290002003DBB2002BF9D0284A137803F0400387
:1002A000DBB2002BF9D0274A274B1A60274B2022BC
:1002B0001A70224A137803F00C030C2BFAD1244B4A
:1002C00002221A60234A43F8442C234B234A1A6023
:1002D000072243F8042C62B601F03FF90B4B1B6870
:1002E000DC0702D51E4800F0DDFE03F051FC00F0F3
:1002F000C7FC00F0F1F8FEE70E2005403080044016
:10030000823F04000100002B10D0034014D00340B2
:1003100002D007408085FF1FB08BFF1F6C98000044
:10032000B08BFF1F2C91FF1F08ED00E000E400E000
:100330005FE400E0005006400140064006400640F1
:100340000440064000000301448004400040064091
:1003500048800440C010050014E000E0FF76010072
:1003600000DD6850FFFFFFFFFFFFFFFFFFFFFFFF04
:10037000FFFFFFFFFFFFFFFFFFFFFFFFFFFFFFFF8D
:10038000FFFFFFFFFFFFFFFFFFFFFFFFFFFFFFFF7D
:10039000FFFFFFFFFFFFFFFFFFFFFFFFFFFFFFFF6D
:1003A000FFFFFFFFFFFFFFFFFFFFFFFFFFFFFFFF5D
:1003B000FFFFFFFFFFFFFFFFFFFFFFFFFFFFFFFF4D
:1003C000FFFFFFFFFFFFFFFFFFFFFFFFFFFFFFFF3D
:1003D000FFFFFFFFFFFFFFFFFFFFFFFFFFFFFFFF2D
:1003E000FFFFFFFFFFFFFFFFFFFFFFFFFFFFFFFF1D
:1003F000FFFFFFFFFFFFFFFFFFFFFFFFFFFFFFFF0D
:10040000FFFFFFFFFFFFFFFFFFFFFFFFFEFFFFFFFD
:1004100008B548F6B030074BC1F6FF701B1A062B23
:1004200000D808BD40F20003C0F20003002BF8D052
:100430009847F6E7B38BFF1F08B548F6B03048F68B
:10044000B033C1F6FF70C1F6FF731B1A9B1003EBAC
:10045000D373591000D108BD40F20002C0F200026F
:10046000002AF8D09047F6E710B548F6B034C1F648
:10047000FF74237873B9FFF7CBFF40F20003C0F29B
:1004800000032BB149F66C00C0F20000AFF300800E
:100490000123237010BD00BF08B540F20003C0F275
:1004A00000034BB149F66C0048F6B431C0F20000CD
:1004B000C1F6FF71AFF3008048F6B030C1F6FF70AF
:1004C00003682BB140F20003C0F2000303B1984768
:1004D000BDE80840FFF7B0BF38B510201649174AED
:1004E00000F02EF800F02AF90F2400252846FF21FD
:1004F00000F080F9D5B1681E002100F07BF920469C
:100500004FF47F0100F076F90F2C12D10020014644
:1005100000F070F900F012F9013C08BF0F243220FE
:10052000013501F005F80F2DE0DDDDE70F2029464C
:10053000E3E7601C0021EBE7A080FF1F8C8FFF1F0B
:10054000F8B5524D524B2A60174684B21822514ECC
:1005500018805443316008462246002103F040FFD2
:10056000384627B10021224603F03AFF01E0336804
:100570002B60494D494F2B6843F020032B60484BBB
:100580001A6842F480721A60464B1A6842F02002E0
:100590001A60082000F0C4FD0320434900F0CCFDA0
:1005A0000420414900F0C8FD03203C2100F052FE28
:1005B0000420B02100F04EFE3C4A3D4B3D481A60FD
:1005C0003D4B1A681A603D4A3D4B1A603D4B02F59F
:1005D00000721A603C4B1A6842F002021A6053F82B
:1005E000042C42F0020243F8042C384B384A1F60B6
:1005F000012100231380538051609360D0603548FF
:10060000138204802246344CC0F802300820208037
:100610006280204CD4F800C0304CC4F800C0C2F155
:10062000000CA180E380A160C4F80CC0DFF8C4C056
:10063000C4F810C0A382E282A361A083E283276290
:10064000A384E384A16226491E460B604D600B81A2
:100650004A81CB60234B0A2119805A80224B4FF0EC
:1006600080521A604FF0402341F232021A601F4B51
:10067000B2221E701A70B3225E705A70B1229E7040
:100680009A701B4B28341860F8BD00BF1491FF1FEF
:100690000C91FF1F1091FF1FC8F00F40B89300008E
:1006A00014C00440D4F00F4000350C0000030100DA
:1006B00000A00440C4F00F4094F00F40000102007D
:1006C00000B004403490044040800440209000403A
:1006D00024900040369000403C9000404090004004
:1006E0006C9000407C9000400C0008E0011002403B
:1006F00000E100E0C0F00F4008B5054B03221A707E
:1007000000F0F6FE034B002218601A7108BD00BF0E
:100710001F800040CC8BFF1F10B5074C237943B9D5
:1007200000F0E6FE2368C01A31288CBF00200120AB
:1007300010BD012010BD00BFCC8BFF1F10B5234A98
:100740001379002BFCD1224B1968224B1868814287
:1007500005D0214B1B8818225A4303F021FD1B4C66
:1007600000F0C6FE2368C01A3128F9D91B4B1C4A79
:100770001868183308211B681160144A012111718F
:1007800018490A689A42174AFBD911689942FCD85D
:1007900011689942FCD3114900F0E7030B60124B3A
:1007A00001221A6003F580534FF400541A60A3F538
:1007B00000531C600D4B1A7002221A7003221A702B
:1007C0000B4B086008221A6010BD00BFCC8BFF1FC6
:1007D0001491FF1F1091FF1F0C91FF1F0090034009
:1007E00080E100E004900340A0A004401B80004092
:1007F00000E100E00A020B1202F47F0203F47F43DF
:1008000013430D4A10B51268C9B21943182303FBEC
:10081000002001304FF4000210F8014C0A4214BFCE
:1008200044F0200424F0200400F8014C5208013068
:10083000013BF1D110BD00BF1491FF1F0E4B10B54D
:100840001B68182202FB0030002213464FF40001FF
:10085000845C04F02004E4B204B10B430132490883
:10086000182AF5D118021A1202F47F4200F47F0010
:100870001043DBB2184310BD1491FF1FF0B5304890
:10088000304903681B06FCD40B6813F08002F8D1D2
:1008900072B62D4B1978002950D02C4908684F6842
:1008A0008E68CD680C6938181431801909684019B0
:1008B00000194018C0F34E00254940F4004008607C
:1008C000C86A0F6B4E6B8D6BCC6B3818403180193A
:1008D0000968401900194018C0F34E001D4940F442
:1008E0000040086001F10811143151F8140C51F85E
:1008F000107C51F80C6C51F8085C51F8044C0968F4
:1009000038188019401900194018C0F34E001249D8
:1009100040F400400860C86A0F6B4E6B8D6BCC6B67
:100920003818403180190968401900194018C0F37F
:100930004E000A4940F4004008601A7062B6F0BDEB
:1009400024B0034024B00B40D48BFF1F38B00340C9
:100950002CB0034030B003402CB00B4030B00B4003
:10096000224B60221A70E1225A70214B214A1978D9
:10097000214B082901D1012102E00A2907D139219F
:10098000116013221A601D4B19605A600BE00C298C
:100990001A4901D1352000E03D20106012221A6072
:1009A000174B08601A60174B17495B78174A03B159
:1009B00001230B6013600E4B154A5978154B012922
:1009C00001D880210CE0042901D8842108E00829FD
:1009D00001D8852104E0102901D8862100E0872173
:1009E00011601960074B01221A70704700400740E0
:1009F0008485FF1F08B003400CB0034008B00B40D3
:100A00000CB00B40D48BFF1F20B0034020B00B4034
:100A100024B0034024B00B400D4B5A7858B1AAB90A
:100A2000012159701B7823B10A4B1A6003F500238A
:100A30001A60FFF795BF4AB158701B78002BF8D0A9
:100A4000044B186003F500231860F2E7704700BFFD
:100A5000D48BFF1F24B003400C2810B503D91023FA
:100A6000102807D809E00A2806D8082894BF0823C8
:100A70000A2302E0184600E00C23DCB2084A0949C8
:100A8000201A90700878834209D013780C7013B143
:100A9000054B00221A60BDE81040FFF761BF10BD92
:100AA000D48BFF1F8485FF1F24B0034010B5114B6A
:100AB0001B7804460BB1FFF7E1FE012C0E4A01D86A
:100AC000002302E0042C02D8042313600EE0082C5B
:100AD00003D805231360082308E0102C03D806234D
:100AE0001360102302E0072313602023034A53708E
:100AF00010BD00BFD48BFF1F24B003408485FF1FAF
:100B00000D282DE9F0410FD9172801D80E380AE039
:100B1000A0F11A03052B01D8093804E0A0F1220343
:100B2000062B50D81838C0B2284B1C5C284B1B78B9
:100B30000BB1FFF7A3FE72B6220617D4254D244E43
:100B400001272C60F77062B672B62B6813F0800F25
:100B50001F4B04D0204A10680022DA7026E0F37898
:100B6000002BEED062B602F0B5F8EDE704F04007D6
:100B70001A4D174EFFB204F03F044FF00108184B16
:100B80001A6817B122F0100201E042F010021A6058
:100B90002C6086F8048062B672B62B6813F0800F62
:100BA0000B4B09D00F4A106800221A7162B69B786D
:100BB00040FA03F0BDE8F0813379002BDFD062B654
:100BC00002F088F8E8E70020BDE8F081B993000062
:100BD000D48BFF1F00B0034010B0034000B00B40A7
:100BE0000CB00B4010B00B400B4B1A6842F4805213
:100BF0001A600A4B5A780A4B0AB1802200E0C022E0
:100C00001A7040F6FF739842A8BF1846054B20EAB9
:100C1000E0701880704700BF2C800440D48BFF1F09
:100C200021C00C4000C00C40024B1A6801321A600F
:100C3000704700BF648CFF1F38B50B4C25462368F6
:100C4000580301D501F040FB2B68590501D500F090
:100C5000BDFE2B681A0501D501F074F82368DB048A
:100C6000EDD501F0D1F9EAE73480044008B5FFF78B
:100C7000E3FF024B10221A80704700BF002005409E
:100C80007047034A1368181810601846704700BF71
:100C90008885FF1F002070474FF0FF3070474FF4EA
:100CA00000534B6000207047012070474FF0FF3029
:100CB0007047FEE7FEE70078D0F1010038BF002062
:100CC0007047012303707047EFF313839BB9EFF371
:100CD000108098B9EFF3058323B10F2B04D9084A8C
:100CE000985C01E04FF48070EFF311833BB19842C0
:100CF00028BF184670474FF0FF30704718467047BE
:100D0000F0E300E0002300E00133C25C002AFBD1E5
:100D10001846704710B50023B0FBF2F402FB140034
:100D2000092801D8303000E03730C85420460CB1D3
:100D30000133F1E7CA185470224605E0885CCC5CA8
:100D40008C54C8540132013B9A42F7DB084610BD6F
:100D5000031E10B50C4603DBBDE81040FFF7DABFF9
:100D60002D2001F8010B5842FFF7D4FF204610BD9B
:100D7000F0B50F4687B016461C463A463346054640
:100D8000074901A803F0B2FD284602F0DBFB02464A
:100D90000B46204601A903F0A9FD204607B0F0BD8F
:100DA000D0930000084B4FF400021A604FF080729D
:100DB0001A604FF000721A604FF080621A604FF0B4
:100DC00000621A60704700BF08E100E0212830B5DA
:100DD00021D8042A1FD8DFE802F00709050B030019
:100DE0000B2306E00A2304E0082302E00C2300E0C2
:100DF0000923094A02EBC002526872B61468074D13
:100E000024F47024146044F0807444EA034345F8E9
:100E10002010136062B630BDDC930000DC8BFF1F36
:100E2000094B03EBC0035B6872B61A6822F0877245
:100E300022F4803242F080721A60044B002243F8A0
:100E4000202062B6704700BFDC930000DC8BFF1FE0
:100E5000114B10B51C68E0041C6004D50F4BDA6818
:100E60000AB1DB689847A10404D50C4B1A690AB192
:100E70001B699847A20604D5084B1A6E0AB11B6E6F
:100E80009847E30606D5054BD3F8842012B1D3F872
:100E90008430984710BD00BFA0900440DC8BFF1F3A
:100EA0001F4B10B51C68E0031C6004D51D4B1A686D
:100EB0000AB11B689847A10304D51A4B5A680AB1B6
:100EC0005B689847E20704D5164B1A6C0AB11B6C95
:100ED0009847A30704D5134B5A6C0AB15B6C98472B
:100EE000200704D50F4B9A6C0AB19B6C9847610799
:100EF00004D50C4BDA6C0AB1DB6C9847220304D59D
:100F0000084B5A6E0AB15B6E9847630306D5054BD2
:100F1000D3F8802012B1D3F88030984710BD00BFBD
:100F2000A0A00440DC8BFF1F2C4B10B51C682007D1
:100F30001C6004D52A4B5A6A0AB15B6A9847E106DD
:100F400004D5274B9A6A0AB19B6A9847620604D572
:100F5000234BDA6A0AB1DB6A9847230604D5204B93
:100F60001A6B0AB11B6B9847A00604D51C4B5A6B31
:100F70000AB15B6B9847E10704D5194BDA6B0AB1EC
:100F8000DB6B9847A20704D5154B9A6D0AB19B6D90
:100F90009847630704D5124BDA6D0AB1DB6D9847A9
:100FA000A00504D50E4BDA6E0AB1DB6E9847E10559
:100FB00004D50B4B1A6F0AB11B6F9847620504D515
:100FC000074B5A6F0AB15B6F9847230504D5044B52
:100FD0009A6F0AB19B6F984710BD00BFA0B0044044
:100FE000DC8BFF1F1E4B10B51C68E0071C6004D58E
:100FF0001C4B9A680AB19B689847210604D5194B87
:101000005A690AB15B699847E20604D5154B9A699B
:101010000AB19B699847630704D5124BDA690AB194
:10102000DB699847200704D50E4B1A6A0AB11B6A80
:101030009847A10704D50B4B9A6B0AB19B6B984755
:10104000A20604D5074B1A6D0AB11B6D98476306BB
:1010500004D5044B5A6D0AB15B6D984710BD00BFB3
:10106000A0C00440DC8BFF1F094B10B51C68A20711
:101070001C6004D5074B9A6E0AB19B6E9847E30734
:1010800004D5044BDA6F0AB1DB6F984710BD00BF7F
:10109000A0D00440DC8BFF1F014B1868704700BFD5
:1010A00000D00340044B054900221A600A60044A3C
:1010B000106010221A60704714D0034004D003401F
:1010C00000D00340002810B50FDB02024FF48073FC
:1010D00047F6FF7400E00A46A24204D9013B012B07
:1010E000C0EB0201F7D1120A11E0404202024FF4B4
:1010F000807348F2FF0400E00A46A24204D9013B93
:10110000012BC0EB0201F7D1120AC2F58072013B3C
:10111000024942EA03220A6010BD00BF0CD003401E
:1011200018B1102828BF102000E00120014B1870D2
:10113000704700BF8C85FF1F10B500234FF4377236
:1011400042FA03F4A14202D80133072BF8D1164A20
:1011500042FA03F202EB5102B2FBF1F101394FF610
:10116000FF72914228BF1146C21E012A06D80F4ABB
:101170000F4C0020106020600E480FE0421F012A33
:1011800006D9092804D00A2802D01438032809D81F
:10119000094A0A4C002010602060094843F0080307
:1011A0000160136010BD00BF006CDC0200900340C2
:1011B00004900340089003400080034004800340F3
:1011C00008800340212810B518D80D4A52F8303055
:1011D00093F880423CB1012211B183F8802010BD08
:1011E00083F8002110BD02EBC00043681A6811B1FA
:1011F00042F0030201E022F002021A6010BD00BFBB
:10120000DC930000212805D8034B53F8303093F8C5
:101210000002704700207047DC930000212816D898
:101220000B4A02EBC00301295B6852F8302004D15D
:1012300082F880124FF4A27208E0002082F8800247
:1012400011B94FF4807201E040F203121A60704746
:10125000DC930000282838B50A4604464E4B0FD1CF
:101260001B780B2B03D8C3F10C039A4003E00C2B23
:1012700001D00C3B1A411046BDE83840FFF7B4BC22
:1012800019780125002A05FA01F301DC002102E0AA
:101290009A4205D32946FFF795FF2046294676E076
:1012A000C31E012B01D83D4B06E0192801D0202890
:1012B00001D13B4B00E03B4B1B680133534323FA06
:1012C00001F3E11E1D2959D8DFE801F00F151B219C
:1012D0005858272D58585858585858585833393F47
:1012E0004558515858585858584B2F4A13604FF486
:1012F00051722E4B40E02E4A13604FF451722D4B29
:101300003AE02D4A136040F244422C4B34E02C4A20
:10131000136040F244422B4B2EE02B4A136040F204
:1013200044422A4B28E02A4A136040F24442294BA7
:1013300022E0294A136040F24442284B1CE0284A2C
:10134000136040F24442274B16E0274A136040F2F4
:101350004442264B10E0264A136040F24442254B9B
:101360000AE0254A13604FF45172244B04E0244AEA
:101370001360244B4FF451721A6038BD7F2A204607
:10138000D4BF00210121FFF71DFF20460121BDE848
:101390003840FFF743BF00BF8C85FF1F0890034014
:1013A00008800B40088003401090034030900440B8
:1013B0001890034034900440488003401CC004400F
:1013C0003080034010C00440208003400CB0044033
:1013D0002880034010B004403880034014C004400B
:1013E0004080034018C004401080034004B0044013
:1013F0001880034008B0044010800B4048A004400F
:1014000018800B404CA004402DE9F04107460E46E1
:1014100090460824012505EA08013846FFF7D2FE68
:1014200001213046FFF7CEFE002130466D00FFF768
:10143000C9FE013CEDB2EED1BDE8F0812DE9F041ED
:1014400007460E4690460824802505EA08013846DE
:10145000FFF7B8FE01213046FFF7B4FE0021304609
:10146000FFF7B0FE6D08013CEFD1BDE8F08112B985
:101470001A46FFF7C9BF1A46FFF7E0BF2DE9F04152
:1014800080460F4608240025012638460121FFF733
:1014900099FE4046FFF7B6FE00B1354300213846BD
:1014A0007600FFF78FFE013CF6B2EED12846BDE88C
:1014B000F0812DE9F04180460F4608240025802662
:1014C00038460121FFF77EFE4046FFF79BFE00B144
:1014D000354300213846FFF775FE7608013CEFD111
:1014E0002846BDE8F0810AB9FFF7C8BFFFF7E1BFA2
:1014F00072B60C4B0C491A680C4BD3F8883009684B
:1015000062B6490102D5322A88BF0133C2F5BB3227
:10151000FF326021B2FBF1F24FF47A7000FB03203E
:10152000704700BF18E000E004ED00E0DC8BFF1F17
:1015300070B50446FFF7DCFF05466CB140F2E736B4
:10154000FFF7D6FF401BB04203D9013C04D005F59C
:101550007A7501F0BFFBF3E770BD10B5FFF722FC11
:10156000154B164A164C00204BF6FF711860596057
:101570002823136093601361936113629362136372
:101580009363092222600F4C20606160A360236195
:1015900044F8042C0C4C20600C4801600C490B6092
:1015A0008B600C4B1A60FFF7DBF90420FFF7C0FFDC
:1015B000BDE8104001F0AEB9048003400C80034048
:1015C000008003400490034004800B4008800B40DF
:1015D0000C800B4000800B4070B50E2405464C4338
:1015E00003E0013C01D1002070BD2B78002BF8D125
:1015F00001E0013CF7D02B78002BFAD0FFF778FF01
:10160000064601E0013CEED02B78002BFAD1FFF723
:101610006FFF801B70BD70B50E2405464C4303E080
:10162000013C01D1002070BD2B78002BF8D001E0E7
:10163000013CF7D02B78002BFAD1FFF759FF064673
:1016400001E0013CEED02B78002BFAD0FFF750FFE1
:10165000801B70BD21280BD8064B53F8300000F5D5
:10166000007011B11146FFF7B7BF1146FFF7D3BFA6
:1016700000207047DC930000194B1A6842F4806226
:101680001A60184B00221A705A709A70DA701A7128
:10169000154B40F213321A604FF451725A60134BDB
:1016A000C0F344321A70C0F347125A7000F01F00A2
:1016B0000F4A98720221042313705174D3740D4B96
:1016C00088221A703C2203F80D2C0B4B40226FF439
:1016D0004A711A705B184FF400521A60704700BFCD
:1016E00034800440688CFF1F40A0044000A00640E6
:1016F00002A0064010A006402DE400E0134A137833
:1017000000F0030103F0EC030B43410748BF43F033
:101710001003137000F00F03042B04D10C4B1A7844
:1017200042F040021A700B4A1378C10603F0EF032F
:1017300048BF43F010031370054A1378800603F086
:10174000EF0348BF43F010031370704702A0064038
:1017500006A0064005A006400D4B1B68580510B5B5
:1017600003D410BD01F0B6FA00E00A4C2379094A0F
:10177000002BF7D108494FF400500860074908488A
:101780000B7040F20311016041601370537010BD83
:1017900034800440688CFF1F84E100E003A0064011
:1017A00040A0044038B5094B04461D79002DFCD1FA
:1017B00020460121FFF732FD20462946FFF702FDB2
:1017C000034B53F83420014B9A6038BD688CFF1FDF
:1017D000DC9300001C4B1B685A052DE9F0410646BE
:1017E00030D51A4A93680BB1012119709478174DBE
:1017F000174FDFF8648001343F2C88BF002415E0C8
:10180000FFF762FA40280DDC3B781B060ED5EB781B
:1018100001333F2B88BF0023EA18127B88F8002091
:10182000EB7003E0FF2801DD01F054FAEA78074B82
:10183000A242E5D01A19167301221A719C70054B49
:10184000BC221A70BDE8F08134800440688CFF1F10
:1018500004A0064003A0064007A0064000F00F00C9
:10186000092801D8303000E03730FFF7B3BF2DE949
:10187000F84F254B1B6807465805894642D5234B30
:101880009B680BB101221A70204C3E46A34632E001
:10189000A5789BF8038001353F2D88BF0025A8451A
:1018A00007D0631916F8012B1A7301232371A57051
:1018B00021E0174BDFF860A0BC221A70FFF704FA92
:1018C000402810DC9AF80030190610D5E37801336F
:1018D0003F2B88BF00230BEB0302117B0D4A1170D5
:1018E0008BF8033003E0FF2801DD01F0F3F9E37822
:1018F0004345E3D0D5E707EB09039E42C8D3044B29
:10190000BC221A70BDE8F88F34800440688CFF1F39
:1019100003A0064007A0064004A0064010B5044CF2
:1019200001E001F0D7F92379002BFAD110BD00BFF7
:10193000688CFF1F034A10785378984238BF4030B4
:10194000C01A7047688CFF1F084A11785378994273
:1019500008D001333F2B88BF0023D11891F84C00E9
:10196000537070474FF0FF30704700BF688CFF1F07
:10197000074A11785378994207D001333F2B88BF2B
:101980000023D31893F84C0070474FF0FF30704796
:10199000688CFF1F094B1B685B050ED5084B1A7836
:1019A00002F0CB021A70074A402111701A7842F0F7
:1019B00034021A70044B5A781A707047348004400D
:1019C00003A0064011A00640688CFF1FF0B5304B05
:1019D0001B7813F0300F21D072B62E4B197831B925
:1019E0000F3B40221B782C4B1A7062B616E062B691
:1019F0002A4B2B4C1A7858781D46531C3F2B88BF16
:101A000000238342267803D0EA1882F84C601A46F5
:101A1000013911F0FF01F0D1204B1A70214B1B78D6
:101A200018465BB2002B1EDA19490B781B061AD533
:101A30001A4A1B4E97781C4DD378BB420AD001330B
:101A40003F2B88BF00230C78D418247B34702C786B
:101A5000072CF2D9114AD3700D4B1B781A0602D508
:101A6000104B7C221A7000F04003DBB273B1084BBC
:101A70001B7803F04003DBB243B1084B00221A711C
:101A80009B6803B11A70074B3C221A70F0BD00BF6F
:101A900004A0064016A0064011A00640688CFF1F57
:101AA00007A0064003A0064014A0064038B5451E16
:101AB00007E00A2C02D10D20FFF78CFE2046FFF72D
:101AC00089FE15F8014F002CF3D138BD10B504463E
:101AD0000009FFF7C3FE2046BDE81040FFF7BEBE79
:101AE00010B50446000AFFF7F1FF2046BDE810409C
:101AF000FFF7ECBF10B50446000EFFF7E7FF200C20
:101B0000FFF7E4FF200AFFF7E1FF2046BDE81040A1
:101B1000FFF7DCBF144B1A6842F400621A60134AE4
:101B20000023137053709370D3701371104A40F2F6
:101B3000133111604FF4517151600E4AC0F34431BA
:101B40001170C0F3471100F01F0051709072937034
:101B50001374094B2C221A70084B40221A70084B40
:101B60004FF400421A60704734800440F48CFF1F29
:101B70000CB0044000B0064003B006402FE400E083
:101B800004E100E0134A137800F0030103F0EC03D2
:101B90000B43410748BF43F01003137000F00F03DD
:101BA000042B04D10C4B1A7842F040021A700B4AF5
:101BB0001378C10603F0EF0348BF43F0100313701E
:101BC000054A1378810603F0EF0348BF43F0100382
:101BD0001370704702B0064006B0064005B00640DC
:101BE0000D4B1B68180510B503D410BD01F072F839
:101BF00000E00A4C2379094A002BF7D108494FF439
:101C000000400860074908480B7040F2031101606A
:101C100041601370537010BD34800440F48CFF1F7A
:101C200084E100E003B006400CB004401A4B1B688E
:101C30001A052DE9F04106462BD5184D184FAC7802
:101C4000DFF864800134272C88BF002415E0FFF7FB
:101C50003BF840280DDC3B781B060ED5EB780133B2
:101C6000272B88BF0023EA18527988F80020EB70F0
:101C700003E0FF2801DD01F02DF8EA78074BA242CE
:101C8000E5D01A19567101221A719C70054BAC22CD
:101C90001A70BDE8F08100BF34800440F48CFF1F4F
:101CA00004B0064003B0064007B0064038B54518FA
:101CB000044603E014F8010BFFF7B8FFAC42F9D17A
:101CC00038BD10B5034C01E001F004F82379002B76
:101CD000FAD110BDF48CFF1F034A10785378984254
:101CE00038BF4030C01A7047F48CFF1F084A117883
:101CF0005378994208D001333F2B88BF0023D11875
:101D000091F82D00537070474FF0FF30704700BFBF
:101D1000F48CFF1F074A11785378994207D001339A
:101D20003F2B88BF0023D31893F82D0070474FF046
:101D3000FF307047F48CFF1F014B5A781A707047C0
:101D4000F48CFF1F10B5204B1B7803F02003DBB28F
:101D500073B11E4B1E4A18781378517801333F2B0C
:101D600088BF00238B4203D0D11881F82D00137057
:101D700018490B7818465BB2002B14DA124B1B780B
:101D80001B0610D5124A9478D3789C4202D16C235A
:101D90000B7008E00133272B88BF0023D1184C7942
:101DA0000A490C70D37000F04003DBB25BB1064B04
:101DB0001B7803F04003DBB22BB1054B00221A71F4
:101DC000044B2C221A7010BD04B0064007B0064028
:101DD000F48CFF1F03B00640154B1A6842F4805282
:101DE0001A60144A0023137053709370D3701371E8
:101DF000114A40F2133111604FF4517151600F4A92
:101E0000C0F344311170C0F3471100F01F0051704E
:101E10009072937013740A4B2C221A70094B402253
:101E20006FF44B711A705B184FF400321A607047F0
:101E300034800440618DFF1F08C0044000C006408C
:101E400003C0064031E400E0134A137800F00301B8
:101E500003F0EC030B43410748BF43F0100313703A
:101E600000F00F03042B04D10C4B1A7842F040020F
:101E70001A700B4A1378C10603F0EF0348BF43F012
:101E800010031370054A1378800603F0EF0348BF70
:101E900043F010031370704702C0064006C00640AE
:101EA00005C006400D4B1B68D80410B503D410BD07
:101EB00000F010FF00E00A4C2379094A002BF7D10B
:101EC00008494FF400300860074908480B7040F299
:101ED0000311016041601370537010BD34800440E1
:101EE000618DFF1F84E100E003C0064008C004408C
:101EF0001A4B1B68DA042DE9F04106462BD5184D24
:101F0000184FAC78DFF864800134272C88BF002498
:101F100015E0FEF7D9FE40280DDC3B781B060ED5F8
:101F2000EB780133272B88BF0023EA18527988F811
:101F30000020EB7003E0FF2801DD00F0CBFEEA7823
:101F4000074BA242E5D01A19567101221A719C70F2
:101F5000054BAC221A70BDE8F08100BF348004400C
:101F6000618DFF1F04C0064003C0064007C0064045
:101F700038B54518044603E014F8010BFFF7B8FF25
:101F8000AC42F9D138BD10B5034C01E000F0A2FE1F
:101F90002379002BFAD110BD618DFF1F034A107801
:101FA0005378984238BF4030C01A7047618DFF1F88
:101FB000084A11785378994208D001333F2B88BFE3
:101FC0000023D11891F82D00537070474FF0FF3067
:101FD000704700BF618DFF1F074A117853789942FF
:101FE00007D001333F2B88BF0023D31893F82D006F
:101FF00070474FF0FF307047618DFF1F014B5A78DB
:102000001A707047618DFF1F10B5204B1B7803F0CD
:102010002003DBB273B11E4B1E4A18781378517837
:1020200001333F2B88BF00238B4203D0D11881F8A6
:102030002D00137018490B7818465BB2002B14DA88
:10204000124B1B781B0610D5124A9478D3789C4209
:1020500002D16C230B7008E00133272B88BF0023CB
:10206000D1184C790A490C70D37000F04003DBB2F0
:102070005BB1064B1B7803F04003DBB22BB1054B81
:1020800000221A71044B2C221A7010BD04C00640A5
:1020900007C00640618DFF1F03C006401FB572B622
:1020A000124B70221A70124A412111700F2102F84E
:1020B000011C80221A701A781206FCD562B60D4BEC
:1020C00001A918680A22FEF725FE0B48002301AA81
:1020D0009A5C2AB100EB430101330A2B4A80F6D106
:1020E0000133054A5B00137005B000BD00000240DB
:1020F00007000240080002408E85FF1F70B50C4BA0
:102100000C4C1A7842F0020504EBC50682F001027D
:10211000706058781A7000280CBF8826C82646EAD6
:10212000014180F0010044F83510587070BD00BFC7
:10213000D08DFF1F0080FF1F431E032B10B510D84A
:1021400072B6094A02EB8302506840B1416851609F
:10215000064A018832F81340611A22F8131062B659
:1021600010BD002010BD00BFD08DFF1F1891FF1FB4
:10217000013803280DD8084B03EB8000436972B681
:10218000002002E01A885B688018002BFAD162B642
:1021900070470020704700BFD08DFF1F0138032813
:1021A0000CD872B6064B03EB80004369002001E0B7
:1021B0005B680130002BFBD162B67047002070478E
:1021C000D08DFF1F70B572B61A4E1B4C01239A19A1
:1021D00012F8012C02F00802D2B2F2B19900164AAC
:1021E00054F831502DB902EB431308305860134BAB
:1021F00009E041F0010154F8315075B902EBC10317
:10220000083058600E4B42F831300E4B93F82420C2
:10221000013A83F8242062B670BD0133052BD6D174
:1022200062B6084B002283F82420BDE8704000F01D
:10223000DDBB00BFEC9400000080FF1F8800400061
:10224000C8004000D08DFF1F421E032A30B533D88E
:1022500040011A4B40F01000181872B6184CA31821
:1022600093F82530032B09D8DFE803F01302150596
:102270000830022310E0083004230DE09200A31878
:10228000586908B9596101E0DB6A5960A218D16246
:1022900011E0032300E00523A21810F0080F82F8D4
:1022A000253001F108030A8843600CBF8823C82346
:1022B00043EA0243036062B630BD00BF0080FF1FE7
:1022C000D08DFF1F00BE70472DE9F74FAB4EAC4CD1
:1022D000357805F00403DBB2BBB1AA4B93F8442078
:1022E0008AB193F845202AB1013AD2B283F8452049
:1022F00002B900BEA44A13782BB1013BDBB21370C4
:102300000BB900F0CBFC0423337005F00802D2B205
:10231000002A00F0AF829D4B1B781D094FEA9309FC
:1023200040F0058204EBC903596854F83930C3F30F
:102330008303013B0C2B00F2F681DFE813F0AB01C5
:10234000AB01F401F401F401F401F401F401C90159
:10235000F401F401F4010D004B688A480A68C36473
:102360008B4B826440F2816592B244F8393001218E
:102370000023AA4203652361A361417017D8B2F517
:10238000D06F80F02C81B2F5817F00F0E58006D817
:10239000802A00F0C580822A40F04081C5E040F2EA
:1023A00002339A4200F00A81B2F5A06F16E042F2C1
:1023B0002105AA4200F06B8108D8B2F5086F00F041
:1023C000A880B2F5106F40F029810AE042F2212185
:1023D0008A4200F01E8142F221339A4240F01E816F
:1023E00020E190F84A30664D80F844302B6A180698
:1023F00003D5686A083800F0F9FA664908358D4255
:10240000F4D1DFF8B0B10025A846D9460BF1500A47
:1024100055F80B0005E04368009300F0E7FA009BD5
:1024200018460028F7D15C4B49F8050045F80A002A
:10243000E85807E042680093019200F0D7FA019A49
:10244000009B10460028F5D15851544BE850544B8E
:1024500023F81800534B18F80320023A032A08D82F
:10246000DFE802F002040204002200E0012203F887
:10247000082008F101080435B8F1040FC8D1414B18
:10248000DFF83491002283F8242001259846464B3A
:1024900005EB0902EB1812F8012C9B001A7002F0F0
:1024A0000802D2B23AB300F083FAAB0038B104EBC1
:1024B0004512083050603D4A44F8332006E044F8A5
:1024C000330098F82430013388F8243000F070FA93
:1024D000AB0043F0010338B104EBC3020830506095
:1024E0002B4A44F8332006E044F8330098F82430AF
:1024F000013388F82430AA0042F00201013542F08D
:1025000003020023052D44F8313044F83230BED1A7
:1025100089E090F84430054605F83C3F0B4687E0DB
:1025200080F83C3080F83D307FE0B0F84C20042A41
:1025300000D973E080F83C3080F83D301C4B9200AD
:10254000D3181B7803F00203DBB2002B6DD00546D5
:10255000022305F83C1F6BE0B0F84C2002F07F032B
:10256000042B5BDCB0F84A3003B157E09100104A0D
:102570008A18117821F002014EE000BF8020074048
:102580000080FF1FD08DFF1FC58EFF1F90200740CA
:10259000C80040008080FF1FE48DFF1FFC8DFF1FDF
:1025A0001891FF1FF58DFF1F30C8011088004000F3
:1025B000C0200740D48DFF1FEC940000B0F84C20E1
:1025C00002F07F03042B29DCB0F84A3003B125E088
:1025D00091009E4A8A18117841F002011CE0B0F87F
:1025E0004A20B0F84C109A4B53F8085CA3F10C0049
:1025F000A5B133F80CCC944509D133F80ACC8C45FD
:1026000005D1120A032A0CBF2B78038910E00C3382
:10261000EAE790F84A108F4A117004E08B4B0F22C2
:102620001A7034E000231D4602E0022300F13C054D
:10263000894AB2F84E904B4538BF9946B9F1400FE0
:1026400034BFC8464FF0400828464146FFF756FDC4
:10265000B9EB0809454403D1B8F1400F07D016E0A3
:10266000B9F1400F34BFC8464FF0400800E0C846FB
:1026700028464146FFF742FDB9EB0809454402D11F
:10268000B8F1400F03D1744A1565A2F86490012295
:10269000724B47E0704BB3F8482042F221039A4254
:1026A00012D16F4A0023C85C98540133072BFAD12A
:1026B0006B4B1B68862B03D1674B0F2283F8452099
:1026C00000200146FFF71AFD664B44F839302AE036
:1026D000DFF88491D9F85080B8F1000F16D0B9F81E
:1026E00064A0BAF1400F34BF554640254046294604
:1026F000FFF704FDC5EB0A039BB2A9F864300BB9E0
:10270000402D01D108EB0503534A1365524BB3F832
:102710004820B2F5A06F06D1002283F8492093F833
:102720004A20514B1A704D4B01221A708AE004EB7B
:10273000C90803F00803D8F80420013DD9B2A2F17A
:102740000800EDB2002945D000F050F9424B03EBF0
:102750008500416921B34A68426101F10802C8F865
:1027600004205A1992F82520032A10D8DFE802F035
:102770000205080B5D19032307E05D19022304E03D
:102780005D19052301E05D19042385F8253018F053
:10279000080F0A880CBF8823C82343EA02434FE08E
:1027A0005A1992F82520032A0BD8DFE802F04B4B88
:1027B00002055D19002301E05D19012385F825302C
:1027C00040E018F0080F1D440CBF0222032285F8D8
:1027D000252037E054F839301B0C22F8083C4BB365
:1027E00022F8061C42F8041C1B4A4FEA850E02EB35
:1027F0000E0194464A680AB9486001E04A6D50608B
:102800000CEB0E02DFF850A05065184A32F8151094
:102810005B1822F8153000F0CBF818B10830C8F872
:10282000040007E09AF8243044F8390001338AF8AC
:10283000243007E00B4B0E4A18F0080F08BF134670
:1028400044F839300823337042E500BFC020074008
:10285000FC940000C68EFF1FD08DFF1F9420074000
:102860002091FF1FC8004000982007401891FF1FCB
:1028700088004000E90720D51D4C1E481E4D21460A
:102880000223037001F8682B1C4BA8341D605960AB
:102890001A619A619D60DC60194B0D21197019490C
:1028A000FF230B7001F8083C0A74174A1370174B8A
:1028B0009F221A700123037018E02B0605D5104BD8
:1028C0000D221A70802203F8402C05F00203DBB2BF
:1028D0002BB10C4B1A781A70022203F8082C05F061
:1028E0001005EDB215B10A4B10221A70BDE8FE8F2B
:1028F000D08DFF1F94200740880040000080FF1FFC
:10290000C0200740882007408C20074084200740D3
:102910008020074008B5FFF7C1FB00231E491A4677
:102920005A50C8180833882B4260F9D11B4B1A68DB
:1029300042F480221A601A4B80221A701978184AC1
:102940000906FBD4144B1749C3F307200870C3F3DF
:1029500007401B0E08750B76FF2301F81C3C01F89D
:10296000143C01F88C3C137843F0400313700021B1
:10297000012302F8783C02F80C1C02F8883C0A4B50
:1029800070226FF4507C1A7063444FF400721A6026
:10299000064B10221A7008BD0080FF1F34800440CF
:1029A0000C2107409C20074049E400E00821074033
:1029B00072B60C4A1168B1FA81F30B2B02D962B6D8
:1029C000002070474FF0004020FA03F021EA000198
:1029D000116062B6044948225343C8180022CA5005
:1029E000426070472C86FF1F2082FF1F0C4B48223D
:1029F000C31AB3FBF2F30B2B11D80A4A127822B197
:102A0000094A12780AB1FFF7DDBB72B6074A4FF0E8
:102A1000004121FA03F311681943116062B670474F
:102A20002082FF1FF48DFF1F148EFF1F2C86FF1FB7
:102A300038B5114C23684BB10F4D28684288811876
:102A400001320C7A01888A4212D30CE00B4B1B78BE
:102A500013B94FF0FF340CE00320FFF76DFB20604B
:102A60000028E9D1F5E7FFF7C1FF00232B6000E064
:102A70004280204638BD00BFB88EFF1F148EFF1F56
:102A800010B50C4C23681BB10A4B1B686BB902E0F4
:102A9000094B1B7813B94FF0FF3010BD0320FFF72F
:102AA0004BFB20600028EFD1F5E75A889B18187A75
:102AB00010BD00BFB88EFF1F148EFF1F044B9888F7
:102AC000044B1B681BB11A885B88D31AC018704767
:102AD0001891FF1FB88EFF1F2DE9F0470E46814663
:102AE0004FF00008DFF868A0184F2AE09AF800308D
:102AF0004BB33B684BB90320FFF71EFB386010B3A4
:102B0000038813B9FFF772FFF5E73C6861882588F1
:102B10006D1AAE4238BF3546083148462A4661181C
:102B200001F03EFB6388A944A844761BED18238876
:102B3000ADB2AB42658004D82046FFF757FF0023B3
:102B40003B60002ED2D14046BDE8F087B88EFF1F13
:102B5000148EFF1F10B5094B1B786BB1084C206811
:102B600018B1FFF743FF002323600320FFF7E4FAC7
:102B700010B1FFF73BFFF8E710BD00BF148EFF1F39
:102B8000B88EFF1F2DE9F8432B4CDFF8B0800123EE
:102B90000D462371064647E0A3681BBB4AF2F9279E
:102BA0004FF0010998F8003013B9234A137112E06D
:102BB0000420FFF7F3FA072806D884F80490FFF7FB
:102BC000F7FEA06070B92071013F01D0237B33B1C3
:102BD000194B01221A734FF0FF30BDE8F88300F063
:102BE00079F8DFE7A1684888C0F14002954238BF14
:102BF0002A4600F10807002380182373CF19488064
:102C0000AD1A02E0F05CF85401339342FAD1F618A1
:102C10004B883F2B06D940230B800420FFF714FB81
:102C20000023A36005236373002DB5D1024B284612
:102C30001D71BDE8F88300BFB88EFF1F148EFF1F03
:102C400007B502AB012103F8010D1846FFF79AFF03
:102C50000EBD70B50F4B1B78DBB10F4CA56801267C
:102C600026714DB16B880026667304202B8029469F
:102C7000FFF7EAFAA66009E0FFF79AFE014620B1E5
:102C800004206573FFF7E0FA00E06673024B002250
:102C90001A7170BD148EFF1FB88EFF1F38B50C4C13
:102CA00025799DB9A16831B14B8804200B80FFF7CD
:102CB000CBFAA56038BDFFF77BFE014620B10420AA
:102CC000BDE83840FFF7C0BA0123637338BD00BFC9
:102CD000B88EFF1F7047FFFF0A4B4FF0FF321F29CE
:102CE00028BF1F2110B59A60186019714FF48172C6
:102CF000002303E002FB0304637001338B42F9D12C
:102D000010BD00BFC88EFF1F30B572B6104B9A6859
:102D10001879B2FA82F1814202D362B6002030BD46
:102D20004FF0004020FA01F022EA00029A601A7B7C
:102D30000132D2B21A7362B64FF4817041431C68FB
:102D4000012565546018597B914238BF5A7330BDD4
:102D5000C88EFF1F427872B60378012B02D9013B5F
:102D600003700AE0064B4FF0004121FA02F19A6825
:102D70000A439A601A7B013A1A7362B6704700BF21
:102D8000C88EFF1F30B5C3680EE0187A90420AD192
:102D900058685C7A006950F8245025B940F824102E
:102DA000087801300870DB68002BEED130BD437A23
:102DB00099424FF0000305D2026952F8210042F80F
:102DC000213070471846704738B5437A994201D38D
:102DD000002418E0036953F82140002243F8212021
:102DE000002CF5D02378012B0DD9FFF78DFF054678
:102DF00028B10230A11C4FF4807201F0D1F9237880
:102E0000013B23702C46204638BD10B54168427AFC
:102E10004B7A9A420ED872B60268D36813B9D06062
:102E200004E02346DC68002CFBD1D8600123137238
:102E30000B7262B610BD074B9A7B4AB9064AFF2156
:102E40001170064A4FF0804101201160987370475D
:102E500000207047C88EFF1F5EE400E008E100E03C
:102E6000034B4FF080421A60024B00229A73704766
:102E700088E100E0C88EFF1FF8B5164B164D1A68A2
:102E800042F080721A60154B1A6842F001021A6013
:102E9000134B2E681C690FE0237A63B121682F68F9
:102EA0000B68204698472B68E288DB1B1B0993427E
:102EB000A38088BFE3806469002CEDD1064B1A68BB
:102EC000074B921BD98A12098A429A8288BFDA82FA
:102ED000F8BD00BFFCED00E0041000E0001000E0D1
:102EE000C88EFF1F10B5084614461146FEF7BFFCFA
:102EF000204610BD084608B5FEF76CFC012008BD51
:102F0000FEF748BDFEF70ABDFEF71EBDFEF730BD59
:102F1000FEF710BD0846FEF745BCFEF71DBC48088D
:102F200000F1376000F5D830B0FBF1F0FEF7A4BB3C
:102F3000480800F1376010B500F5D830B0FBF1F06B
:102F40001446FEF799FB2046BDE81040FEF7D6BBBD
:102F5000044B00221A711A73034A4FF47A71996074
:102F60001A607047E08EFF1F5095000010B50846AC
:102F700014461146FEF79AFE204610BD084608B5D5
:102F8000FEF754FE012008BDFEF7D6BEFEF799BE3F
:102F9000FEF7ACBEFEF7BEBEFEF79EBEFEF720BE3D
:102FA000480800F1376000F5D830B0FBF1F0FEF7CB
:102FB000B1BD480800F1376010B500F5D830B0FB5E
:102FC000F1F01446FEF7A6FD2046BDE81040FEF7DE
:102FD000D9BDFFFF044B00221A711A73034A4FF444
:102FE0007A7199601A607047F08EFF1F8895000013
:102FF00010B5084614461146FEF7BAFF204610BD2C
:10300000084608B5FEF774FF012008BDFEF7F6BFBD
:10301000FEF7B9BFFEF7CCBFFEF7DEBFFEF7BEBFBF
:10302000FEF740BF480800F1B76000F55840B0FB1C
:10303000F1F0FEF7D1BE480800F1B76010B500F519
:103040005840B0FBF1F01446FEF7C6FE2046BDE83E
:103050001040FEF7F9BEFFFF044B00221A711A73ED
:10306000034A4FF47A7199601A607047008FFF1F0E
:10307000C0950000054B1A6842F400021A60044B28
:1030800000221A60034B01221A7070473C800440F2
:1030900000700340108FFF1F054B01221A60054B83
:1030A0001A6822F400021A60034B00221A7070475B
:1030B000007003403C800440108FFF1F70B54478BF
:1030C000104D23015A1942600F4A9E18866004F180
:1030D000440606730D4E06EB840406696660002400
:1030E0009C50595103219950037B5A11920002F1CF
:1030F000604202F5614203F01F03012101FA03F36C
:10310000136070BD0071034008710340108FFF1FF2
:10311000F8B50D4B1B7806460F460BB9FFF7AAFF13
:103120000024094D05F11402A25C42B974703046C6
:1031300039462C19FFF7C2FF01202075F8BD013474
:10314000042CEED10020F8BD108FFF1F037B01225D
:10315000591103F01F0302FA03F3094A42F8213020
:103160008268002313604178064A511814320B75A7
:10317000995C21B90133042BFAD1FFF78DBF704759
:1031800080E100E0108FFF1F037810B504460BB1FB
:10319000FFF7DCFF0023237010BD037870B50446F1
:1031A0000D4616461BB1FFF7D1FF002323702561A2
:1031B00020463146FFF7ACFF10B10123237000E039
:1031C0002070207870BD00BF10B50446FFF7DCFF0B
:1031D000204610BD03480449044A002300F8083F74
:1031E00000F0C6BC288FFF1FC93100008085FF1F7B
:1031F00008461146FFF7C6BC0846FFF721BDFFF79A
:1032000028BDFFF73DBCFFF713BCFFF757BCFFFF1E
:10321000044B00221A711A73034A4FF47A719960B1
:103220001A607047488FFF1FF895000050EA0102AE
:1032300001D102207047D0F1010238BF0022B1F164
:10324000004F08BF0028F4D021F000434FF6FF7173
:10325000A3F58010C7F6DF71884201D804207047BB
:10326000B3F5801F01D2032070470020C7F6F0702D
:10327000834214BF002002F00100704781F000413A
:1032800002E000BF83F0004330B54FEA41044FEA4B
:10329000430594EA050F08BF90EA020F1FBF54EAE6
:1032A000000C55EA020C7FEA645C7FEA655C00F082
:1032B000E2804FEA5454D4EB5555B8BF6D420CDD53
:1032C0002C4480EA020281EA030382EA000083EAD6
:1032D000010180EA020281EA0303362D88BF30BD76
:1032E00011F0004F4FEA01314FF4801C4CEA1131CC
:1032F00002D0404261EB410113F0004F4FEA03332B
:103300004CEA133302D0524263EB430394EA050FB5
:1033100000F0A780A4F10104D5F1200E0DDB02FA24
:103320000EFC22FA05F2801841F1000103FA0EF2B8
:10333000801843FA05F359410EE0A5F120050EF17E
:10334000200E012A03FA0EFC28BF4CF0020C43FAAF
:1033500005F3C01851EBE37101F0004507D54FF0BC
:10336000000EDCF1000C7EEB00006EEB0101B1F50C
:10337000801F1BD3B1F5001F0CD349085FEA300052
:103380004FEA3C0C04F101044FEA445212F5800F5D
:1033900080F09A80BCF1004F08BF5FEA500C50F1FA
:1033A000000041EB045141EA050130BD5FEA4C0CDD
:1033B000404141EB010111F4801FA4F10104E9D166
:1033C00091F0000F04BF01460020B1FA81F308BF5D
:1033D0002033A3F10B03B3F120020CDA0C3208DD29
:1033E00002F1140CC2F10C0201FA0CF021FA02F104
:1033F0000CE002F11402D8BFC2F1200C01FA02F174
:1034000020FA0CFCDCBF41EA0C019040E41AA2BF98
:1034100001EB0451294330BD6FEA04041F3C1CDA60
:103420000C340EDC04F11404C4F1200220FA04F080
:1034300001FA02F340EA030021FA04F345EA03012A
:1034400030BDC4F10C04C4F1200220FA02F001FAEC
:1034500004F340EA0300294630BD21FA04F029466E
:1034600030BD94F0000F83F4801306BF81F4801107
:103470000134013D4EE77FEA645C18BF7FEA655C7A
:1034800029D094EA050F08BF90EA020F05D054EA4C
:10349000000C04BF1946104630BD91EA030F1EBF51
:1034A0000021002030BD5FEA545C05D14000494155
:1034B00028BF41F0004130BD14F580043CBF01F548
:1034C000801130BD01F0004545F0FE4141F470012E
:1034D0004FF0000030BD7FEA645C1ABF1946104609
:1034E0007FEA655C1CBF0B46024650EA013406BF0A
:1034F00052EA033591EA030F41F4002130BD00BFC9
:1035000090F0000F04BF0021704730B54FF4806485
:1035100004F132044FF000054FF0000150E700BF06
:1035200090F0000F04BF0021704730B54FF4806465
:1035300004F1320410F0004548BF40424FF0000152
:103540003EE700BF42004FEAE2014FEA31014FEA95
:1035500002701FBF12F07F4393F07F4F81F06051E4
:10356000704792F0000F14BF93F07F4F704730B553
:103570004FF4607401F0004521F0004120E700BFE6
:1035800050EA010208BF704730B54FF000050AE06D
:1035900050EA010208BF704730B511F0004502D56E
:1035A000404261EB41014FF4806404F132045FEA70
:1035B000915C3FF4DCAE4FF003025FEADC0C18BF15
:1035C00003325FEADC0C18BF033202EBDC02C2F10B
:1035D000200300FA03FC20FA02F001FA03FE40EA9D
:1035E0000E0021FA02F11444C1E600BF70B54FF09D
:1035F000FF0C4CF4E06C1CEA11541DBF1CEA13557F
:1036000094EA0C0F95EA0C0F00F0DEF82C4481EAE6
:10361000030621EA4C5123EA4C5350EA013518BF06
:1036200052EA033541F4801143F4801338D0A0FBF3
:1036300002CE4FF00005E1FB02E506F00042E0FBA0
:1036400003E54FF00006E1FB03569CF0000F18BFA6
:103650004EF0010EA4F1FF04B6F5007F64F540744E
:1036600004D25FEA4E0E6D4146EB060642EAC621E1
:1036700041EA55514FEAC52040EA5E504FEACE2E4E
:10368000B4F1FD0C88BFBCF5E06F1ED8BEF1004F51
:1036900008BF5FEA500E50F1000041EB045170BDCD
:1036A00006F0004646EA010140EA020081EA030111
:1036B000B4EB5C04C2BFD4EB0C0541EA045170BD0D
:1036C00041F480114FF0000E013C00F3AB8014F187
:1036D000360FDEBF002001F0004170BDC4F10004D0
:1036E000203C35DA0C341BDC04F11404C4F1200551
:1036F00000FA05F320FA04F001FA05F240EA0200AC
:1037000001F0004221F0004110EBD37021FA04F6E1
:1037100042EB06015EEA430E08BF20EAD37070BD9B
:10372000C4F10C04C4F1200500FA04F320FA05F0FA
:1037300001FA04F240EA020001F0004110EBD370FC
:1037400041F100015EEA430E08BF20EAD37070BD6C
:10375000C4F1200500FA05F24EEA020E20FA04F345
:1037600001FA05F243EA020321FA04F001F00041F4
:1037700021FA04F220EA020000EBD3705EEA430E65
:1037800008BF20EAD37070BD94F0000F0FD101F094
:103790000046400041EB010111F4801F08BF013CCD
:1037A000F7D041EA060195F0000F18BF704703F00B
:1037B0000046520043EB030313F4801F08BF013D92
:1037C000F7D043EA0603704794EA0C0F0CEA13554E
:1037D00018BF95EA0C0F0CD050EA410618BF52EA08
:1037E0004306D1D181EA030101F000414FF000000E
:1037F00070BD50EA410606BF1046194652EA43061C
:1038000019D094EA0C0F02D150EA013613D195EA8F
:103810000C0F05D152EA03361CBF104619460AD1D7
:1038200081EA030101F0004141F0FE4141F47001E1
:103830004FF0000070BD41F0FE4141F4780170BDD1
:1038400070B54FF0FF0C4CF4E06C1CEA11541DBF36
:103850001CEA135594EA0C0F95EA0C0F00F0A7F838
:10386000A4EB050481EA030E52EA03354FEA013165
:1038700000F088804FEA03334FF0805545EA131378
:1038800043EA12634FEA022245EA111545EA106540
:103890004FEA00260EF000419D4208BF964244F1D7
:1038A000FD0404F5407402D25B084FEA3202B61AF6
:1038B00065EB03055B084FEA32024FF480104FF4CA
:1038C000002CB6EB020E75EB030E22BFB61A75463E
:1038D00040EA0C005B084FEA3202B6EB020E75EBD1
:1038E000030E22BFB61A754640EA5C005B084FEA39
:1038F0003202B6EB020E75EB030E22BFB61A754606
:1039000040EA9C005B084FEA3202B6EB020E75EB10
:10391000030E22BFB61A754640EADC0055EA060ED1
:1039200018D04FEA051545EA16754FEA06164FEA14
:10393000C30343EA52734FEAC2025FEA1C1CC0D1C0
:1039400011F4801F0BD141EA00014FF000004FF04D
:10395000004CB6E711F4801F04BF01430020B4F10E
:10396000FD0C88BFBCF5E06F3FF6AFAEB5EB030CC6
:1039700004BFB6EB020C5FEA500C50F1000041EBC3
:10398000045170BD0EF0004E4EEA113114EB5C0490
:10399000C2BFD4EB0C0541EA045170BD41F4801163
:1039A0004FF0000E013C90E645EA060E8DE60CEA6B
:1039B000135594EA0C0F08BF95EA0C0F3FF43BAF88
:1039C00094EA0C0F0AD150EA01347FF434AF95EA3F
:1039D0000C0F7FF425AF104619462CE795EA0C0F23
:1039E00006D152EA03353FF4FDAE1046194622E7F0
:1039F00050EA410618BF52EA43067FF4C5AE50EACA
:103A000041047FF40DAF52EA43057FF4EBAE12E7B9
:103A10004FF0FF3C06E000BF4FF0010C02E000BF9A
:103A20004FF0010C4DF804CD4FEA410C7FEA6C5C7D
:103A30004FEA430C18BF7FEA6C5C1BD001B050EA20
:103A4000410C0CBF52EA430C91EA030F02BF90EA0B
:103A5000020F0020704710F1000F91EA030F58BFCA
:103A6000994208BF90422CBFD8176FEAE37040F02C
:103A7000010070474FEA410C7FEA6C5C02D150EACA
:103A8000013C07D14FEA430C7FEA6C5CD6D152EA85
:103A9000033CD3D05DF8040B704700BF844610464A
:103AA00062468C461946634600E000BF01B5FFF749
:103AB000B7FF002848BF10F1000F01BD4DF808ED19
:103AC000FFF7F4FF0CBF012000205DF808FB00BFEA
:103AD0004DF808EDFFF7EAFF34BF012000205DF844
:103AE00008FB00BF4DF808EDFFF7E0FF94BF012091
:103AF00000205DF808FB00BF4DF808EDFFF7CEFF92
:103B000094BF012000205DF808FB00BF4DF808EDD0
:103B1000FFF7C4FF34BF012000205DF808FB00BFA1
:103B20004FEA410212F5001215D211D56FF47873E5
:103B3000B3EB625212D94FEAC12343F0004343EA88
:103B4000505311F0004F23FA02F018BF4042704763
:103B50004FF00000704750EA013005D111F00040ED
:103B600008BF6FF0004070474FF00000704700BF83
:103B700003460846194600F001B800BF30B40546B8
:103B80000C46134602202946224630BC02F060BA99
:103B900070B549F64C0649F64C05C0F20006C0F275
:103BA0000005761BB61007D0043D002455F8043FED
:103BB00001349847A642F9D149F6640649F64C0506
:103BC000C0F20006C0F20005761B05F039FEB61003
:103BD00008D0043D002455F8043F01349847A6421C
:103BE000F9D170BD70BD00BF48F230630146C1F627
:103BF000FF73186800F008B848F230630146C1F658
:103C0000FF73186803F01ABB2DE9F04F01F10B04A4
:103C1000162C83B0074630D924F00704E30F8C42FA
:103C20002CBF194643F0010100292FD1384600F07E
:103C30003DFCB4F5FC7F2ED24FEAD40C48F224763A
:103C4000C1F6FF7606EBCC02D368934200F01182F6
:103C5000596803F10808DA68384621F003049968C6
:103C60001B195C68CA6044F0010491605C6000F05C
:103C70001FFC404603B0BDE8F08F002310248C42A7
:103C80002CBF194643F001010029CFD00C234FF07F
:103C900000083B60EDE75FEA542C04BF4FEAD40C08
:103CA0004FEA4C0540F08F8048F22476C1F6FF764B
:103CB00006EB8505EB689D4206D10DE0002A80F2F7
:103CC0005581DB689D4207D0596821F003010A1B2A
:103CD0000F2AF3DD0CF1FF3C0CF1010C48F22472C9
:103CE0003369C1F6FF7202F1080E734508BFD2F8BE
:103CF000049022D0586820F00300011B0F2900F324
:103D000084810029C2F814E0C2F810E066DAB0F548
:103D1000007F80F04E81C1084FF0010802EBC10026
:103D2000891008FA01F851688568D86048EA0109E5
:103D3000C2F804909D60EB60836001224FEAAC03FF
:103D400002FA03F34B4554D819EA030F0DD19340FF
:103D50002CF0030C19EA030F0CF1040C05D15B00E5
:103D60000CF1040C19EA030FF9D006EBCC09E0467C
:103D70004846C268904207D15BE1002980F2838106
:103D8000D268904200F05581556825F00305291B43
:103D90000F29F2DD90461319D56844F0010058F858
:103DA000084F41F0010C50603846C3F804C0E5608C
:103DB000AC6073613361C3F80CE0C3F808E059509C
:103DC00000F076FB55E7BCF1040F00F2DE804FEA0D
:103DD000941C0CF1380C4FEA4C0565E71A1803F1F6
:103DE00008083846536843F00103536000F060FB55
:103DF0003FE7B5686B6823F0030A544504D8C4EB69
:103E00000A030F2B00F3A48048F65879D6F808145B
:103E1000C1F6FF7905EB0A020131D9F800302344DD
:103E200008BF03F1100B06D003F580530F3323F4C2
:103E30007F6323F00F0B38465946019200F020FDB6
:103E4000019A411C804600F06881824200F2318173
:103E5000D9F8043042455B44C9F8043000F066816B
:103E6000D6F8081448F22470C1F6FF70013117BF6C
:103E7000C2EB0802C0F808849B18C9F8043018F097
:103E8000070338461FBFC3F10802C3F580539044AF
:103E900003F1080208EB0B0308BF4FF480521B0527
:103EA0001B0DC3EB020B594600F0EAFC431C00F06B
:103EB0004981C8EB0001594441F00101D9F80430AF
:103EC000B54248F65872C6F808805B44C1F6FF72E6
:103ED000C8F80410C9F8043018D0BAF10F0F40F236
:103EE0000B81AAF10C00696820F007004FF0050C67
:103EF00005EB000E0F2801F0010140EA01016960A5
:103F0000CEF804C0CEF808C000F2208148F65872FE
:103F1000D9F82C10C1F6FF72B5688B42D9F8301071
:103F200088BFD36248F65872C1F6FF728B4288BFD1
:103F300013636A6822F003029442C4EB020301D8BF
:103F40000F2B05DC38464FF0000800F0B1FA90E680
:103F50002A1943F0010344F0010438466C6005F16E
:103F600008085360B26000F0A3FA82E65918DA68D4
:103F70009C6838464D6803F1080845F00105E26089
:103F800094604D6000F094FA73E6BCF1140F9CBF8E
:103F90000CF15B0C4FEA4C057FF686AEBCF1540F7A
:103FA00000F293804FEA143C0CF16E0C4FEA4C0582
:103FB0007AE6420A042A75D9142A9CBF02F15B09E9
:103FC0004FEA490508D9542A00F2C9804FEA10394E
:103FD00009F16E094FEA490506EB850548F2247898
:103FE000C1F6FF78AA68AA4279D0516821F003018E
:103FF000884202D292689542F7D1D068D6F80490F0
:10400000D8609A60D360836097E61D1941F001067D
:10401000556144F00104156138465C6003F10808FD
:10402000C5F80CE0C5F808E06E60695000F040FA91
:104030001FE608F10108083018F0030F7FF499AE6D
:104040004A461CF0030FA2F108010CF1FF3C00F0FE
:104050009E8012688A42F4D072685B0093423FF6F9
:10406000C8AE002B3FF4C5AE1A4200F09580C4469E
:104070007BE603F108025B699A4208BF0CF1020C6F
:104080003FF42CAEE4E590465519D368384658F80D
:10409000082F6968D36041F001019A60696000F0FF
:1040A00007FAE6E54FEA901909F138094FEA4905A0
:1040B00092E7B54248F22473C1F6FF733FF4C8AEED
:1040C0009D686A6822F0030236E7BCF5AA7F19D81A
:1040D0004FEAD43C0CF1770C4FEA4C05E4E501259E
:1040E000D8F804104FEAA909104605FA09F545EA7F
:1040F0000109C8F8049083E701234546C8F8043055
:10410000002219E740F254539C450BD84FEA944CD7
:104110000CF17C0C4FEA4C05C6E5B5686A6822F0E4
:10412000030209E7FC254FF07E0CBDE51105090DE2
:1041300000297FF495AEB2680BEB0A0141F0010152
:104140005160E3E601214FF0000BB7E6384605F178
:104150000801019203F072F8019A5368D6E6B2F5AD
:10416000AA7F06D84FEAD03909F177094FEA490505
:1041700032E740F25451FC258A424FF07E099EBF3F
:104180004FEA904909F17C094FEA490524E7726832
:1041900022EA0302726060E75B0008F1040863E74B
:1041A000032A2DE9F00F09D82AB10023CC5CC454AE
:1041B00001339342FAD1BDE8F00F70478307024400
:1041C0000ED0441C4D1C15F8017C04F00306234658
:1041D00001342946013504F8027C002EF3D100E0B9
:1041E000034611F003046DD0D71A0D1B032F2E6860
:1041F00019DDC4F1040C4FEAC4081C1D4FEACC0CB5
:1042000055F8047FC4EB0209234604310434B9F1A4
:10421000030F26FA08FA07FA0CFB3E464BEA0A0798
:1042200044F8087CECDC9A42C5D9013301310132F3
:1042300011F8014C01330131934203F8024CF7D1DC
:10424000B9E70C684033403143F8404C51F83C4CDE
:1042500043F83C4C51F8384C43F8384C51F8344C46
:1042600043F8344C51F8304C43F8304C51F82C4C56
:1042700043F82C4C51F8284C43F8284C51F8244C66
:1042800043F8244C51F8204C43F8204C51F81C4C76
:1042900043F81C4C51F8184C43F8184C51F8144C86
:1042A00043F8144C51F8104C43F8104C51F80C4C96
:1042B00043F80C4C51F8084C43F8084C51F8044CA6
:1042C00043F8044CD41A3F2CBBDC11E00C681033CB
:1042D000103143F8104C51F80C4C43F80C4C51F889
:1042E000084C43F8084C51F8044C43F8044CD41AD9
:1042F0000F2CEBDC032C96DD1C1D0D1D55F8047CEA
:10430000161B2346294604340435032E44F8087C42
:10431000F4DC88E78842F0B411D98C18A0420ED2A0
:104320008518531E4AB121462A4611F8014D013B1A
:10433000B3F1FF3F02F8014DF7D1F0BC70470F2AEF
:1043400047D941EA00039B0745D10C460346154671
:10435000266810331034103D0F2D43F8106C54F8BC
:104360000C6C43F80C6C54F8086C43F8086C54F867
:10437000046C43F8046CEBD8A2F1100502F00F04B2
:1043800025F00F051035032C00EB0503294424D933
:10439000A4F1040C1D460C464FEA9C0C01EB8C0763
:1043A000043754F8046BBC4245F8046BF9D10CF1A6
:1043B000010402F00302A40009191B19002ABCD051
:1043C00001399A1811F8014F03F8014B9342F9D1C2
:1043D000B3E70346F2E70346F2E72246EEE700BF03
:1043E000032AC9B270B408D82AB10346121803F8D8
:1043F000011B9342FBD170BC70478307024409D074
:10440000441C04F00305234604F8011C0134002D6C
:10441000F7D100E00346D51A01EB01243F2D04EB50
:1044200004442CDD1C604033D51A43F83C4C3F2D2E
:1044300043F8384C43F8344C43F8304C43F82C4C98
:1044400043F8284C43F8244C43F8204C43F81C4CC8
:1044500043F8184C43F8144C43F8104C43F80C4CF8
:1044600043F8084C43F8044CDCDC08E01C601033D3
:10447000D51A43F80C4C43F8084C43F8044C0F2D64
:10448000F4DC032D08DD1D1D561B45F8044C032EDE
:104490002B4605F10405F7DC9A42ACD90133013211
:1044A00003F8011C01339342FAD1A4E7704700BF1F
:1044B000704700BF2DE9F04F0C4683B08146174688
:1044C000002900F01C8107F10B05FFF7EFFF54F8FE
:1044D000042C162DA4F1080A22F0030675D8102129
:1044E00000230D46BD4238BF43F00103002B40F0CE
:1044F0000C818E426EDA48F2247B0AEB0600C1F68C
:10450000FF7BDBF808E0864500F00481D0F804C0AA
:104510002CF001088044D8F8048018F0010F1CBF6B
:104520009C4660466FD0D30700F1C38054F8083C26
:10453000C3EB0A035A6822F0030292190192002881
:104540006CD0704500F037810CEB0208884565DBC4
:10455000C1681F468068321F242A8860C16057F8EE
:10456000080FD968C160886000F27881132A9CBF67
:10457000394620461FD921681B2A98BF04F108003C
:1045800099606168D96098BF03F1100113D9A168DF
:10459000242A14BF04F1100004F118001961E16825
:1045A000596111BF03F11801226903F120019A61D9
:1045B00004BF6269DA6102683C460A609A46426852
:1045C0004A6082688A605A6805E025F00705294636
:1045D000EB0F87E7B046C5EB08030F2B55D80AEB66
:1045E000080302F0010242EA0802CAF804205A68ED
:1045F00042F001025A6048462746FFF759FF384605
:1046000003B0BDE8F08F2CF0030C0CEB06088845D6
:1046100089DBC3688168CB609960DCE7019A8A42D4
:1046200047DB1F46D968321F57F8080F242AC1609C
:10463000886000F2B180132A9CBF394620461FD9FA
:1046400021681B2A98BF04F1080099606168D9604D
:1046500098BF03F1100113D9A168242A14BF04F1F3
:10466000100004F118001961E168596111BF03F1EC
:104670001801226903F120019A6104BF6269DA61BD
:1046800002683C46DDF8048097E70AEB050102F07A
:104690000102CE18154343F00103CAF804504B60E1
:1046A00048467368083143F00103736002F0C6FDA9
:1046B000A1E739464846FFF7A7FA0746D8B154F8AC
:1046C000042CA0F1080122F001035344994200F0A8
:1046D000BF80321F242A6AD8132A9CBF0346224671
:1046E00039D8116819605168596092689A604846D3
:1046F000214602F0A3FD4846FFF7DAFE7FE71146A8
:1047000003B0BDE8F04FFFF77FBA0C230027C9F8CC
:10471000003074E7DEF8043005F1100023F0030CDC
:104720000CEB06038342B8BF7046FFF6FCAE0AEB03
:1047300005025B1B43F0010348465360274654F8CB
:10474000043CCBF8082003F001031D4344F8045C4B
:10475000FFF7AEFE53E723681B2A98BF04F1080257
:1047600003606368436098BF00F10803B9D9A36888
:10477000242A14BF04F1100204F118028360E368D4
:10478000C36011BF00F11003216900F1180301613A
:1047900004BF61694161A4E7214638460093FFF7F1
:1047A000B9FD9DE808013C469A465A6813E7214640
:1047B000FFF7B0FD9BE7019805F110020CEB000834
:1047C0009045FFF62BAF1F46D968321F57F8080FE8
:1047D000242AC16088604BD8132A9CBF3A462146E0
:1047E0001FD921681B2A98BF03F1100299606168E4
:1047F000D96098BF04F1080113D9A168242A14BF15
:1048000003F1180203F120021961E168596111BF37
:1048100004F11001206904F11801986104BF606976
:10482000D8610868106048685060896891605A19BA
:10483000C5EB080141F00101484651605968CBF8C9
:10484000082001F001010D435D60FFF731FED6E65F
:1048500050F8043C23F00308B044BCE62146384637
:104860000093FFF757FD009B3C469A465A68B2E614
:10487000384621460093FFF74DFD009BD7E700BF68
:1048800038B549F22814C1F6FF74054608460023DE
:104890002360FCF7F6F9431C00D038BD2368002BD9
:1048A000FBD02B6038BD00BF0CB4F0B59DB022AC7E
:1048B0000E4602A96FF0004554F8042B4FF402771E
:1048C00004952346079502964FF6FF75ADF81470D0
:1048D0000696ADF81650019400F01EF9029B0022D6
:1048E0001A701DB0BDE8F04002B070470EB448F237
:1048F0003063F0B59CB021ACC1F6FF73064602A947
:1049000054F8042B6FF0004518684FF402772346E3
:10491000049507954FF6FF750296ADF8147006964C
:10492000ADF81650019400F0F7F8029B00221A70BF
:104930001CB0BDE8F04003B0704700BF80EA010240
:1049400012F0030F40F03A8010F0030220F0030051
:1049500021F0030150F804CB08BF51F8043B0DD0FF
:1049600082F003024FEAC2026FF07F4323FA02F2A1
:1049700051F8043B4CEA020C43EA0203ACF1013269
:104980009C4501BF22EA0C0212F0803F50F804CB94
:1049900051F8043BF2D04FEA0C604FEA1C2C01287E
:1049A00028BFB0EB036F08BF1B0AF4D003F0FF036E
:1049B0004FEA1060A0EB0300704700BF10F0030F38
:1049C0000AD010F8012B11F8013B012A28BF9A42A6
:1049D000F4D0A2EB030070474DF8045D4DF8044D90
:1049E0004FF0010242EA022242EA024201F0030CC5
:1049F00021F0030150F8044B51F8045BBCF1020FA5
:104A000026D04BD824F07F4CBCEB152FA4EB02032F
:104A100023EA04030DD113EAC21308BF51F8045B63
:104A20000AD18CEA040CBCEB056F0CD150F8044B96
:104A3000E8E74FEA15255CE033F07F4352D10D786B
:104A40004FEA146C55E04FEA146C05F0FF0550E096
:104A50004FEA044CA4EB02034FEA1C4C23EA040384
:104A6000BCEB154F17D113EAC21308BF51F8045B12
:104A700007D18CEA040CBCEB054F08D150F8044B6D
:104A8000E6E71B042ED10D884FEA144C31E04FEAC3
:104A900005454FEA144C4FEA15452AE004F0FF0C97
:104AA000BCEB156FA4EB020323EA04030DD113EA58
:104AB000C21308BF51F8045B0AD18CEA040CBCEBAA
:104AC000052F0AD150F8044BE8E74FEA156510E0CE
:104AD00014F0FF0F06D051F8045B4FEA142C25F0B8
:104AE0007F4506E04FF000005DF8044B5DF8045B85
:104AF00070470CF0FF0205F0FF00012828BF90422C
:104B000004BF4FEA1C2C2D0AF3D0A2EB00005DF885
:104B1000044B5DF8045B70472DE9F04FC9B089463E
:104B20001446119300260F9002F08EFC0027CDE969
:104B30001E6700681C90FCF7E5F8B9F80C3003F02C
:104B400080031BB21D9023B1D9F81030002B01F067
:104B5000DD800DF1E00B49F24465D84649F240662C
:104B600049F23C670A9449F238640023C0F2000518
:104B7000C0F20006C0F20007C0F2000412931A93BC
:104B800020930C931895199616971794CDF8ACB0FE
:104B90002D932C93CDF824900A9D2B78252B18BFAC
:104BA000002B00F0B9806A1C164601323378252BA1
:104BB00018BF002BF8D10A9C371B10D02C9C0A98E8
:104BC00001342D9D072C88E881003D442C94D8BFEA
:104BD00008F108082D957EDC0C9CE4190C943378C0
:104BE000002B00F0D387751C777800234FF0FF3936
:104BF0000D9320208DF88B302B2108932B460A959E
:104C00000133A7F12002582A00F24882DFE812F0AF
:104C1000EC0246024602DB02460246024602460219
:104C200046024602E102860046025D008A00460214
:104C3000A900AF00AF00AF00AF00AF00AF00AF0002
:104C4000AF00AF0046024602460246024602460256
:104C50004602460246024602C00084014602840122
:104C60004602460246024602BC0146024602C20114
:104C700046024602460246024602DF01460246025C
:104C8000EC0146024602460246024602460246023F
:104C900046024602460271025802840184018401E0
:104CA0006B025802460246023C024602B5028502E9
:104CB0009A020B02460211024602C702460246024F
:104CC000F5020D9E119276420D96089F47F004075B
:104CD00008971F7894E70F982BAA099903F098F882
:104CE00048B9D84678E70F982BAA099903F090F8AD
:104CF000002800F07083DDF82490B9F80C300C9C8B
:104D000003F040031BB2002B18BF4FF0FF340C948C
:104D10000C9849B0BDE8F08F0A9E60E78DF88B10C3
:104D20001F786DE71C4614F8017B2A2F01F066817D
:104D3000A7F13002092A84BF23464FF000093FF64D
:104D400060AF4FF0000914F8017B09EB890902EB11
:104D50004909A7F13002092A2346F4D949EAE97939
:104D60004FE7089E46F0800608961F7848E71C46E5
:104D70000022A7F1300614F8017B02EB8202A7F1B2
:104D800030052346092D06EB4202F2D90D9238E791
:104D9000089C0A9344F010040894089DAD0640F165
:104DA0009481119EF31D23F0070303F1080411946D
:104DB000D3E9002314461D46002A73F10006C0F211
:104DC000FF8554EA05004FF001030CBF00220122C9
:104DD000B9F1000FA2BF089E26F080060896B9F12F
:104DE000000F18BF42F00102002A00F05C83012B83
:104DF00000F09F84022B00F07A840DF1DF00BC46A6
:104E0000E108072604EA060241EA4571EE080C466D
:104E1000354603463032013854EA0507D2B21A70DB
:104E2000EED1089C67461493E40700F1BD85C3EBFF
:104E30000B050E959DF88B300E9ECDF840904E459B
:104E4000B8BF4E464FF000090B96CDF86C902BB1D1
:104E5000DDF82C9009F10109CDF82C90089B13F096
:104E60000203139302D00B9C02340B94089D15F09F
:104E70008405159540F0D7810D9C0B9D661B002E77
:104E800040F3D181102E49F2186A2D9DC0F2000A1C
:104E90002C9C28DD21974FF010095746B2460F9EF3
:104EA00004E0AAF1100ABAF1100F19DD013410352F
:104EB000072C88E880022C9408F108082D95F0DD75
:104EC000304609992BAAD84602F0A2FF00287FF4A9
:104ED00012AFAAF1100A2D9DBAF1100F2C9CE5DC3F
:104EE0005646BA46219F0134C8F800A0072CC8F8DE
:104EF000046035442C942D95D8BF08F1080840F380
:104F000093810F982BAA099902F082FF00287FF461
:104F1000F2AE2D9DD84687E1089C0A93210740F107
:104F20007C85119DE91D21F0070101F1080611960C
:104F30000E684D6830462946CDE91E0130462946A7
:104F4000FEF774F90128304640F04B85002200231B
:104F50002946FEF7BDFD002840F065879DF88B309F
:104F60000324169E0B940025089CDDF85C90109598
:104F700024F08004472FD8BF4E4603251496002600
:104F800008940E951B9662E7089F47F0080708975C
:104F90001F7835E6089C0A9344F010040894089D95
:104FA00015F0200300F0BF80119E0023F21D22F0B7
:104FB000070202F108041194D2E9004554EA0506FB
:104FC0000CBF0022012200218DF88B1000E7089C05
:104FD0000A9344F010040894089DAD0640F1E48063
:104FE000119E0123F21DE2E7089D49F24864C0F2D8
:104FF00000040A93A9061A9440F10981119EF31D39
:1050000023F0070303F108041194D3E90045089E37
:10501000F60700F1DB8354EA05004FF002030CBFF2
:1050200000220122CFE7089F47F0200708971F784A
:10503000E6E5119E00248DF88B400A93366814969D
:10504000119E351D149E002E00F0DC86B9F1000F74
:105050001498C0F2A88621464A4602F007FA0028B2
:1050600000F04187149E1094801B0E90484540F339
:10507000A285119529EAE974109D0B949DF88B3057
:10508000CDF838901B95E2E61F781A466C2F00F099
:105090008A85089E46F010060896B1E50A93002F0F
:1050A00000F07485012400232EAD0B948DF8B870A8
:1050B0000E948DF88B301495002510951B95CDE638
:1050C000089D0A93AD063FF56CAE089DEC0640F1D5
:1050D000AD84119E043656F8043C11961C461A46BF
:1050E000DD172B4668E6089C44F0400408941F78BE
:1050F00086E50A934FF00109119B0022119C2EAE08
:10510000CDF82C901B680434CDF8389011948DF8AC
:105110008B2014968DF8B830CEE7089D0A9315F0D1
:1051200020037FF441AF089C14F0100200F08C843F
:10513000119D2E1D11962A681446003218BF0122B7
:10514000002540E70A937827119B49F25C66089D89
:10515000C0F200061C1D11941A6845F0020508955E
:10516000002530231446521B8DF88C3018BF0122C5
:105170008DF88D701A96022325E7089F0A93BA06C8
:1051800040F18084DDF844900C9A09F1040959F843
:10519000043CD117CDF844901A605960FCE4089D96
:1051A0000A93AD063FF51CAF089CE40640F18584E8
:1051B000119D2E1D11962A6801231446003218BF36
:1051C00001220025FFE6089F47F0010708971F7896
:1051D00016E5119C119D24682A1D002C0D94FFF6E4
:1051E00070AD1F7811920BE59DF88B20002A40F0DE
:1051F000F5838DF88B001F7802E5089D49F25C6607
:10520000C0F200060A93A9061A963FF5F7AE089D6C
:10521000EA0640F12B84119E0025043656F8043C22
:1052200011961C46F3E62D9D9DF88B308BB12C9C7E
:105230000DF18B03C8F8003001230134C8F80430A5
:10524000072C1D442C94D8BF08F108082D9500F3B5
:10525000E681139E86B12C9C23ABC8F80030022354
:105260000134C8F80430072C1D442C94D8BF08F131
:1052700008082D9500F3DE81159B802B00F0278117
:10528000109C0E9BC3EB0409B9F1000F42DDB9F18C
:10529000100F2C9CD8BF984E27DD974E4FF0100A68
:1052A000109737460F9E04E0A9F11009B9F1100FCD
:1052B00019DD01341035072C88E880042C9408F19E
:1052C00008082D95F0DD304609992BAAD84602F042
:1052D0009FFD00287FF40FADA9F110092D9DB9F1B4
:1052E000100F2C9CE5DC3E46109F013488E84002FC
:1052F000072C4D442C94D8BF08F108082D9509DDE2
:105300000F982BAA099902F083FD00287FF4F3ACD3
:105310002D9DD846089EF10562D42C9C0E9F013429
:10532000149E072C3D4488E8C0002D952C9400F372
:10533000678108F10808DDF8209019F0040F3FD0CC
:105340000D9C0B9FE61B002E3ADD102E49F2186AC9
:105350002C9CC0F2000A20DD1027DDF83C9002E012
:10536000103E102E19DD01341035072CC8F800A0AE
:10537000C8F8047008F108082C942D95F0DD484613
:1053800009992BAAD84602F043FD00287FF4B3AC5C
:10539000103E2D9D102E2C9CE5DC0134C8F800A099
:1053A000072CC8F8046035442C942D9508DD0F981F
:1053B0002BAA099902F02CFD00287FF49CAC2D9DAE
:1053C0000C9C0B9F0D9EB742ACBFE419A4190C9422
:1053D000002D7FF488AC0023D8462C93FFF7DCBB6C
:1053E000652F40F3C380DDE91E0100220023FEF794
:1053F00065FB002800F029812C9C49F27863C0F2FB
:105400000003C8F8003001340123072CC8F8043029
:105410001D442C942D95D8BF08F1080800F355833E
:10542000249B129FBB4204DBDDF8209019F0010F92
:1054300081D02C9C1D9E01341C9F072C3544C8F83C
:105440000460C8F80070D8BF08F108082D952C94A6
:1054500000F34884129C671E002F7FF76CAF102F5B
:105460002C9C40F3C6814FF01009234EDDF83CA080
:1054700003E0103F102F40F3BD8101341035072C9D
:1054800088E840022C9408F108082D95F1DD50467B
:1054900009992BAAD84602F0BBFC00287FF42BAC5C
:1054A0002D9D2C9CE5E7002B40F0B580089CE00783
:1054B0005CBF0E93CDF850B07FF5BCAC48AB30224A
:1054C00003F8412DC3EB0B0514930E95B2E40D9C2C
:1054D0000B9EC6EB0409B9F1000F7FF7D1AEB9F10D
:1054E000100F2C9CD8BF044E29DD034E4FF0100A3C
:1054F000139737460F9E06E028960000A9F1100981
:10550000B9F1100F19DD01341035072C88E880043B
:105510002C9408F108082D95F0DD304609992BAA46
:10552000D84602F075FC00287FF4E5ABA9F110091C
:105530002D9DB9F1100F2C9CE5DC3E46139F0134E4
:1055400088E84002072C4D442C94D8BF08F1080885
:105550002D957FF795AE0F982BAA099902F058FC6C
:1055600000287FF4C8AB2D9DD84689E6129C012CFB
:105570002C9C40F3CD810134149E01350123072C6E
:10558000C8F80430C8F80060D8BF08F108082D95A5
:105590002C9400F3CF8101341D9E1C9F072C3544B1
:1055A000C8F80460C8F80070D8BF08F108082C9447
:1055B0002D9500F3CB81DDE91E0100220023FEF7CB
:1055C0007DFA002840F0C480129F0134149E7B1E97
:1055D000C8F80430721C072CC8F800201D442C9415
:1055E0002D9500F3E78008F108080134209F072C6F
:1055F00027AB3D4488E888002D952C947FF799AE21
:105600000F982BAA099902F003FC00287FF473ABD2
:10561000D8462D9D8FE60E92CDF850B00AE40F9833
:105620002BAA099902F0F4FB00287FF464AB2D9DAE
:10563000D8460EE60F982BAA099902F0E9FB00283C
:105640007FF459AB2D9DD84616E6249F002F40F3DA
:105650004782129EDDF86C90149C4E45A8BF4E46C2
:10566000129F002E04EB070A0FDD2C9CAD19149835
:105670000134C8F80460072CC8F80000D8BF08F14E
:1056800008082D952C9400F39C831B9C26EAE67653
:10569000A71B002F40F3D380102F2C9CD8BFB14EF6
:1056A00040F3B880AF4E4FF01009CDF838A0BA469D
:1056B00037460F9E05E0AAF1100ABAF1100F40F329
:1056C000A58001341035072C88E880022C9408F15D
:1056D00008082D95EFDD304609992BAAD84602F02F
:1056E00097FB00287FF407AB2D9D2C9CE3E71A9EC7
:1056F0000DF1DF01C246CDF82C904FF00F082309C1
:1057000004EA080243EA0573B2184FEA151C1C4666
:10571000654612780846013954EA05090270ECD151
:10572000C0EB0B031490D046DDF82C900E93FFF7DE
:1057300081BB002D08BF0A2C80F0168148AB3034A5
:1057400003F8414DC3EB0B0514930E95FFF772BBA5
:10575000129E771E002F7FF748AF102F814EC4BFD7
:105760004FF01009DDF83CA003DC1AE0103F102FC9
:1057700017DD01341035072C88E840022C9408F11D
:1057800008082D95F2DD504609992BAAD84602F05B
:105790003FFB00287FF4AFAA103F2D9D102F2C9CBB
:1057A000E7DC013488E8C000072C3D442C942D959B
:1057B0007FF719AF0F982BAA099902F029FB00284F
:1057C0007FF499AAD8462D9D2C9C0EE70022022337
:1057D00054EA05013FF4F7AB089E30238DF88D7035
:1057E00001228DF88C3046F0020602230896FFF75E
:1057F000EABB5C4E0134C8F80060072CC8F804709E
:105800003D442C942D957FF794ADF9E63E465746DE
:10581000DDF838A0013488E8C000072C3D442C9402
:10582000D8BF08F108082D9509DD0F982BAA099912
:1058300002F0EEFA00287FF45EAA2D9DD846249B44
:10584000129C149EDDF86C90A34206EB090742DB24
:10585000089EF2073FD4129CC7EB0A06E31AB34234
:10586000B8BF1E46002E0EDD2C9CAD19C8F8007086
:105870000134C8F80460072C2D952C94D8BF08F18A
:10588000080800F3A98226EAE6769F1B002F7FF71F
:1058900052AD102F2C9CACDD4FF01009314EDDF8CD
:1058A0003CA002E0103F102FA4DD01341035072C7E
:1058B00088E840022C9408F108082D95F2DD504646
:1058C00009992BAAD84602F0A3FA00287FF413AA5C
:1058D0002D9D2C9CE6E71D9E2C9CAD191C9E013431
:1058E000072CC8F800601D9EC8F80460D8BF08F1F6
:1058F00008082D952C94AEDD0F982BAA099902F07B
:1059000087FA00287FF4F7A9249BD8462D9DA2E7AB
:10591000089EF3073FF52FAE0134149E0135012395
:10592000072CC8F80430C8F800602D952C947FF738
:105930005AAE3FE70F982BAA099902F069FA00289E
:105940007FF4D9A92D9DD8462C9C24E60F982BAA2C
:10595000099902F05DFA00287FF4CDA92D9DD84663
:105960002C9C28E6289600000DF1DF0620462946EB
:105970000A22002303F09AF9B24620462946002362
:10598000013E02F130040A228AF8004003F08EF949
:1059900004460D4654EA0500E8D1CAEB0B03CDF8E6
:1059A00050A00E93FFF746BA302A00F02382C0EBD6
:1059B0000B04302214900E9403F8012CFFF73ABA2E
:1059C000644265EB45052D2354EA05018DF88B30C3
:1059D0000CBF002201220123FFF7FAB91F78FFF75D
:1059E0000FB92946FDF722FC002840F0FF80089EF1
:1059F0004FF00309189C199D26F08006CDF82C90D5
:105A0000472FD8BF2C461090149408969DF88B30E1
:105A1000CDF838901B90FFF71ABA119CE11D21F0C8
:105A2000070101F108051195FFF782BA089C60068D
:105A300040F14E81119E043636F9044C11962246EF
:105A4000E5172B46FFF7B8B9089C14F0400300F0A7
:105A5000C280119E134634880025043654EA05009E
:105A600011960CBF00220122FFF7ADBA089C630615
:105A700040F14481119E0025043636F8044C1196FD
:105A8000FFF7C5BA089CE3060ED4089F7E060BD527
:105A9000DDF844900C9C09F1040959F8043CCDF858
:105AA00044901C80FFF778B8119D0C9E043555F882
:105AB000043C11951E60FFF76FB8089C600640F12A
:105AC0008480119E01233488C6E70F982BAA099978
:105AD00002F09EF900287FF40EA92D9DD8469FE480
